:020000040800F2
:10000000100A002001010008BB1C0008E5170008C9
:10001000B91C0008030200087D240008000000004D
:100020000000000000000000000000009B1E00080F
:100030000502000800000000C51D00089D1E000804
:100040001B0100081B0100081B0100081B01000820
:100050001B0100081B010008070200081B01000823
:100060001B0100081B0100081B0100081B01000800
:100070001B0100081B0100081B0100081B010008F0
:100080001B0100081B0100081B0100081B010008E0
:100090001B0100081B0100081B0100081B010008D0
:1000A0001B0100081B0100081B0100081B010008C0
:1000B0001B0100081B0100081B0100081B010008B0
:1000C0001B0100081B0100081B0100081B010008A0
:1000D000C91D0008712400081B0100081B0100084D
:1000E0001B0100081B0100081B010008DFF80CD0F1
:1000F00000F046F80048004755480008100A002064
:100100000648804706480047FEE7FEE7FEE7FEE7B1
:10011000FEE7FEE7FEE7FEE7FEE7FEE7ED1F00086D
:10012000ED00000840EA01039B0703D009E008C97D
:10013000121F08C0042AFAD203E011F8013B00F8AC
:10014000013B521EF9D27047D2B201E000F8012BF8
:10015000491EFBD270470022F6E710B513460A4647
:1001600004461946FFF7F0FF204610BD034611F87C
:10017000012B00F8012B002AF9D118467047000026
:10018000064C074D06E0E06840F0010394E80700E4
:1001900098471034AC42F6D3FFF7ACFFFC4F000891
:1001A0001C50000870B58D1810F8014B14F00302B4
:1001B00001D110F8012B231106D110F8013B03E007
:1001C00010F8016B01F8016B521EF9D1ABB110F8B8
:1001D000012B04F00C048A1A0C2C03D0A2EB84121D
:1001E0009B1C08E010F8014BA2EB0422F8E712F880
:1001F000014B01F8014B5B1EF9D5A942D4D3002075
:1002000070BDFEE77047012000F060B810B590F8AF
:1002100021100024022903D00421816301243DE040
:1002200001680A6822F00E020A6001680A6822F07A
:1002300001020A601A4A0168914201D1012121E0BC
:10024000174A1432914201D110211BE0144A28327E
:10025000914201D1891515E0114A3C32914201D1F8
:1002600089140FE00E4A5032914202D14FF480318E
:1002700008E00B4A6432914202D14FF4801101E050
:100280004FF08071064A083A5160012180F8211030
:10029000002180F82010416B01B18847204610BD35
:1002A0000800024070B5044600F004F90546601CE1
:1002B00002D004480078044400F0FCF8401BA0423F
:1002C000FAD370BDD002002070470000044910B579
:1002D0000A68024202D00860FFF7F6FF10BD000076
:1002E000140401402DE9F84FDFF890A100220AF133
:1002F000040B144601274FF00F090BF1040E00BF49
:100300000B6807FA04F52B40AB4274D1DFF870C1DB
:100310004E68A6EB0C0866452BD00DDC032E34D0BE
:1003200005DC36B3012E19D0022E2FD11BE0112E81
:1003300016D0122E2AD119E0B8F5881F19D006DC84
:10034000B8F5803F15D0B8F5801F1FD111E0B8F582
:10035000001F0ED0B8F5041F18D10AE0CA6815E0D6
:10036000CA68121D12E0CA6808320FE0CA680C326F
:100370000CE08A682AB1012A4FF0080203D04561D7
:1003800004E0042202E0056100E00022FF2B01D816
:10039000064601E000F104064FEA840501D9A5F103
:1003A0002005D6F800C009FA05F82CEA080C02FA74
:1003B00005F54CEA050CC6F800C04D68ED0057D5B0
:1003C000304DAE6946F00106AE61AD6924F003061A
:1003D00005F0010500952C4D06EB050CDCF80850E6
:1003E000A6074FEA167809FA08F6B543274EB04239
:1003F00002D1002610E03BE0254EB04201D101269B
:100400000AE0244EB04201D1022605E0224EB0425D
:1004100001D1032600E0042606FA08F62E43CCF8A4
:1004200008604D68DAF80060ED03554601D51E43BB
:1004300000E09E432E604D68DBF80060AD035D4632
:1004400001D51E4300E09E432E604D68DEF800603B
:10045000ED02754601D51E4300E09E432E604D68B7
:10046000AD020E4D2E6801D51E4300E09E432E6066
:10047000641C102CFFF444AFBDE8F88F0004014069
:10048000000011100010024000000140000801406F
:10049000000C014000100140001401400C04014018
:1004A0008068084000D0012070470AB101617047A0
:1004B0000904FBE70148806870470000D002002073
:1004C00070B504001BD094F83D00002520B984F8D5
:1004D0003C50204600F038FA242084F83D00206883
:1004E000016821F00101016000F0D0FB404A616821
:1004F000914201D83F4900E03F49884201D20120A2
:1005000070BD3E492368B0FBF1F1596063689342C6
:1005100006D94FF4967359434FF47A73B1FBF3F154
:100520002368491C19626168914210D84900401E35
:10053000B0FBF1F2521CC2F30B02042A01D20420D8
:1005400022E0B0FBF1F0401CC0F30B001CE0A368FC
:10055000CBB301EBC10202EB0116421EB2FBF6F275
:10056000521C42F48042120536D06BB301EBC1023B
:1005700002EB0111401EB0FBF1F0401CC0F30B0078
:1005800040F4804040F400402168C861D4E907018C
:10059000084321680860D4E9031008432168886093
:1005A000D4E9050108432168C8602068016841F06A
:1005B000010101602564202084F83D00256384F852
:1005C0003E50002070BD00E008E001EB4106421EF5
:1005D000B2FBF6F2521CC6E70120D5E701EB410160
:1005E000401EB0FBF1F0401CC0F30B00CAE7000056
:1005F000A086010080841E0000093D0040420F00DB
:100600002DE9F84F1F4690468A460446DDF82890AB
:10061000FFF750FF054694F83D0020287ED11923AE
:10062000012278492046009501F0D1F90028F5D142
:1006300094F83C00012871D0012084F83C00206827
:100640000168C90703D1016841F001010160206818
:10065000016821F400610160222084F83D0010202F
:1006600084F83E0000262664C4F824806785664826
:10067000E062608D20852B464A465146204601F0B7
:10068000C6F828B1206C84F83C60042850D073E090
:10069000208D5E4F68B1012814D0022820680168BF
:1006A0001ED041F48061016020684169806900903A
:1006B0009AE02068416981690091016841F4007104
:1006C000016091E02068016821F48061016072B6E8
:1006D0002068416981690091016841F400710AE074
:1006E00041F40061016072B620684169816900913E
:1006F000016821F48061016062B675E0032850D87A
:1007000001280CD002284B464FF000023946204603
:10071000009512D001F05BF970BB13E070E02A463F
:100720004946204601F0C8F928B1206C202823D082
:100730000120BDE8F88F20684BE001F048F9D8B9F6
:1007400072B61BE02068016821F48061016072B616
:1007500020680169606A421C62620170208D401E3F
:100760002085608D401E60854B460022394620461C
:10077000009501F02CF908B10320DAE72068016840
:1007800041F40071016020680169606A421C626284
:100790000170208D401E2085608D401E608562B6F0
:1007A000C9E72A464946204601F086F90028BCD10F
:1007B00020680169606A421C62620170208D401EDF
:1007C0002085608D401E608520684169C9434907C6
:1007D0000AD40169606A421C62620170208D401E69
:1007E0002085608D401E6085208D002886D12020C8
:1007F00084F83D0084F83E6084F83C60002098E76F
:10080000022096E7020010000000FFFF0400010034
:100810002DE9F84F1F4690468A460446DDF8289099
:10082000FFF748FE064694F83D0020287ED11923A4
:10083000012243492046009601F0C9F800287DD1E5
:1008400094F83C00012879D0012084F83C0020680D
:100850000168C90703D1016841F001010160206806
:10086000016821F400610160212084F83D0010201E
:1008700084F83E0000252564C4F82480678531484B
:10088000E062608D208533464A465146204601F09D
:100890002DF828B1206C84F83C5004284CD00DE091
:1008A000206841698069009030E032464946204620
:1008B00001F033F928B1206C042838D00320BDE8BA
:1008C000F88F606A411C6162216800780861608D60
:1008D000401E6085208D401E80B2208521684A69B7
:1008E000D24352070BD450B1606A421C6262007856
:1008F0000861608D401E6085208D401E2085324637
:100900004946204601F03CF80028D4D1208D00282B
:10091000CBD154F83D0B016841F4007101602020F7
:1009200004F81E09E57765770020C8E706E020682F
:10093000016841F4007101600120C0E70220BEE7B8
:10094000020010000000FFFF10B586B000210091EA
:1009500001910291039100680F4988421AD10F4C0E
:10096000A06940F00800A061A069694600F0080095
:100970000490C020009012200190032003900848AA
:10098000FFF7B0FCE06940F40010E061E06900F4BA
:100990000010049006B010BD00540040001002404A
:1009A000000C014002488168027811448160704760
:1009B000D0020020074810B5016841F01001016025
:1009C000032000F07DF8002000F006F800F024F885
:1009D000002010BD0020024070B50D4D04464FF4BC
:1009E0007A712878B1FBF0F00A490968B1FBF0F0A0
:1009F00000F0FCFC48B9102C07D200222146501E02
:100A000000F03EF800206C6070BD012070BD000059
:100A1000D0020020DC0200200C4808B5816941F0BA
:100A200001018161816901F001010091C16941F019
:100A30008051C161C06900F0805000900448416855
:100A400021F0E06141F00071416008BD00100240FA
:100A50000000014000F01F02012191404009800088
:100A600000F1E020C0F88011704700F01F02012162
:100A700091404009800000F1E020C0F8001170476B
:100A8000F0B40E4B1B680C46C3F30223C3F10705F9
:100A9000042D00D90425191D072901D2002300E0E7
:100AA000DB1E012606FA05F1491E214099409E40B1
:100AB000761E16403143F0BC01F058B90CED00E051
:100AC000064900F0070208684FF6FF03184040EAA5
:100AD0000220034A10430860704700000CED00E05C
:100AE0000000FA0590FAA0F0044AB0FA80F002EB98
:100AF00080000121C0F880107047000000000E4205
:100B00000548016841F0020101600448016841F0B4
:100B10000401016030BF70470070004010ED00E03C
:100B20002DE9F047DFF8548105460E46D8F800005D
:100B300000F00700B0420CD2D8F8001021F00701F5
:100B40003143C8F80010D8F8000000F00700B042A8
:100B50006FD128684A4C810712D5400703D56068D9
:100B600040F4E06060602878000703D5606840F4D6
:100B7000605060606068A96820F0F0000843606021
:100B80002878C00744D06868012816D02168022858
:100B900016D0890700294CDA616821F0030101436E
:100BA0006160FFF787FC6968074641F288300129D8
:100BB0000ED00229814618D026E021688903E9E792
:100BC0008901E7E7FFF776FCC11B494501D918E029
:100BD00081466068C0F381000128F3D118E000BFAE
:100BE000FFF768FCC11B49450BD86068C0F3810062
:100BF0000228F5D10CE000BFFFF75CFCC11B4945A2
:100C000002D90320BDE8F087606810F00C0FF3D123
:100C1000D8F80010404601F00701B1420BD9016835
:100C200021F0070131430160006800F00700B04285
:100C300001D00120E6E72878400705D56068E9681B
:100C400020F4E060084360602878000706D56068FB
:100C5000296920F4605040EAC100606000F036F875
:100C60006168084AC1F30311515CC8400649086035
:100C70000020FFF7B1FE0020C4E700000020024082
:100C800000100240B84F0008DC020020044805496B
:100C900000684968044AC1F30221515CC8407047AA
:100CA000DC02002000100240C84F0008044805493B
:100CB00000684968044AC1F3C221515CC8407047CA
:100CC000DC02002000100240C84F000813A185B0CC
:100CD0000FC98DE80F0015A0154A006804905168EF
:100CE00001F00C00042804D0082804D0114805B0F5
:100CF00070471148FBE7C1F38343C9031DF80300A4
:100D000009D5516804AAC1F34041515C0A4A5043D5
:100D1000B0FBF1F0EBE709494843E8E702030405BB
:100D2000060708090A0B0C0D0E0F10100102000037
:100D30000010024000127A00001BB70000093D00BD
:100D40002DE9F84F04460078B94DC00748D06868CF
:100D5000C0F38100012807D06868C0F38100022831
:100D600009D16868C00306D52868800338D5606853
:100D700000286FD034E06068B0F5803F0BD010B130
:100D8000B0F5A02F11D0286820F4803028602868A2
:100D900020F4802002E0286840F4803028606068F9
:100DA00088B1FFF787FB064609E0286840F48020F9
:100DB0002860F0E7FFF77EFB801B642875D8286861
:100DC0008003F7D50CE0FFF775FB064605E000BF92
:100DD000FFF770FB801B6428F0D828688003F7D4E5
:100DE0002078944E80074FF001094FF000083BD562
:100DF000686810F00C0F07D06868C0F38100022803
:100E000009D16868C00306D42868800714D5206912
:100E100001281FD110E02069B0B1C6F80090FFF79B
:100E200049FB074605E000BFFFF744FBC01B022853
:100E3000C4D828688007F7D52868616920F0F800D1
:100E400040EAC10028600FE0C6F80080FFF732FBDF
:100E5000074606E0E9E000BFFFF72CFBC01B0228B5
:100E600023D828688007F7D4207800072CD572484B
:100E7000A169D9B1C0F80090FFF71CFB074604E058
:100E8000FFF718FBC01B02280FD8686A8007F7D548
:100E90006A484FF4FA510068B0FBF1F0009000BFCF
:100EA0000098411E0091FAD20EE080E0C0F8008068
:100EB000FFF700FB074604E0FFF7FCFAC01B02281F
:100EC00075D8686A8007F7D42078400760D5E8694C
:100ED0000027C00008D4E86940F08050E861E86964
:100EE000012700F08050009055480168C90513D4CF
:100EF0000168834641F480710160FFF7DBFA8246A6
:100F000006E000BFFFF7D6FAA0EB0A0064284ED82F
:100F1000DBF80000C005F5D5E06801280AD008B16B
:100F2000052813D0286A20F001002862286A20F0E2
:100F3000040002E0286A40F001002862E06841F203
:100F4000883B98B1FFF7B6FA82460BE0286A40F07A
:100F500004002862EEE700BFFFF7ACFAA0EB0A013D
:100F600059455AD8286A8007F6D50CE0FFF7A2FA4F
:100F7000824605E0FFF79EFAA0EB0A0159454CD8DE
:100F8000286A8007F6D41FB1E86920F08050E86134
:100F9000E06988B36968C1F38101022945D002285C
:100FA000C6F8608004D0FFF785FA044638E034E0E4
:100FB000FFF780FA074604E0FFF77CFAC01B02281F
:100FC0002BD828688001F7D4206AB0F5803F05D17E
:100FD0006868A16820F4003008436860D4E908011B
:100FE0000843696821F4741108436860C6F860908A
:100FF000FFF760FA044606E015E000BFFFF75AFA73
:10100000001B022809D828688001F7D50BE000BF33
:10101000FFF750FA001B022802D90320BDE8F88F21
:1010200028688001F4D40020F8E70120F6E70000EA
:10103000001002400000424280044242DC020020D4
:10104000007000407047000038B5044600684268F0
:1010500081684B0605D4CB0703D0530601D5216C1C
:1010600004E08B0707D5130605D5616C01B0204657
:10107000BDE83040084711F0600F3FD093063DD5E2
:101080004B060AD594F85130032B34D0636D43F0EE
:1010900004036365C36883680093890609D5616D9D
:1010A00041F00101616581680091016821F0400112
:1010B0000160606D002821D02068416821F0E001C6
:1010C0004160012084F85100900718D020684168E1
:1010D00021F0030141600C4DE06C18B14563E06CF8
:1010E000FFF794F8A06C002808D04563A06CBDE819
:1010F0003840FFF78BB8C1688068009038BD204643
:10110000FFF7A0FF38BD0000F51D000870B5040012
:1011100005D00025A56294F8510010B104E001202B
:1011200070BD204600F034F8022084F85100206899
:10113000016821F040010160D4E901010843D4E9CC
:1011400003121143084361690843218B01F40071C4
:101150000843E1690843216A0843A16A08432168FA
:101160000860A069042101EA1040616A084321680F
:1011700048602168E06A08612068C16921F4006163
:10118000C1616565012084F85100002070BD000038
:1011900030B585B000240094019402940394006853
:1011A000194988422DD11948C16941F48041C16172
:1011B000C16901F480410491816941F008018161B4
:1011C0008069134D00F0080004904FF42040009017
:1011D000022001900320039069462846FFF782F819
:1011E0004FF48040CDE90004694628460294FFF799
:1011F00079F8002202212420FFF742FC2420FFF787
:1012000034FC05B030BD0000003800400010024042
:10121000000C01402DE9F84F044690F850000026DC
:101220000A9F9A4693460D464FF0010801280ED0BA
:10123000012084F85000FFF73DF9814694F85100F1
:10124000616801280CD0B1F5827F07D102E002204D
:10125000BDE8F88FA16809B9042801D00226BDE0D5
:1012600055B1BBF1000F07D0BAF1000F04D094F8CC
:101270005100012802D004E00126AFE0052084F8E7
:10128000510000206065C4F838B0A4F83EA0A4F86E
:101290003CA02563A4F836A0A4F834A020646064C0
:1012A00020680168490603D4016841F040010160EB
:1012B000E068B0F5006F606804D0E8B3E08E012804
:1012C0003BD06AE010B1E08E01282ED1216835F8BC
:1012D000020BC860E08E401EE08626E0B8F1000FE9
:1012E0000DD0E08E58B120688168890707D535F8A0
:1012F000021BC160E08E401EE0864FF00008E08FC8
:1013000058B120688168C90707D0C0682BF8020B64
:10131000E08F401EE0874FF00108781C05D0FFF7F2
:10132000C9F8A0EB0900B84246D2E08E0028D5D11A
:10133000E08F0028D2D136E0FFE7216815F8010BD5
:101340000873E08E401EE08627E000BFB8F1000F72
:101350000DD0E08E58B120688168890707D515F84F
:10136000011B0173E08E401EE0864FF00008E08F05
:1013700058B120688168C90707D0C0680BF8010B15
:10138000E08F401EE0874FF00108781C05D0FFF782
:1013900091F8A0EB0900B8420ED2E08E0028D5D11A
:1013A000E08F0028D2D13B46012202212046CDF811
:1013B000009000F027FD08B103260FE04A463946A9
:1013C000204600F007FD18B101262020606505E0E9
:1013D000A06818B92068C16880680090012084F86E
:1013E0005100002084F85000304631E710B5401E0F
:1013F000B0F1807F01D3012010BD4FF0E024606187
:101400000F21601700F0B2FC0020A06107202061CE
:10141000002010BD30B590F83C20012A20D00122D8
:1014200080F83C20022380F83D3003685C6824F09B
:1014300070045C6003685C680D682C435C60036842
:101440009C6824F080049C6003689C6849680C4395
:101450009C6080F83D20002180F83C10084630BD9B
:10146000022030BD10B5040003D094F83D0010B147
:1014700007E0012010BD002084F83C00204600F069
:101480000DF8022084F83D00211D206800F0D2FDF7
:10149000012084F83D00002010BD000008B5006860
:1014A0000649884208D10648C16941F00201C1617C
:1014B000C06900F00200009008BD00000004004078
:1014C0000010024070B5044690F83C00012817D087
:1014D000012584F83C50022084F83D002068826891
:1014E00022F0770222F47F4282600868502837D0C9
:1014F0000DDC202859D005DC88B3102841D151E0FB
:10150000022070BD302853D040283AD13FE06028F7
:101510002ED070280BD0B0F5805F03D0B0F5005FFF
:101520002FD110E02068816821F0070115E0CB6819
:10153000D1E90121206800F0BEFD2168886840F0F3
:10154000770088601DE0CB68D1E90121206800F0B8
:10155000B2FD2068816841F48041816011E01EE0A5
:10156000CA684968206800F0B8FD5021206806E08C
:10157000CA684968206800F0C1FD6021206800F059
:10158000A4FD84F83D50002084F83C0070BDCA687A
:101590004968206800F0A1FD40212068EFE70021A4
:1015A0002068ECE710212068E9E720212068E6E7C1
:1015B00030212068E3E7000010B5044600680122EE
:1015C00000F06EFD07492068884203D1416C41F468
:1015D000004141642068016841F001010160002080
:1015E00010BD0000002C01407047000070B502687B
:1015F00004461068D168536910F00F0F50D003F003
:10160000010501F4907635435DD0C20705D0CA05C7
:1016100003D5E26B42F00102E263420705D5DA0727
:1016200003D0E26B42F00202E263820705D5DA07DB
:1016300003D0E26B42F00402E263020705D5DA0749
:1016400003D0E26B42F00802E263E26B002A33D07F
:10165000800604D5880602D5204600F0D3FD206818
:101660004069E16BC0F38010090700D428B320461D
:1016700000F0BAFD2068416949061AD5416921F098
:1016800040014161606BA0B11B494163606BFEF793
:10169000BDFD002810D0606B416BBDE8704008476D
:1016A000830610D58B060ED52046BDE8704000F0AD
:1016B000A9BD2046FFF798FF70BD2046FFF794FFB5
:1016C0000020E06370BD030606D50B0604D5204656
:1016D000BDE8704000F09ABE4006F3D54806F1D54B
:1016E000D168204621F04001D160202184F83910D2
:1016F00000F077F870BD0000D921000870B5040033
:1017000004D094F83900002510B106E0012070BD26
:1017100084F83850204600F023F8242084F839005B
:101720002068C16821F40051C160204600F0B6FD78
:101730002068016921F4904101612068416921F02C
:101740002A0141612068C16841F40051C160E5632C
:10175000202084F8390084F83A00002070BD000091
:1017600030B585B00024009401940294039400687D
:10177000184988422CD11848816941F4804181611F
:10178000816901F480410491816941F00401816122
:101790008069124D00F0040004904FF40070009036
:1017A000022001900320039069462846FEF79AFD27
:1017B0002815CDE90004694628460294FEF792FDFB
:1017C000002202212520FFF75BF92520FFF74DF9C4
:1017D00005B030BD00380140001002400008014053
:1017E00070477047FEE701684A69D24352050CD43E
:1017F0006FF480624A6104210164002140F8301FC7
:1018000020224273017301207047002070472DE9A8
:10181000F84F0446C06A1E4692460D4621680A6883
:1018200042F480620A60042807D0012805D010F530
:10183000803F02D0206B112804D12068016841F458
:10184000807101604FF00118534600224146204646
:10185000009600F0BCF8B8BB206908F10109B0F5AA
:10186000804F12D00620216800EAD51747F0F0001B
:1018700008613346524608F10701204600F0D8F8C7
:1018800038B1206C04282FD01EE0E8B240F00100EF
:101890001FE02168E8B208613346524649462046B7
:1018A00000F0C6F80028ECD12068416981690091F8
:1018B000016841F480710160534600224146204690
:1018C000009600F084F810B10320BDE8F88F47F0CF
:1018D000F10021680861334652464946204600F02F
:1018E000A7F80028CDD1F0E70120EEE7F8B50446CF
:1018F000C06A1E460D461746042807D0012805D0A9
:1019000010F5803F02D0206B122804D120680168B6
:1019100041F480710160134600224FF0011120460E
:10192000009600F054F8A0B92069B0F5804F12D0AD
:101930000620216800EAD51040F0F0000861334627
:101940003A460E49204600F073F838B1206C04285E
:1019500011D00320F8BD05F0FE0000E0E8B22168D8
:101960000861064933463A46891F204600F060F870
:101970000028EBD1F8BD0120F8BD000008000100EF
:1019800070B516460D4604461AE02046FFF72BFFB9
:1019900008B1012070BD681C12D025B1FEF78AFD88
:1019A000801BA8420CD954F8400F40F0200044F8A6
:1019B000100900202060202161732073032070BD76
:1019C00020684069C0434007DFD4002070BD2DE986
:1019D000F0471E4690460D460446C1F30747DDF822
:1019E000209012E0701C10D02EB1FEF763FDA0EB2A
:1019F0000900B04209D9002044F8300F202161735A
:101A0000A07320730320BDE8F0872068012F0AD05F
:101A1000806925EA00000004000C06D00021414541
:101A2000E0D00020EFE74069F3E70121F7E700008D
:101A30002DE9F0479A4691460D46044600264FF0A0
:101A40002008C1F307472AE020684069C0434005E9
:101A500012D42068016841F40071016021686FF4BC
:101A60008060486104202064266384F83D8084F807
:101A70003C600120BDE8F087B9F1FF3F0FD0B9F11C
:101A8000000F05D0FEF716FDA0EB0A01494506D967
:101A900044F8306F84F80D8026730320EAE720684D
:101AA000012F07D0D0F8180025EA00000004000C30
:101AB000E0D0C9E74069F7E72DE9F04100259046FD
:101AC0000E460446202721E04069C043C0060CD4DE
:101AD00021686FF0100048612564256384F83D702B
:101AE00084F83C500120BDE8F0812EB1FEF7E2FC05
:101AF000A0EB0800B04209D954F8400F40F0200094
:101B000044F80409677025700320ECE720684169F8
:101B1000C9434906D8D40020E5E770B516460D46FE
:101B200004461AE02046FFF75EFE08B1012070BDB2
:101B3000681C12D025B1FEF7BDFC801BA8420CD951
:101B400054F8400F40F0200044F8100900202060B5
:101B5000202161732073032070BD20684069C04359
:101B60000006DFD4002070BD2DE9F04385B00024CD
:101B70002D480094019402940394816941F020015E
:101B80008161816901F020010491816941F00401C2
:101B90008161816901F004010491816941F00801CA
:101BA00081618069DFF8848000F0080004900022E1
:101BB00018214046FEF779FCDFF874904FF4805707
:101BC000002239464846FEF770FC01251948009569
:101BD000CDE9010469464046FEF784FB1820022641
:101BE000CDE90005CDE9024669464046FEF77AFB9D
:101BF0004FF4C070CDE90004694640460294FEF7F8
:101C000071FB00970396CDE9015469464846FEF7FB
:101C100069FB002201210620FEF732FF0620FEF7B5
:101C200024FF05B0BDE8F083001002400008014029
:101C3000000C0140000011100B480A494FF40072DB
:101C400001604FF48271416000218160C1600161D7
:101C5000C0E90512C1610162416281620A21C1626B
:101C6000FFF754BA003800403805002010B586B0A0
:101C700000241048009401940294039404940C49A5
:101C80000594C0E900148460C46004618461FFF7B6
:101C9000E9FB4FF48050009069460648FFF712FCBC
:101CA000049404A903480594FFF7B4FB06B010BDE3
:101CB0000004004090050020FEE7704770B5294CF5
:101CC000002280212046FEF7F0FB4FF47A7502E0F7
:101CD0002846FEF7E7FA02F06FFE0028F8D002F07F
:101CE000B3FEFF2002F093FE5F2002F0CAFF002047
:101CF00002F09AFF0C2002F088FF052002F080FF1E
:101D00001949002002F040FF17490120491D02F047
:101D10003BFF154902200A3102F036FF1249032029
:101D20000F3102F031FF10490420143102F02CFF72
:101D30000D490520193102F027FF0A220021012058
:101D400002F0A4FF012002F07CFF02F055FE022009
:101D500002F086FF2046BDE8704001228021FEF798
:101D6000A4BB000000080140DD4F00080907090E70
:101D7000002806DA00F00F0000F1E02080F8141DC2
:101D8000704700F1E02080F80014704770B506201D
:101D9000FEF760FE094C01256570FEF78BFB606065
:101DA00007484168C943890707D4016841F0080121
:101DB00001606570FEF77EFB606070BDE002002090
:101DC00000700040704700000148FFF73DB9000077
:101DD0003805002038B50B460092044600228021C9
:101DE00000F010F8002804D0606D40F0200060651D
:101DF000032038BD10B5406A0021C187C186FFF7B6
:101E000021F910BD2DE9F0411D4617460E46044646
:101E1000DDF8188035E0681C33D02DB1FEF74AFBA1
:101E2000A0EB0800A8422CD32068416821F0E00113
:101E300041606068B0F5827F0BD1A068B0F5004FBB
:101E400002D0B0F5806F04D12068016821F0400114
:101E50000160A06AB0F5005F0AD1206801684DF604
:101E6000FF72114001602068016841F40051016077
:101E7000012084F85100002084F850000320BDE8C0
:101E8000F0812068806836EA000004D00020B84263
:101E9000C1D10020F3E70120F9E770472DE9F047B1
:101EA000FEF708FB4FF4FA68B0FBF8F208FB1200EB
:101EB000374E58B97068C043800707D5002201210A
:101EC0000620FEF7DDFD0620FEF7CFFD314D324F37
:101ED000324C2878DFF8C890012846D1FEF7EAFA9C
:101EE0003968401A404509D201214846FEF7D8FA20
:101EF00001283AD16088401C608036E028780128AB
:101F000033D1207840F2DC514FF4807810B10128B1
:101F100004D015E06088884203D311E060888842CD
:101F20000ED9002210214846FEF7BFFA4046FEF7C0
:101F3000D9FD306840F004003060FEF7E1FD14E0A8
:101F400001214E464846FEF7ABFA18B12878012821
:101F500006D00AE00220287000202070608007E090
:101F6000012210213046FEF7A0FA287802280BD172
:101F700001214846FEF794FA012805D101262E706A
:101F8000FEF798FA38602670BDE8F047FEF70ABD04
:101F900000700040E1020020E4020020CC0200209A
:101FA0000008014030B58FB028216846FEF7D3F80D
:101FB00014210AA8FEF7CFF8012108040024049197
:101FC000CDE90010CDE90804029402250795684682
:101FD000FEF7B6FE0F200A90CDE90B540D940021B8
:101FE0000AA80E94FEF79CFD0FB030BD0D480168A5
:101FF00041F00101016041680B4A114041600168F4
:102000000A4A11400160016821F4802101604168A1
:1020100021F4FE0141604FF41F0181600449C003B7
:1020200008607047001002400000FFF8FFFFF6FE56
:1020300008ED00E0F0B50268164B174C174D4FF055
:102040008047984205D0B84203D0A04201D0A842B0
:1020500003D122F070064A683243984205D0B84254
:1020600003D0A04201D0A84203D122F44074CA6830
:10207000224322F080044A69224302608A68C262D5
:102080000A688262984201D10969016301214161B4
:10209000F0BD0000002C014000040040000800409A
:1020A00010B50123046A8B409C430462036A8A4092
:1020B0001343036210BD10B5846842EA032224F47E
:1020C0007F440A432243826010BD826822F070027E
:1020D0000A4342F007018160704710B5036A046A41
:1020E00024F001040462846924F0F00444EA021438
:1020F00023F00A020A438461026210BD10B5036A2C
:1021000023F0100303628369046A23F4704343EAF3
:10211000023224F0A00343EA01118261016210BD82
:102120003EB528A5264C2CCD8DE82C00A2788DF844
:10213000002004F10802012813788DF8013052784C
:102140008DF802208DF8030014D0022802D0042854
:1021500010D109E008798DF8040048798DF8050060
:1021600088798DF8060005E008798DF80400487933
:102170008DF80500002002F073FD062002F0AEFD90
:10218000002002F05EFD02F037FC1149062002F04B
:10219000FBFC022002F064FD2178684602F0ACFDF1
:1021A000E070002002F05CFD012002F04AFD0220F8
:1021B00002F056FD012280210648FEF776F93EBD69
:1021C000E002002000646464646464646464000089
:1021D000E74F00080008014010B5406A0021C185A2
:1021E000C184FFF701FA10BD0168CA6822F4907239
:1021F000CA6001684A6922F001024A61202180F820
:102200003A10704710B590F83A10222901D00220F8
:1022100010BD8168B1F5805F11D0016900290168A6
:102220001FD0496801F07F03816A4A1C82620B70EB
:10223000C18D491E0904090CC18518D02BE0026923
:10224000816A002A0268526805D0D2B20A80816A87
:10225000491C8162ECE7C2F308020A80816A891C8A
:10226000F7E74A68816A4B1C83620A70E0E70168FD
:10227000CA6822F02002CA600168CA6822F480722B
:10228000CA6001684A6922F001024A61202180F88F
:102290003A10FFF7A5FA002010BD00002DE9F0412B
:1022A000044600680169E26821F44051114301616C
:1022B0002169A0680843616908432168CA6841F23E
:1022C0000C639A430243CA6020684169A26921F401
:1022D0004071114341614C4920686425322688428F
:1022E0003CD1FEF7E3FC00EBC00101EB001061689C
:1022F0008900B0FBF1F7FEF7D9FC00EBC00101EB60
:1023000000106168B0468900B0FBF1F0B0FBF5F059
:102310006FF01801484307EB800106EB0110B0FB9A
:10232000F5F000F0F006FEF7C1FC00EBC00101EB98
:10233000001061688900B0FBF1F0B0FBF5F006EB2E
:102340000016FEF7B3FC00EBC00101EB0010616862
:102350008900B0FBF1F7FEF7A9FC3BE0FEF796FC25
:1023600000EBC00101EB001061688900B0FBF1F7E0
:10237000FEF78CFC00EBC00101EB00106168B04679
:102380008900B0FBF1F0B0FBF5F06FF018014843A5
:1023900007EB800106EB0110B0FBF5F000F0F00652
:1023A000FEF774FC00EBC00101EB001061688900CE
:1023B000B0FBF1F0B0FBF5F006EB0016FEF766FCA3
:1023C00000EBC00101EB001061688900B0FBF1F780
:1023D000FEF75CFC00EBC00101EB001061688900B6
:1023E000B0FBF1F0B0FBF5F06FF01801484307EBDC
:1023F000800108EB0110B0FBF5F0216800F00F0040
:1024000030448860BDE8F0810038014090F8391010
:10241000212901D0022070478168B1F5805F016AEF
:102420000BD04A1C0262026809785160C18C491EB7
:102430000904090CC1840ED017E009880268C1F3B1
:102440000801516001690029016A02D0491C01623A
:10245000ECE7891CFBE70168CA6822F08002CA60C9
:102460000068C16841F04001C16000207047000071
:102470000148FFF7BBB80000D0050020FEE70000D0
:102480007CB50446002094F8DA200D46012A03D0DA
:10249000022A01D0032A14D101AB6A460121204649
:1024A00000F091F9009A4FF47F018A4202D8019A14
:1024B0008A4206D9002804D125B10F49204601F0EF
:1024C000E1FC7CBD0422FF21204600F05BFE0546B6
:1024D00000227021204600F055FE05430022FF2116
:1024E000204600F04FFE054300228021204600F0E8
:1024F00049FE28437CBD0000F3000020F8B50646E5
:10250000002401220B21304600F03CFE0746002249
:102510000B21304600F036FE40EA07056A461321DB
:10252000304600F00EFB641C9DF800102843E4B216
:10253000490704D0032C04D20028E2D0F8BD032CB4
:10254000FCD36FF00B00F8BDF0B591B0044600224B
:10255000882100F017FE002584F8F0504FF47A70BF
:10256000A4F852014FF4C870A4F854015748C4F8B5
:10257000580157482562C4F8D4006946204600F047
:10258000A9F8060009D18DF800508DF801504022BD
:10259000694604F11000FDF7C5FD6420A4F834017C
:1025A0004FF46170A4F836014FF4FA70A4F83801C2
:1025B0004FF42060A4F83C01012784F850713A469A
:1025C0008021204600F0DEFD06430122FF21204647
:1025D00000F0D8FD064300221146204600F0D2FD4F
:1025E000064310AA9121204600F0ABFA06439DF85D
:1025F000400084F83A0101220021204600F0C2FD8B
:1026000006430022FF21204600F0BCFD06430022C5
:102610008021204600F0B6FD30430026002852D12C
:10262000B1B20122204600F0ADFB761C062EF5DB90
:10263000002848D100220221204600F0A3FB0028F8
:1026400041D100220321204600F09CFB00283AD112
:1026500000220421204600F095FB002833D10022FF
:102660000521204600F08EFB00282CD14FF490125B
:102670000021204600F0C7FB002824D14FF48042FF
:102680000121204600F0BFFB00281CD14FF40C12A2
:102690000221204600F0B7FB002814D100220321BC
:1026A000204600F0B0FB00280DD1FF2084F8300157
:1026B00002460121204600F065FD84F832710028B1
:1026C00001D184F8155111B0F0BD0000856B0100F7
:1026D000A470090070B506460C46007C01F8080B92
:1026E000304600F044F8002833D1207304F1100183
:1026F000304600F0D9F900282BD104F114013046FE
:1027000000F0E4F8002824D1002501E0002820D1C1
:1027100004EB8502A9B23046243200F07BF8002891
:1027200017D16219A9B23046183200F066F86D1C54
:10273000062DEBDB00280CD104F13C01304600F003
:1027400098F9002805D1211D3046BDE8704000F001
:10275000BBB870BD10B50C460A46092100F0F1F96E
:10276000002803D1217801F00101217010BD3EB590
:102770000C46054602AAF82100F01CFA00280ED1EA
:102780006A460421284600F0F1F9002807D1BDF877
:10279000081029B1009AB2FBF1F12160A9613EBD98
:1027A0002168FBE738B50C466A46132100F0C9F9E9
:1027B0009DF8001001F0070211F0180F226001D0FF
:1027C0006FF0050038BDF8B515461C4606466A464A
:1027D0000E2100F0EFF9BDF800100905C9082960C5
:1027E000002809D16A460C21304600F0E3F9BDF813
:1027F00000100905C9082160F8BD0346002006291C
:1028000002D3001F002102E0194491F82810117032
:1028100070470000F8B504460020154606292ED260
:10282000DFE801F00305191B1D1D646B25E06A46F6
:102830004421204600F0BEF9002803D1BDF8001065
:102840004FEA412606D1EEB12E604FF00101A6639A
:1028500084F82910F8BDE46B0FE0246C0DE06A46A3
:102860004FF06401204600F0A5F9002804D100BF14
:10287000BDF800104FEA4124ECD12C60F8BD6FF098
:102880000300F8BDA16B29604FF00001E0E77CB5C3
:102890000C4690F8DA100025012604290AD06A4671
:1028A000142100F04EF900280BD19DF80010C90743
:1028B00006D007E001A9FFF775FF0199042901D0AF
:1028C00025707CBD26707CBD01F01AB901F07AB983
:1028D000F0B58DB00C4605460C2302AA142100F079
:1028E00087F906007ED10021A17521609DF81300B3
:1028F0009DF81220616000EB02209DF80F209DF8EA
:102900000E304FF47A7E02EB03221204D209E26009
:102910009DF811309DF8106080B203EB06231B0474
:10292000DB0923619DF80B309DF80A6003EB062359
:102930009BB2A382B5F852619DF8087095F831C139
:1029400076451FD0464306F5FA7696FBFEF02E8CB0
:1029500095F81CE080B2B6B2BEF1000F12D05E4313
:10296000B2EB262F08D1BCF1000F02D042F2B82002
:1029700008E048F6E0200DE05043A2EB2626B0FB2D
:10298000F6F080B2BCF1000F04D0810821818001F3
:10299000E07501E02081E1750CA8CDE900403946E1
:1029A000284601F029F9060025D19DF8300020764F
:1029B00005F150011C220D4605A8FDF7B3FB208947
:1029C000ADF81C00E07D8DF82B006089ADF81E008D
:1029D00060680690E068089020690990A08AADF8C8
:1029E000280000E007E0207E8DF82C001C2205A9BD
:1029F0002846FDF797FB0DB03046F0BD38B50546CB
:102A000000200C468DF800006A460121284600F09F
:102A100098F800282AD123469DF800200021284656
:102A200002F028FA002821D1A31C9DF800200121E2
:102A3000284602F01FFA002818D1631C9DF80020D8
:102A40000221284602F016FA00280FD1E31C9DF857
:102A500000200321284602F00DFA002806D1231D8C
:102A60009DF800200421284602F004FA38BD01F048
:102A7000DBB938B50C4605466A46012100F061F81D
:102A800000280BD19DF8001085F83011090601D5FA
:102A9000012100E00021217085F84C1038BD02466C
:102AA0000020127F0A70704738B50D4604466A460A
:102AB000202100F07FF8002807D1BDF8001029B1CF
:102AC000C900296021620121217738BD216A29606E
:102AD0000021F9E7012301F07CBA01F09ABA70B540
:102AE000047C054614B900F013FA10B9284601F029
:102AF0001BFA50EA040102D1032185F8321170BD9E
:102B000070B50C460546002100F08EF8002810D163
:102B10002846FFF7E4FF00280BD121462846FFF79F
:102B2000D7FE002805D12846BDE870400021FFF7F8
:102B3000E5BC70BD10B500240220FDF7B3FB2046B4
:102B400010BDF7B5164607460024012201A901F081
:102B5000F2FC6FF0130528B901223146384601F026
:102B6000DAFC00B12C462046FEBD0000F7B5164643
:102B700007460024012201A901F0DDFC6FF01305D6
:102B800028B904220A49384601F0C5FC08B12C4690
:102B90000BE00748C178027801EB02614278807847
:102BA000120402EB0020084430602046FEBD000005
:102BB000EC020020F7B5164607460024012201A9C1
:102BC00001F0B9FC6FF0130528B902220749384615
:102BD00001F0A1FC08B12C4605E0044841780078DA
:102BE00001EB002030802046FEBD0000EC020020FA
:102BF0002DE9FF4117461E4680460024012201A907
:102C000001F099FC6FF0130528B932463946404669
:102C100001F081FC00B12C4604B02046BDE8F081F3
:102C20004A088A2100F0AEBA0246002003290BD0E0
:102C300003DC49B1012904D106E0142904D0152987
:102C400002D06FF0070070471174704770B51C46D2
:102C5000049E054611B16FF0090070BD142A08D01A
:102C6000152A0FD0052C6FD2DFE804F066686A6C75
:102C70006F002EB10122BDE87040842100F082BABD
:102C80001022F8E70122FF2100F07CFA044600221E
:102C90001146284600F076FA04430022FF21284618
:102CA00000F070FA044301228021284600F06AFAFD
:102CB000044302228521284600F064FA04430422DA
:102CC000FF21284600F05EFA04430022CD21284669
:102CD00000F058FA04431122CC21284600F052FAA1
:102CE00004430722FF21284600F04CFA0443002247
:102CF000BE21284600F046FA04430622FF2128465A
:102D000000F040FA04430922CC21284600F03AFAA8
:102D100004430022FF21284600F034FA0443012234
:102D2000FF21284600F02EFA0443002211462846CF
:102D300000F028FA204370BD002207E0012205E0E0
:102D4000022203E0032201E017E004220A212846C0
:102D500000F018FA0028EED196B11023EF2284215A
:102D6000284600F0F9F90028E5D185F8DA40284630
:102D7000BDE870400021FFF7C1BB6FF00A0070BDD5
:102D80000023EBE72DE9F041044600200D461646EE
:102D9000071F034601460246062D02D33846BDE80A
:102DA000F08156B104EB85014B6B0121062DF5D264
:102DB000DFE805F005080F1215180122F6E784F880
:102DC000281017E0C3F34F224421204600F0ECF90D
:102DD0000EE084F82A100DE084F82B100AE053006E
:102DE000FE2201E01301EF226021204600F0B4F939
:102DF0000028D4D1611926B15FF0010281F82820A2
:102E0000CDE70022FAE770B514460022431800EB24
:102E1000810593F82830DBB1C4F34F23062914D27F
:102E2000DFE801F00305080A0C0C446310E01A46C1
:102E3000442105E0C4630BE0046409E01A46642100
:102E400000F0B2F9020003D003E06FF0030200E0EB
:102E50006C63104670BD01F09ABA01F0F9BA01F046
:102E600007BB2DE9F8430746002090460E468DF833
:102E700000006A4601213846FFF763FE05009DF811
:102E8000000004462ED1291FB8F1010F06D0052EEF
:102E90002CD2DFE806F0191C1F222500052E25D2B2
:102EA000DFE806F00306090C0F0044F0100419E0F7
:102EB00044F0280416E044F0040413E044F0400415
:102EC00010E044F080040DE004F0EF040AE004F0A8
:102ED000D70407E004F0FB0404E004F0BF0401E0C1
:102EE00004F07F04844210D015B10EE00D460CE0D2
:102EF00022460121384600F045F9050005D187F842
:102F0000304138467969FFF7A6FF2846BDE8F883C7
:102F1000F8B501250646047C2A46802100F032F9E6
:102F20000122FF21304600F02DF9002211463046E3
:102F300000F028F996F83A219121304600F022F964
:102F400001220021304600F01DF90022FF21304609
:102F500000F018F900228021304600F013F93CB14E
:102F60000425012C26D0032C2FD06FF00700F8BDCC
:102F700001220021304600F005F98DF800500028AC
:102F8000F5D100244FF4FA6705E024B16A46002128
:102F90003046FFF7D6FD9DF80020641C25EA0201AB
:102FA000014304D0BC42E2D36FF00600F8BDBC423E
:102FB000EBD3F9E718B901213046FFF761FA022295
:102FC00009E000BF86F83251F8BD18B9012130463A
:102FD000FFF756FA04220021304600F0D3F800280B
:102FE000F0D0F8BD30B597B00446402101A8FDF7F8
:102FF000B2F800258DF84450ADF850508DF854507B
:1030000001212046169500F0E7FA94F8142194F86F
:103010001311012A06D802D1202903D808E03AB9B1
:103020000C2905D915AA16A9204600F0F2FF02E0E6
:10303000204601F01DFA474900287DD194F850013F
:1030400008B9D4F84C11204600F01CFF00287ED1AE
:1030500000220423114620460095FFF7F7FD0028C3
:1030600075D10122FF21204600F08CF8054614AAF4
:1030700084212046FFF79EFD05430022FF212046C4
:1030800000F080F8284362D1BDF8500001A900018A
:10309000C4F8D4002046FFF71DFB002857D111A922
:1030A0002046FFF757FB002851D19DF8440084F8D3
:1030B0003101402201A904F11000FDF733F811AAF3
:1030C00001212046FFF73DFD002840D19DF8440036
:1030D00084F83001002211462046FFF7C2FE002886
:1030E00035D1002202212046FFF7BBFE00282ED159
:1030F000032084F8320112AA00212046FFF7B7FC12
:10310000002824D19DF8480084F8E80012AA012183
:103110002046FFF7ACFC002819D19DF8480084F840
:10312000E00013AA0321204601F0B4FA00280ED1D2
:10313000139813AA042100E009E0C4F8E400204633
:1031400001F0A8FA002802D11399C4F8DC1017B0D6
:1031500030BD000000000020F8B515461C460E46A4
:1031600007466A46FFF7EDFC002809D19DF80020CC
:1031700031462A4022438DF80020384600F002F8FC
:10318000F8BD0000034610B50648002401704270E7
:1031900001460222184601F0CEF908B16FF013047F
:1031A000204610BDEC020020034610B5074800245D
:1031B0000170110A4170827001460322184601F025
:1031C000BAF908B16FF01304204610BDEC020020DC
:1031D00070B51C460025134606463F2C01D9281F12
:1031E00070BD0848224600F8011B1946FCF79AFFFB
:1031F000621C0449304601F09EF908B16FF01305D6
:10320000284670BDEC0200202DE9F047B0F854C10B
:10321000D0F85801DDE90A860CFB00F58035DDE9C0
:1032200008972C0A4FF0000A04FB0CF4554652B1E3
:10323000880200EB5200B0FBF2F000EB400040438C
:1032400000F50040050C07F50040000C0622C01CEC
:10325000B0FBF2F003FB09F303F50043190C4943FB
:10326000C0EBC000B0F5803F01D31C4808E0FF1C54
:10327000B7FBF2F0C0EBC00000F50040000C40438B
:10328000084400EB5800B0FBF8F08003FE227F30CA
:10329000B0FBF2F068434FF47A7100F5FA70B0FBBE
:1032A000F1F0000100F5FA70B0FBF1F7402004F1F5
:1032B0002001B1FBF0F000F0CFFD054627B104EB93
:1032C0005700B0FBF7F000E0002000F0C5FD3560CE
:1032D000854200D930605046BDE8F0870000F0FF1D
:1032E00001EBC10140F277600902A1FB00017047C8
:1032F0002DE9FF4F87B00446006A069088460869AA
:103300004FF47A714843000C0390D8F80C000590F4
:10331000DFF8F8B14FF4481604AA4146204600F001
:103320005EFD06AA4146204600F067FD81464FF447
:103330007A710498069D484300F50040070C4D4300
:10334000B54200D93546B9F1000074D1D4F8DC009B
:10335000019094F8E06001463246204600F0DCF827
:103360008246D4F8E4000090014694F8E820204614
:1033700000F0D2F801460320082E00D1022051446B
:103380004143C9024FF47A7001F5FA71B1FBF0F1D3
:1033900040F27762514301F5FA71B1FBF0FA0498FB
:1033A0008030010A01FB0AF08030060A080204900E
:1033B0000FB14EB109E00999C1F800B0C4F840B1AD
:1033C0000A98002101609CE001264FF448700290A9
:1033D00003984F490004B0FBF7F0884200D9084633
:1033E0004FF4167100FB01F906EB4600800000F077
:1033F00033FD40000390B8F8081046486A42414344
:10340000380400EB42024FF47A7002F5FA72B2FB14
:10341000F0F2431003EB0743B3FBF0F01202B2FBF0
:10342000F0F0002800DA404298F8182000021AB1A3
:103430004FF480350FE065E041F25C22B1FBF2F120
:10344000C0F58030484300F50040000C00F58030A6
:1034500040084043850B4FF4487105FB01F000F52F
:103460000040010C09F50040000C4943404308446A
:1034700000F0F2FC000464213230B0FBF1F103985B
:10348000B1FBF0F040F6B531484341F288310844D1
:103490004900B0FBF1F74FF47040874200D907466E
:1034A000DDE9001008444FF47A7800F5FA70B0FBBB
:1034B000F8F04FF4C81101EB5001B1FBF0F000F04F
:1034C000CBFC000200F5FA70B0FBF8F07F434043FC
:1034D000384400F0C1FC414648430EB1584500D97C
:1034E000584609990860C4F840010A98029B039065
:1034F0008DE80806DDE904122B462046FFF784FE1E
:10350000814648460BB0BDE8F08F0000AE878F02C1
:10351000666666009A99060000B50B461146FFF7ED
:10352000DFFE4FF47A7100F5FA70B0FBF1F04B4317
:1035300003EB5001B1FBF0F000BD00B50B461146A6
:10354000FFF7CEFE4FF47A7100F5FA70B0FBF1F0A0
:10355000434303F5FA73B3FBF1F000BD0146C0B27B
:10356000090A8840401C70474000801CC0B2704768
:10357000F8B5064600228321FFF704FE040011D1AE
:1035800000254FF4FA676A4683213046FFF7D9FADF
:1035900004469DF8000020430BD0BD4202D300BF7B
:1035A0006FF00604012283213046FFF7EBFD204334
:1035B000F8BD6D1CBD42E6D3F2E70022114648B1CA
:1035C000401E02E04008491C89B2020AFAD161F3A8
:1035D0001F2082B2104670472DE9F04F95B00025AC
:1035E00004460E954FF4C8500F95CDE9045012953E
:1035F00094F8F0600F46AB46AA46072E7ED0012213
:1036000080212046FFF7BEFD80460122FF21204693
:10361000FFF7B8FD40EA0805002211462046FFF7F3
:10362000B1FD40EA05080622FF212046FFF7AAFD6A
:1036300040EA080502AA83212046FFF782FA40EA01
:1036400005089DF80800832140F004022046FFF79A
:1036500099FD40EA08050722FF212046FFF792FD69
:1036600040EA0508012281212046FFF78BFD40EA50
:1036700008052046FFF75EFA40EA0508012280218E
:103680002046FFF77FFD40EA0805F80755D0F00710
:1036900053D16B2294212046FFF774FD40EA0508C0
:1036A0002046FFF765FF40EA080501AA9021204661
:1036B000FFF75CFA40EA050801982422C0F30621CE
:1036C000C0F3C03B129194212046FFF75BFD40EA16
:1036D00008052046FFF74CFF40EA050801AA9021A3
:1036E0002046FFF743FA40EA08050198010E8DF8DD
:1036F0002C10010C8DF82D10010A00E0FCE18DF872
:103700002E108DF82F00252294212046FFF73AFD38
:1037100040EA05082046FFF72BFF40EA080901AA06
:1037200090212046FFF722FA40EA09050198010E90
:103730008DF83010000C8DF83100B8077ED5B00739
:103740007CD4022294212046FFF71CFD40EA0508A4
:103750002046FFF70DFF40EA080513AA90212046F6
:10376000FFF7EFF940EA05087B2294212046FFF796
:1037700009FD40EA08052046FFF7FAFE40EA050881
:1037800010AA90212046FFF7DCF940EA08057722CD
:1037900094212046FFF7F6FC40EA05082046FFF793
:1037A000E7FE40EA080501AA90212046FFF7DEF96E
:1037B00040EA050801987822410E8DF81810C0F3F0
:1037C00086418DF81910C0F3C6218DF81A10C0F388
:1037D00006110007400E8DF81B108DF8080094218B
:1037E0002046FFF7CFFC40EA08052046FFF7C0FE61
:1037F00040EA050801AA90212046FFF7B7F940EA00
:1038000008059DF80810019801EB50718DF81C1007
:10381000C0F386518DF81D10C0F3C6318DF81E100F
:10382000C0F306218DF81F10C0F34601C007400EFB
:103830008DF820108DF80800792200E055E09421E1
:103840002046FFF79FFC40EA05082046FFF790FE60
:1038500040EA080501AA90212046FFF787F940EACF
:1038600005089DF8081001987A2201EB90618DF807
:103870002110C0F3C6418DF82210C0F306318DF837
:103880002310C0F34611C006400E8DF824108DF8A9
:10389000080094212046FFF775FC40EA0805204601
:1038A000FFF766FE40EA050801AA90212046FFF7CF
:1038B0005DF940EA08059DF80810019801EB907148
:1038C0008DF82510C0F3C6518DF82610C0F30641BF
:1038D0008DF82710C0F346218DF82810C0F386001C
:1038E0008DF8290000208DF82A0078077ED5700712
:1038F0007CD47B2294212046FFF744FC40EA050853
:103900002046FFF735FE40EA08050EAA9021204622
:10391000FFF72CF940EA05087C2294212046FFF7A6
:1039200031FC40EA08092046FFF722FE40EA09057B
:103930000FAA90212046FFF719F940EA05087322E3
:1039400094212046FFF71EFC40EA08052046FFF7B9
:103950000FFE40EA050801AA90212046FFF706F96C
:1039600040EA08050198742200064FEA10499421A4
:103970002046FFF707FC40EA05082046FFF7F8FD60
:1039800040EA080501AA90212046FFF7EFF80199C7
:1039900040EA050849EA1160049075229421204606
:1039A000FFF7F0FB40EA08052046FFF7E1FD40EA9B
:1039B000050901AA90212046FFF7D8F840EA090836
:1039C0000198762200064FEA104994212046FFF71D
:1039D000D9FB40EA08052046FFF7CAFD40EA050882
:1039E00001AA90212046FFF7C1F800E004E0019908
:1039F00040EA080549EA116A002281212046FFF7C2
:103A0000C1FB40EA05080622FF212046FFF7BAFB6A
:103A100040EA080502AA83212046FFF792F840EA0F
:103A200005089DF80800832100F0FB022046FFF7FF
:103A3000A9FB40EA08050122FF212046FFF7A2FB6F
:103A400040EA0508012200212046FFF79BFB40EADF
:103A500008050022FF212046FFF794FB40EA0508F5
:103A6000002280212046FFF78DFB50EA080543D154
:103A7000F8070FD0F0070DD1129884F8130184F8DD
:103A800014B100200BA923180A5C401C83F82A21DA
:103A90000628F8DBB8070ED5B0070CD49DF84C000B
:103AA00084F8F1009DF8400084F8F20004F1F3007E
:103AB00006A9FCF75BFB780719D5700717D40E9899
:103AC000C4F818010F98C4F81C0104984002C4F807
:103AD00020010020BAF1000F08D00599AAEB0100DF
:103AE0004FF47A1148430014404200B2E0603E4374
:103AF0008DF8086084F8F06015B02846BDE8F08FB6
:103B000030B585B005464FF4FA600290002003906E
:103B100040F6363008600C4669462846FEF76EFFD0
:103B200000284DD19DF8001029B99DF8011011B958
:103B30009DF8021011B302AA0221284600F0AAFD46
:103B400000283DD19DF8001029B10299226801F2A8
:103B50004E21114421609DF8021031B10299226872
:103B600001F2B22102EB410107E09DF8011029B1F9
:103B70000299226801F52571114421609DF8031016
:103B800061B103AA0321284600F084FD039922684D
:103B900001F5257111442160002811D19DF8041010
:103BA00061B104AA0421284600F074FD049922683A
:103BB00001F2262111442160002801D121686961A8
:103BC00005B030BD38B50C4640F2FF756A46282175
:103BD000FEF7F0FF00280DD1BDF80010C1F30B0275
:103BE000ADF80020AA424FF0FA0101DDA2F58052A3
:103BF0004A43226038BD00002DE9FF4F8BB04FF0E3
:103C00000009199D8DF800909A460646C8464F4611
:103C10008DF804908DF808908DF80C90ADF8109008
:103C2000C1F3C304CDF81490BCB1052C15D0072CFA
:103C300013D00C2C11D00D2C0FD00E2C0DD00F2C1E
:103C40000BD0002083466A4600213046FEF7D5FDA2
:103C50009DF80010C9B110B11DE00120F2E705ABDD
:103C600006AA30461899FFF743FBA0B918990598A2
:103C700007AA488100213046FEF7CCFD079921B103
:103C8000069A8A4201D94FF0010920B902AA0221FD
:103C90003046FEF7B2FD9DF8081011B338BB08AAF4
:103CA00002213046FEF7B6FD80B90122FF213046E1
:103CB000FFF768FA50B904AAB6213046FEF77AFF3A
:103CC00020B90022FF213046FFF75CFABDF8101042
:103CD0004902C6F84811089A1AB1914201D94FF029
:103CE000010820B903AA03213046FEF786FD9DF89E
:103CF0000C1091B190B9BAF1000F12D00D980102D9
:103D0000B1FBFAF0824609AA03213046FEF782FD94
:103D1000099911B18A4500D2012720B1287858B3FA
:103D20002DE00020EEE7BBF1000F01D0FF2013E0F3
:103D3000012C10D0022C0ED0032C0CD0062C0DD050
:103D4000092C0BD0082C04D00A2C02D0B8F1000F9B
:103D500006D0032000E00520287010E00420FBE7D7
:103D6000042C00D00FB10220F6E7B9F1000F01D00A
:103D70000120F1E70020287018990020488101AA4D
:103D800001213046FEF739FD002825D19DF80010AD
:103D900011B15FEA090100D0012186F82E10042C30
:103DA00015D09DF8041091B15FF0000186F82F1036
:103DB0009DF8081011B15FEA080100D0012186F8D2
:103DC00030109DF80C1001B11FB1012102E001215A
:103DD000ECE7002186F831100FB0BDE8F08F38B560
:103DE0001446CA6822606A4600F007F8002803D12A
:103DF0002168009A1144216038BDF8B506460020BC
:103E00000D461060144669463046FEF748FE00280D
:103E100009D19DF80010002905D0A98A326A5143C2
:103E20008031090A2160F8BD38B5144621B1012955
:103E300005D06FF003010DE06A46502101E06A46AB
:103E40007021FEF77EFE010004D19DF80000FFF70F
:103E50008BFB2070084638BD024600204FF08041A1
:103E600000E089089142FCD808E04318934203D847
:103E7000D21A01EB500000E0400889080029F4D173
:103E800070470000F8B5074600200D460446061F9F
:103E900013E0CBB2641CFF2B05D0042B0CD8295D9A
:103EA00000206A4639E0295D641C61B1012912D005
:103EB000022918D003291ED03046295D002901D0DF
:103EC0000028E6D0F8BD2A5D641C295D01EB0221C3
:103ED000A7F8341116E0295D641C2A5D02EB01216C
:103EE000A7F836110EE02A5D641C295D01EB022162
:103EF000A7F8381106E0295D641C2A5D02EB012158
:103F0000A7F83C11641C295D0029C2D1F8BD00BF8F
:103F100015F804C002F800C0401C641C9842F7DB8E
:103F20003846FFF755F9C8E7F8B5064600208DF882
:103F3000000004464FF4FA6569463046FEF7A7FCD8
:103F4000002807D19DF80010012903D0641CAC4261
:103F500001D3C01FF8BD3046FEF7ECFDECE72DE9BC
:103F6000F04385B01D0091460E4607464FF0000411
:103F700001D097F8304102220121FFF703F94FF0F9
:103F8000000838B90021384600F052F910B9B9F1EB
:103F9000010F11D086F8008000280AD1002D08D02A
:103FA000224601213846FFF7EDF8002801D187F8B5
:103FB000304105B0BDE8F083012004A9CDE9001629
:103FC000CDE90280424601461346384600F086F9A4
:103FD000E2E72DE9F0411E461746054690F83041CC
:103FE0000023324600F040F9002810D10023324669
:103FF00039462846FFF7B3FF002808D122460121A1
:104000002846FFF7BFF8002801D185F83041BDE808
:10401000F0812DE9F74F96B006462C200B9000203A
:104020000E9011908DF84C008DF850001290B6F85B
:104030003CA14FF0B4094FF0030B01464FF00608C6
:10404000074672180020491C82F824014145F8D324
:104050000122FF213046FFF795F8040079D10022B4
:104060004F213046FFF78EF80400F7D12C224E2165
:104070003046FFF787F80400F0D10022FF213046D8
:10408000FFF780F80400E9D14A46B6213046FFF731
:1040900079F80400E2D1002280213046FFF772F85F
:1040A0000400DBD1002314AA13A93046FFF791FFC7
:1040B0000400D3D106F592730EAACDF800800693C2
:1040C0000E90CDE903B29A1D0A92CDE90190014606
:1040D000304600F04DFA04003BD109A930460E9D50
:1040E00000F096FE040034D1BDF82410514531D9BA
:1040F00000213218401C82F824114045F9D300E019
:104100006D1C09EB050000F099FB10B90B98854276
:10411000F6D301200EA9CDF800801590CDE903B1AA
:10412000CDE9019501463046069B0A9A00F020FA37
:10413000040079D109A930460E9D00F069FE040003
:1041400072D1BDF82410514505D901205F46129067
:1041500001E051E0159089B2514555D21598129061
:104160005F4642460FA80699FBF7DCFFBDF8241016
:10417000B1EB0A0000D54042834611AB2A464146C6
:104180000A9800F054FA1198411C0FD0484400F0EE
:1041900055FB159988422ED1119D41462A467F1C18
:1041A000069800F02FFA040003D03DE06FF03104D0
:1041B0003AE030466D1C069900F078FE040033D1D9
:1041C00009A9304600F024FE04002DD1BDF82410CA
:1041D000B1EB0A0000D5404251450ED958450AD9E5
:1041E0000FA9304600F062FE044642460FA9069829
:1041F000FBF798FF7F1E3CB116E0834642460FA8AE
:104200000699FBF78FFFB8E717980760189912987F
:104210000870012086F815011798007886F81301B8
:104220001898007886F8140119B02046BDE8F08F80
:1042300010B541F0010204460021FEF7A3FF00285B
:1042400011D12046FFF770FE00280CD10021204636
:10425000FEF754F9002806D120460022BDE81040A0
:104260001146FEF78FBF10BD2DE9F04385B04FF02A
:1042700000051E0091460F4680462C468DF81050D2
:1042800001D098F8305101221146FEF77BFF38B972
:1042900040214046FFF7CCFF10B9B9F1010F10D013
:1042A0003C7000280AD1002E08D02A460121404641
:1042B000FEF768FF002801D188F8305105B0BDE84D
:1042C000F083012004A900970394CDE90110224650
:1042D00001461346404600F001F8E2E72DE9FF4FA2
:1042E00081B00020DDE90EA9DDE910650F468DF8EB
:1042F00000009B460122FF210198FEF743FF044680
:10430000002211460198FEF73DFF40EA0408002212
:10431000FF210198FEF736FF40EA08046FB12EB185
:104320005246CB210198FEF70CFC0443A5B16A4626
:10433000EE210198FEF705FC0DE02EB1CB21039A8A
:104340000198FEF71FFF044335B15B468022EE2142
:104350000198FEF701FF04430122FF210198FEF7B7
:1043600011FF0443012200210198FEF70BFF0443D3
:104370000022FF210198FEF705FF9DF80010204361
:1043800001F0EF0289F8002005B0BDE8F08F2DE9BB
:10439000FF4107464FF4FA6002900020039044F674
:1043A00020600E466FF0030581424FD3A6F63634E7
:1043B00069463846FEF722FB002844D19DF80010DC
:1043C00029B99DF8011011B99DF8021001B302AA94
:1043D0000221384600F05EF9002834D19DF8001023
:1043E00029B1029901F24E21A1422FD2641A9DF8FF
:1043F000021021B1029901F2B221490005E09DF8B5
:10440000011029B1029901F52571A1421ED2641A49
:104410009DF8031061B103AA0321384600F03AF970
:10442000039901F52571A14210D2641A00280AD11E
:104430009DF80410002906D0A4F226220421384653
:1044400000F039FD7E6104B0BDE8F0812846FAE74E
:1044500030B587B004AD012305AC0095CDE901432B
:10446000039313460A460021FFF738FF07B030BD1B
:104470002DE9F0479046894686B004460025B426CB
:1044800006274FF02C0A0122FF21FEF77BFEB0B970
:1044900000224F212046FEF775FE80B92C224E21C6
:1044A0002046FEF76FFE50B90022FF212046FEF79E
:1044B00069FE20B93246B6212046FEF763FE002091
:1044C00001462218401C82F82411B842F9D3B8F1F1
:1044D000000F01D106E06D1C701900F0AFF908B9AA
:1044E0005545F8D305A90097CDE90391CDE90165BC
:1044F00004F592739A1D4146204600F039F80028D1
:1045000006D1012184F8151184F8139184F81481DF
:1045100006B0BDE8F08738B502F10A03009393B204
:1045200090F86021D0F85C0142F001040A4621466F
:10453000FCF766F838BD38B502F10A03009393B270
:1045400090F860410A46D0F85C012146FCF760F91A
:1045500038BD02E008C8121F08C1002AFAD170470E
:104560007047002001E001C1121F002AFBD17047F3
:104570002DE9FF4F83B00024DDE9125A149F9B46BA
:10458000DDF8409026466FF0310800951AE06B4642
:104590002A464946059800F04AF80098411C06D082
:1045A0001199084400F04AF90499884202D044461F
:1045B0003D6023E0009D49462A46584600F022F817
:1045C0006D1C761C5645E2D33D60BCB95946039834
:1045D00000F06CFC040011D101A9039800F055F81B
:1045E0000446002001A907E01BF800200B5C9A425A
:1045F00001D0444602E0401C4845F5D307B02046B0
:10460000BDE8F08F70B50825B2FBF5F3B2FBF5F607
:104610000446002005FB16228B4202D36FF03100C6
:1046200070BDE15C012595402943E15470BD2DE941
:10463000F043082581464FF0FF301860B2FBF5F0DB
:10464000B2FBF5F605FB10274FF0000C304615E0E5
:10465000002219F80040B04202D1FC403A460AE07C
:104660005FEAC47805D000FB05224FF0010C1A6008
:1046700003E06408521CAA42F2D3401C884202D2D2
:10468000BCF1000FE4D0BDE8F08306230A46B02158
:10469000FEF7AEBA2DE9F04100248AB017468046F5
:1046A0008DF81C402546ADF81840264641B1012939
:1046B00006D0022904D0032912D0042929D05DE0B4
:1046C0006A4600214046FEF7D2F9040005D107AA48
:1046D00046214046FEF735FA04469DF81C0015E0D9
:1046E0006A4600214046FEF7C2F9040046D16A46F8
:1046F00000214046FEF7BBF9040005D106AA51216E
:104700004046FEF757FA0446BDF81800FEF726FFAC
:104710002DE004A94046FEF771F99DF8130000252D
:1047200090B16A4600214046FEF7A1F904001DD170
:1047300006AA51214046FEF73DFA0446BDF818008E
:10474000FEF70CFF85B28CB96A4601214046FEF7A0
:104750008EF904000AD108AA71214046FEF72AFA10
:104760000446BDF82000FEF7F9FE86B2701B81B248
:104770009DF800204046FEF7E0FE05463D600AB089
:104780002046BDE8F081000070B505465121FEF7D6
:1047900047FA512185F8601100284BD12846FDF7D2
:1047A000D3FE002846D12846FEF71CFC002841D144
:1047B000214A284602F10901FEF78FF9002839D174
:1047C0001D4A2846921C511EFEF784F9002831D15B
:1047D000194C2846E41EE278E168FEF740FB002809
:1047E00028D1627921792846FEF737FB002821D1AC
:1047F00001212846FEF718FA00281BD14FF4804209
:1048000001212846FEF7FFFA002813D14FF40012C9
:1048100000212846FEF7F7FA00280BD144F6206164
:104820002846FEF718FB002804D12846BDE8704052
:10483000FEF76EBB70BD0000BF0200200146044AB7
:104840008909012052F82110002900D10020704769
:10485000AC0200200EB54F480168009141680191FB
:104860008068029002994C4801700299090A4170CF
:104870000299090C81700299090EC170FCF79AF82F
:10488000FDF790FBFDF770F9454844494FF00008EB
:1048900001604FF41651C0E901180C21C0F80C80DA
:1048A000C0E90481C0F818804446C0F81C80FCF7B9
:1048B00025FFFDF7C1F9FDF7D9F9394D3948EC3D30
:1048C00028603948C5E901044FF48040C5E9034038
:1048D0006C61AC61EC6128462C62FBF7F1FDFDF7E1
:1048E00055FAA5F5D6705221C0F85C5180F86011D8
:1048F000C0F86841C0F8644140F6B830FBF7D2FC1C
:104900002A4C02E02078401C20702948FFF73CFF29
:104910000028F7D1224804214038FCF74DFEFDF76E
:10492000CDF9244E0A27A6F5CE7900251F49204847
:10493000491CFDF7ACFFA07050B91E491C48FDF79B
:10494000C7FFA07020B900211948FDF7D7FDA0705E
:104950003089A168B0FBF7F06D1C0844EDB2A0608F
:10496000022DE3D32089FF2101EB500189F80410C7
:10497000317E254651B1012189F805100C490420EA
:104980000C39FDF7CDFBC5F80880CEE789F8058026
:10499000F4E70000E8F7FF1FE802002000380140BC
:1049A000D005002000540040A0860100BC02002079
:1049B00038030020C80400201CB50DA405222146A0
:1049C000302000F0D3F905226946102000F09CF851
:1049D0000020694614F8012B0B5C9A4201D000209C
:1049E0001CBD401CC0B20528F4D301201CBD000032
:1049F0006E5246323400000010B5072000F0A8F8CF
:104A000040F07001BDE81040072000F0D5B910B5A6
:104A10000446052801D9002106E0012000F098F89D
:104A20000121A14020EA0101BDE81040012000F071
:104A3000C3B9FF21E22000F0BFB9FF21E12000F05F
:104A4000BBB9072000F084B810B50821002000F0A1
:104A5000B3F93F21012000F0AFF90321022000F05B
:104A6000ABF90321084600F0A7F90321042000F068
:104A7000A3F90221052000F09FF90E21062000F085
:104A80009BF90021072000F097F90021112000F088
:104A900093F90021122000F08FF90021132000F07B
:104AA0008BF90021142000F087F90021152000F077
:104AB00083F90021162000F07FF900211C2000F06E
:104AC0007BF900211D2000F077F9FFF7B2FFFFF717
:104AD000B4FFFFF791FF0122BDE810401103014828
:104AE000FBF7E3BC000C014001B582B064200090EC
:104AF000012301AA02A90348FCF78CFB9DF80400DE
:104B00000EBD0000380500202DE9F041DFF83C80A3
:104B100015460C4607464FF4805600223146404663
:104B2000FBF7C3FC3846FFF7DFFF04E0FF20FFF789
:104B3000DBFF04F8010B6D1EEDB2F7D231464046A3
:104B4000BDE8F0410122FBF7B0BC0000000C0140C1
:104B500070B50C4E04464FF480550022294630466D
:104B6000FBF7A3FC04F01F00FFF7BEFFFF20FFF7D9
:104B7000BBFF0446012229463046FBF796FC20463F
:104B800070BD0000000C01402DE9F04705461A4FAA
:104B90000E46072D2ED2DFE805F00404272727272D
:104BA00004000320FFF7D4FF401CC4B2DFF84C9090
:104BB0004FF480582644002241464846FBF775FCD6
:104BC000785D40F02000FFF78FFF00BF16F8010965
:104BD000FFF78AFF641EE4B2F8D241464846BDE8BA
:104BE000F0470122FBF761BC0978785DBDE8F0472A
:104BF00000F0E2B8BDE8F087D64F0008000C014095
:104C0000801EC1B2032000F0D7B810B504460020C2
:104C1000FFF79EFF04F00C0120F00C000143BDE8FB
:104C20001040002000F0C8B810B504460620FFF779
:104C30008FFF20F028012143BDE81040062000F03E
:104C4000BBB810B504460020FFF782FF04F0010155
:104C500020F001000143BDE81040002000F0ACB896
:104C600010B504460020FFF773FF022C06D020F099
:104C70000201BDE81040002000F09EB840F00201A3
:104C8000F7E70146052000F097B800002DE9F04154
:104C9000054617460E460220FFF75AFF0124AC4096
:104CA000204300F03F01022000F086F80A4807F098
:104CB0003F01405D00F080F80120FFF749FF012E21
:104CC00006D020EA0401BDE8F041012000F074B8EC
:104CD0000443E1B2F7E70000D04F000810B50446E6
:104CE0000620FFF735FF20F006012143BDE8104004
:104CF000062000F061B80000F8B5064619481A4DC4
:104D00000C460090002280212846FBF7CEFB21466E
:104D1000304600F04BF8012280212846FBF7C5FB06
:104D2000FFF78FFE044610F0300F03D10098411EAC
:104D30000091F5D2002280212846FBF7B6FB0098AF
:104D400028B1FFF759FEE00603D50320F8BD022085
:104D5000F8BDA00601D50120F8BDFFF76EFE0020CA
:104D6000F8BD0000FFFF0F00000801402DE9F041F1
:104D7000DFF8348015460C4607464FF48056002273
:104D800031464046FBF791FB384601E014F8010B31
:104D9000FFF7AAFE6D1EEDB2F8D231464046BDE8DF
:104DA000F0410122FBF781BB000C01400A4601469D
:104DB000A020FFF7DBBF00002DE9F041134E0F46A6
:104DC00004464FF48055002229463046FBF76DFB20
:104DD000202C06D204F01F0040F02000FFF784FED4
:104DE0000AE02046FFF780FEE12C08D0E22C06D036
:104DF000E32C04D0FF2C02D03846FFF775FE29467D
:104E00003046BDE8F0410122FBF74FBB000C0140EA
:104E100070B50E4688B0054690F83041C022012199
:104E2000FEF7B0F9002823D169462846FDF768FE51
:104E300000281DD10122FF212846FEF7A3F90028F2
:104E400016D13246B6212846FDF7B4FE00280FD110
:104E50000022FF212846FEF795F9002808D12246B6
:104E600001212846FEF78EF9002801D185F830414E
:104E700008B070BD10B500201870052913D2DFE806
:104E800001F00306090C0F00C2F3001109E0C2F3A0
:104E9000C00106E0C2F3800103E0C2F3801100E02C
:104EA000D109197010BD6FF0030010BD06230A462A
:104EB000B021FEF78DB9F0B587B01646054661B151
:104EC00001290AD0022908D0032922D004293ED082
:104ED0006FF0030407B02046F0BD05AA0021FDF7DE
:104EE000C6FD0400F6D19DF8142031462846FEF791
:104EF00013FB80B2B0F5807F01D9FF2201E0401E94
:104F0000C2B2A5F8D82046212846FEF73BF9044650
:104F1000E0E705AA0021FDF7AAFD04469DF814204C
:104F200031462846FEF7F8FA80B2FEF746FBADF8A8
:104F300008000246A5F8D800002CCBD15121284604
:104F4000FEF732F90400C5D1C5F8E460C2E703A951
:104F5000FDF754FD9DF80F00002798B105AA002128
:104F60002846FDF784FD0400B4D102AA5121284649
:104F7000FDF720FE0446BDF80800FEF7EFFA87B201
:104F8000002CA7D105AA01212846FDF770FD0400D9
:104F9000A0D19DF8142031462846FEF7BDFA3844CA
:104FA000FEF70BFB024671212846FEF7FDF80400D0
:104FB00090D1C5F8DC608DE7000000000000000023
:104FC00001020304060708090000000001020304AF
:104FD0001112131415160A0B0C0D0E0F100101E718
:104FE0001FE10101E71FE20101E71FE30101E71FE4
:104FF000E40101E71FE50101E71FE6001C5000087E
:1050000000000020EC020000A4010008B4520008D7
:10501000EC0200202407000062450008101B01FF7D
:105020000101000001FF0001090001100001110051
:105030000124010125FF017515200B01014E2C01F2
:10504000480001302021203630090154000131048C
:105050000132030140830146250160000127000160
:105060005006015100015296015608015730016166
:10507000000162000164000165000166A045300B7B
:1050800022320147140149FF014A6920097A0A01C5
:105090007B0001782160201B23340142000144FF82
:1050A000014526014605014040010E0601201A0176
:1050B00043402A2006340301354487117520094BEB
:1050C00009014C05014D0442301D440001452001F9
:1050D000470801482801670001700401710101724D
:1050E000FE0176000177B7230D01692006800101DA
:1050F00001F8C6128EE44112430000ED111B51F974
:10510000106701014F0201FF0E010003010184013C
:10511000020A0103030104080105C801060301078F
:105120008D0108080109C6010A01010B02010C00EA
:10513000010DD5010E18010F12011001011182019C
:1051400012000113D50114180115130116030117DC
:105150008601180A011909011A08011BC2011C0362
:10516000011D8F011E0A011FD51431010121020109
:1051700022000123D501241801252201260101273F
:10518000820128000129D5012A18012B0B012C28A6
:10519000012D78012E28012F9101306B34380B013D
:1051A000320001330B0134000135A1013600013713
:1051B000A0013800013904013A28013B30013C0CC0
:1051C000013D04013E0F013F7901402801411E01CC
:1051D000422F0143872024080B01460001470BBFE3
:1051E0002749A77A24064BA6014C0041124EF3151D
:1051F000B6242F00015180015209015308015401C6
:1052000001550001560F015779015809015905014F
:105210005A00015B60015C05015DD1015E0C015F1C
:105220003CEC142C61D001620B0163030164280182
:10523000651001662A01673901680B016902016A7C
:1052400028016B10016C2A016D61016E0C016F95D4
:1052500034110F01717901720001730B01740001A7
:10526000750B9E140DA10178000179A0017A00014F
:105270007BCB441F0401791D017B2701960E01970A
:10528000FE0198030199EF019A02019B4401730703
:105290000170A425B94101120A0452050C2108032A
:1052A0001064000119CD6300100D7007A24A040AB2
:0452B00000042600D0
:04000005080000ED02
:00000001FF
