:020000040800F2
:10000000F80400200101000837120008BD100008A4
:10001000351200086D0100088D180008000000006E
:10002000000000000000000000000000791200083D
:100030006F01000800000000591200087D1200083E
:100040001B0100081B0100081B0100081B01000820
:100050001B0100081B010008710100081B010008BA
:100060001B0100081B0100081B0100081B01000800
:100070001B0100081B0100081B0100081B010008F0
:100080001B0100081B0100081B0100081B010008E0
:100090001B0100081B0100081B0100081B010008D0
:1000A0001B0100081B0100081B0100081B010008C0
:1000B0001B0100081B0100081B0100081B010008B0
:1000C0001B0100081B0100081B0100081B010008A0
:1000D0005D120008811800081B0100081B010008C0
:1000E0001B0100081B0100081B010008DFF80CD0F1
:1000F00000F02AF800480047AD180008F804002076
:100100000648804706480047FEE7FEE7FEE7FEE7B1
:10011000FEE7FEE7FEE7FEE7FEE7FEE7D91300088D
:10012000ED000008D2B201E000F8012B491EFBD21D
:1001300070470022F6E710B513460A4604461946F2
:10014000FFF7F0FF204610BD064C074D06E0E068C3
:1001500040F0010394E8070098471034AC42F6D30E
:10016000FFF7C8FFB41A0008D41A0008FEE770476A
:10017000012000F061B8000010B590F821100024B3
:10018000022903D00421816301243DE001680A684B
:1001900022F00E020A6001680A6822F001020A6079
:1001A0001A4A0168914201D1012121E0174A143213
:1001B000914201D110211BE0144A2832914201D111
:1001C000891515E0114A3C32914201D189140FE0A2
:1001D0000E4A5032914202D14FF4803108E00B4A6E
:1001E0006432914202D14FF4801101E04FF08071EE
:1001F000064A083A5160012180F82110002180F858
:100200002010416B01B18847204610BD0800024014
:1002100070B5044600F004F90546601C02D004489D
:100220000078044400F0FCF8401BA042FAD370BDF3
:100230000C00002070470000044910B50A68024213
:1002400002D00860FFF7F6FF10BD00001404014063
:100250002DE9F84FDFF890A100220AF1040B1446B3
:1002600001274FF00F090BF1040E00BF0B6807FACE
:1002700004F52B40AB4274D1DFF870C14E68A6EB99
:100280000C0866452BD00DDC032E34D005DC36B3CC
:10029000012E19D0022E2FD11BE0112E16D0122EB6
:1002A0002AD119E0B8F5881F19D006DCB8F5803FCF
:1002B00015D0B8F5801F1FD111E0B8F5001F0ED082
:1002C000B8F5041F18D10AE0CA6815E0CA68121D03
:1002D00012E0CA6808320FE0CA680C320CE08A6883
:1002E0002AB1012A4FF0080203D0456104E004223C
:1002F00002E0056100E00022FF2B01D8064601E084
:1003000000F104064FEA840501D9A5F12005D6F8CD
:1003100000C009FA05F82CEA080C02FA05F54CEAC7
:10032000050CC6F800C04D68ED0057D5304DAE69DC
:1003300046F00106AE61AD6924F0030605F0010543
:1003400000952C4D06EB050CDCF80850A6074FEA8B
:10035000167809FA08F6B543274EB04202D10026B6
:1003600010E03BE0254EB04201D101260AE0244EC8
:10037000B04201D1022605E0224EB04201D103264F
:1003800000E0042606FA08F62E43CCF808604D6813
:10039000DAF80060ED03554601D51E4300E09E43A8
:1003A0002E604D68DBF80060AD035D4601D51E434D
:1003B00000E09E432E604D68DEF80060ED02754659
:1003C00001D51E4300E09E432E604D68AD020E4DE8
:1003D0002E6801D51E4300E09E432E60641C102C45
:1003E000FFF444AFBDE8F88F000401400000111095
:1003F000001002400000014000080140000C0140D4
:1004000000100140001401400C04014080680840C5
:1004100000D0012070470AB1016170470904FBE771
:1004200001488068704700000C0000200248816885
:1004300002781144816070470C000020074810B515
:10044000016841F010010160032000F07DF80020F8
:1004500000F006F800F024F8002010BD0020024053
:1004600070B50D4D04464FF47A712878B1FBF0F069
:100470000A490968B1FBF0F000F010FC48B9102CF3
:1004800007D200222146501E00F03EF800206C608A
:1004900070BD012070BD00000C000020180000207D
:1004A0000C4808B5816941F001018161816901F061
:1004B00001010091C16941F08051C161C06900F042
:1004C000805000900448416821F0E06141F00071E3
:1004D000416008BD001002400000014000F01F0212
:1004E000012191404009800000F1E020C0F8801116
:1004F000704700F01F02012191404009800000F187
:10050000E020C0F800117047F0B40E4B1B680C4699
:10051000C3F30223C3F10705042D00D90425191DD7
:10052000072901D2002300E0DB1E012606FA05F1AF
:10053000491E214099409E40761E16403143F0BC32
:1005400000F07ABE0CED00E0064900F007020868F2
:100550004FF6FF03184040EA0220034A10430860A8
:10056000704700000CED00E00000FA0590FAA0F0E2
:10057000044AB0FA80F002EB80000121C0F880103C
:100580007047000000000E420548016841F002017A
:1005900001600448016841F00401016030BF704708
:1005A0000070004010ED00E02DE9F047DFF85481C5
:1005B00005460E46D8F8000000F00700B0420CD205
:1005C000D8F8001021F007013143C8F80010D8F81E
:1005D000000000F00700B0426FD128684A4C810744
:1005E00012D5400703D5606840F4E0606060287869
:1005F000000703D5606840F4605060606068A968D7
:1006000020F0F000084360602878C00744D0686894
:10061000012816D02168022816D0890700294CDA53
:10062000616821F0030101436160FFF7F9FE696829
:10063000074641F2883001290ED00229814618D0A0
:1006400026E021688903E9E78901E7E7FFF7E8FE8B
:10065000C11B494501D918E081466068C0F381009B
:100660000128F3D118E000BFFFF7DAFEC11B4945AE
:100670000BD86068C0F381000228F5D10CE000BF00
:10068000FFF7CEFEC11B494502D90320BDE8F08724
:10069000606810F00C0FF3D1D8F80010404601F05C
:1006A0000701B1420BD9016821F007013143016014
:1006B000006800F00700B04201D00120E6E728788A
:1006C000400705D56068E96820F4E0600843606091
:1006D0002878000706D56068296920F4605040EA50
:1006E000C100606000F036F86168084AC1F3031188
:1006F000515CC840064908600020FFF7B1FE0020A9
:10070000C4E7000000200240001002409C1A0008CC
:10071000180000200448054900684968044AC1F3EC
:100720000221515CC84070471800002000100240B0
:10073000AC1A00080448054900684968044AC1F336
:10074000C221515CC84070471800002000100240D0
:10075000AC1A000813A185B00FC98DE80F0015A0D1
:10076000154A00680490516801F00C00042804D078
:10077000082804D0114805B070471148FBE7C1F3C1
:100780008343C9031DF8030009D5516804AAC1F3C6
:100790004041515C0A4A5043B0FBF1F0EBE7094994
:1007A0004843E8E702030405060708090A0B0C0D95
:1007B0000E0F1010010200000010024000127A001B
:1007C000001BB70000093D002DE9F84F04460078F2
:1007D000B94DC00748D06868C0F38100012807D030
:1007E0006868C0F38100022809D16868C00306D593
:1007F0002868800338D5606800286FD034E06068CE
:10080000B0F5803F0BD010B1B0F5A02F11D0286803
:1008100020F480302860286820F4802002E02868D6
:1008200040F480302860606888B1FFF7F9FD064623
:1008300009E0286840F480202860F0E7FFF7F0FD29
:10084000801B642875D828688003F7D50CE0FFF773
:10085000E7FD064605E000BFFFF7E2FD801B6428C8
:10086000F0D828688003F7D42078944E80074FF0A2
:1008700001094FF000083BD5686810F00C0F07D055
:100880006868C0F38100022809D16868C00306D4F3
:100890002868800714D5206901281FD110E020693D
:1008A000B0B1C6F80090FFF7BBFD074605E000BFFA
:1008B000FFF7B6FDC01B0228C4D828688007F7D50B
:1008C0002868616920F0F80040EAC10028600FE064
:1008D000C6F80080FFF7A4FD074606E0E9E000BF88
:1008E000FFF79EFDC01B022823D828688007F7D495
:1008F000207800072CD57248A169D9B1C0F80090C2
:10090000FFF78EFD074604E0FFF78AFDC01B0228B3
:100910000FD8686A8007F7D56A484FF4FA51006823
:10092000B0FBF1F0009000BF0098411E0091FAD298
:100930000EE080E0C0F80080FFF772FD074604E09B
:10094000FFF76EFDC01B022875D8686A8007F7D4D0
:100950002078400760D5E8690027C00008D4E8691E
:1009600040F08050E861E869012700F08050009075
:1009700055480168C90513D40168834641F4807164
:100980000160FFF74DFD824606E000BFFFF748FD1E
:10099000A0EB0A0064284ED8DBF80000C005F5D5AE
:1009A000E06801280AD008B1052813D0286A20F091
:1009B00001002862286A20F0040002E0286A40F062
:1009C00001002862E06841F2883B98B1FFF728FDFA
:1009D00082460BE0286A40F004002862EEE700BF80
:1009E000FFF71EFDA0EB0A0159455AD8286A800777
:1009F000F6D50CE0FFF714FD824605E0FFF710FD89
:100A0000A0EB0A0159454CD8286A8007F6D41FB1DB
:100A1000E86920F08050E861E06988B36968C1F353
:100A20008101022945D00228C6F8608004D0FFF772
:100A3000F7FC044638E034E0FFF7F2FC074604E038
:100A4000FFF7EEFCC01B02282BD828688001F7D4E2
:100A5000206AB0F5803F05D16868A16820F40030B5
:100A600008436860D4E908010843696821F47411F7
:100A700008436860C6F86090FFF7D2FC044606E0C1
:100A800015E000BFFFF7CCFC001B022809D828683E
:100A90008001F7D50BE000BFFFF7C2FC001B022866
:100AA00002D90320BDE8F88F28688001F4D4002023
:100AB000F8E70120F6E70000001002400000424283
:100AC000800442421800002000700040704700007F
:100AD00038B504460068426881684B0605D4CB07E8
:100AE00003D0530601D5216C04E08B0707D513060C
:100AF00005D5616C01B02046BDE83040084711F0D3
:100B0000600F3FD093063DD54B060AD594F851307F
:100B1000032B34D0636D43F004036365C3688368BB
:100B20000093890609D5616D41F001016165816815
:100B30000091016821F040010160606D002821D022
:100B40002068416821F0E0014160012084F85100F3
:100B5000900718D02068416821F0030141600C4DD6
:100B6000E06C18B14563E06CFFF706FBA06C002851
:100B700008D04563A06CBDE83840FFF7FDBAC168F6
:100B80008068009038BD2046FFF7A0FF38BD000008
:100B90006912000870B5040005D00025A56294F81C
:100BA000510010B104E0012070BD204600F034F87F
:100BB000022084F851002068016821F040010160A2
:100BC000D4E901010843D4E90312114308436169E0
:100BD0000843218B01F400710843E1690843216A4D
:100BE0000843A16A084321680860A069042101EA5A
:100BF0001040616A0843216848602168E06A086122
:100C00002068C16921F40061C1616565012084F833
:100C10005100002070BD000030B585B00024009464
:100C20000194029403940068194988422DD119480F
:100C3000C16941F48041C161C16901F480410491FD
:100C4000816941F0080181618069134D00F008005D
:100C500004904FF420400090022001900320039064
:100C600069462846FFF7F4FA4FF48040CDE90004C6
:100C7000694628460294FFF7EBFA0022032124205C
:100C8000FFF742FC2420FFF734FC05B030BD000024
:100C90000038004000100240000C014010B5401E1A
:100CA000B0F1807F01D3012010BD4FF0E0246061DE
:100CB0000F21601700F0C0FA0020A061072020611A
:100CC000002010BD30B590F83C20012A20D0012230
:100CD00080F83C20022380F83D3003685C6824F0F3
:100CE00070045C6003685C680D682C435C6003689A
:100CF0009C6824F080049C6003689C6849680C43ED
:100D00009C6080F83D20002180F83C10084630BDF2
:100D1000022030BD00B585B0002100910191029103
:100D2000039100680B49884212D10B48816941F058
:100D3000080181618069694600F0080004904FF461
:100D4000E07000900220019003900448FFF780FAC1
:100D500005B000BD0008004000100240000C01403A
:100D600070B5044690F83C000D4601280DD00126D0
:100D700084F83C60022084F83D0042B1042A18D077
:100D8000082A2AD00C2A4DD139E0022070BD2068F3
:100D900000F088FB2068816941F0080181612068CA
:100DA000816921F004018161206881692A69114308
:100DB00011E0206800F09EFB2068816941F4006129
:100DC00081612068816921F4806181612068816985
:100DD0002A6941EA0221816124E0206800F0B6FB23
:100DE0002068C16941F00801C1612068C16921F032
:100DF0000401C1612068C1692A69114311E02068BA
:100E000000F0D0FB2068C16941F40061C161206835
:100E1000C16921F48061C1612068C1692A6941EA20
:100E20000221C16184F83D60002084F83C0070BD5F
:100E300010B5040003D094F83D0010B107E0012084
:100E400010BD002084F83C00204600F00DF8022080
:100E500084F83D00211D206800F0E2FA012084F8AA
:100E60003D00002010BD000008B50068064988421A
:100E700008D10648C16941F00401C161C06900F0B0
:100E80000400009008BD000000080040001002406F
:100E900010B504460068012200F0F8FA07492068FE
:100EA000884203D1416C41F40041416420680168EB
:100EB00041F001010160002010BD0000002C014044
:100EC0007047000070B5026804461068D168536925
:100ED00010F00F0F50D003F0010501F49076354368
:100EE0005DD0C20705D0CA0503D5E26B42F001020E
:100EF000E263420705D5DA0703D0E26B42F0020253
:100F0000E263820705D5DA0703D0E26B42F0040200
:100F1000E263020705D5DA0703D0E26B42F008026C
:100F2000E263E26B002A33D0800604D5880602D53E
:100F3000204600F06FFB20684069E16BC0F3801031
:100F4000090700D428B3204600F056FB2068416909
:100F500049061AD5416921F040014161606BA0B199
:100F60001B494163606BFFF707F9002810D0606BE5
:100F7000416BBDE870400847830610D58B060ED53F
:100F80002046BDE8704000F045BB2046FFF798FFC3
:100F900070BD2046FFF794FF0020E06370BD03069C
:100FA00006D50B0604D52046BDE8704000F036BCDF
:100FB0004006F3D54806F1D5D168204621F040011E
:100FC000D160202184F8391000F077F870BD00005E
:100FD000E915000870B5040004D094F83900002524
:100FE00010B106E0012070BD84F83850204600F0B2
:100FF00023F8242084F839002068C16821F40051C6
:10100000C160204600F052FB2068016921F4904144
:1010100001612068416921F02A0141612068C168AD
:1010200041F40051C160E563202084F8390084F860
:101030003A00002070BD000030B585B00024009457
:101040000194029403940068184988422CD11848EE
:10105000816941F480418161816901F48041049199
:10106000816941F0040181618069124D00F0040042
:1010700004904FF400700090022001900320039030
:1010800069462846FFF7E4F82815CDE900046946CB
:1010900028460294FFF7DCF8002203212520FFF701
:1010A00033FA2520FFF725FA05B030BD003801409E
:1010B000001002400008014070477047FEE7000042
:1010C0002DE9F04385B000242D480094019402944A
:1010D0000394816941F020018161816901F020015F
:1010E0000491816941F004018161816901F0040189
:1010F0000491816941F0080181618069DFF8849081
:1011000000F008000490002298214846FFF783F978
:10111000DFF874804FF48057002239464046FFF7CD
:101120007AF9012519480095CDE901046946484638
:10113000FFF78EF898200226CDE90005CDE902469A
:1011400069464846FFF784F800970396CDE90154B5
:1011500069464046FFF77CF82802CDE9000469465D
:1011600048460294FFF774F8002201210620FFF799
:10117000CBF90620FFF7BDF905B0BDE8F08300000C
:101180000010024000080140000C01400000111056
:101190000B480A494FF4007201604FF482714160BC
:1011A00000218160C1600161C0E90512C161016275
:1011B000416281620A21C162FFF7ECBC0038004045
:1011C0001C00002010B58AB0002407941C2168463A
:1011D0000894FEF7AEFF16481449C0E90014FF2139
:1011E000C0E9024104618461FFF722FE079407A968
:1011F0000F480894FFF766FD6020CDE900040294D3
:10120000002269460A480494FFF7AAFD04226946B1
:101210000748FFF7A5FD082269460548FFF7A0FD2E
:101220000348FFF777FD0AB010BD0000000800403A
:1012300074000020FEE770470907090E002806DA4F
:1012400000F00F0000F1E02080F8141D704700F15D
:10125000E02080F800147047704700000148FFF755
:1012600037BC00001C00002010B5406A0021C18777
:10127000C186FFF72BFC10BD704700002DE9F04739
:10128000FFF7CEF84FF4FA69B0FBF9F209FB120050
:10129000394D58B96868C043800707D5002201213D
:1012A0000620FFF731F90620FFF723F9334CDFF86A
:1012B000D080344F2078DFF8D0A0012848D1FFF744
:1012C000AFF8D8F80010314E401A484509D2012134
:1012D0005046FFF79BF801283AD13088401C3080F7
:1012E00036E02078012833D1397840F2DC504FF4D1
:1012F000807911B1012904D015E03188814203D3EE
:1013000011E0318881420ED9002210215046FFF7AA
:1013100082F84846FFF72AF9286840F00400286060
:10132000FFF732F914E0012155465046FFF76EF8F9
:1013300018B12078012806D00AE002202070002091
:101340003870308007E0012210212846FFF763F84B
:10135000207802280CD101215046FFF757F80128C8
:1013600006D101252570FFF75BF8C8F800003D7035
:10137000BDE8F047FFF75AB80070004000000020B9
:101380000400002008000020000801400A0000209E
:1013900030B58FB028216846FEF7CBFE14210AA88D
:1013A000FEF7C7FE0121080400240491CDE90010D6
:1013B000CDE908040294022507956846FFF704FA70
:1013C0000F200A90CDE90B540D9400210AA80E9429
:1013D000FFF7EAF80FB030BD0D48016841F0010198
:1013E000016041680B4A1140416001680A4A11409E
:1013F0000160016821F480210160416821F4FE014F
:1014000041604FF41F0181600449C00308607047C8
:10141000001002400000FFF8FFFFF6FE08ED00E0BC
:10142000F0B50268164B174C174D4FF080479842A5
:1014300005D0B84203D0A04201D0A84203D122F087
:1014400070064A683243984205D0B84203D0A042A1
:1014500001D0A84203D122F44074CA68224322F08A
:1014600080044A69224302608A68C2620A68826212
:10147000984201D10969016301214161F0BD000079
:10148000002C0140000400400008004010B501237A
:10149000046A8B409C430462036A8A4013430362DC
:1014A00010BD000030B5026A22F001020262026A39
:1014B0004368846924F073050C682C4322F002050C
:1014C0008A682A430A4DA8420BD122F00805CA684F
:1014D00023F440732A434D6922F004021D438B69B3
:1014E0002B434360846149684163026230BD000060
:1014F000002C014030B5026A22F010020262026A3A
:10150000436884690D6824F4E64444EA05248D6840
:1015100022F0200242EA05120B4DA8420ED1CD68FE
:1015200022F0800242EA05124D6923F4406343EA47
:1015300085038D6922F0400243EA8503436084619C
:1015400049688163026230BD002C014030B5026AF7
:1015500022F480720262036A4268C46923F4007351
:1015600024F073050C682C438D6843EA05230C4D69
:10157000A8420ED1CD6823F4006343EA05234D69E8
:1015800022F4405242EA05128D6923F4806342EA54
:1015900005124260C4614968C163036230BD000046
:1015A000002C014030B5026A22F480520262046AC3
:1015B0004268C3690D6823F4E64343EA05238D6856
:1015C00024F4005444EA0534064DA84204D14D6980
:1015D00022F4804242EA85124260C3614968016494
:1015E000046230BD002C014010B5406A0021C18565
:1015F000C184FFF765FC10BD0168CA6822F49072CF
:10160000CA6001684A6922F001024A61202180F81B
:101610003A10704710B590F83A10222901D00220F4
:1016200010BD8168B1F5805F11D0016900290168A2
:101630001FD0496801F07F03816A4A1C82620B70E7
:10164000C18D491E0904090CC18518D02BE002691F
:10165000816A002A0268526805D0D2B20A80816A83
:10166000491C8162ECE7C2F308020A80816A891C86
:10167000F7E74A68816A4B1C83620A70E0E70168F9
:10168000CA6822F02002CA600168CA6822F4807227
:10169000CA6001684A6922F001024A61202180F88B
:1016A0003A10FFF709FD002010BD00002DE9F041C0
:1016B000044600680169E26821F440511143016168
:1016C0002169A0680843616908432168CA6841F23A
:1016D0000C639A430243CA6020684169A26921F4FD
:1016E0004071114341614C4920686425322688428B
:1016F0003CD1FFF71FF800EBC00101EB001061685F
:101700008900B0FBF1F7FFF715F800EBC00101EB22
:1017100000106168B0468900B0FBF1F0B0FBF5F055
:101720006FF01801484307EB800106EB0110B0FB96
:10173000F5F000F0F006FEF7FDFF00EBC00101EB55
:10174000001061688900B0FBF1F0B0FBF5F006EB2A
:101750000016FEF7EFFF00EBC00101EB001061681F
:101760008900B0FBF1F7FEF7E5FF3BE0FEF7D2FFA3
:1017700000EBC00101EB001061688900B0FBF1F7DC
:10178000FEF7C8FF00EBC00101EB00106168B04636
:101790008900B0FBF1F0B0FBF5F06FF018014843A1
:1017A00007EB800106EB0110B0FBF5F000F0F0064E
:1017B000FEF7B0FF00EBC00101EB0010616889008B
:1017C000B0FBF1F0B0FBF5F006EB0016FEF7A2FF60
:1017D00000EBC00101EB001061688900B0FBF1F77C
:1017E000FEF798FF00EBC00101EB00106168890073
:1017F000B0FBF1F0B0FBF5F06FF01801484307EBD8
:10180000800108EB0110B0FBF5F0216800F00F003B
:1018100030448860BDE8F0810038014090F839100C
:10182000212901D0022070478168B1F5805F016AEB
:101830000BD04A1C0262026809785160C18C491EB3
:101840000904090CC1840ED017E009880268C1F3AD
:101850000801516001690029016A02D0491C016236
:10186000ECE7891CFBE70168CA6822F08002CA60C5
:101870000068C16841F04001C1600020704700006D
:101880000148FFF71FBB0000B4000020FEE702E0A4
:1018900008C8121F08C1002AFAD1704770470020FB
:1018A00001E001C1121F002AFBD17047FEF7C6FDFF
:1018B000FFF76EFDFFF704FC7348724900240160D6
:1018C0004FF47A31C0E901140C21C460C0E904412D
:1018D0008461C461FFF77EFBFFF75AFCFFF772FCDF
:1018E0000620FEF7FBFD694D01262E70FEF798FDE0
:1018F000686067484168C943890707D4016841F0B7
:10190000080101602E70FEF78BFD68605E480021C3
:101910004038FFF7BDFA5C4804214038FFF7B8FAB9
:10192000594808214038FFF7B3FADFF868B10122BF
:1019300008215D465846FEF76EFD4FF47A76304634
:10194000FEF766FC012210212846FEF764FD3046B2
:10195000FEF75EFC002208212846FEF75CFD3046BB
:10196000FEF756FC002210212846FEF754FD3046B3
:101970007DE02760C8F80050C9F800603220FEF70B
:1019800047FC761CB6B2FF2EF3D9BA46FF2647466F
:1019900026603D60D046C9F800A00520FEF738FC5F
:1019A000761E3604360CF3D1AA464546B8464F4655
:1019B000D146C4F800A0C8F800603D600520FEF7DD
:1019C00027FC761CB6B2FF2EF2D9CA46FF26B946CE
:1019D0005746C4F800A0C8F80050C9F800600520B8
:1019E000FEF716FC761E3604360CF1D1BA46474691
:1019F000C84626603D60D146C8F800A00520FEF725
:101A000007FC761CB6B2FF2EF3D9CA46A946FF26BC
:101A10004FEA0805C4F800903E60C5F800A0052014
:101A2000FEF7F6FB761E3604360CF3D101220821B0
:101A30005C465846FEF7EFFC4FF47A752846FEF7F1
:101A4000E7FB012210212046FEF7E5FC2846FEF7C1
:101A5000DFFB002208212046FEF7DDFC2846FEF7CA
:101A6000D7FB002210212046FEF7D5FC2846FEF7C2
:101A7000CFFB094C002604F104083546FF2708F186
:101A8000040976E700380140B4000020000000207F
:101A900000700040000801403408004000000000D1
:101AA000000000000102030406070809000000000E
:101AB00001020304D41A0008000000201C000000EA
:101AC0008E180008F01A00081C000020DC0400003A
:101AD0009E18000800000000000000000000000048
:101AE00001000000100000000000000000A24A04F5
:04000005080000ED02
:00000001FF
