:020000040800F2
:100000002005002001010008C71400084F13000854
:10001000C51400086D010008291D0008000000003B
:10002000000000000000000000000000BF150008F4
:100030006F01000800000000E9140008C115000865
:100040001B0100081B0100081B0100081B01000820
:100050001B0100081B010008710100081B010008BA
:100060001B0100081B0100081B0100081B01000800
:100070001B0100081B0100081B0100081B010008F0
:100080001B0100081B0100081B0100081B010008E0
:100090001B0100081B0100081B0100081B010008D0
:1000A0001B0100081B0100081B0100081B010008C0
:1000B0001B0100081B0100081B0100081B010008B0
:1000C0001B0100081B0100081B0100081B010008A0
:1000D000ED1400081D1D00081B0100081B0100088D
:1000E0001B0100081B0100081B010008DFF80CD0F1
:1000F00000F02AF800480047951D00082005002060
:100100000648804706480047FEE7FEE7FEE7FEE7B1
:10011000FEE7FEE7FEE7FEE7FEE7FEE73D17000825
:10012000ED000008D2B201E000F8012B491EFBD21D
:1001300070470022F6E710B513460A4604461946F2
:10014000FFF7F0FF204610BD064C074D06E0E068C3
:1001500040F0010394E8070098471034AC42F6D30E
:10016000FFF7C8FF2025000840250008FEE770477C
:10017000012000F061B8000010B590F821100024B3
:10018000022903D00421816301243DE001680A684B
:1001900022F00E020A6001680A6822F001020A6079
:1001A0001A4A0168914201D1012121E0174A143213
:1001B000914201D110211BE0144A2832914201D111
:1001C000891515E0114A3C32914201D189140FE0A2
:1001D0000E4A5032914202D14FF4803108E00B4A6E
:1001E0006432914202D14FF4801101E04FF08071EE
:1001F000064A083A5160012180F82110002180F858
:100200002010416B01B18847204610BD0800024014
:1002100070B5044600F004F90546601C02D004489D
:100220000078044400F0FCF8401BA042FAD370BDF3
:100230001400002070470000044910B50A6802420B
:1002400002D00860FFF7F6FF10BD00001404014063
:100250002DE9F84FDFF890A100220AF1040B1446B3
:1002600001274FF00F090BF1040E00BF0B6807FACE
:1002700004F52B40AB4274D1DFF870C14E68A6EB99
:100280000C0866452BD00DDC032E34D005DC36B3CC
:10029000012E19D0022E2FD11BE0112E16D0122EB6
:1002A0002AD119E0B8F5881F19D006DCB8F5803FCF
:1002B00015D0B8F5801F1FD111E0B8F5001F0ED082
:1002C000B8F5041F18D10AE0CA6815E0CA68121D03
:1002D00012E0CA6808320FE0CA680C320CE08A6883
:1002E0002AB1012A4FF0080203D0456104E004223C
:1002F00002E0056100E00022FF2B01D8064601E084
:1003000000F104064FEA840501D9A5F12005D6F8CD
:1003100000C009FA05F82CEA080C02FA05F54CEAC7
:10032000050CC6F800C04D68ED0057D5304DAE69DC
:1003300046F00106AE61AD6924F0030605F0010543
:1003400000952C4D06EB050CDCF80850A6074FEA8B
:10035000167809FA08F6B543274EB04202D10026B6
:1003600010E03BE0254EB04201D101260AE0244EC8
:10037000B04201D1022605E0224EB04201D103264F
:1003800000E0042606FA08F62E43CCF808604D6813
:10039000DAF80060ED03554601D51E4300E09E43A8
:1003A0002E604D68DBF80060AD035D4601D51E434D
:1003B00000E09E432E604D68DEF80060ED02754659
:1003C00001D51E4300E09E432E604D68AD020E4DE8
:1003D0002E6801D51E4300E09E432E60641C102C45
:1003E000FFF444AFBDE8F88F000401400000111095
:1003F000001002400000014000080140000C0140D4
:1004000000100140001401400C04014080680840C5
:1004100000D0012070470AB1016170470904FBE771
:10042000014880687047000014000020024881687D
:10043000027811448160704714000020074810B50D
:10044000016841F010010160032000F07DF80020F8
:1004500000F006F800F024F8002010BD0020024053
:1004600070B50D4D04464FF47A712878B1FBF0F069
:100470000A490968B1FBF0F000F0FCFC48B9102C07
:1004800007D200222146501E00F03EF800206C608A
:1004900070BD012070BD000014000020200000206D
:1004A0000C4808B5816941F001018161816901F061
:1004B00001010091C16941F08051C161C06900F042
:1004C000805000900448416821F0E06141F00071E3
:1004D000416008BD001002400000014000F01F0212
:1004E000012191404009800000F1E020C0F8801116
:1004F000704700F01F02012191404009800000F187
:10050000E020C0F800117047F0B40E4B1B680C4699
:10051000C3F30223C3F10705042D00D90425191DD7
:10052000072901D2002300E0DB1E012606FA05F1AF
:10053000491E214099409E40761E16403143F0BC32
:1005400000F0C2BF0CED00E0064900F007020868A9
:100550004FF6FF03184040EA0220034A10430860A8
:10056000704700000CED00E00000FA0590FAA0F0E2
:10057000044AB0FA80F002EB80000121C0F880103C
:100580007047000000000E420548016841F002017A
:1005900001600448016841F00401016030BF704708
:1005A0000070004010ED00E02DE9F047DFF85481C5
:1005B00005460E46D8F8000000F00700B0420CD205
:1005C000D8F8001021F007013143C8F80010D8F81E
:1005D000000000F00700B0426FD128684A4C810744
:1005E00012D5400703D5606840F4E0606060287869
:1005F000000703D5606840F4605060606068A968D7
:1006000020F0F000084360602878C00744D0686894
:10061000012816D02168022816D0890700294CDA53
:10062000616821F0030101436160FFF7F9FE696829
:10063000074641F2883001290ED00229814618D0A0
:1006400026E021688903E9E78901E7E7FFF7E8FE8B
:10065000C11B494501D918E081466068C0F381009B
:100660000128F3D118E000BFFFF7DAFEC11B4945AE
:100670000BD86068C0F381000228F5D10CE000BF00
:10068000FFF7CEFEC11B494502D90320BDE8F08724
:10069000606810F00C0FF3D1D8F80010404601F05C
:1006A0000701B1420BD9016821F007013143016014
:1006B000006800F00700B04201D00120E6E728788A
:1006C000400705D56068E96820F4E0600843606091
:1006D0002878000706D56068296920F4605040EA50
:1006E000C100606000F036F86168084AC1F3031188
:1006F000515CC840064908600020FFF7B1FE0020A9
:10070000C4E700000020024000100240FA24000864
:10071000200000200448054900684968044AC1F3E4
:100720000221515CC84070472000002000100240A8
:100730000A2500080448054900684968044AC1F3CD
:10074000C221515CC84070472000002000100240C8
:100750000A25000813A185B00FC98DE80F0015A068
:10076000154A00680490516801F00C00042804D078
:10077000082804D0114805B070471148FBE7C1F3C1
:100780008343C9031DF8030009D5516804AAC1F3C6
:100790004041515C0A4A5043B0FBF1F0EBE7094994
:1007A0004843E8E702030405060708090A0B0C0D95
:1007B0000E0F1010010200000010024000127A001B
:1007C000001BB70000093D002DE9F84F04460078F2
:1007D000B94DC00748D06868C0F38100012807D030
:1007E0006868C0F38100022809D16868C00306D593
:1007F0002868800338D5606800286FD034E06068CE
:10080000B0F5803F0BD010B1B0F5A02F11D0286803
:1008100020F480302860286820F4802002E02868D6
:1008200040F480302860606888B1FFF7F9FD064623
:1008300009E0286840F480202860F0E7FFF7F0FD29
:10084000801B642875D828688003F7D50CE0FFF773
:10085000E7FD064605E000BFFFF7E2FD801B6428C8
:10086000F0D828688003F7D42078944E80074FF0A2
:1008700001094FF000083BD5686810F00C0F07D055
:100880006868C0F38100022809D16868C00306D4F3
:100890002868800714D5206901281FD110E020693D
:1008A000B0B1C6F80090FFF7BBFD074605E000BFFA
:1008B000FFF7B6FDC01B0228C4D828688007F7D50B
:1008C0002868616920F0F80040EAC10028600FE064
:1008D000C6F80080FFF7A4FD074606E0E9E000BF88
:1008E000FFF79EFDC01B022823D828688007F7D495
:1008F000207800072CD57248A169D9B1C0F80090C2
:10090000FFF78EFD074604E0FFF78AFDC01B0228B3
:100910000FD8686A8007F7D56A484FF4FA51006823
:10092000B0FBF1F0009000BF0098411E0091FAD298
:100930000EE080E0C0F80080FFF772FD074604E09B
:10094000FFF76EFDC01B022875D8686A8007F7D4D0
:100950002078400760D5E8690027C00008D4E8691E
:1009600040F08050E861E869012700F08050009075
:1009700055480168C90513D40168834641F4807164
:100980000160FFF74DFD824606E000BFFFF748FD1E
:10099000A0EB0A0064284ED8DBF80000C005F5D5AE
:1009A000E06801280AD008B1052813D0286A20F091
:1009B00001002862286A20F0040002E0286A40F062
:1009C00001002862E06841F2883B98B1FFF728FDFA
:1009D00082460BE0286A40F004002862EEE700BF80
:1009E000FFF71EFDA0EB0A0159455AD8286A800777
:1009F000F6D50CE0FFF714FD824605E0FFF710FD89
:100A0000A0EB0A0159454CD8286A8007F6D41FB1DB
:100A1000E86920F08050E861E06988B36968C1F353
:100A20008101022945D00228C6F8608004D0FFF772
:100A3000F7FC044638E034E0FFF7F2FC074604E038
:100A4000FFF7EEFCC01B02282BD828688001F7D4E2
:100A5000206AB0F5803F05D16868A16820F40030B5
:100A600008436860D4E908010843696821F47411F7
:100A700008436860C6F86090FFF7D2FC044606E0C1
:100A800015E000BFFFF7CCFC001B022809D828683E
:100A90008001F7D50BE000BFFFF7C2FC001B022866
:100AA00002D90320BDE8F88F28688001F4D4002023
:100AB000F8E70120F6E70000001002400000424283
:100AC0008004424220000020007000407047000077
:100AD00038B504460068426881684B0605D4CB07E8
:100AE00003D0530601D5216C04E08B0707D513060C
:100AF00005D5616C01B02046BDE83040084711F0D3
:100B0000600F3FD093063DD54B060AD594F851307F
:100B1000032B34D0636D43F004036365C3688368BB
:100B20000093890609D5616D41F001016165816815
:100B30000091016821F040010160606D002821D022
:100B40002068416821F0E0014160012084F85100F3
:100B5000900718D02068416821F0030141600C4DD6
:100B6000E06C18B14563E06CFFF706FBA06C002851
:100B700008D04563A06CBDE83840FFF7FDBAC168F6
:100B80008068009038BD2046FFF7A0FF38BD000008
:100B90001915000870B5040005D00025A56294F869
:100BA000510010B104E0012070BD204600F034F87F
:100BB000022084F851002068016821F040010160A2
:100BC000D4E901010843D4E90312114308436169E0
:100BD0000843218B01F400710843E1690843216A4D
:100BE0000843A16A084321680860A069042101EA5A
:100BF0001040616A0843216848602168E06A086122
:100C00002068C16921F40061C1616565012084F833
:100C10005100002070BD000030B585B00024009464
:100C20000194029403940068194988422DD119480F
:100C3000C16941F48041C161C16901F480410491FD
:100C4000816941F0080181618069134D00F008005D
:100C500004904FF420400090022001900320039064
:100C600069462846FFF7F4FA4FF48040CDE90004C6
:100C7000694628460294FFF7EBFA0022032124205C
:100C8000FFF742FC2420FFF734FC05B030BD000024
:100C90000038004000100240000C01402DE9F84FE0
:100CA000044690F8500000260A9F9A4693460D4647
:100CB0004FF0010801280ED0012084F85000FFF702
:100CC000AFFB814694F85100616801280CD0B1F562
:100CD000827F07D102E00220BDE8F88FA16809B940
:100CE000042801D00226BDE055B1BBF1000F07D0AA
:100CF000BAF1000F04D094F85100012802D004E0AA
:100D00000126AFE0052084F8510000206065C4F89A
:100D100038B0A4F83EA0A4F83CA02563A4F836A0FF
:100D2000A4F834A02064606420680168490603D4F4
:100D3000016841F040010160E068B0F5006F606853
:100D400004D0E8B3E08E01283BD06AE010B1E08E19
:100D500001282ED1216835F8020BC860E08E401EB4
:100D6000E08626E0B8F1000F0DD0E08E58B1206883
:100D70008168890707D535F8021BC160E08E401EE7
:100D8000E0864FF00008E08F58B120688168C907FD
:100D900007D0C0682BF8020BE08F401EE0874FF0B1
:100DA0000108781C05D0FFF73BFBA0EB0900B84217
:100DB00046D2E08E0028D5D1E08F0028D2D136E08F
:100DC000FFE7216815F8010B0873E08E401EE086EE
:100DD00027E000BFB8F1000F0DD0E08E58B12068B9
:100DE0008168890707D515F8011B0173E08E401E45
:100DF000E0864FF00008E08F58B120688168C9078D
:100E000007D0C0680BF8010BE08F401EE0874FF061
:100E10000108781C05D0FFF703FBA0EB0900B842DE
:100E20000ED2E08E0028D5D1E08F0028D2D13B46EB
:100E3000012202212046CDF8009000F075FB08B198
:100E400003260FE04A463946204600F055FB18B10C
:100E500001262020606505E0A06818B92068C168F7
:100E600080680090012084F85100002084F8500030
:100E7000304631E710B5401EB0F1807F01D301202C
:100E800010BD4FF0E02460610F21601700F01CFBE3
:100E90000020A06107202061002010BD30B590F82F
:100EA0003C20012A20D0012280F83C20022380F837
:100EB0003D3003685C6824F070045C6003685C6823
:100EC0000D682C435C6003689C6824F080049C607F
:100ED00003689C6849680C439C6080F83D200021B1
:100EE00080F83C10084630BD022030BD00B585B00A
:100EF0000021009101910291039100680B49884201
:100F000012D10B48816941F008018161806969460D
:100F100000F0080004904FF4E0700090022001906F
:100F200003900448FFF794F905B000BD00080040A5
:100F300000100240000C014070B5044690F83C00DF
:100F40000D4601280DD0012684F83C60022084F86B
:100F50003D0042B1042A18D0082A2AD00C2A4DD1CB
:100F600039E0022070BD206800F04EFC20688169E5
:100F700041F0080181612068816921F004018161EB
:100F8000206881692A69114311E0206800F064FC3F
:100F90002068816941F4006181612068816921F4E0
:100FA00080618161206881692A6941EA0221816149
:100FB00024E0206800F07CFC2068C16941F0080151
:100FC000C1612068C16921F00401C1612068C16963
:100FD0002A69114311E0206800F096FC2068C1697D
:100FE00041F40061C1612068C16921F48061C1617F
:100FF0002068C1692A6941EA0221C16184F83D6023
:10100000002084F83C0070BD10B5040003D094F8B3
:101010003D0010B107E0012010BD002084F83C0025
:10102000204600F00DF8022084F83D00211D2068C4
:1010300000F0A8FB012084F83D00002010BD000056
:1010400008B500680649884208D10648C16941F0E0
:101050000401C161C06900F00400009008BD0000F7
:10106000000800400010024010B50446006801224C
:1010700000F0BEFB07492068884203D1416C41F46F
:10108000004141642068016841F0010101600020D5
:1010900010BD0000002C01407047000070B50268D0
:1010A00004461068D168536910F00F0F50D003F058
:1010B000010501F4907635435DD0C20705D0CA051D
:1010C00003D5E26B42F00102E263420705D5DA077D
:1010D00003D0E26B42F00202E263820705D5DA0731
:1010E00003D0E26B42F00402E263020705D5DA079F
:1010F00003D0E26B42F00802E263E26B002A33D0D5
:10110000800604D5880602D5204600F09FFC2068A2
:101110004069E16BC0F38010090700D428B3204672
:1011200000F086FC2068416949061AD5416921F022
:1011300040014161606BA0B11B494163606BFFF7E7
:101140001BF8002810D0606B416BBDE87040084769
:10115000830610D58B060ED52046BDE8704000F002
:1011600075BC2046FFF798FF70BD2046FFF794FF3F
:101170000020E06370BD030606D50B0604D52046AB
:10118000BDE8704000F066BD4006F3D54806F1D5D5
:10119000D168204621F04001D160202184F8391027
:1011A00000F0D4F870BD0000211A000870B50400EA
:1011B00004D094F83900002510B106E0012070BD7C
:1011C00084F83850204600F023F8242084F83900B1
:1011D0002068C16821F40051C160204600F082FC03
:1011E0002068016921F4904101612068416921F082
:1011F0002A0141612068C16841F40051C160E56382
:10120000202084F8390084F83A00002070BD0000E6
:1012100030B585B0002400940194029403940068D2
:10122000184988422CD11848816941F48041816174
:10123000816901F480410491816941F00401816177
:101240008069124D00F0040004904FF4007000908B
:10125000022001900320039069462846FEF7F8FF1C
:101260002815CDE90004694628460294FEF7F0FFF0
:10127000002203212520FFF747F92520FFF739F940
:1012800005B030BD003801400010024000080140A8
:1012900070472DE9F843044690F839001F4616467A
:1012A0000D46202850D1A5B19EB194F838000128F0
:1012B0004AD0012084F838004FF00008C4F83C8080
:1012C000212084F83900FFF7ABF8A6848146E68434
:1012D00026E00120BDE8F883E08C401EE084A06891
:1012E0004B46B0F5805F4FF000024FF08001204682
:1012F000009703D000F0DFFCE8B90DE000F0DBFC64
:10130000C8B928882168C0F308004860206908B17E
:101310006D1C05E0AD1C03E0216815F8010B486069
:10132000E08C0028D8D14B4600224021204600976F
:1013300000F0C1FC08B10320CCE7202084F839007C
:1013400084F838800020C5E70220C3E77047FEE735
:101350002DE9F04385B000242D48009401940294B7
:101360000394816941F020018161816901F02001CC
:101370000491816941F004018161816901F00401F6
:101380000491816941F0080181618069DFF88490EE
:1013900000F008000490002298214846FFF73BF82F
:1013A000DFF874804FF48057002239464046FFF73B
:1013B00032F8012519480095CDE9010469464846EF
:1013C000FEF746FF98200226CDE90005CDE902464A
:1013D00069464846FEF73CFF00970396CDE9015465
:1013E00069464046FEF734FF2802CDE9000469460D
:1013F00048460294FEF72CFF002201210620FFF749
:1014000083F80620FFF775F805B0BDE8F08300000B
:101410000010024000080140000C014000001110C3
:101420000B480A494FF4007201604FF48271416029
:1014300000218160C1600161C0E90512C1610162E2
:10144000416281620A21C162FFF7A4BB00380040FB
:101450004800002010B58AB0002407941C2168467B
:101460000894FEF766FE16481449C0E90014FF21EF
:10147000C0E9024104618461FFF7C6FD079407A932
:101480000F480894FFF70AFD6020CDE9000402949C
:10149000002269460A480494FFF74EFD042269467B
:1014A0000748FFF749FD082269460548FFF744FD54
:1014B0000348FFF71BFD0AB010BD00000008004004
:1014C000A0000020FEE770470907090E002806DA91
:1014D00000F00F0000F1E02080F8141D704700F1CB
:1014E000E02080F800147047704700000148FFF7C3
:1014F000EFBA00004800002038B50B4600920446C1
:101500000022802100F010F8002804D0606D40F027
:1015100020006065032038BD10B5406A0021C187F6
:10152000C186FFF7D3FA10BD2DE9F0411D461746DD
:101530000E460446DDF8188035E0681C33D02DB126
:10154000FEF76EFFA0EB0800A8422CD3206841688C
:1015500021F0E00141606068B0F5827F0BD1A068A6
:10156000B0F5004F02D0B0F5806F04D1206801685B
:1015700021F040010160A06AB0F5005F0AD1206847
:1015800001684DF6FF72114001602068016841F466
:1015900000510160012084F85100002084F85000BF
:1015A0000320BDE8F0812068806836EA000004D09E
:1015B0000020B842C1D10020F3E70120F9E77047CD
:1015C0002DE9F05FFEF72CFF4FF4FA64B0FBF4F165
:1015D00004FB1100012708B93F480770FEF720FF00
:1015E000B0FBF4F204FB12003C4DA24658B9686807
:1015F000C043800707D5002201210620FEF784FFA3
:101600000620FEF776FF364CDFF8D890DFF8D8805A
:101610002078DFF8D8B001284AD1FEF701FFD9F8C9
:101620000010334E401A504509D201215846FEF7AA
:10163000EDFE01283CD13088401C308038E0207815
:10164000012835D198F8001040F2DC504FF4807A30
:1016500011B1012904D015E03188814203D311E092
:10166000318881420ED9002210215846FEF7D3FE60
:101670005046FEF77BFF286840F004002860FEF724
:1016800083FF15E001215D465846FEF7BFFE18B105
:101690002078012807D00BE002202070002088F875
:1016A0000000308007E0012210212846FEF7B3FE3B
:1016B000207802280CD101215846FEF7A7FE012808
:1016C00006D12770FEF7ACFEC9F8000088F800705C
:1016D000BDE8F05FFEF7AABE0200002000700040E7
:1016E0000000002008000020100000200008014039
:1016F0001200002030B58FB028216846FEF719FD92
:1017000014210AA8FEF715FD012108040024049104
:10171000CDE90010CDE9080402940225079568463A
:10172000FFF752F80F200A90CDE90B540D940021D9
:101730000AA80E94FEF738FF0FB030BD0D480168BF
:1017400041F00101016041680B4A114041600168AC
:101750000A4A11400160016821F48021016041685A
:1017600021F4FE0141604FF41F0181600449C00370
:1017700008607047001002400000FFF8FFFFF6FE0F
:1017800008ED00E0F0B50268164B174C174D4FF00E
:101790008047984205D0B84203D0A04201D0A84269
:1017A00003D122F070064A683243984205D0B8420D
:1017B00003D0A04201D0A84203D122F44074CA68E9
:1017C000224322F080044A69224302608A68C2628E
:1017D0000A688262984201D109690163012141616D
:1017E000F0BD0000002C0140000400400008004053
:1017F00010B50123046A8B409C430462036A8A404B
:101800001343036210BD000030B5026A22F00102EA
:101810000262026A4368846924F073050C682C43F1
:1018200022F002058A682A430A4DA8420BD122F011
:101830000805CA6823F440732A434D6922F0040264
:101840001D438B692B434360846149684163026295
:1018500030BD0000002C014030B5026A22F01002B9
:101860000262026A436884690D6824F4E64444EA2B
:1018700005248D6822F0200242EA05120B4DA84291
:101880000ED1CD6822F0800242EA05124D6923F4A0
:10189000406343EA85038D6922F0400243EA8503F1
:1018A0004360846149688163026230BD002C01405D
:1018B00030B5026A22F480720262036A4268C46927
:1018C00023F4007324F073050C682C438D6843EAFD
:1018D00005230C4DA8420ED1CD6823F4006343EAE2
:1018E00005234D6922F4405242EA05128D6923F422
:1018F000806342EA05124260C4614968C1630362C1
:1019000030BD0000002C014030B5026A22F4805244
:101910000262046A4268C3690D6823F4E64343EA3D
:1019200005238D6824F4005444EA0534064DA8428A
:1019300004D14D6922F4804242EA85124260C361BB
:1019400049680164046230BD002C01403EB524A208
:1019500007CA8DE80700254801788DF80110407806
:101960008DF8020001208DF80300002000F0DEFC5D
:10197000062000F019FD002000F0C9FC00F07CFBFF
:101980001B49062000F066FC022000F0CFFC174C3B
:1019900068460C3C617800F015FD2071012805D0E7
:1019A000022805D0032818D012A002E013A000E0FE
:1019B00013A000F0BBF914A000F0B8F9002000F06B
:1019C000B5FC012000F0A3FC022000F0AFFC0122D6
:1019D00080210E48FEF71FFD3EBD0DA0E9E7000087
:1019E0000364646464646464646400000C00002044
:1019F000E62400084552524F520000004F4B0000B1
:101A000054494D454F5554000D0A0000000801404F
:101A10004D41582052455452414E534D49540000B7
:101A200010B5406A0021C185C184FFF735FB10BDA8
:101A30000168CA6822F49072CA6001684A6922F09B
:101A400001024A61202180F83A10704710B590F8E1
:101A50003A10222901D0022010BD8168B1F5805FC3
:101A600011D00169002901681FD0496801F07F0386
:101A7000816A4A1C82620B70C18D491E0904090CDF
:101A8000C18518D02BE00269816A002A0268526879
:101A900005D0D2B20A80816A491C8162ECE7C2F3A8
:101AA00008020A80816A891CF7E74A68816A4B1C30
:101AB00083620A70E0E70168CA6822F02002CA6007
:101AC0000168CA6822F48072CA6001684A6922F01B
:101AD00001024A61202180F83A10FFF7D9FB00206B
:101AE00010BD00002DE9F041044600680169E2687C
:101AF00021F44051114301612169A06808436169E3
:101B000008432168CA6841F20C639A430243CA60E1
:101B100020684169A26921F44071114341614C4937
:101B200020686425322688423CD1FEF703FE00EB94
:101B3000C00101EB001061688900B0FBF1F7FEF70E
:101B4000F9FD00EBC00101EB00106168B0468900AF
:101B5000B0FBF1F0B0FBF5F06FF01801484307EB74
:101B6000800106EB0110B0FBF5F000F0F006FEF787
:101B7000E1FD00EBC00101EB001061688900B0FBE2
:101B8000F1F0B0FBF5F006EB0016FEF7D3FD00EB2D
:101B9000C00101EB001061688900B0FBF1F7FEF7AE
:101BA000C9FD3BE0FEF7B6FD00EBC00101EB001004
:101BB00061688900B0FBF1F7FEF7ACFD00EBC001F6
:101BC00001EB00106168B0468900B0FBF1F0B0FB9A
:101BD000F5F06FF01801484307EB800106EB0110A8
:101BE000B0FBF5F000F0F006FEF794FD00EBC0014D
:101BF00001EB001061688900B0FBF1F0B0FBF5F07B
:101C000006EB0016FEF786FD00EBC00101EB0010AD
:101C100061688900B0FBF1F7FEF77CFD00EBC001C5
:101C200001EB001061688900B0FBF1F0B0FBF5F04A
:101C30006FF01801484307EB800108EB0110B0FB7F
:101C4000F5F0216800F00F0030448860BDE8F081B5
:101C50000038014090F83910212901D00220704746
:101C60008168B1F5805F016A0BD04A1C026202688C
:101C700009785160C18C491E0904090CC1840ED039
:101C800017E009880268C1F3080151600169002961
:101C9000016A02D0491C0162ECE7891CFBE701687C
:101CA000CA6822F08002CA600068C16841F0400141
:101CB000C160002070472DE9F041984617460E4656
:101CC0000446069D1DE0681C1BD02DB1FEF7A8FB45
:101CD000A0EB0800A84214D92068C16821F4D07193
:101CE000C1602068416921F001014161202084F830
:101CF000390084F83A00002084F838000320BDE859
:101D0000F0812068006836EA000004D00020B84264
:101D1000D9D00020F3E70120F9E700000148FFF7E0
:101D2000BDB90000E0000020FEE70000014A0249C2
:101D300000F013B87D1D00082400002002E008C850
:101D4000121F08C1002AFAD170477047002001E035
:101D500001C1121F002AFBD170472DE9F041164640
:101D60000F460446002503E03946B047641C6D1C4D
:101D700020780028F8D12846BDE8F08113B54FF649
:101D8000FF73012269460248FFF783FA00981CBDE1
:101D9000E00000200EB58B48016800914168019178
:101DA000806802900298884E30700298000A707025
:101DB0000298000CB0700298000EF070FEF73EFB27
:101DC000FFF798FCFFF7C4FA814880494FF00008FC
:101DD00001604FF47A31C0E901180C22C0F80C8080
:101DE000C0E90482C0F81880C0F81C80FFF7DEF953
:101DF000FFF716FBFFF72EFB0620FEF76FFBA6F1A1
:101E00000C0401272770FEF70BFB724DA060686879
:101E1000C043800707D4286840F008002860277076
:101E2000FEF7FEFAA0606A4800214038FFF71CF96F
:101E3000674804214038FFF717F965480821403802
:101E4000FFF712F964A0FFF771FF0620FEF746FBCB
:101E50002770FEF7E5FAA0606868C04380070AD4DF
:101E60005FA0FFF763FF286840F008002860277034
:101E7000FEF7D6FAA0605CA0FFF758FF624D002283
:101E800080212846FEF7C7FA012208212846FEF7DE
:101E9000C2FA4FF4FA60FEF7BBF900220821284687
:101EA000FEF7B9FA40F6B830FEF7B2F957A0FFF7DF
:101EB0003DFF4FF47A7705E059A0FFF737FF38462A
:101EC000FEF7A6F900F0B8F80028F5D056A0FFF705
:101ED0002DFF012208212846FEF79DFA00F0FCF8AC
:101EE000FF2000F0D4F85F2000F031FA002000F06D
:101EF00001FA0C2000F0EFF9052000F0E7F94C4959
:101F0000002000F0A7F94A490120491D00F0A2F97C
:101F1000474902200A3100F09DF9454903200F315D
:101F200000F098F942490420143100F093F9404937
:101F30000520193100F08EF90A220021012000F05D
:101F40000BFA012000F0E3F900F096F8022000F00F
:101F5000EDF9012280212846FEF75DFADFF8D490E2
:101F60001B4D09F1040AB83D0AF1040B4FEA0807BA
:101F700000F0AAF801281DD0134915480B39B838CC
:101F800000F02EF9E07000F077F828780328EFD100
:101F9000687831788842EBD1A87871788842E7D1A7
:101FA0002979C9F800106979CAF80010A979CBF825
:101FB0000010DDE7A0780128DAD1FFF7C7FCA77091
:101FC000D6E70000E8F7FF1F0C00002000380140B2
:101FD000E00000200070004048656C6C6F0000005D
:101FE00057616B65757000000D0A53544D333246CE
:101FF00031303352455436206973206F6E6C696EF0
:10200000652E0D0A00000000000801406E524632A5
:10201000344C30312B20636865636B3A200000003C
:102020004641494C0D0A00004F4B0D0A00000000CC
:10203000DC240008340800401CB50DA4052221460C
:10204000302000F0F9F905226946102000F0A4F8CC
:102050000020694614F8012B0B5C9A4201D0002045
:102060001CBD401CC0B20528F4D301201CBD0000DB
:102070006E5246323400000010B5072000F0CEF852
:1020800040F07001BDE81040072000F0FBB910B52A
:102090000446052801D9002106E0012000F0BEF821
:1020A0000121A14020EA0101BDE81040012000F01B
:1020B000E9B9FF21E22000F0E5B9FF21E12000F0BD
:1020C000E1B9072000F0AAB810B5172000F0A6F873
:1020D00000F0030010BD000010B50821002000F042
:1020E000D1F93F21012000F0CDF90321022000F0B9
:1020F000C9F90321084600F0C5F90321042000F0C6
:10210000C1F90221052000F0BDF90E21062000F0E2
:10211000B9F90021072000F0B5F90021112000F0E5
:10212000B1F90021122000F0ADF90021132000F0D8
:10213000A9F90021142000F0A5F90021152000F0D4
:10214000A1F90021162000F09DF900211C2000F0CB
:1021500099F900211D2000F095F9FFF7AAFFFFF77C
:10216000ACFFFFF789FF0122BDE8104011030148D1
:10217000FEF751B9000C014001B582B06420009017
:10218000012301AA02A90348FEF788FD9DF8040077
:102190000EBD0000480000202DE9F041DFF83C8032
:1021A00015460C4607464FF48056002231464046FD
:1021B000FEF731F93846FFF7DFFF04E0FF20FFF7B5
:1021C000DBFF04F8010B6D1EEDB2F7D2314640463D
:1021D000BDE8F0410122FEF71EB90000000C0140ED
:1021E00070B505460E46072000F018F8C0F342040B
:1021F000062C0CD20848005D00F010F83070021E6A
:1022000003D029466120FFF7C7FF204670BD00209C
:102210003070FF2070BD00001225000870B50C4E14
:1022200004464FF48055002229463046FEF7F3F865
:1022300004F01F00FFF7A0FFFF20FFF79DFF0446FB
:10224000012229463046FEF7E6F8204670BD000020
:10225000000C01402DE9F04705461A4F0E46072DA8
:102260002ED2DFE805F004042727272704000320E7
:10227000FFF7D4FF401CC4B2DFF84C904FF48058F5
:102280002644002241464846FEF7C5F8785D40F0F6
:102290002000FFF771FF00BF16F80109FFF76CFF80
:1022A000641EE4B2F8D241464846BDE8F047012238
:1022B000FEF7B1B80978785DBDE8F04700F0E2B804
:1022C000BDE8F08718250008000C0140801EC1B24F
:1022D000032000F0D7B810B504460020FFF79EFF9A
:1022E00004F00C0120F00C000143BDE81040002078
:1022F00000F0C8B810B504460620FFF78FFF20F0A5
:1023000028012143BDE81040062000F0BBB810B5FD
:1023100004460020FFF782FF04F0010120F00100D5
:102320000143BDE81040002000F0ACB810B50446F1
:102330000020FFF773FF022C06D020F00201BDE859
:102340001040002000F09EB840F00201F7E701467F
:10235000052000F097B800002DE9F041054617462A
:102360000E460220FFF75AFF0124AC40204300F044
:102370003F01022000F086F80A4807F03F01405D67
:1023800000F080F80120FFF749FF012E06D020EA77
:102390000401BDE8F041012000F074B80443E1B24B
:1023A000F7E700001225000810B504460620FFF7E5
:1023B00035FF20F006012143BDE81040062000F063
:1023C00061B80000F8B5064619481A4D0C46009051
:1023D000002280212846FEF71EF82146304600F0F4
:1023E0004BF8012280212846FEF715F8FFF769FE19
:1023F000044610F0300F03D10098411E0091F5D231
:10240000002280212846FEF706F8009828B1FFF741
:1024100033FEE00603D50320F8BD0220F8BDA00678
:1024200001D50120F8BDFFF748FE0020F8BD0000EF
:10243000FFFF0F00000801402DE9F041DFF8348074
:1024400015460C4607464FF480560022314640465A
:10245000FDF7E1FF384601E014F8010BFFF78CFEB1
:102460006D1EEDB2F8D231464046BDE8F041012282
:10247000FDF7D1BF000C01400A460146A020FFF73E
:10248000DBBF00002DE9F041134E0F4604464FF428
:102490008055002229463046FDF7BDFF202C06D28C
:1024A00004F01F0040F02000FFF766FE0AE020461F
:1024B000FFF762FEE12C08D0E22C06D0E32C04D01A
:1024C000FF2C02D03846FFF757FE29463046BDE8BC
:1024D000F0410122FDF79FBF000C01400101E71F01
:1024E000E10101E71FE20101E71FE30101E71FE44A
:1024F0000101E71FE50101E71FE600000000000001
:1025000000000102030406070809000000000102A0
:1025100003041112131415160A0B0C0D0E0F1000E4
:102520004025000800000020280000003C1D000895
:102530006825000828000020F80400004C1D000851
:10254000000A000000000000000000000000000081
:10255000000000000100000010000000000000006A
:0825600000A24A040000000083
:04000005080000ED02
:00000001FF
