:020000040800F2
:1000000058050020010100081B1D0008BB1B00084B
:10001000191D0008D5020008352300080000000063
:10002000000000000000000000000000131E000897
:100030000F030008000000003D1D0008151E000809
:100040001B0100081B0100081B0100081B01000820
:100050001B0100081B010008110300081B01000818
:100060001B0100081B0100081B010008D902000841
:100070001B0100081B0100081B0100081B010008F0
:100080001B0100081B010008990100081B01000862
:100090001B0100081B0100081B0100081B010008D0
:1000A0001B0100081B0100081B0100081B010008C0
:1000B0001B0100081B0100081B0100081B010008B0
:1000C0001B0100081B0100081B0100081B010008A0
:1000D000411D0008292300081B0100081B0100081E
:1000E0001B0100081B0100081B010008DFF80CD0F1
:1000F00000F040F800480047E524000858050020BB
:100100000648804706480047FEE7FEE7FEE7FEE7B1
:10011000FEE7FEE7FEE7FEE7FEE7FEE7E51F000875
:10012000ED000008D2B201E000F8012B491EFBD21D
:1001300070470022F6E710B513460A4604461946F2
:10014000FFF7F0FF204610BD30B50B4601460020FA
:100150002022012409E021FA02F59D4205D303FA89
:1001600002F5491B04FA02F52844151EA2F101020A
:10017000F1DC30BD064C074D06E0E06840F00103BD
:1001800094E8070098471034AC42F6D3FFF7B2FF6B
:100190008C2B0008AC2B0008014800F05BB9000074
:1001A0004800002070B5044600688168C943C9074B
:1001B0001CD1816821F00101816000F0EFFD05464E
:1001C0000FE000BF00F0EAFD401B022809D9A06A39
:1001D00040F01000A062E06A40F00100E0620120FF
:1001E00070BD20688068C043C007EBD0002070BDA0
:1001F00010B50146406A826A12F0500F05D0006ABD
:10020000026BBDE8104008461047816A41F4007156
:10021000816201688968C1F3424107290CD1C16834
:1002200051B9816A21F480718162816AC90403D461
:10023000816A41F00101816200F0EEF810BD10B555
:10024000406A816A41F040018162C16A41F0040163
:10025000C16200F0FEF810BD10B5406A00F0F8F879
:1002600010BD0000F8B500260446009600688168BD
:10027000C943C90728D0816841F001018160134852
:1002800013490068B0FBF1F000E0401E0090002828
:10029000FBD100F083FD054611E000BF00F07EFDBC
:1002A000401B02280BD9A06A40F01000A062E06A4F
:1002B00040F00100E06284F824600120F8BD20686D
:1002C0008068C043C007E9D10020F8BD3400002099
:1002D00040420F00FEE70000014800F047BB00006D
:1002E0001001002030B590F840500124AC40C56B9F
:1002F0006C60046863604368102B036803D09960E6
:100300000068C26030BD9A600068C16030BD70474F
:10031000012000F04FBC704770470000F8B5002482
:10032000009490F824202546012A12D0012280F85A
:1003300024204A681F23072A0DD20668776B521EB5
:1003400002EB820293409F430B6893401F43776305
:1003500019E00220F8BD06680D2A0AD2376BD21FB9
:1003600002EB820293409F430B6893401F43376325
:1003700009E0F76A0D3A02EB820293409F430B6853
:1003800093401F43F7620A68072306680A2A0AD3C4
:10039000F7680A3A02EB420293409F438B6893400E
:1003A0001F43F76008E0376902EB420293409F4326
:1003B0008B6893401F4337610A68102A01D0112AC5
:1003C00020D1124B02689A4217D193681B0219D4AC
:1003D000936843F4000393600968102912D10C4913
:1003E0000C4A0968B1FBF2F101EB8101490000E020
:1003F000491E00910029FBD104E0816A41F02001EF
:100400008162012480F824502046F8BD0024014078
:100410003400002040420F000748D0E9002307487D
:10042000110A01704270190A8170C37002481038B5
:10043000818803A001F080BF100000203C00002054
:1004400025643A593D256420583D2564200D0A0055
:100450007047704710B5044600684168890626D584
:100460000168890723D5A16AC90603D4A16A41F4AA
:100470000071A1628168C1F34241072910D1E1688E
:1004800071B9416821F020014160A06A20F48070B8
:10049000A062A06AC00403D4A06A40F00100A06278
:1004A0002046FFF7B9FF21686FF01200086020684E
:1004B000416809062ED5016849072BD5A16AC906EE
:1004C00003D4A16A41F40051A1628168C1F30231F1
:1004D000072909D04168490515D48168C1F3424113
:1004E000072910D1E16871B9416821F080014160AC
:1004F000A06A20F48050A062A06AC00503D4A06A5C
:1005000040F00100A0622046FFF706FF21686FF06F
:100510000C0008602068416849060DD50068C007D6
:100520000AD0A06A40F48030A062204600F094F81F
:1005300021686FF00100086010BD00002DE9F04156
:100540004FF0000704003D467ED0A06A002628B97F
:10055000E66284F82460204600F080F82046FFF729
:1005600021FEA16AC90600D420B1A06A40F01000A3
:10057000A06269E0A16A21F4885141F00201A16200
:100580006268E169E3680A4347EA43010A43A168F4
:100590004FF48077B94209D0012907D05FF00001FC
:1005A000D4F814C0BCF1010F02D00AE03946F7E7D5
:1005B000F3B1A36A43F02003A362E36A43F00103AB
:1005C000E3622368D3F804C02CF4694C4CEA010CB4
:1005D000C3F804C021688B68DFF870C003EA0C031D
:1005E00013438B60A168B9420BD0012909D00CE0FC
:1005F000DFF85CC0A3690CEB43330B4343F40061A9
:10060000DFE7218A0D05A5F580152168CB6A23F463
:1006100070032B43CB62216889680E4B19409142CD
:1006200008D1E662A16A21F0020141F00101A16254
:10063000BDE8F081A06A20F0020040F01000A06246
:10064000E06A40F00100E0620120F1E7FDF7E1FF20
:1006500000E0FFFFFE0E1FFF7047000070B586B080
:1006600000260546009601960296039600681E49EC
:10067000884236D11D49886940F4007088618869D4
:1006800000F400700490886940F00800886188696F
:10069000694600F00800049003200090019014487F
:1006A00000F094FA144C1348C4E900068020C4E911
:1006B000026080002061800060612020A061C00194
:1006C000E061204600F0FCF908B1FFF724FE2C623F
:1006D000002202211220656200F0D4FB122000F0FB
:1006E000C6FB06B070BD00000024014000100240AF
:1006F000000C014008000240100100202DE9F047E5
:10070000894604463B4900683B4F0E1D904688428F
:1007100001D0B84207D1306810F4702F03D0012502
:100720002846BDE8F08794F8240001280CD0012069
:1007300084F824002046FFF795FD05004FF00000E7
:1007400004D084F82400EBE70220EAE7A16A40F62F
:100750000162914341F48071A1622168B94218D1CC
:10076000326812F4702F14D0A16A41F48011A16292
:100770003168490505D5A16A21F4005141F4805141
:10078000A162A16AC9040AD5E16A21F00601E16209
:1007900006E0A26A22F48012A2624968E9E7E062F8
:1007A00084F82400216A15488862216A1448C862C6
:1007B000216A1448086321686FF00200086020680D
:1007C000816841F480718160216843464A464C311A
:1007D000206A00F0A3F920688168C1F3424107292B
:1007E000816803D041F48011816099E741F4A00150
:1007F000FAE700000024014000280140F101000850
:10080000590200083F02000870B5044690F8240021
:1008100001280DD0012084F824002046FFF722FD96
:1008200002004FF0000005D084F82400104670BD8F
:10083000022070BDA16A40F60163994341F48071C2
:10084000A162224D23682249AB4218D10E6816F4EA
:10085000702F14D0A66A46F48016A6620E6876053C
:1008600005D5A66A26F4005646F48056A662A66A06
:10087000F6040AD5E66A26F00606E66206E0A66AEF
:1008800026F48016A6625E68E9E7E06284F8240038
:100890006FF0020018602068436843F02003436053
:1008A00020688368C3F34243072B05D1A84208D1CF
:1008B000096811F4702F04D0816841F480118160BF
:1008C000B4E7816841F4A001F9E700000028014085
:1008D0000424014010B590F821100024022903D00F
:1008E0000421816301243DE001680A6822F00E02C0
:1008F0000A6001680A6822F001020A601A4A016867
:10090000914201D1012121E0174A1432914201D1D3
:1009100010211BE0144A2832914201D1891515E0BB
:10092000114A3C32914201D189140FE00E4A5032F3
:10093000914202D14FF4803108E00B4A6432914277
:1009400002D14FF4801101E04FF08071064A083A5D
:100950005160012180F82110002180F82010416BA6
:1009600001B18847204610BD080002402DE9F05F24
:10097000C16B0C6801680B68D0F840C0042202FA11
:100980000CF2494DDFF824A1494E4A4FDFF828B157
:10099000DFF828E122422CD05A072AD50A689206AD
:1009A00003D40A6822F004020A600168A94201D156
:1009B000042219E0514501D1402215E0B14202D193
:1009C0004FF4806210E0B94202D14FF480420BE054
:1009D000594502D14FF4802206E0714502D14FF40F
:1009E000800201E04FF080622F4908394A60C16AF5
:1009F0003BE04FF0020808FA0CF818EA040F4FF039
:100A000000094FF0010235D05FEA837832D50B68D8
:100A10009B0605D40B6823F00A030B6080F82120A5
:100A20000168A94201D1022219E0514501D12022D9
:100A300015E0B14202D14FF4007210E0B94202D188
:100A40004FF400520BE0594502D14FF4003206E05A
:100A5000714502D14FF4001201E04FF000721249CB
:100A600008394A6080F82090816A00291AD0BDE8D0
:100A7000F05F0847082505FA0CF5254212D01B0740
:100A800010D50B6823F00E030B6090F84010C36B79
:100A900002FA01F15960826380F8212080F82090E9
:100AA000016BE2E7BDE8F09F080002401C00024035
:100AB0003000024044000240580002406C000240F6
:100AC00030B528B308C8134914221944B1FBF2F118
:100AD0008900C16310498163022141771A6843F696
:100AE000F0718A43D0E900142143D0E902452C4338
:100AF000214304692143446921438469214311430B
:100B0000196000214163012242770177084630BD18
:100B1000012030BDF8FFFDBF0000024070B5044663
:100B200090F82000002501280CD0012084F8200036
:100B300094F821600020012E06D084F820000225C0
:100B4000284670BD022070BD022684F82160A06393
:100B50002068066826F0010606602046FFF7C2FB03
:100B6000E06A00282068016802D041F00E0106E02A
:100B700021F0040101602068016841F00A01016070
:100B80002068016841F001010160D9E770B50446B1
:100B900000F004F90546601C02D0044800780444C3
:100BA00000F0FCF8401BA042FAD370BD28000020E2
:100BB00070470000044910B50A68024202D008607C
:100BC000FFF7F6FF10BD0000140401402DE9F84FB7
:100BD000DFF890A100220AF1040B144601274FF020
:100BE0000F090BF1040E00BF0B6807FA04F52B4048
:100BF000AB4274D1DFF870C14E68A6EB0C086645B5
:100C00002BD00DDC032E34D005DC36B3012E19D0E9
:100C1000022E2FD11BE0112E16D0122E2AD119E050
:100C2000B8F5881F19D006DCB8F5803F15D0B8F5A7
:100C3000801F1FD111E0B8F5001F0ED0B8F5041FBA
:100C400018D10AE0CA6815E0CA68121D12E0CA6825
:100C500008320FE0CA680C320CE08A682AB1012A17
:100C60004FF0080203D0456104E0042202E0056170
:100C700000E00022FF2B01D8064601E000F1040647
:100C80004FEA840501D9A5F12005D6F800C009FA7C
:100C900005F82CEA080C02FA05F54CEA050CC6F832
:100CA00000C04D68ED0057D5304DAE6946F00106E5
:100CB000AE61AD6924F0030605F0010500952C4DE9
:100CC00006EB050CDCF80850A6074FEA167809FA7F
:100CD00008F6B543274EB04202D1002610E03BE0B3
:100CE000254EB04201D101260AE0244EB04201D186
:100CF000022605E0224EB04201D1032600E0042680
:100D000006FA08F62E43CCF808604D68DAF8006061
:100D1000ED03554601D51E4300E09E432E604D680D
:100D2000DBF80060AD035D4601D51E4300E09E4345
:100D30002E604D68DEF80060ED02754601D51E4359
:100D400000E09E432E604D68AD020E4D2E6801D529
:100D50001E4300E09E432E60641C102CFFF444AF41
:100D6000BDE8F88F0004014000001110001002409F
:100D70000000014000080140000C0140001001404B
:100D8000001401400C0401408068084000D001209C
:100D900070470AB1016170470904FBE701488068A8
:100DA0007047000028000020024881680278114442
:100DB0008160704728000020074810B5016841F0A5
:100DC00010010160032000F07DF8002000F006F81B
:100DD00000F024F8002010BD0020024070B50D4D39
:100DE00004464FF47A712878B1FBF0F00A4909689B
:100DF000B1FBF0F000F072FD48B9102C07D20022D0
:100E00002146501E00F03EF800206C6070BD0120AD
:100E100070BD000028000020340000200C4808B5F8
:100E2000816941F001018161816901F00101009155
:100E3000C16941F08051C161C06900F080500090EB
:100E40000448416821F0E06141F00071416008BD53
:100E5000001002400000014000F01F0201219140FB
:100E60004009800000F1E020C0F88011704700F0D8
:100E70001F02012191404009800000F1E020C0F8EC
:100E800000117047F0B40E4B1B680C46C3F30223ED
:100E9000C3F10705042D00D90425191D072901D226
:100EA000002300E0DB1E012606FA05F1491E214061
:100EB00099409E40761E16403143F0BC00F02EBF94
:100EC0000CED00E0064900F0070208684FF6FF034A
:100ED000184040EA0220034A1043086070470000AF
:100EE0000CED00E00000FA0590FAA0F0044AB0FA18
:100EF00080F002EB80000121C0F8801070470000F4
:100F000000000E420548016841F0020101600448FA
:100F1000016841F00401016030BF7047007000407B
:100F200010ED00E02DE9F84305460078354CC00788
:100F300054D0E0690026C00008D4E06940F0805039
:100F4000E061E069012600F0805000902E480168C1
:100F5000C90512D40168804641F480710160FFF731
:100F60001DFF074605E000BFFFF718FFC01B642800
:100F700023D8D8F80000C005F6D5206A10F44070D8
:100F800021D0A98801F4407181421CD0206A1F49F8
:100F9000012220F440700A6000220A602062C0072B
:100FA00011D0FFF7FBFE074641F2883808E000BF8A
:100FB000FFF7F4FEC11B414502D90320BDE8F883C9
:100FC000206A8007F4D5206A696820F440700843DD
:100FD00020621EB1E06920F08050E061287880072F
:100FE00005D56068A96820F440400843606028780F
:100FF000C00605D56068E96820F480000843606099
:101000000020DBE700100240007000404004424234
:101010002DE9F047DFF8548105460E46D8F8000068
:1010200000F00700B0420CD2D8F8001021F0070100
:101030003143C8F80010D8F8000000F00700B042B3
:101040006FD128684A4C810712D5400703D56068E4
:1010500040F4E06060602878000703D5606840F4E1
:10106000605060606068A96820F0F000084360602C
:101070002878C00744D06868012816D02168022863
:1010800016D0890700294CDA616821F00301014379
:101090006160FFF783FE6968074641F288300129E5
:1010A0000ED00229814618D026E021688903E9E79D
:1010B0008901E7E7FFF772FEC11B494501D918E036
:1010C00081466068C0F381000128F3D118E000BFB9
:1010D000FFF764FEC11B49450BD86068C0F381006F
:1010E0000228F5D10CE000BFFFF758FEC11B4945AF
:1010F00002D90320BDE8F087606810F00C0FF3D12F
:10110000D8F80010404601F00701B1420BD9016840
:1011100021F0070131430160006800F00700B04290
:1011200001D00120E6E72878400705D56068E96826
:1011300020F4E060084360602878000706D5606806
:10114000296920F4605040EAC100606000F036F880
:101150006168084AC1F30311515CC8400649086040
:101160000020FFF73BFE0020C4E700000020024003
:1011700000100240732B0008340000200448054989
:1011800000684968044AC1F30221515CC8407047B5
:101190003400002000100240832B00080448054959
:1011A00000684968044AC1F3C221515CC8407047D5
:1011B0003400002000100240832B000813A185B0EA
:1011C0000FC98DE80F0015A0154A006804905168FA
:1011D00001F00C00042804D0082804D0114805B000
:1011E00070471148FBE7C1F38343C9031DF80300AF
:1011F00009D5516804AAC1F34041515C0A4A5043E1
:10120000B0FBF1F0EBE709494843E8E702030405C6
:10121000060708090A0B0C0D0E0F10100102000042
:101220000010024000127A00001BB70000093D00C8
:101230002DE9F84F04460078B94DC00748D06868DA
:10124000C0F38100012807D06868C0F3810002283C
:1012500009D16868C00306D52868800338D560685E
:1012600000286FD034E06068B0F5803F0BD010B13B
:10127000B0F5A02F11D0286820F4803028602868AD
:1012800020F4802002E0286840F480302860606804
:1012900088B1FFF783FD064609E0286840F4802006
:1012A0002860F0E7FFF77AFD801B642875D828686E
:1012B0008003F7D50CE0FFF771FD064605E000BF9F
:1012C000FFF76CFD801B6428F0D828688003F7D4F2
:1012D0002078944E80074FF001094FF000083BD56D
:1012E000686810F00C0F07D06868C0F3810002280E
:1012F00009D16868C00306D42868800714D520691E
:1013000001281FD110E02069B0B1C6F80090FFF7A6
:1013100045FD074605E000BFFFF740FDC01B022862
:10132000C4D828688007F7D52868616920F0F800DC
:1013300040EAC10028600FE0C6F80080FFF72EFDEC
:10134000074606E0E9E000BFFFF728FDC01B0228C2
:1013500023D828688007F7D4207800072CD5724856
:10136000A169D9B1C0F80090FFF718FD074604E065
:10137000FFF714FDC01B02280FD8686A8007F7D555
:101380006A484FF4FA510068B0FBF1F0009000BFDA
:101390000098411E0091FAD20EE080E0C0F8008073
:1013A000FFF7FCFC074604E0FFF7F8FCC01B02282F
:1013B00075D8686A8007F7D42078400760D5E86957
:1013C0000027C00008D4E86940F08050E861E8696F
:1013D000012700F08050009055480168C90513D4DA
:1013E0000168834641F480710160FFF7D7FC8246B3
:1013F00006E000BFFFF7D2FCA0EB0A0064284ED83D
:10140000DBF80000C005F5D5E06801280AD008B176
:10141000052813D0286A20F001002862286A20F0ED
:10142000040002E0286A40F001002862E06841F20E
:10143000883B98B1FFF7B2FC82460BE0286A40F087
:1014400004002862EEE700BFFFF7A8FCA0EB0A014A
:1014500059455AD8286A8007F6D50CE0FFF79EFC5C
:10146000824605E0FFF79AFCA0EB0A0159454CD8EB
:10147000286A8007F6D41FB1E86920F08050E8613F
:10148000E06988B36968C1F38101022945D0022867
:10149000C6F8608004D0FFF781FC044638E034E0F1
:1014A000FFF77CFC074604E0FFF778FCC01B02282E
:1014B0002BD828688001F7D4206AB0F5803F05D189
:1014C0006868A16820F4003008436860D4E9080126
:1014D0000843696821F4741108436860C6F8609095
:1014E000FFF75CFC044606E015E000BFFFF756FC82
:1014F000001B022809D828688001F7D50BE000BF3F
:10150000FFF74CFC001B022802D90320BDE8F88F2E
:1015100028688001F4D40020F8E70120F6E70000F5
:101520000010024000004242800442423400002089
:10153000007000407047000038B5044600684268FB
:1015400081684B0605D4CB0703D0530601D5216C27
:1015500004E08B0707D5130605D5616C01B0204662
:10156000BDE83040084711F0600F3FD093063DD5ED
:101570004B060AD594F85130032B34D0636D43F0F9
:1015800004036365C36883680093890609D5616DA8
:1015900041F00101616581680091016821F040011D
:1015A0000160606D002821D02068416821F0E001D1
:1015B0004160012084F85100900718D020684168EC
:1015C00021F0030141600C4DE06C18B14563E06C03
:1015D000FFF780F9A06C002808D04563A06CBDE837
:1015E0003840FFF777B9C1688068009038BD204661
:1015F000FFF7A0FF38BD00006D1D000870B50400A6
:1016000005D00025A56294F8510010B104E0012036
:1016100070BD204600F034F8022084F851002068A4
:10162000016821F040010160D4E901010843D4E9D7
:1016300003121143084361690843218B01F40071CF
:101640000843E1690843216A0843A16A0843216805
:101650000860A069042101EA1040616A084321681A
:1016600048602168E06A08612068C16921F400616E
:10167000C1616565012084F85100002070BD000043
:1016800030B585B00024009401940294039400685E
:10169000194988422DD11948C16941F48041C1617D
:1016A000C16901F480410491816941F008018161BF
:1016B0008069134D00F0080004904FF42040009022
:1016C000022001900320039069462846FFF77EFA26
:1016D0004FF48040CDE90004694628460294FFF7A4
:1016E00075FA002203212420FFF7CCFB2420FFF70A
:1016F000BEFB05B030BD00000038004000100240C5
:10170000000C01402DE9F84F044690F850000026E7
:101710000A9F9A4693460D464FF0010801280ED0C5
:10172000012084F85000FFF739FB814694F85100FE
:10173000616801280CD0B1F5827F07D102E0022058
:10174000BDE8F88FA16809B9042801D00226BDE0E0
:1017500055B1BBF1000F07D0BAF1000F04D094F8D7
:101760005100012802D004E00126AFE0052084F8F2
:10177000510000206065C4F838B0A4F83EA0A4F879
:101780003CA02563A4F836A0A4F834A020646064CB
:1017900020680168490603D4016841F040010160F6
:1017A000E068B0F5006F606804D0E8B3E08E01280F
:1017B0003BD06AE010B1E08E01282ED1216835F8C7
:1017C000020BC860E08E401EE08626E0B8F1000FF4
:1017D0000DD0E08E58B120688168890707D535F8AB
:1017E000021BC160E08E401EE0864FF00008E08FD3
:1017F00058B120688168C90707D0C0682BF8020B70
:10180000E08F401EE0874FF00108781C05D0FFF7FD
:10181000C5FAA0EB0900B84246D2E08E0028D5D127
:10182000E08F0028D2D136E0FFE7216815F8010BE0
:101830000873E08E401EE08627E000BFB8F1000F7D
:101840000DD0E08E58B120688168890707D515F85A
:10185000011B0173E08E401EE0864FF00008E08F10
:1018600058B120688168C90707D0C0680BF8010B20
:10187000E08F401EE0874FF00108781C05D0FFF78D
:101880008DFAA0EB0900B8420ED2E08E0028D5D127
:10189000E08F0028D2D13B46012202212046CDF81C
:1018A000009000F06BFA08B103260FE04A46394673
:1018B000204600F04BFA18B101262020606505E0B3
:1018C000A06818B92068C16880680090012084F879
:1018D0005100002084F85000304631E710B5401E1A
:1018E000B0F1807F01D3012010BD4FF0E024606192
:1018F0000F21601700F012FA0020A061072020617C
:10190000002010BD7047000070B5026804461068E2
:10191000D168536910F00F0F50D003F0010501F4A6
:10192000907635435DD0C20705D0CA0503D5E26B7A
:1019300042F00102E263420705D5DA0703D0E26B09
:1019400042F00202E263820705D5DA0703D0E26BB8
:1019500042F00402E263020705D5DA0703D0E26B26
:1019600042F00802E263E26B002A33D0800604D51D
:10197000880602D5204600F06FFB20684069E16BC5
:10198000C0F38010090700D428B3204600F056FBAE
:101990002068416949061AD5416921F04001416139
:1019A000606BA0B11B494163606BFEF793FF002899
:1019B00010D0606B416BBDE870400847830610D5BE
:1019C0008B060ED52046BDE8704000F045BB204692
:1019D000FFF798FF70BD2046FFF794FF0020E063FB
:1019E00070BD030606D50B0604D52046BDE8704041
:1019F00000F036BC4006F3D54806F1D5D168204644
:101A000021F04001D160202184F8391000F0D4F891
:101A100070BD00002D20000870B5040004D094F8BB
:101A20003900002510B106E0012070BD84F838505F
:101A3000204600F023F8242084F839002068C1688B
:101A400021F40051C160204600F052FB206801697A
:101A500021F4904101612068416921F02A0141612E
:101A60002068C16841F40051C160E563202084F81A
:101A7000390084F83A00002070BD000030B585B010
:101A80000024009401940294039400681849884249
:101A90002CD11848816941F480418161816901F448
:101AA00080410491816941F0040181618069124D96
:101AB00000F0040004904FF40070009002200190A8
:101AC0000320039069462846FFF780F82815CDE9E2
:101AD0000004694628460294FFF778F800220321A3
:101AE0002520FFF7CFF92520FFF7C1F905B030BD5C
:101AF00000380140001002400008014070472DE905
:101B0000F843044690F839001F4616460D46202833
:101B100050D1A5B19EB194F8380001284AD00120D7
:101B200084F838004FF00008C4F83C80212084F885
:101B30003900FFF733F9A6848146E68426E00120C8
:101B4000BDE8F883E08C401EE084A0684B46B0F509
:101B5000805F4FF000024FF080012046009703D0D5
:101B600000F0AFFBE8B90DE000F0ABFBC8B9288886
:101B70002168C0F308004860206908B16D1C05E0C9
:101B8000AD1C03E0216815F8010B4860E08C0028CB
:101B9000D8D14B46002240212046009700F091FB0F
:101BA00008B10320CCE7202084F8390084F838807D
:101BB0000020C5E70220C3E77047FEE73EB50021DD
:101BC000124800910191104A029102609215C0E9F9
:101BD0000221416102244FF460220461C26141602C
:101BE000FEF7ACFC08200090012001900320029039
:101BF00069460648FEF792FB0920CDE900046946D4
:101C00000248FEF78BFB3EBD002401404800002047
:101C10002DE9F04385B000242D48009401940294EE
:101C20000394816941F020018161816901F0200103
:101C30000491816941F004018161816901F004012D
:101C40000491816941F0080181618069DFF8848035
:101C500000F008000490002218214046FFF799F890
:101C6000DFF874904FF48057002239464846FFF75A
:101C700090F8012519480095CDE9010469464046D0
:101C8000FEF7A4FF4FF4C170CDE900046946404659
:101C90000294FEF79BFF18200226CDE90005CDE94E
:101CA000024669464046FEF791FF00970396CDE94C
:101CB000015469464846FEF789FF002201210620AB
:101CC000FFF7E0F80620FFF7D2F805B0BDE8F08393
:101CD0000010024000080140000C014000001110FB
:101CE0000C480B494FF4007201604FF4827141605F
:101CF00000218160C1600161C0E905121022C0E9C4
:101D00000721416281620A21C162FFF777BC0000AE
:101D10000038004078000020FEE770470907090EF0
:101D2000002806DA00F00F0000F1E02080F8141D12
:101D3000704700F1E02080F8001470477047000001
:101D40000148FFF7F9BB00007800002038B50B46CA
:101D5000009204460022802100F010F8002804D0F0
:101D6000606D40F020006065032038BD10B5406A0A
:101D70000021C187C186FFF7DDFB10BD2DE9F041D1
:101D80001D4617460E460446DDF8188035E0681CEF
:101D900033D02DB1FFF702F8A0EB0800A8422CD3F6
:101DA0002068416821F0E00141606068B0F5827F01
:101DB0000BD1A068B0F5004F02D0B0F5806F04D110
:101DC0002068016821F040010160A06AB0F5005F61
:101DD0000AD1206801684DF6FF7211400160206849
:101DE000016841F400510160012084F85100002095
:101DF00084F850000320BDE8F0812068806836EA4E
:101E0000000004D00020B842C1D10020F3E7012037
:101E1000F9E770472DE9F05FFEF7C0FF41F2883126
:101E2000B0FBF1F201FB12004FF0010810B9484974
:101E300081F80080FEF7B2FF4FF4FA6AB0FBFAF2C5
:101E40000AFB1200434D58B96868C043800707D5A4
:101E5000002201210620FFF715F80620FFF707F8FA
:101E60003D4C3E4FDFF8F8902078DFF8F8B00128BD
:101E700055D1FEF793FF39683B4E401A504509D2C1
:101E800001215846FEF780FF012848D13088401CC8
:101E9000308044E02078012841D199F8000040F2D8
:101EA000DC514FF4807A10B101280AD01EE030884E
:101EB00088421BD2002210215846FEF76AFF2BA051
:101EC00008E03088884211D9002210215846FEF7D8
:101ED00060FF27A000F030FA5046FFF705F82868A9
:101EE00040F004002860FFF70DF818E001215D467E
:101EF0005846FEF749FF18B1207801280AD00EE0B5
:101F000002202070002089F8000030801AA000F024
:101F100013FA04E0012210212846FEF73AFF207848
:101F2000022810D101215846FEF72EFF01280AD1C0
:101F300013A000F001FA454684F80080FEF72EFF5A
:101F4000386089F80050BDE8F05FFEF72DBF000053
:101F50002300002000700040000000200800002046
:101F60002200002000080140240000204279650082
:101F70004279655F32000000574F524B000000006D
:101F80004F464620535441525400000030B593B0A0
:101F900028216846FEF7CDF814210AA8FEF7C9F8F3
:101FA000002401200F9410941194010412948DE8E0
:101FB00013000490CDE90814022507956846FFF741
:101FC00037F90F200A90CDE90B540D9400210AA88F
:101FD0000E94FFF71DF80FA80F951194FEF7A2FFBE
:101FE00013B030BD0D48016841F001010160416846
:101FF0000B4A1140416001680A4A114001600168C2
:1020000021F480210160416821F4FE0141604FF418
:102010001F0181600449C00308607047001002403E
:102020000000FFF8FFFFF6FE08ED00E010B5406A83
:102030000021C185C184FFF765FC10BD0168CA6835
:1020400022F49072CA6001684A6922F001024A6172
:10205000202180F83A10704710B590F83A102229E4
:1020600001D0022010BD8168B1F5805F11D00169F7
:10207000002901681FD0496801F07F03816A4A1C6A
:1020800082620B70C18D491E0904090CC18518D0EC
:102090002BE00269816A002A0268526805D0D2B238
:1020A0000A80816A491C8162ECE7C2F308020A8057
:1020B000816A891CF7E74A68816A4B1C83620A704F
:1020C000E0E70168CA6822F02002CA600168CA68B5
:1020D00022F48072CA6001684A6922F001024A61F2
:1020E000202180F83A10FFF709FD002010BD000004
:1020F0002DE9F041044600680169E26821F440518D
:10210000114301612169A06808436169084321689E
:10211000CA6841F20C639A430243CA60206841696D
:10212000A26921F44071114341614C492068642542
:10213000322688423CD1FFF731F800EBC00101EBB9
:10214000001061688900B0FBF1F7FFF727F800EB9A
:10215000C00101EB00106168B0468900B0FBF1F0EE
:10216000B0FBF5F06FF01801484307EB800106EB78
:102170000110B0FBF5F000F0F006FFF70FF800EBF0
:10218000C00101EB001061688900B0FBF1F0B0FB09
:10219000F5F006EB0016FFF701F800EBC00101EBCC
:1021A000001061688900B0FBF1F7FEF7F7FF3BE034
:1021B000FEF7E4FF00EBC00101EB0010616889004D
:1021C000B0FBF1F7FEF7DAFF00EBC00101EB001006
:1021D0006168B0468900B0FBF1F0B0FBF5F06FF03C
:1021E0001801484307EB800106EB0110B0FBF5F046
:1021F00000F0F006FEF7C2FF00EBC00101EB00109B
:1022000061688900B0FBF1F0B0FBF5F006EB001659
:10221000FEF7B4FF00EBC00101EB0010616889001C
:10222000B0FBF1F7FEF7AAFF00EBC00101EB0010D5
:1022300061688900B0FBF1F0B0FBF5F06FF01801B8
:10224000484307EB800108EB0110B0FBF5F0216873
:1022500000F00F0030448860BDE8F0810038014094
:1022600090F83910212901D0022070478168B1F51A
:10227000805F016A0BD04A1C0262026809785160D3
:10228000C18C491E0904090CC1840ED017E00988CD
:102290000268C1F30801516001690029016A02D096
:1022A000491C0162ECE7891CFBE70168CA6822F05F
:1022B0008002CA600068C16841F04001C16000202E
:1022C00070472DE9F041984617460E460446069D94
:1022D0001DE0681C1BD02DB1FEF760FDA0EB0800CF
:1022E000A84214D92068C16821F4D071C160206867
:1022F000416921F001014161202084F8390084F80E
:102300003A00002084F838000320BDE8F0812068FE
:10231000006836EA000004D00020B842D9D000207E
:10232000F3E70120F9E700000148FFF7EDBA0000EC
:10233000D0000020FEE700000FB4054B10B503A944
:10234000044A029800F018F810BC5DF814FB000075
:10235000CD2400083800002002E008C8121F08C180
:10236000002AFAD170477047002001E001C1121F16
:10237000002AFBD1704700002DE9FF4F89B09B4632
:102380000446002506E025280BD05A460B999047B5
:10239000641C6D1C20780028F5D10DB02846BDE8DE
:1023A000F08F0027B8460122474900E0074314F8A0
:1023B000013F203B02FA03F00842F7D120782E2893
:1023C00019D114F8010F47F004072A280ED06FF036
:1023D0002F022078A0F1300109290CD808EB8801E0
:1023E00002EB410100EB0108641CF2E70A98641C4F
:1023F00050F8048B0A9020780028CED0642808D0AA
:10240000692806D075281ED05A460B9990476D1C36
:1024100058E00A994FF00A0901C90A91002802DA26
:1024200040422D2102E0390504D52B218DF82010E2
:10243000012103E0F90704D02021F7E78A4608AE1E
:102440000DE00021FAE70A994FF00A0901C90A9143
:10245000F7E74946FDF778FE303106F8011D002800
:10246000F7D1ADEB060000F12009780701D44FF059
:102470000108C84502DDA8EB090000E00020804605
:10248000002706E008A85A46C05D0B9990476D1CCE
:102490007F1C5745F6DB04E030205A460B999047E5
:1024A0006D1CB8F10001A8F10108F5DC05E016F893
:1024B000010B5A460B9990476D1CB9F10001A9F127
:1024C0000109F4DC641C65E70928010013B54FF627
:1024D000FF73012269460248FFF711FB00981CBDFB
:1024E000D00000200EB57548016800914168019147
:1024F00080680290029972480170029A120A427032
:10250000029B1B0C8370029B00F10C051B0EC37019
:102510006970AA70FEF750FCFFF738FDFFF778FBF3
:102520006848416941F0010141614069002200F0C1
:102530000100009011460B20FEF7A4FC0B20FEF7D3
:1025400096FC62486049002601604FF47A31C0E988
:1025500001160C21C660C0E904618661C661FFF7FF
:102560005BFAFFF72BFBFFF7BBFB59A0FFF7E4FE7D
:102570000620FEF771FCA5F118044FF0010884F85D
:102580000080FEF70BFC544FA0607868C0438007C2
:102590000BD452A0FFF7D0FE386840F00800386036
:1025A00084F80080FEF7FAFBA0604EA0FFF7C4FE9F
:1025B000544F002280213846FEF7EBFB0122082110
:1025C0003846FEF7E6FB50A0FFF7B6FE4FF47A78E8
:1025D00005E052A0FFF7B0FE4046FEF7D7FA00F044
:1025E000A7F80028F5D04FA0FFF7A6FE002208218B
:1025F0003846FEF7CEFB00F0E3F8FF2000F0C3F80A
:10260000732000F0FAF9082000F0CAF90C2000F05D
:10261000B8F9052000F0B0F9062000F0F2F94349BE
:10262000062000F06DF941490020491F00F068F9CB
:102630003E49012000F064F93C490220491D00F0A8
:102640005FF93A4903200A3100F05AF9374904206A
:102650000F3100F055F935490520143100F050F9DB
:10266000002000F0AAF900F083F8022000F0B4F98D
:1026700013491648A680A6700222091D8838FEF765
:102680003DF812488838FEF7BFF8104E943E0F48C8
:102690008838FEF7B9F83078287170786871B078AA
:1026A000A871F078E87130792872707968720448FE
:1026B00061780C3000F0B2F9E070E8E7E8F7FF1F4E
:1026C0000C0000200010024000380140D000002023
:1026D00048656C6C6F0000000070004057616B65CE
:1026E000757000000D0A53544D3332463130335269
:1026F000455436206973206F6E6C696E652E0D0A25
:1027000000000000000801406E524632344C303167
:102710002B20636865636B3A200000004641494CFA
:102720000D0A00004F4B0D0A000000005A2B000854
:102730001CB50DA405222146302000F0B3F9052276
:102740006946102000F09CF80020694614F8012B1F
:102750000B5C9A4201D000201CBD401CC0B2052871
:10276000F4D301201CBD00006E524632340000003C
:1027700010B5072000F0A8F840F07001BDE8104047
:10278000072000F0B5B910B50446052801D900218D
:1027900006E0012000F098F80121A14020EA0101A3
:1027A000BDE81040012000F0A3B9FF21E22000F0B5
:1027B0009FB9FF21E12000F09BB9072000F084B809
:1027C00010B50821002000F093F93F21012000F00E
:1027D0008FF90321022000F08BF90321084600F055
:1027E00087F90321042000F083F90221052000F07D
:1027F0007FF90E21062000F07BF90021072000F070
:1028000077F90021112000F073F90021122000F067
:102810006FF90021132000F06BF90021142000F063
:1028200067F90021152000F063F90021162000F05F
:102830005FF900211C2000F05BF900211D2000F051
:1028400057F9FFF7B2FFFFF7B4FFFFF791FF01223F
:10285000BDE8104011030148FEF79BBA000C01408F
:1028600001B582B064200090012301AA02A90348A7
:10287000FEF748FF9DF804000EBD00007800002020
:102880002DE9F041DFF83C8015460C4607464FF431
:102890008056002231464046FEF77BFA3846FFF765
:1028A000DFFF04E0FF20FFF7DBFF04F8010B6D1EE4
:1028B000EDB2F7D231464046BDE8F0410122FEF7C5
:1028C00068BA0000000C014070B50C4E04464FF48D
:1028D0008055002229463046FEF75BFA04F01F00BF
:1028E000FFF7BEFFFF20FFF7BBFF0446012229468A
:1028F0003046FEF74EFA204670BD0000000C014045
:102900002DE9F04705461A4F0E46072D2ED2DFE877
:1029100005F004042727272704000320FFF7D4FF2E
:10292000401CC4B2DFF84C904FF48058264400227B
:1029300041464846FEF72DFA785D40F02000FFF74B
:102940008FFF00BF16F80109FFF78AFF641EE4B28B
:10295000F8D241464846BDE8F0470122FEF719BAD1
:102960000978785DBDE8F04700F0C2B8BDE8F087AF
:102970004E2B0008000C0140801EC1B2032000F065
:10298000B7B810B504460020FFF79EFF04F00C0115
:1029900020F00C000143BDE81040002000F0A8B872
:1029A00010B504460620FFF78FFF20F028012143D1
:1029B000BDE81040062000F09BB810B5044600208A
:1029C000FFF782FF04F0010120F001000143BDE8A0
:1029D0001040002000F08CB810B504460020FFF72E
:1029E00073FF022C06D020F00201BDE81040002049
:1029F00000F07EB840F00201F7E70146052000F044
:102A000077B810B504460620FFF75EFF20F00601F8
:102A10002143BDE81040062000F06AB8F8B506462C
:102A20001B481C4D0C460090012280212846FEF7D1
:102A3000B0F92146304600F055F8002280212846A2
:102A4000FEF7A7F9FFF7B9FE044610F0300F03D1E7
:102A50000098411E0091F5D2009878B10EA0FFF7C2
:102A60006BFC21460DA0FFF767FC0DA0FFF764FC8F
:102A7000FFF77EFEE00603D50320F8BD0220F8BD77
:102A8000A00601D50120F8BDFFF793FE0020F8BD98
:102A9000FFFF0F00000801405B00000025640000FC
:102AA0005D2000002DE9F041DFF8348015460C462A
:102AB00007464FF48056002231464046FEF769F93A
:102AC000384601E014F8010BFFF7CAFE6D1EEDB2A7
:102AD000F8D231464046BDE8F0410122FEF759B92F
:102AE000000C01400A460146A020FFF7DBBF0000B2
:102AF0002DE9F041134E0F4604464FF48055002255
:102B000029463046FEF745F9202C06D204F01F0076
:102B100040F02000FFF7A4FE0AE02046FFF7A0FEE9
:102B2000E12C08D0E22C06D0E32C04D0FF2C02D0FC
:102B30003846FFF795FE29463046BDE8F0410122B0
:102B4000FEF727B9000C01401112131415160A0BD9
:102B50000C0D0E0F100101E71CE10101E71CE20161
:102B600001E71CE30101E71CE40101E71CE50101A9
:102B7000E71CE6000000000000000001020304065C
:102B8000070809000000000102030400AC2B000844
:102B9000000000203C00000058230008E82B00083B
:102BA0003C0000201C05000068230008000A00000B
:102BB0000000000000000000000000000000000015
:102BC0000000000001000000000000000000000004
:102BD00000000000010000001000000000000000E4
:082BE00000A24A0400000000FD
:04000005080000ED02
:00000001FF
