:020000040800F2
:100000005805002001010008A71D0008D71B0008A3
:10001000A51D000855050008C526000800000000C1
:100020000000000000000000000000009F1E00080B
:100030005705000800000000C91D0008A11E0008A7
:100040001B0100081B0100081B0100081B01000820
:100050001B0100081B010008590500081B010008CE
:100060001B0100081B0100081B0100081B01000800
:100070001B0100081B0100081B0100081B010008F0
:100080001B0100081B0100081B0100081B010008E0
:100090001B0100081B0100081B0100081B010008D0
:1000A0001B0100081B0100081B0100081B010008C0
:1000B0001B0100081B0100081B0100081B010008B0
:1000C0001B0100081B0100081B0100081B010008A0
:1000D000CD1D0008B92600081B0100081B010008FF
:1000E0001B0100081B0100081B010008DFF80CD0F1
:1000F00000F0F8F900480047C5270008580500201F
:100100000648804706480047FEE7FEE7FEE7FEE7B1
:10011000FEE7FEE7FEE7FEE7FEE7FEE76D200008EC
:10012000ED000008202A04DB203A21FA02F0002129
:10013000704721FA02F3D040C2F1200291400843F7
:1001400019467047D2B201E000F8012B491EFBD2DC
:1001500070470022F6E710B513460A4604461946D2
:10016000FFF7F0FF204610BD2DE9FE4F804681EAE3
:100170000300C00F0C46009021F0004123F0004521
:10018000B8EB0200A94105D24046214690461C46E4
:100190000B46024623F00040104347D0270DC7F31B
:1001A0000A00C3F30A510290401A019040286BDA0A
:1001B000C3F3130040F4801B0098924620B1002343
:1001C000D2EB030A63EB0B0B01985946C0F14002D6
:1001D000504600F008F906460D4650465946019A29
:1001E00000F010F910EB08006141002487EA115279
:1001F00084EAE7731A4340D0009A62B3019A012A55
:100200004FEA075215DC001B61EB02014FF0004280
:1002100002EA0752CDE90042001C41F58011324646
:100220002B4600F010F903B0BDE8F08F40462146A0
:10023000F9E7001B61EB0201001C41F58013001877
:100240005B412018A2F5001747EB030140EAD57087
:10025000B6196D4111E06D084FEA360645EAC075E2
:100260004FEA0752001B61EB0201001C41F58011AF
:1002700049084FEA30000019514132462B4603B07D
:10028000BDE8F04F00F0D0B80098012240000023F4
:10029000D0EB020263EBE073009821464FEAE07472
:1002A000B8EB000061EB0401E9E783F000435BE792
:1002B00081F0004158E72DE9FE4F81EA030404F084
:1002C000004421F0004100944FF0000B23F0004364
:1002D00050EA01045ED052EA03045BD0C3F30A542F
:1002E000C1F30A552C44A4F2F3340194A0FB025448
:1002F000C1F3130141F48011C3F3130343F48013DA
:1003000001FB024400FB034E840A970A44EA81542D
:1003100047EA8357A4FB076802958D0A05FB07850A
:100320004FEA932C04FB0C542705029D4FEA065814
:1003300047EA1637B5EB08056EEB070C870E920EF1
:1003400047EA811742EA8312A7FB0201B6EB0B01D1
:1003500064EB00042B0D43EA0C335E1844EB1C5095
:10036000DA465146E7FB0201C5F313044FEA0B33AB
:1003700043EA14534FEA0432019C43EA0603A4F112
:100380000C040294009CCDE900B400F05CF803B0CA
:10039000BDE8F08F00200146F9E70EB540F2334189
:1003A00002910021CDE900110A460B4600F04BF8FE
:1003B00003B000BDC1F30A5210B5C1F3130140F2FE
:1003C000FF3341F480119A4201DA002010BD40F25F
:1003D00033439A42A2F2334203DC5242FFF7A2FEB9
:1003E00010BD904010BD202A04DB203A00FA02F133
:1003F000002070479140C2F1200320FA03F3194313
:1004000090407047202A06DBCB17203A41FA02F0D1
:1004100043EAE07306E041FA02F3D040C2F1200261
:10042000914008431946704710B5141E73F100043B
:1004300008DA401C41F1000192185B411A4301D1D6
:1004400020F0010010BD2DE9F04D92469B4611B100
:10045000B1FA81F202E0B0FA80F220329046FFF762
:10046000C2FF04460F4640EA0A0041EA0B01534628
:100470005A46084313D0114653EA010019D0C8F177
:1004800040025046FFF74EFE05460E46504659467E
:100490004246FFF7A8FF084305D0012004E02046AC
:1004A0003946BDE8F08D0020054346EAE0762C434E
:1004B00037430A986305E40AA0EB08000022FD0A0E
:1004C00044EA47540A3002D500200146E9E7010515
:1004D00010196941DDE9084500196941BDE8F04D91
:1004E000A2E70000064C074D06E0E06840F001037B
:1004F00094E8070098471034AC42F6D3FFF7FAFDB2
:10050000242F0008442F000870B504460068816855
:10051000C943C9071CD1816821F00101816000F045
:10052000ABFA05460FE000BF00F0A6FA401B022818
:1005300009D9A06A40F01000A062E06A40F0010012
:10054000E062012070BD20688068C043C007EBD026
:10055000002070BDFEE77047012000F099B900004F
:10056000F8B50024009490F824202546012A12D0E2
:10057000012280F824204A681F23072A0DD206682A
:10058000776B521E02EB820293409F430B689340AD
:100590001F43776319E00220F8BD06680D2A0AD2CE
:1005A000376BD21F02EB820293409F430B6893404C
:1005B0001F43376309E0F76A0D3A02EB820293406A
:1005C0009F430B6893401F43F7620A68072306683E
:1005D0000A2A0AD3F7680A3A02EB420293409F4381
:1005E0008B6893401F43F76008E0376902EB4202D3
:1005F00093409F438B6893401F4337610A68102ADA
:1006000001D0112A20D1124B02689A4217D1936867
:100610001B0219D4936843F40003936009681029FE
:1006200012D10C490C4A0968B1FBF2F101EB8101CE
:10063000490000E0491E00910029FBD104E0816AD5
:1006400041F020018162012480F824502046F8BD49
:10065000002401402400002040420F002DE9F04119
:100660004FF0000704003D467ED0A06A002628B95E
:10067000E66284F82460204600F07EF82046FFF70A
:1006800043FFA16AC90600D420B1A06A40F010005F
:10069000A06269E0A16A21F4885141F00201A162DF
:1006A0006268E169E3680A4347EA43010A43A168D3
:1006B0004FF48077B94209D0012907D05FF00001DB
:1006C000D4F814C0BCF1010F02D00AE03946F7E7B4
:1006D000F3B1A36A43F02003A362E36A43F001038A
:1006E000E3622368D3F804C02CF4694C4CEA010C93
:1006F000C3F804C021688B68DFF870C003EA0C03FC
:1007000013438B60A168B9420BD0012909D00CE0DA
:10071000DFF85CC0A3690CEB43330B4343F4006187
:10072000DFE7218A0D05A5F580152168CB6A23F442
:1007300070032B43CB62216889680E4B19409142AC
:1007400008D1E662A16A21F0020141F00101A16233
:10075000BDE8F081A06A20F0020040F01000A06225
:10076000E06A40F00100E0620120F1E7FDF7E1FFFF
:1007700000E0FFFFFE0E1FFF00B585B000210091D5
:1007800001910291039100680E49884218D10E48E8
:10079000816941F400718161816901F40071049102
:1007A000816941F0040181618069694600F00400BB
:1007B00004900420009003200190044800F074F895
:1007C00005B000BD002401400010024000080140B7
:1007D00010B590F821100024022903D00421816370
:1007E00001243DE001680A6822F00E020A600168F7
:1007F0000A6822F001020A601A4A0168914201D196
:10080000012121E0174A1432914201D110211BE04D
:10081000144A2832914201D1891515E0114A3C321F
:10082000914201D189140FE00E4A5032914202D117
:100830004FF4803108E00B4A6432914202D14FF408
:10084000801101E04FF08071064A083A51600121A1
:1008500080F82110002180F82010416B01B18847F9
:10086000204610BD0800024070B5044600F004F9AF
:100870000546601C02D004480078044400F0FCF8EF
:10088000401BA042FAD370BD180000207047000042
:10089000044910B50A68024202D00860FFF7F6FF6B
:1008A00010BD0000140401402DE9F84FDFF890A1BD
:1008B00000220AF1040B144601274FF00F090BF137
:1008C000040E00BF0B6807FA04F52B40AB4274D14D
:1008D000DFF870C14E68A6EB0C0866452BD00DDC26
:1008E000032E34D005DC36B3012E19D0022E2FD1C1
:1008F0001BE0112E16D0122E2AD119E0B8F5881F50
:1009000019D006DCB8F5803F15D0B8F5801F1FD18F
:1009100011E0B8F5001F0ED0B8F5041F18D10AE099
:10092000CA6815E0CA68121D12E0CA6808320FE0F2
:10093000CA680C320CE08A682AB1012A4FF008021A
:1009400003D0456104E0042202E0056100E00022DA
:10095000FF2B01D8064601E000F104064FEA8405AA
:1009600001D9A5F12005D6F800C009FA05F82CEA4E
:10097000080C02FA05F54CEA050CC6F800C04D68F3
:10098000ED0057D5304DAE6946F00106AE61AD6958
:1009900024F0030605F0010500952C4D06EB050C2F
:1009A000DCF80850A6074FEA167809FA08F6B543AE
:1009B000274EB04202D1002610E03BE0254EB04267
:1009C00001D101260AE0244EB04201D1022605E001
:1009D000224EB04201D1032600E0042606FA08F6B2
:1009E0002E43CCF808604D68DAF80060ED035546F8
:1009F00001D51E4300E09E432E604D68DBF8006089
:100A0000AD035D4601D51E4300E09E432E604D6858
:100A1000DEF80060ED02754601D51E4300E09E43FE
:100A20002E604D68AD020E4D2E6801D51E4300E0CC
:100A30009E432E60641C102CFFF444AFBDE8F88F79
:100A400000040140000011100010024000000140AD
:100A500000080140000C014000100140001401405A
:100A60000C0401408068084000D0012070470AB1A2
:100A7000016170470904FBE7014880687047000086
:100A80001800002002488168027811448160704794
:100A900018000020074810B5016841F010010160FE
:100AA000032000F07DF8002000F006F800F024F8A4
:100AB000002010BD0020024070B50D4D04464FF4DB
:100AC0007A712878B1FBF0F00A490968B1FBF0F0BF
:100AD00000F072FD48B9102C07D200222146501EAA
:100AE00000F03EF800206C6070BD012070BD000079
:100AF00018000020240000200C4808B5816941F04E
:100B000001018161816901F001010091C16941F038
:100B10008051C161C06900F0805000900448416874
:100B200021F0E06141F00071416008BD0010024019
:100B30000000014000F01F020121914040098000A7
:100B400000F1E020C0F88011704700F01F02012181
:100B500091404009800000F1E020C0F8001170478A
:100B6000F0B40E4B1B680C46C3F30223C3F1070518
:100B7000042D00D90425191D072901D2002300E006
:100B8000DB1E012606FA05F1491E214099409E40D0
:100B9000761E16403143F0BC01F006B90CED00E0C2
:100BA000064900F0070208684FF6FF03184040EAC4
:100BB0000220034A10430860704700000CED00E07B
:100BC0000000FA0590FAA0F0044AB0FA80F002EBB7
:100BD00080000121C0F880107047000000000E4224
:100BE0000548016841F0020101600448016841F0D4
:100BF0000401016030BF70470070004010ED00E05C
:100C00002DE9F84305460078354CC00754D0E0691B
:100C10000026C00008D4E06940F08050E061E0693F
:100C2000012600F0805000902E480168C90512D4BA
:100C30000168804641F480710160FFF71DFF07469F
:100C400005E000BFFFF718FFC01B642823D8D8F8C1
:100C50000000C005F6D5206A10F4407021D0A988A4
:100C600001F4407181421CD0206A1F49012220F406
:100C700040700A6000220A602062C00711D0FFF7AE
:100C8000FBFE074641F2883808E000BFFFF7F4FE9C
:100C9000C11B414502D90320BDE8F883206A8007C3
:100CA000F4D5206A696820F44070084320621EB1C0
:100CB000E06920F08050E0612878800705D5606801
:100CC000A96820F44040084360602878C00605D534
:100CD0006068E96820F48000084360600020DBE77A
:100CE0000010024000700040400442422DE9F047ED
:100CF000DFF8548105460E46D8F8000000F00700E2
:100D0000B0420CD2D8F8001021F007013143C8F8E6
:100D10000010D8F8000000F00700B0426FD128683A
:100D20004A4C810712D5400703D5606840F4E06063
:100D300060602878000703D5606840F46050606008
:100D40006068A96820F0F000084360602878C00758
:100D500044D06868012816D02168022816D0890777
:100D600000294CDA616821F0030101436160FFF75B
:100D700083FE6968074641F2883001290ED00229B6
:100D8000814618D026E021688903E9E78901E7E771
:100D9000FFF772FEC11B494501D918E08146606822
:100DA000C0F381000128F3D118E000BFFFF764FE13
:100DB000C11B49450BD86068C0F381000228F5D1FA
:100DC0000CE000BFFFF758FEC11B494502D90320C4
:100DD000BDE8F087606810F00C0FF3D1D8F8001070
:100DE000404601F00701B1420BD9016821F007012B
:100DF00031430160006800F00700B04201D00120DB
:100E0000E6E72878400705D56068E96820F4E060E7
:100E1000084360602878000706D56068296920F4D7
:100E2000605040EAC100606000F036F86168084A2E
:100E3000C1F30311515CC840064908600020FFF768
:100E40003BFE0020C4E700000020024000100240EA
:100E50000B2F000824000020044805490068496859
:100E6000044AC1F30221515CC840704724000020AD
:100E7000001002401B2F000804480549006849681B
:100E8000044AC1F3C221515CC840704724000020CD
:100E9000001002401B2F000813A185B00FC98DE878
:100EA0000F0015A0154A00680490516801F00C006D
:100EB000042804D0082804D0114805B07047114810
:100EC000FBE7C1F38343C9031DF8030009D551684B
:100ED00004AAC1F34041515C0A4A5043B0FBF1F00F
:100EE000EBE709494843E8E7020304050607080958
:100EF0000A0B0C0D0E0F1010010200000010024032
:100F000000127A00001BB70000093D002DE9F84FE0
:100F100004460078B94DC00748D06868C0F3810026
:100F2000012807D06868C0F38100022809D16868E9
:100F3000C00306D52868800338D5606800286FD0C4
:100F400034E06068B0F5803F0BD010B1B0F5A02F51
:100F500011D0286820F480302860286820F4802090
:100F600002E0286840F480302860606888B1FFF7AC
:100F700083FD064609E0286840F480202860F0E7F9
:100F8000FFF77AFD801B642875D828688003F7D5A1
:100F90000CE0FFF771FD064605E000BFFFF76CFDB2
:100FA000801B6428F0D828688003F7D42078944EFA
:100FB00080074FF001094FF000083BD5686810F03A
:100FC0000C0F07D06868C0F38100022809D1686857
:100FD000C00306D42868800714D5206901281FD1D2
:100FE00010E02069B0B1C6F80090FFF745FD074654
:100FF00005E000BFFFF740FDC01B0228C4D82868E9
:101000008007F7D52868616920F0F80040EAC10040
:1010100028600FE0C6F80080FFF72EFD074606E0C7
:10102000E9E000BFFFF728FDC01B022823D828688D
:101030008007F7D4207800072CD57248A169D9B170
:10104000C0F80090FFF718FD074604E0FFF714FD15
:10105000C01B02280FD8686A8007F7D56A484FF48A
:10106000FA510068B0FBF1F0009000BF0098411EFB
:101070000091FAD20EE080E0C0F80080FFF7FCFC9F
:10108000074604E0FFF7F8FCC01B022875D8686A21
:101090008007F7D42078400760D5E8690027C000B2
:1010A00008D4E86940F08050E861E869012700F061
:1010B0008050009055480168C90513D401688346E3
:1010C00041F480710160FFF7D7FC824606E000BF63
:1010D000FFF7D2FCA0EB0A0064284ED8DBF8000032
:1010E000C005F5D5E06801280AD008B1052813D05D
:1010F000286A20F001002862286A20F0040002E03B
:10110000286A40F001002862E06841F2883B98B10B
:10111000FFF7B2FC82460BE0286A40F00400286228
:10112000EEE700BFFFF7A8FCA0EB0A0159455AD82B
:10113000286A8007F6D50CE0FFF79EFC824605E0A2
:10114000FFF79AFCA0EB0A0159454CD8286A8007A2
:10115000F6D41FB1E86920F08050E861E06988B3F7
:101160006968C1F38101022945D00228C6F8608070
:1011700004D0FFF781FC044638E034E0FFF77CFC44
:10118000074604E0FFF778FCC01B02282BD828682C
:101190008001F7D4206AB0F5803F05D16868A16866
:1011A00020F4003008436860D4E908010843696806
:1011B00021F4741108436860C6F86090FFF75CFC86
:1011C000044606E015E000BFFFF756FC001B0228AE
:1011D00009D828688001F7D50BE000BFFFF74CFC69
:1011E000001B022802D90320BDE8F88F286880017F
:1011F000F4D40020F8E70120F6E7000000100240D8
:10120000000042428004424224000020007000405E
:101210007047000038B504460068426881684B0694
:1012200005D4CB0703D0530601D5216C04E08B070E
:1012300007D5130605D5616C01B02046BDE83040E6
:10124000084711F0600F3FD093063DD54B060AD5F5
:1012500094F85130032B34D0636D43F0040363657D
:10126000C36883680093890609D5616D41F0010167
:10127000616581680091016821F040010160606D45
:10128000002821D02068416821F0E0014160012060
:1012900084F85100900718D02068416821F00301BC
:1012A00041600C4DE06C18B14563E06CFFF790FABB
:1012B000A06C002808D04563A06CBDE83840FFF75B
:1012C00087BAC1688068009038BD2046FFF7A0FF4C
:1012D00038BD0000F91D000870B5040005D00025D8
:1012E000A56294F8510010B104E0012070BD2046C1
:1012F00000F034F8022084F851002068016821F0E1
:1013000040010160D4E901010843D4E9031211430B
:10131000084361690843218B01F400710843E169C6
:101320000843216A0843A16A084321680860A0694C
:10133000042101EA1040616A08432168486021687D
:10134000E06A08612068C16921F40061C1616565D6
:10135000012084F85100002070BD000030B585B038
:10136000002400940194029403940068194988426F
:101370002DD11948C16941F48041C161C16901F4AD
:1013800080410491816941F0080181618069134DB8
:1013900000F0080004904FF42040009002200190DB
:1013A0000320039069462846FFF77EFA4FF48040F9
:1013B000CDE90004694628460294FFF775FA002239
:1013C00002212420FFF7CCFB2420FFF7BEFB05B051
:1013D00030BD00000038004000100240000C014009
:1013E0002DE9F84F044690F8500000260A9F9A46CF
:1013F00093460D464FF0010801280ED0012084F8D5
:101400005000FFF739FB814694F8510061680128CC
:101410000CD0B1F5827F07D102E00220BDE8F88F41
:10142000A16809B9042801D00226BDE055B1BBF17D
:10143000000F07D0BAF1000F04D094F85100012832
:1014400002D004E00126AFE0052084F8510000201E
:101450006065C4F838B0A4F83EA0A4F83CA02563A9
:10146000A4F836A0A4F834A0206460642068016861
:10147000490603D4016841F040010160E068B0F51D
:10148000006F606804D0E8B3E08E01283BD06AE0CA
:1014900010B1E08E01282ED1216835F8020BC8600A
:1014A000E08E401EE08626E0B8F1000F0DD0E08E01
:1014B00058B120688168890707D535F8021BC160DB
:1014C000E08E401EE0864FF00008E08F58B12068A3
:1014D0008168C90707D0C0682BF8020BE08F401E57
:1014E000E0874FF00108781C05D0FFF7C5FAA0EBA4
:1014F0000900B84246D2E08E0028D5D1E08F0028FE
:10150000D2D136E0FFE7216815F8010B0873E08EB1
:10151000401EE08627E000BFB8F1000F0DD0E08E3E
:1015200058B120688168890707D515F8011B017338
:10153000E08E401EE0864FF00008E08F58B1206832
:101540008168C90707D0C0680BF8010BE08F401E07
:10155000E0874FF00108781C05D0FFF78DFAA0EB6B
:101560000900B8420ED2E08E0028D5D1E08F0028C5
:10157000D2D13B46012202212046CDF8009000F056
:1015800043FC08B103260FE04A463946204600F0E6
:1015900023FC18B101262020606505E0A06818B979
:1015A0002068C16880680090012084F85100002004
:1015B00084F85000304631E710B5401EB0F1807F0E
:1015C00001D3012010BD4FF0E02460610F216017AE
:1015D00000F0EAFB0020A06107202061002010BD80
:1015E00030B590F83C20012A20D0012280F83C2020
:1015F000022380F83D3003685C6824F070045C606E
:1016000003685C680D682C435C6003689C6824F088
:1016100080049C6003689C6849680C439C6080F867
:101620003D20002180F83C10084630BD022030BD2E
:1016300010B5040003D094F83D0010B107E001207C
:1016400010BD002084F83C00204600F00DF8022078
:1016500084F83D00211D206800F02CFD012084F855
:101660003D00002010BD000008B500680649884212
:1016700008D10648C16941F00201C161C06900F0AA
:101680000200009008BD000000040040001002406D
:1016900070B5044690F83C00012817D0012584F865
:1016A0003C50022084F83D002068826822F07702D6
:1016B00022F47F4282600868502837D00DDC202851
:1016C00059D005DC88B3102841D151E0022070BD0B
:1016D000302853D040283AD13FE060282ED07028DF
:1016E0000BD0B0F5805F03D0B0F5005F2FD110E0D4
:1016F0002068816821F0070115E0CB68D1E901215C
:10170000206800F018FD2168886840F07700886044
:101710001DE0CB68D1E90121206800F00CFD2068B4
:10172000816841F48041816011E01EE0CA68496827
:10173000206800F0B5FD5021206806E0CA684968BD
:10174000206800F0BEFD6021206800F0FEFC84F8F7
:101750003D50002084F83C0070BDCA68496820688C
:1017600000F09EFD40212068EFE700212068ECE7B3
:1017700010212068E9E720212068E6E73021206871
:10178000E3E7000000B585B00021009101910291CE
:1017900003910068104988421BD11048816941F0CB
:1017A000080181618069694600F0080004902020EA
:1017B000009002200190032003900948FFF774F87D
:1017C0000848416821F4406141F0E06141F4006162
:1017D000416005B000BD0000000400400010024060
:1017E000000C01400000014070B5044690F83C0038
:1017F0000D4601280DD0012684F83C60022084F8B3
:101800003D0042B1042A18D0082A2AD00C2A4DD112
:1018100039E0022070BD206800F0A0FC20688169DA
:1018200041F0080181612068816921F00401816132
:10183000206881692A69114311E0206800F0B6FC34
:101840002068816941F4006181612068816921F427
:1018500080618161206881692A6941EA0221816190
:1018600024E0206800F0CEFC2068C16941F0080146
:10187000C1612068C16921F00401C1612068C169AA
:101880002A69114311E0206800F0E8FC2068C16972
:1018900041F40061C1612068C16921F48061C161C6
:1018A0002068C1692A6941EA0221C16184F83D606A
:1018B000002084F83C0070BD10B5040003D094F8FB
:1018C0003D0010B107E0012010BD002084F83C006D
:1018D000204600F00CF8022084F83D00211D20680D
:1018E00000F0E8FB012084F83D00002010BD7047A7
:1018F00010B504460068012200F012FC0749206878
:10190000884203D1416C41F4004141642068016880
:1019100041F001010160002010BD0000002C0140D9
:101920007047000070B5026804461068D1685369BA
:1019300010F00F0F50D003F0010501F490763543FD
:101940005DD0C20705D0CA0503D5E26B42F00102A3
:10195000E263420705D5DA0703D0E26B42F00202E8
:10196000E263820705D5DA0703D0E26B42F0040296
:10197000E263020705D5DA0703D0E26B42F0080202
:10198000E263E26B002A33D0800604D5880602D5D4
:10199000204600F029FD20684069E16BC0F380100B
:1019A000090700D428B3204600F010FD20684169E3
:1019B00049061AD5416921F040014161606BA0B12F
:1019C0001B494163606BFEF703FF002810D0606B7A
:1019D000416BBDE870400847830610D58B060ED5D5
:1019E0002046BDE8704000F0FFBC2046FFF798FF9E
:1019F00070BD2046FFF794FF0020E06370BD030632
:101A000006D50B0604D52046BDE8704000F0F0BDB9
:101A10004006F3D54806F1D5D168204621F04001B3
:101A2000D160202184F8391000F0D4F870BD000096
:101A3000BD23000870B5040004D094F839000025D7
:101A400010B106E0012070BD84F83850204600F047
:101A500023F8242084F839002068C16821F400515B
:101A6000C160204600F00CFD2068016921F490411E
:101A700001612068416921F02A0141612068C16843
:101A800041F40051C160E563202084F8390084F8F6
:101A90003A00002070BD000030B585B000240094ED
:101AA0000194029403940068184988422CD1184884
:101AB000816941F480418161816901F4804104912F
:101AC000816941F0040181618069124D00F00400D8
:101AD00004904FF4007000900220019003200390C6
:101AE00069462846FEF7E0FE2815CDE90004694660
:101AF00028460294FEF7D8FE002202212520FFF797
:101B00002FF82520FFF721F805B030BD003801403F
:101B1000001002400008014070472DE9F8430446D8
:101B200090F839001F4616460D46202850D1A5B121
:101B30009EB194F8380001284AD0012084F838007A
:101B40004FF00008C4F83C80212084F83900FEF7EB
:101B500093FFA6848146E68426E00120BDE8F88351
:101B6000E08C401EE084A0684B46B0F5805F4FF0EB
:101B700000024FF080012046009703D000F069FD7D
:101B8000E8B90DE000F065FDC8B928882168C0F308
:101B900008004860206908B16D1C05E0AD1C03E039
:101BA000216815F8010B4860E08C0028D8D14B461D
:101BB000002240212046009700F04BFD08B1032091
:101BC000CCE7202084F8390084F838800020C5E76D
:101BD0000220C3E77047FEE73EB500240D4800949D
:101BE000019402948460C460094944610160012544
:101BF00005614FF460214460C161FEF72FFD0220B2
:101C0000CDE90005694602940248FEF7A9FC3EBDF5
:101C1000002401404C0000202DE9F04385B0002451
:101C200031480094019402940394816941F01001B9
:101C30008161816901F010010491816941F0200105
:101C40008161816901F020010491816941F0040101
:101C50008161816901F004010491816941F0080109
:101C600081618069DFF8848000F008000490002220
:101C700018214046FEF7FBFEDFF8749041F2110791
:101C8000002239464846FEF7F2FE01253804009549
:101C9000CDE9010469464046FEF706FE18200226FB
:101CA000CDE90005CDE9024669464046FEF7FCFD58
:101CB0004FF4D070CDE90004694640460294FEF727
:101CC000F3FD00970396CDE9015469464846FEF7B7
:101CD000EBFD002201210620FEF742FF0620FEF761
:101CE00034FF05B0BDE8F083001002400008014059
:101CF000000C01400B480A494FF4007201604FF498
:101D00008271416000218160C1600161C0E90512FA
:101D1000C1610162416281620A21C162FFF7DCBADE
:101D2000003800407C00002010B58EB000240794DD
:101D3000089409940A940B941C2168460C94FEF7AD
:101D400008FA174815490160FA21C0E90114642115
:101D5000C1604FF4007184610161FFF769FC4FF4C9
:101D60008050079007A90E48FFF792FC0C48FFF738
:101D7000A3FD0B940BA90A480C94FFF731FC6020DB
:101D8000CDE9000402940422694605480494FFF753
:101D90002BFD0348FFF7F6FC0EB010BD0004004019
:101DA000D4000020FEE770470907090E002806DA74
:101DB00000F00F0000F1E02080F8141D704700F1E2
:101DC000E02080F800147047704700000148FFF7DA
:101DD00021BA00007C00002038B50B460092044672
:101DE0000022802100F010F8002804D0606D40F03F
:101DF00020006065032038BD10B5406A0021C1870E
:101E0000C186FFF705FA10BD2DE9F0411D461746C2
:101E10000E460446DDF8188035E0681C33D02DB13D
:101E2000FEF72AFEA0EB0800A8422CD320684168E8
:101E300021F0E00141606068B0F5827F0BD1A068BD
:101E4000B0F5004F02D0B0F5806F04D12068016872
:101E500021F040010160A06AB0F5005F0AD120685E
:101E600001684DF6FF72114001602068016841F47D
:101E700000510160012084F85100002084F85000D6
:101E80000320BDE8F0812068806836EA000004D0B5
:101E90000020B842C1D10020F3E70120F9E77047E4
:101EA0002DE9F05FFEF7E8FD4FF4FA64B0FBF4F1C2
:101EB00004FB1100012708B947480770FEF7DCFD55
:101EC000B0FBF4F204FB1200444DA24658B9686816
:101ED000C043800707D5002201210620FEF740FEFF
:101EE0000620FEF732FE3E4CDFF8F890DFF8F8806F
:101EF0002078DFF8F8B0012856D1FEF7BDFDD9F8FB
:101F000000103B4E401A504509D201215846FEF7B9
:101F1000A9FD012848D13088401C308044E0207859
:101F2000012841D198F8001040F2DC504FF4807A3B
:101F300011B101290AD01EE0318881421BD2002252
:101F400010215846FEF793FD2AA008E0318881420F
:101F500011D9002210215846FEF789FD26A000F075
:101F6000B3FB5046FEF72EFE286840F004002860C0
:101F7000FEF736FE18E001215D465846FEF772FD79
:101F800018B1207801280AD00EE00220207000202D
:101F900088F8000030801AA000F096FB04E00122CF
:101FA00010212846FEF763FD207802280FD1012179
:101FB0005846FEF757FD012809D113A000F084FB15
:101FC0002770FEF759FDC9F8000088F80070BDE8D9
:101FD000F05FFEF757BD00000200002000700040D7
:101FE000000000200800002014000020000801402C
:101FF00016000020427965004279655F32000000DA
:10200000574F524B000000004F4646205354415258
:102010005400000030B593B028216846FEF799F8C7
:1020200014210AA8FEF795F8002401200F941094BB
:102030001194010412948DE813000490CDE9081462
:10204000022507956846FEF761FF0F200A90CDE94B
:102050000B540D9400210AA80E94FEF747FE0FA81A
:102060000F951194FEF7CCFD13B030BD0D480168FB
:1020700041F00101016041680B4A11404160016873
:102080000A4A11400160016821F480210160416821
:1020900021F4FE0141604FF41F0181600449C00337
:1020A00008607047001002400000FFF8FFFFF6FED6
:1020B00008ED00E0F0B50268164B174C174D4FF0D5
:1020C0008047984205D0B84203D0A04201D0A84230
:1020D00003D122F070064A683243984205D0B842D4
:1020E00003D0A04201D0A84203D122F44074CA68B0
:1020F000224322F080044A69224302608A68C26255
:102100000A688262984201D1096901630121416133
:10211000F0BD0000002C0140000400400008004019
:1021200010B50123046A8B409C430462036A8A4011
:102130001343036210BD10B5846842EA032224F4FD
:102140007F440A432243826010BD826822F07002FD
:102150000A4342F0070181607047000030B5026A0F
:1021600022F001020262026A4368846924F0730566
:102170000C682C4322F002058A682A430A4DA842C3
:102180000BD122F00805CA6823F440732A434D6935
:1021900022F004021D438B692B434360846149682C
:1021A0004163026230BD0000002C014030B5026A7C
:1021B00022F010020262026A436884690D6824F406
:1021C000E64444EA05248D6822F0200242EA051222
:1021D0000B4DA8420ED1CD6822F0800242EA0512D2
:1021E0004D6923F4406343EA85038D6922F0400280
:1021F00043EA85034360846149688163026230BDBC
:10220000002C014030B5026A22F480720262036A37
:102210004268C46923F4007324F073050C682C43EE
:102220008D6843EA05230C4DA8420ED1CD6823F4F6
:10223000006343EA05234D6922F4405242EA051245
:102240008D6923F4806342EA05124260C4614968E3
:10225000C163036230BD0000002C014030B5026A4A
:1022600022F480520262046A4268C3690D6823F452
:10227000E64343EA05238D6824F4005444EA053418
:10228000064DA84204D14D6922F4804242EA8512EB
:102290004260C36149680164046230BD002C0140A2
:1022A00010B5036A046A24F001040462846924F00E
:1022B000F00444EA021423F00A020A438461026231
:1022C00010BD10B5036A23F0100303628369046A2A
:1022D00023F4704343EA023224F0A00343EA0111DD
:1022E0008261016210BD00003EB524A207CA8DE8DC
:1022F0000700254801788DF8011040788DF802001C
:1023000001208DF80300002000F012FD062000F0EF
:102310004DFD002000F0FDFC00F0B0FB1B49062045
:1023200000F09AFC022000F003FD174C6846103CB8
:10233000617800F049FD2071012805D0022805D000
:10234000032818D012A002E013A000E013A000F0B0
:10235000BBF914A000F0B8F9002000F0E9FC01205E
:1023600000F0D7FC022000F0E3FC012280210E489F
:10237000FEF77DFB3EBD0DA0E9E70000026464644A
:10238000646464646464000010000020012F00088D
:102390004552524F520000004F4B000054494D45EA
:1023A0004F5554000D0A0000000801404D415820CF
:1023B00052455452414E534D4954000010B5406AA5
:1023C0000021C185C184FFF7ABFA10BD0168CA685E
:1023D00022F49072CA6001684A6922F001024A61DF
:1023E000202180F83A10704710B590F83A10222951
:1023F00001D0022010BD8168B1F5805F11D0016964
:10240000002901681FD0496801F07F03816A4A1CD6
:1024100082620B70C18D491E0904090CC18518D058
:102420002BE00269816A002A0268526805D0D2B2A4
:102430000A80816A491C8162ECE7C2F308020A80C3
:10244000816A891CF7E74A68816A4B1C83620A70BB
:10245000E0E70168CA6822F02002CA600168CA6821
:1024600022F48072CA6001684A6922F001024A615E
:10247000202180F83A10FFF74FFB002010BD00002C
:102480002DE9F041044600680169E26821F44051F9
:10249000114301612169A06808436169084321680B
:1024A000CA6841F20C639A430243CA6020684169DA
:1024B000A26921F44071114341614C4920686425AF
:1024C000322688423CD1FEF7D7FC00EBC00101EB7D
:1024D000001061688900B0FBF1F7FEF7CDFC00EB5E
:1024E000C00101EB00106168B0468900B0FBF1F05B
:1024F000B0FBF5F06FF01801484307EB800106EBE5
:102500000110B0FBF5F000F0F006FEF7B5FC00EBB3
:10251000C00101EB001061688900B0FBF1F0B0FB75
:10252000F5F006EB0016FEF7A7FC00EBC00101EB8F
:10253000001061688900B0FBF1F7FEF79DFC3BE0FD
:10254000FEF78AFC00EBC00101EB00106168890016
:10255000B0FBF1F7FEF780FC00EBC00101EB0010CF
:102560006168B0468900B0FBF1F0B0FBF5F06FF0A8
:102570001801484307EB800106EB0110B0FBF5F0B2
:1025800000F0F006FEF768FC00EBC00101EB001064
:1025900061688900B0FBF1F0B0FBF5F006EB0016C6
:1025A000FEF75AFC00EBC00101EB001061688900E6
:1025B000B0FBF1F7FEF750FC00EBC00101EB00109F
:1025C00061688900B0FBF1F0B0FBF5F06FF0180125
:1025D000484307EB800108EB0110B0FBF5F02168E0
:1025E00000F00F0030448860BDE8F0810038014001
:1025F00090F83910212901D0022070478168B1F587
:10260000805F016A0BD04A1C02620268097851603F
:10261000C18C491E0904090CC1840ED017E0098839
:102620000268C1F30801516001690029016A02D002
:10263000491C0162ECE7891CFBE70168CA6822F0CB
:102640008002CA600068C16841F04001C16000209A
:1026500070472DE9F041984617460E460446069D00
:102660001DE0681C1BD02DB1FEF706FAA0EB080098
:10267000A84214D92068C16821F4D071C1602068D3
:10268000416921F001014161202084F8390084F87A
:102690003A00002084F838000320BDE8F08120686B
:1026A000006836EA000004D00020B842D9D00020EB
:1026B000F3E70120F9E700000148FFF733B9000014
:1026C00014010020FEE70000014A024900F05DB855
:1026D000AD2700082800002070B51F4D1F4C06468E
:1026E000012A0BD0002210212846FEF7C0F9002253
:1026F00001212846FEF7BBF900201BE04FF0000245
:10270000D1B110212846FEF7B2F901221146284620
:10271000FEF7ADF926603046FDF73FFE0D46064652
:102720000F4A104BFDF7C7FD32462B46FDF7C0FDA3
:10273000FDF740FE206009E001212846FEF797F9E9
:10274000012210212846FEF792F92660BDE870406C
:1027500004210548FFF7CCB8000C014038040040C4
:102760009A9999999999C93FD400002002E008C824
:10277000121F08C1002AFAD170477047002001E0FB
:1027800001C1121F002AFBD170472DE9F041164606
:102790000F460446002503E03946B047641C6D1C13
:1027A00020780028F8D12846BDE8F08113B54FF60F
:1027B000FF73012269460248FFF7AFF900981CBD7C
:1027C000140100200EB58148016800914168019113
:1027D000806802900299DFF8F88188F80010029969
:1027E000090A88F801100299090C88F80210029968
:1027F000090E88F80310FEF74DF9FFF70BFCFFF701
:102800000BFA75487349002601604FF47A31C0E92C
:1028100001160C21C660C0E904618661C661FFF73C
:1028200009F9FFF767FAFFF77FFAFFF7D5F96BA011
:10283000FFF74AFF0620FEF77DF9A8F110040127F3
:102840002770FEF719F9674DA0606868C0438007DC
:102850000AD465A0FFF738FF286840F00800286018
:102860002770FEF709F9A0605B4804214038FFF7A4
:102870003FF85FA0FFF728FF654D00228021284622
:10288000FEF7F5F8012208212846FEF7F0F84FF48C
:10289000FA60FDF7E9FF002208212846FEF7E7F875
:1028A00040F6B8373846FDF7DFFF5AA0FFF70CFFB8
:1028B0004FF47A7905E05CA0FFF706FF4846FDF784
:1028C000D3FF00F0BBF80028F5D059A0FFF7FCFEBD
:1028D000012208212846FEF7CAF800F0FFF8FF2081
:1028E00000F0D7F85F2000F034FA002000F004FA7E
:1028F0000C2000F0F2F9052000F0EAF94E49002022
:1029000000F0AAF94C490120491D00F0A5F94A49F7
:1029100002200A3100F0A0F9474903200F3100F0EE
:102920009BF945490420143100F096F942490520ED
:10293000193100F091F90A220021012000F00EFA6D
:10294000012000F0E6F900F099F8022000F0F0F91B
:10295000012280212846FEF78AF81F4DB5F1E805CF
:1029600000F0B4F801281ED019491B480F39E83887
:1029700000F038F9E07000F081F8287802280ED1D4
:10298000697898F80020914209D1A97898F8010057
:10299000814204D1AA7969792879FFF79DFEFEF773
:1029A0006BF8E060DCE7FEF767F8E168401AB842D0
:1029B00004D3002211461046FFF78EFEA0780128AE
:1029C000CED1FFF791FCA670CAE70000E8F7FF1F21
:1029D00010000020003801401401002048656C6C94
:1029E0006F0000000070004057616B65757000005B
:1029F0000D0A53544D33324631303352455436204C
:102A00006973206F6E6C696E652E0D0A0000000000
:102A1000000801406E524632344C30312B2063683E
:102A200065636B3A200000004641494C0D0A0000E6
:102A30004F4B0D0A00000000ED2E00081CB50DA440
:102A400005222146302000F0F9F9052269461020C0
:102A500000F0A4F80020694614F8012B0B5C9A42A0
:102A600001D000201CBD401CC0B20528F4D30120B9
:102A70001CBD00006E5246323400000010B5072025
:102A800000F0CEF840F07001BDE81040072000F0E3
:102A9000FBB910B50446052801D9002106E0012044
:102AA00000F0BEF80121A14020EA0101BDE810407C
:102AB000012000F0E9B9FF21E22000F0E5B9FF2193
:102AC000E12000F0E1B9072000F0AAB810B5172006
:102AD00000F0A6F800F0030010BD000010B50821BA
:102AE000002000F0D1F93F21012000F0CDF90321B1
:102AF000022000F0C9F90321084600F0C5F90321BE
:102B0000042000F0C1F90221052000F0BDF90E21DA
:102B1000062000F0B9F90021072000F0B5F90021E6
:102B2000112000F0B1F90021122000F0ADF90021D0
:102B3000132000F0A9F90021142000F0A5F90021CC
:102B4000152000F0A1F90021162000F09DF90021C8
:102B50001C2000F099F900211D2000F095F9FFF7E5
:102B6000AAFFFFF7ACFFFFF789FF0122BDE8104085
:102B700011030148FDF77BBF000C014001B582B095
:102B800064200090012301AA02A90348FEF728FC53
:102B90009DF804000EBD00007C0000202DE9F041EE
:102BA000DFF83C8015460C4607464FF4805600225D
:102BB00031464046FDF75BFF3846FFF7DFFF04E094
:102BC000FF20FFF7DBFF04F8010B6D1EEDB2F7D21B
:102BD00031464046BDE8F0410122FDF748BF000004
:102BE000000C014070B505460E46072000F018F8AD
:102BF000C0F34204062C0CD20848005D00F010F827
:102C00003070021E03D029466120FFF7C7FF20461F
:102C100070BD00203070FF2070BD0000E02E000865
:102C200070B50C4E04464FF48055002229463046BC
:102C3000FDF71DFF04F01F00FFF7A0FFFF20FFF7C7
:102C40009DFF0446012229463046FDF710FF20462D
:102C500070BD0000000C01402DE9F04705461A4FF9
:102C60000E46072D2ED2DFE805F00404272727277C
:102C700004000320FFF7D4FF401CC4B2DFF84C90DF
:102C80004FF480582644002241464846FDF7EFFEA7
:102C9000785D40F02000FFF771FF00BF16F80109D2
:102CA000FFF76CFF641EE4B2F8D241464846BDE827
:102CB000F0470122FDF7DBBE0978785DBDE8F047FB
:102CC00000F0E2B8BDE8F087E62E0008000C0140F5
:102CD000801EC1B2032000F0D7B810B50446002012
:102CE000FFF79EFF04F00C0120F00C000143BDE84B
:102CF0001040002000F0C8B810B504460620FFF7C9
:102D00008FFF20F028012143BDE81040062000F08D
:102D1000BBB810B504460020FFF782FF04F00101A4
:102D200020F001000143BDE81040002000F0ACB8E5
:102D300010B504460020FFF773FF022C06D020F0E8
:102D40000201BDE81040002000F09EB840F00201F2
:102D5000F7E70146052000F097B800002DE9F041A3
:102D6000054617460E460220FFF75AFF0124AC40E5
:102D7000204300F03F01022000F086F80A4807F0E7
:102D80003F01405D00F080F80120FFF749FF012E70
:102D900006D020EA0401BDE8F041012000F074B83B
:102DA0000443E1B2F7E70000E02E000810B5044646
:102DB0000620FFF735FF20F006012143BDE8104053
:102DC000062000F061B80000F8B5064619481A4D13
:102DD0000C460090002280212846FDF748FE21463F
:102DE000304600F04BF8012280212846FDF73FFED7
:102DF000FFF769FE044610F0300F03D10098411E22
:102E00000091F5D2002280212846FDF730FE00987F
:102E100028B1FFF733FEE00603D50320F8BD0220FA
:102E2000F8BDA00601D50120F8BDFFF748FE00203F
:102E3000F8BD0000FFFF0F00000801402DE9F04140
:102E4000DFF8348015460C4607464FF480560022C2
:102E500031464046FDF70BFE384601E014F8010B01
:102E6000FFF78CFE6D1EEDB2F8D231464046BDE84C
:102E7000F0410122FDF7FBBD000C01400A4601466E
:102E8000A020FFF7DBBF00002DE9F041134E0F46F5
:102E900004464FF48055002229463046FDF7E7FDF1
:102EA000202C06D204F01F0040F02000FFF766FE41
:102EB0000AE02046FFF762FEE12C08D0E22C06D0A3
:102EC000E32C04D0FF2C02D03846FFF757FE2946EA
:102ED0003046BDE8F0410122FDF7C9BD000C0140BC
:102EE0001112131415160A0B0C0D0E0F100101E729
:102EF0001FE10101E71FE20101E71FE30101E71FF5
:102F0000E40101E71FE50101E71FE6000000000002
:102F10000000000102030406070809000000000188
:102F200002030400442F0008000000202C000000D1
:102F30006C270008702F00082C0000202C050000D2
:102F40007C270008000A00000000000000000000CC
:102F50000000000000000000000000000100000070
:102F6000100000000000000000A24A040000000061
:04000005080000ED02
:00000001FF
