:020000040800F2
:1000000018050020010100087F170008E31500080B
:100010007D17000899010008E91F00080000000092
:100020000000000000000000000000007718000839
:100030009B01000800000000A117000879180008C3
:100040001B0100081B0100081B0100081B01000820
:100050001B0100081B0100089D0100081B0100088E
:100060001B0100081B0100081B0100081B01000800
:100070001B0100081B0100081B0100081B010008F0
:100080001B0100081B0100081B0100081B010008E0
:100090001B0100081B0100081B0100081B010008D0
:1000A0001B0100081B0100081B0100081B010008C0
:1000B0001B0100081B010008311900081B01000882
:1000C0001B0100081B0100081B0100081B010008A0
:1000D000A5170008DD1F00081B0100081B01000810
:1000E0001B0100081B0100081B010008DFF80CD0F1
:1000F00000F040F8004800470122000818050020E1
:100100000648804706480047FEE7FEE7FEE7FEE7B1
:10011000FEE7FEE7FEE7FEE7FEE7FEE7E918000878
:10012000ED000008D2B201E000F8012B491EFBD21D
:1001300070470022F6E710B513460A4604461946F2
:10014000FFF7F0FF204610BD30B50B4601460020FA
:100150002022012409E021FA02F59D4205D303FA89
:1001600002F5491B04FA02F52844151EA2F101020A
:10017000F1DC30BD064C074D06E0E06840F00103BD
:1001800094E8070098471034AC42F6D3FFF7B2FF6B
:10019000D4280008F4280008FEE77047012000F08A
:1001A00061B8000010B590F821100024022903D096
:1001B0000421816301243DE001680A6822F00E02F7
:1001C0000A6001680A6822F001020A601A4A01689E
:1001D000914201D1012121E0174A1432914201D10B
:1001E00010211BE0144A2832914201D1891515E0F3
:1001F000114A3C32914201D189140FE00E4A50322B
:10020000914202D14FF4803108E00B4A64329142AE
:1002100002D14FF4801101E04FF08071064A083A94
:100220005160012180F82110002180F82010416BDD
:1002300001B18847204610BD0800024070B5044651
:1002400000F000F90546601C02D004480078044420
:1002500000F0F8F8401BA042FAD370BD080000205F
:1002600070470000044910B50A68024202D00860D5
:10027000FFF7F6FF10BD0000140401402DE9F84F10
:10028000DFF890A100220AF1040B144601274FF079
:100290000F090BF1040E00BF0B6807FA04F52B40A1
:1002A000AB4274D1DFF870C14E68A6EB0C0866450E
:1002B0002BD00DDC032E34D005DC36B3012E19D043
:1002C000022E2FD11BE0112E16D0122E2AD119E0AA
:1002D000B8F5881F19D006DCB8F5803F15D0B8F501
:1002E000801F1FD111E0B8F5001F0ED0B8F5041F14
:1002F00018D10AE0CA6815E0CA68121D12E0CA687F
:1003000008320FE0CA680C320CE08A682AB1012A70
:100310004FF0080203D0456104E0042202E00561C9
:1003200000E00022FF2B01D8064601E000F10406A0
:100330004FEA840501D9A5F12005D6F800C009FAD5
:1003400005F82CEA080C02FA05F54CEA050CC6F88B
:1003500000C04D68ED0057D5304DAE6946F001063E
:10036000AE61AD6924F0030605F0010500952C4D42
:1003700006EB050CDCF80850A6074FEA167809FAD8
:1003800008F6B543274EB04202D1002610E03BE00C
:10039000254EB04201D101260AE0244EB04201D1DF
:1003A000022605E0224EB04201D1032600E00426D9
:1003B00006FA08F62E43CCF808604D68DAF80060BB
:1003C000ED03554601D51E4300E09E432E604D6867
:1003D000DBF80060AD035D4601D51E4300E09E439F
:1003E0002E604D68DEF80060ED02754601D51E43B3
:1003F00000E09E432E604D68AD020E4D2E6801D583
:100400001E4300E09E432E60641C102CFFF444AF9A
:10041000BDE8F88F000401400000111000100240F8
:100420000000014000080140000C014000100140A4
:10043000001401400C0401400AB101617047090435
:10044000FBE70000014880687047000008000020BA
:1004500002488168027811448160704708000020DA
:10046000074810B5016841F010010160032000F059
:1004700073F8002000F006F800F024F8002010BD0A
:100480000020024070B50D4D04464FF47A71287873
:10049000B1FBF0F00A490968B1FBF0F000F0D0FCC4
:1004A00048B9102C07D200222146501E00F034F823
:1004B00000206C6070BD012070BD000008000020AD
:1004C000140000200C4808B5816941F001018161E8
:1004D000816901F001010091C16941F08051C16160
:1004E000C06900F0805000900448416821F0E0614C
:1004F00041F00071416008BD001002400000014061
:1005000000F01F02012191404009800000F1E0202D
:10051000C0F8001170470000F0B40E4B1B680C4689
:10052000C3F30223C3F10705042D00D90425191DC7
:10053000072901D2002300E0DB1E012606FA05F19F
:10054000491E214099409E40761E16403143F0BC22
:1005500001F016B90CED00E0064900F0070208684A
:100560004FF6FF03184040EA0220034A1043086098
:10057000704700000CED00E00000FA052DE9F0479F
:10058000DFF8548105460E46D8F8000000F0070059
:10059000B0420CD2D8F8001021F007013143C8F85E
:1005A0000010D8F8000000F00700B0426FD12868B2
:1005B0004A4C810712D5400703D5606840F4E060DB
:1005C00060602878000703D5606840F46050606080
:1005D0006068A96820F0F000084360602878C007D0
:1005E00044D06868012816D02168022816D08907EF
:1005F00000294CDA616821F0030101436160FFF7D3
:1006000021FF6968074641F2883001290ED002298E
:10061000814618D026E021688903E9E78901E7E7E8
:10062000FFF710FFC11B494501D918E081466068FA
:10063000C0F381000128F3D118E000BFFFF702FFEB
:10064000C11B49450BD86068C0F381000228F5D171
:100650000CE000BFFFF7F6FEC11B494502D903209D
:10066000BDE8F087606810F00C0FF3D1D8F80010E7
:10067000404601F00701B1420BD9016821F00701A2
:1006800031430160006800F00700B04201D0012052
:10069000E6E72878400705D56068E96820F4E0605F
:1006A000084360602878000706D56068296920F44F
:1006B000605040EAC100606000F036F86168084AA6
:1006C000C1F30311515CC840064908600020FFF7E0
:1006D000D9FE0020C4E700000020024000100240C4
:1006E000BB28000814000020044805490068496838
:1006F000044AC1F30221515CC84070471400002035
:1007000000100240CB2800080448054900684968E9
:10071000044AC1F3C221515CC84070471400002054
:1007200000100240CB28000812A185B00FC98DE847
:100730000F0014A0144A006804905168134801F097
:100740000C03042B10D0082B0ED1C1F38343C90333
:100750001DF803000AD5516804AAC1F34041515C59
:100760000A4A5043B0FBF1F005B0704708494843CE
:10077000FAE7000002030405060708090A0B0C0D3E
:100780000E0F1010010200000010024000127A004B
:1007900000093D002DE9F84F04460078B94DC00727
:1007A00048D06868C0F38100012807D06868C0F3AA
:1007B0008100022809D16868C00306D52868800333
:1007C00038D5606800286FD034E06068B0F5803FAD
:1007D0000BD010B1B0F5A02F11D0286820F48030D4
:1007E0002860286820F4802002E0286840F48030E7
:1007F0002860606888B1FFF725FE064609E0286892
:1008000040F480202860F0E7FFF71CFE801B64287E
:1008100075D828688003F7D50CE0FFF713FE06466D
:1008200005E000BFFFF70EFE801B6428F0D82868A3
:100830008003F7D42078944E80074FF001094FF0E1
:1008400000083BD5686810F00C0F07D06868C0F34B
:100850008100022809D16868C00306D4286880078F
:1008600014D5206901281FD110E02069B0B1C6F865
:100870000090FFF7E7FD074605E000BFFFF7E2FD48
:10088000C01B0228C4D828688007F7D5286861698A
:1008900020F0F80040EAC10028600FE0C6F80080B0
:1008A000FFF7D0FD074606E0E9E000BFFFF7CAFD0D
:1008B000C01B022823D828688007F7D420780007B7
:1008C0002CD57248A169D9B1C0F80090FFF7BAFDE4
:1008D000074604E0FFF7B6FDC01B02280FD8686A80
:1008E0008007F7D56A484FF4FA510068B0FBF1F081
:1008F000009000BF0098411E0091FAD20EE080E007
:10090000C0F80080FFF79EFD074604E0FFF79AFD60
:10091000C01B022875D8686A8007F7D42078400782
:1009200060D5E8690027C00008D4E86940F080502D
:10093000E861E869012700F080500090554801689F
:10094000C90513D40168834641F480710160FFF743
:1009500079FD824606E000BFFFF774FDA0EB0A00B8
:1009600064284ED8DBF80000C005F5D5E068012802
:100970000AD008B1052813D0286A20F001002862A7
:10098000286A20F0040002E0286A40F00100286292
:10099000E06841F2883B98B1FFF754FD82460BE0D6
:1009A000286A40F004002862EEE700BFFFF74AFD26
:1009B000A0EB0A0159455AD8286A8007F6D50CE001
:1009C000FFF740FD824605E0FFF73CFDA0EB0A0182
:1009D00059454CD8286A8007F6D41FB1E86920F041
:1009E0008050E861E06988B36968C1F38101022938
:1009F00045D00228C6F8608004D0FFF723FD0446E6
:100A000038E034E0FFF71EFD074604E0FFF71AFD6B
:100A1000C01B02282BD828688001F7D4206AB0F5C3
:100A2000803F05D16868A16820F400300843686001
:100A3000D4E908010843696821F474110843686027
:100A4000C6F86090FFF7FEFC044606E015E000BF24
:100A5000FFF7F8FC001B022809D828688001F7D5A9
:100A60000BE000BFFFF7EEFC001B022802D90320B9
:100A7000BDE8F88F28688001F4D40020F8E7012051
:100A8000F6E70000001002400000424280044242AB
:100A900014000020007000407047000038B5044684
:100AA0000068426881684B0605D4CB0703D0530623
:100AB00001D5216C04E08B0707D5130605D5616CC1
:100AC00001B02046BDE83040084711F0600F3FD02C
:100AD00093063DD54B060AD594F85130032B34D0FC
:100AE000636D43F004036365C368836800938906FC
:100AF00009D5616D41F0010161658168009101686E
:100B000021F040010160606D002821D0206841681B
:100B100021F0E0014160012084F85100900718D0D5
:100B20002068416821F0030141600C4DE06C18B170
:100B30004563E06CFFF736FBA06C002808D04563E6
:100B4000A06CBDE83840FFF72DBBC16880680090FD
:100B500038BD2046FFF7A0FF38BD0000D1170008C0
:100B600070B5040005D00025A56294F8510010B1BD
:100B700004E0012070BD204600F034F8022084F823
:100B800051002068016821F040010160D4E90101B1
:100B90000843D4E903121143084361690843218BD8
:100BA00001F400710843E1690843216A0843A16A1E
:100BB000084321680860A069042101EA1040616AC5
:100BC0000843216848602168E06A08612068C169BB
:100BD00021F40061C1616565012084F851000020A5
:100BE00070BD000030B585B00024009401940294DB
:100BF00003940068194988422DD11948C16941F40C
:100C00008041C161C16901F480410491816941F071
:100C1000080181618069134D00F0080004904FF4D1
:100C2000204000900220019003200390694628464E
:100C3000FFF724FB4FF48040CDE9000469462846C5
:100C40000294FFF71BFB002202212420FFF764FC23
:100C50002420FFF755FC05B030BD000000380040EF
:100C600000100240000C01402DE9F84F044690F8B6
:100C7000500000260A9F9A4693460D464FF0010801
:100C800001280ED0012084F85000FFF7DBFB8146DD
:100C900094F85100616801280CD0B1F5827F07D12A
:100CA00002E00220BDE8F88FA16809B9042801D04C
:100CB0000226BDE055B1BBF1000F07D0BAF1000F1D
:100CC00004D094F85100012802D004E00126AFE0DE
:100CD000052084F8510000206065C4F838B0A4F8FD
:100CE0003EA0A4F83CA02563A4F836A0A4F834A044
:100CF0002064606420680168490603D4016841F0FB
:100D000040010160E068B0F5006F606804D0E8B3AE
:100D1000E08E01283BD06AE010B1E08E01282ED190
:100D2000216835F8020BC860E08E401EE08626E0A0
:100D3000B8F1000F0DD0E08E58B1206881688907A6
:100D400007D535F8021BC160E08E401EE0864FF0EB
:100D50000008E08F58B120688168C90707D0C068D3
:100D60002BF8020BE08F401EE0874FF00108781C43
:100D700005D0FFF767FBA0EB0900B84246D2E08E32
:100D80000028D5D1E08F0028D2D136E0FFE72168D6
:100D900015F8010B0873E08E401EE08627E000BFC7
:100DA000B8F1000F0DD0E08E58B120688168890736
:100DB00007D515F8011B0173E08E401EE0864FF049
:100DC0000008E08F58B120688168C90707D0C06863
:100DD0000BF8010BE08F401EE0874FF00108781CF4
:100DE00005D0FFF72FFBA0EB0900B8420ED2E08E32
:100DF0000028D5D1E08F0028D2D13B460122022124
:100E00002046CDF8009000F0EBFC08B103260FE07F
:100E10004A463946204600F0CBFC18B10126202076
:100E2000606505E0A06818B92068C1688068009016
:100E3000012084F85100002084F85000304631E74A
:100E400010B5401EB0F1807F01D3012010BD4FF0DE
:100E5000E02460610F21601700F092FC0020A06187
:100E600007202061002010BD7047704730B590F812
:100E70003C20012A20D0012280F83C20022380F867
:100E80003D3003685C6824F070045C6003685C6853
:100E90000D682C435C6003689C6824F080049C60AF
:100EA00003689C6849680C439C6080F83D200021E1
:100EB00080F83C10084630BD022030BD10B504005B
:100EC00003D094F83D0010B107E0012010BD0020D0
:100ED00084F83C00204600F00DF8022084F83D0024
:100EE000211D206800F02AFD012084F83D0000202B
:100EF00010BD000008B500680B49884212D10B48AC
:100F0000C16941F00401C161C069002200F0040020
:100F1000009002211E20FFF7FFFABDE808401E20C6
:100F2000FFF7EEBA08BD00000008004000100240C4
:100F300070B5044690F83C00012817D0012584F8CC
:100F40003C50022084F83D002068826822F077023D
:100F500022F47F4282600868502837D00DDC2028B8
:100F600059D005DC88B3102841D151E0022070BD72
:100F7000302853D040283AD13FE060282ED0702846
:100F80000BD0B0F5805F03D0B0F5005F2FD110E03B
:100F90002068816821F0070115E0CB68D1E90121C3
:100FA000206800F00CFD2168886840F077008860B8
:100FB0001DE0CB68D1E90121206800F000FD206828
:100FC000816841F48041816011E01EE0CA6849688F
:100FD000206800F0A9FD5021206806E0CA68496831
:100FE000206800F0B2FD6021206800F0F2FC84F877
:100FF0003D50002084F83C0070BDCA6849682068F4
:1010000000F092FD40212068EFE700212068ECE726
:1010100010212068E9E720212068E6E730212068D8
:10102000E3E7704770B50446006801694FF00005BA
:10103000C943890715D4C168C943890711D4E91E7A
:10104000016101202077206880698007204602D056
:10105000FFF7E7FF04E000F0C9F8204600F04BF985
:10106000257720680169C943490717D4C168C94376
:10107000490713D46FF00401016102202077206832
:10108000806910F4407F204602D0FFF7CAFF04E0D9
:1010900000F0ACF8204600F02EF9257720680169B1
:1010A000C943090716D4C168C943090712D46FF0B0
:1010B00008010161042020772068C069800720466C
:1010C00002D0FFF7AEFF04E000F090F8204600F0F9
:1010D00012F9257720680169C943C90617D4C16888
:1010E000C943C90613D46FF01001016108202077AD
:1010F0002068C06910F4407F204602D0FFF791FFBE
:1011000004E000F073F8204600F0F5F82577206839
:101110000169C943C90708D1C168C943C90704D1D6
:10112000891E0161204600F0FFF820680169C9436B
:10113000090609D4C168C943090605D46FF08001C6
:1011400001612046FFF790FE20680169C943490606
:1011500009D4C168C943490605D46FF04001016153
:10116000204600F0E2F820680169C94389060BD4E3
:10117000C168C943890607D46FF020010161204688
:10118000BDE87040FFF771BE70BD000030B585B09E
:101190000021009101910291039100681049884259
:1011A0001CD11048816941F00801816180690224E5
:1011B00000F0080004904FF48070CDE900040A4D5F
:1011C000694628460394FFF759F82002CDE9000448
:1011D0000320039069462846FFF750F805B030BD5C
:1011E0000008004000100240000C0140704770B53C
:1011F000044690F83C000D4601280DD0012684F8E5
:101200003C60022084F83D0042B1042A18D0082A2C
:101210002AD00C2A4DD139E0022070BD206800F0A0
:10122000E1FB2068816941F00801816120688169E2
:1012300021F004018161206881692A69114311E06C
:10124000206800F0F7FB2068816941F4006181614A
:101250002068816921F480618161206881692A693F
:1012600041EA0221816124E0206800F00FFC20683F
:10127000C16941F00801C1612068C16921F0040120
:10128000C1612068C1692A69114311E0206800F03A
:1012900029FC2068C16941F40061C1612068C1690D
:1012A00021F48061C1612068C1692A6941EA022193
:1012B000C16184F83D60002084F83C0070BD10B529
:1012C000040003D094F83D0010B107E0012010BDE8
:1012D000002084F83C00204600F00CF8022084F83E
:1012E0003D00211D206800F029FB012084F83D000D
:1012F000002010BD7047704710B5044600680122F9
:1013000000F052FB07492068884203D1416C41F448
:10131000004141642068016841F001010160002042
:1013200010BD0000002C014070477047704700005E
:1013300070B5026804461068D168536910F00F0F49
:1013400050D003F0010501F4907635435DD0C2071B
:1013500005D0CA0503D5E26B42F00102E263420701
:1013600005D5DA0703D0E26B42F00202E26382079E
:1013700005D5DA0703D0E26B42F00402E26302070C
:1013800005D5DA0703D0E26B42F00802E263E26BB4
:10139000002A33D0800604D5880602D5204600F006
:1013A000B5FC20684069E16BC0F38010090700D4E8
:1013B00028B3204600F09CFC2068416949061AD5F4
:1013C000416921F040014161606BA0B11B4941635B
:1013D000606BFEF7E7FE002810D0606B416BBDE844
:1013E00070400847830610D58B060ED52046BDE811
:1013F000704000F08BBC2046FFF798FF70BD204680
:10140000FFF794FF0020E06370BD030606D50B06CE
:1014100004D52046BDE8704000F07CBD4006F3D501
:101420004806F1D5D168204621F04001D160202145
:1014300084F8391000F0D4F870BD0000E11C0008F9
:1014400070B5040004D094F83900002510B106E00E
:10145000012070BD84F83850204600F023F8242085
:1014600084F839002068C16821F40051C160204629
:1014700000F098FC2068016921F490410161206826
:10148000416921F02A0141612068C16841F400519D
:10149000C160E563202084F8390084F83A00002018
:1014A00070BD000030B585B0002400940194029412
:1014B00003940068184988422CD11848816941F486
:1014C00080418161816901F480410491816941F029
:1014D000040181618069124D00F0040004904FF412
:1014E0000070009002200190032003906946284676
:1014F000FEF7C4FE2815CDE900046946284602948B
:10150000FEF7BCFE002202212520FFF705F825206A
:10151000FEF7F6FF05B030BD003801400010024074
:101520000008014070472DE9F843044690F839005F
:101530001F4616460D46202850D1A5B19EB194F8FD
:10154000380001284AD0012084F838004FF0000804
:10155000C4F83C80212084F83900FEF773FFA6848C
:101560008146E68426E00120BDE8F883E08C401E39
:10157000E084A0684B46B0F5805F4FF000024FF06A
:1015800080012046009703D000F0F5FCE8B90DE09B
:1015900000F0F1FCC8B928882168C0F30800486051
:1015A000206908B16D1C05E0AD1C03E0216815F849
:1015B000010B4860E08C0028D8D14B460022402126
:1015C0002046009700F0D7FC08B10320CCE720208C
:1015D00084F8390084F838800020C5E70220C3E78A
:1015E0007047FEE72DE9F04385B0002431480094B0
:1015F000019402940394816941F010018161816931
:1016000001F010010491816941F02001816181693B
:1016100001F020010491816941F004018161816937
:1016200001F004010491816941F008018161806940
:10163000DFF8848000F008004FF400550490002289
:1016400029464046FEF7F8FEDFF8709041F6700735
:10165000002239464846FEF7EFFE00950226012596
:101660000396CDE9015469464046FEF707FE14484B
:101670000095CDE9010469464846FEF7FFFD009755
:101680000396CDE9015469464846FEF7F7FD8020F0
:10169000CDE90004694648460294FEF7EFFD0022BA
:1016A00001210620FEF738FF0620FEF729FF05B0CE
:1016B000BDE8F08300100240001001400008014026
:1016C000000011100B480A494FF4007201604FF4FA
:1016D0008271416000218160C1600161C0E9051231
:1016E000C1610162416281620A21C162FFF738BAB9
:1016F000003800403C00002010B58EB00024079454
:10170000089409940A940B941C2168460C94FEF7E3
:1017100010FD19481749016041F28831C0E90114F0
:101720006421C0E903148461FFF7C8FB4FF48050C3
:10173000079007A91048FFF7FBFB0F48FFF7BFFD15
:101740000B940BA90C480C94FFF790FB6020CDE99B
:10175000000402940822694607480494FFF747FDF5
:101760000C2269460448FFF742FD0348FFF70EFDCF
:101770000EB010BD0008004094000020FEE7704746
:101780000907090E002806DA00F00F0000F1E0203A
:1017900080F8141D704700F1E02080F800147047B5
:1017A000704700000148FFF779B900003C000020B5
:1017B00038B50B46009204460022802100F010F854
:1017C000002804D0606D40F020006065032038BD23
:1017D00010B5406A0021C187C186FFF75DF910BDD1
:1017E0002DE9F0411D4617460E460446DDF81880E7
:1017F00035E0681C33D02DB1FEF724FEA0EB0800C5
:10180000A8422CD32068416821F0E0014160606863
:10181000B0F5827F0BD1A068B0F5004F02D0B0F5D3
:10182000806F04D12068016821F040010160A06A46
:10183000B0F5005F0AD1206801684DF6FF721140D3
:1018400001602068016841F400510160012084F8C2
:101850005100002084F850000320BDE8F08120688A
:10186000806836EA000004D00020B842C1D10020D0
:10187000F3E70120F9E7704710B5FEF7E3FD41F209
:101880008831B0FBF1F201FB120010B903490120CD
:101890000870BDE81040FEF7DBBD0000010000202D
:1018A00030B58FB028216846FEF743FC14210AA802
:1018B000FEF73FFC0121080400240491CDE900104B
:1018C000CDE908040294022507956846FEF762FFF9
:1018D0000F200A90CDE90B540D9400210AA80E9414
:1018E000FEF74CFE0FB030BD0D48016841F001011C
:1018F000016041680B4A1140416001680A4A114089
:101900000160016821F480210160416821F4FE0139
:1019100041604FF41F0181600449C00308607047B3
:10192000001002400000FFF8FFFFF6FE08ED00E0A7
:101930000148FFF777BB000094000020F0B5026873
:10194000164B174C174D4FF08047984205D0B842C0
:1019500003D0A04201D0A84203D122F070064A6809
:101960003243984205D0B84203D0A04201D0A842E9
:1019700003D122F44074CA68224322F080044A69E9
:10198000224302608A68C2620A688262984201D178
:101990000969016301214161F0BD0000002C014093
:1019A000000400400008004010B50123046A8B4089
:1019B0009C430462036A8A401343036210BD10B55E
:1019C000846842EA032224F47F440A43224382606B
:1019D00010BD826822F070020A4342F00701816064
:1019E0007047000030B5026A22F001020262026A0A
:1019F0004368846924F073050C682C4322F00205C7
:101A00008A682A430A4DA8420BD122F00805CA6809
:101A100023F440732A434D6922F004021D438B696D
:101A20002B434360846149684163026230BD00001A
:101A3000002C014030B5026A22F010020262026AF4
:101A4000436884690D6824F4E64444EA05248D68FB
:101A500022F0200242EA05120B4DA8420ED1CD68B9
:101A600022F0800242EA05124D6923F4406343EA02
:101A700085038D6922F0400243EA85034360846157
:101A800049688163026230BD002C014030B5026AB2
:101A900022F480720262036A4268C46923F400730C
:101AA00024F073050C682C438D6843EA05230C4D24
:101AB000A8420ED1CD6823F4006343EA05234D69A3
:101AC00022F4405242EA05128D6923F4806342EA0F
:101AD00005124260C4614968C163036230BD000001
:101AE000002C014030B5026A22F480520262046A7E
:101AF0004268C3690D6823F4E64343EA05238D6811
:101B000024F4005444EA0534064DA84204D14D693A
:101B100022F4804242EA85124260C361496801644E
:101B2000046230BD002C014010B5036A046A24F041
:101B300001040462846924F0F00444EA021423F0EE
:101B40000A020A438461026210BD10B5036A23F0E1
:101B5000100303628369046A23F4704343EA023288
:101B600024F0A00343EA01118261016210BD00006C
:101B70003EB521A51F4C2CCD8DE82C00221D01283F
:101B800013788DF8013052788DF802208DF803001B
:101B90000AD0022808D108798DF8040048798DF818
:101BA000050088798DF80600002000F08DFD0620E4
:101BB00000F0C8FD002000F078FD00F033FC114972
:101BC000062000F017FD022000F07EFD2178684617
:101BD00000F0C6FDE070002000F076FD012000F06E
:101BE00064FD022000F070FD012240210648FEF74E
:101BF00023FC3EBD000000200264646464646464ED
:101C000064640000A7280008000801403EB524A233
:101C100007CA8DE80700254801788DF80110407843
:101C20008DF8020001208DF80300002000F04CFD2B
:101C3000062000F087FD002000F037FD00F0F2FBE9
:101C40001B49062000F0D6FC022000F03DFD174C99
:101C50006846241F217800F083FDE070012805D03C
:101C6000022805D0032818D012A002E013A000E03B
:101C700013A000F0BBF914A000F0B8F9002000F0A8
:101C800023FD012000F011FD022000F01DFD0122C6
:101C900040210E48FEF7D0FB3EBD0DA0E9E7000055
:101CA000026464646464646464640000040000208A
:101CB000A72800084552524F520000004F4B000029
:101CC00054494D454F5554000D0A0000000801408D
:101CD0004D41582052455452414E534D49540000F5
:101CE00010B5406A0021C185C184FFF71FFB10BDFC
:101CF0000168CA6822F49072CA6001684A6922F0D9
:101D000001024A61202180F83A10704710B590F81E
:101D10003A10222901D0022010BD8168B1F5805F00
:101D200011D00169002901681FD0496801F07F03C3
:101D3000816A4A1C82620B70C18D491E0904090C1C
:101D4000C18518D02BE00269816A002A02685268B6
:101D500005D0D2B20A80816A491C8162ECE7C2F3E5
:101D600008020A80816A891CF7E74A68816A4B1C6D
:101D700083620A70E0E70168CA6822F02002CA6044
:101D80000168CA6822F48072CA6001684A6922F058
:101D900001024A61202180F83A10FFF7C3FB0020BE
:101DA00010BD00002DE9F041044600680169E268B9
:101DB00021F44051114301612169A0680843616920
:101DC00008432168CA6841F20C639A430243CA601F
:101DD00020684169A26921F44071114341614C4975
:101DE00020686425322688423CD1FEF78DFC00EB4A
:101DF000C00101EB001061688900B0FBF1F7FEF74C
:101E000083FC00EBC00101EB00106168B046890063
:101E1000B0FBF1F0B0FBF5F06FF01801484307EBB1
:101E2000800106EB0110B0FBF5F000F0F006FEF7C4
:101E30006BFC00EBC00101EB001061688900B0FB96
:101E4000F1F0B0FBF5F006EB0016FEF75DFC00EBE1
:101E5000C00101EB001061688900B0FBF1F7FEF7EB
:101E600053FC3BE0FEF740FC00EBC00101EB00102F
:101E700061688900B0FBF1F7FEF736FC00EBC001AA
:101E800001EB00106168B0468900B0FBF1F0B0FBD7
:101E9000F5F06FF01801484307EB800106EB0110E5
:101EA000B0FBF5F000F0F006FEF71EFC00EBC00101
:101EB00001EB001061688900B0FBF1F0B0FBF5F0B8
:101EC00006EB0016FEF710FC00EBC00101EB001062
:101ED00061688900B0FBF1F7FEF706FC00EBC0017A
:101EE00001EB001061688900B0FBF1F0B0FBF5F088
:101EF0006FF01801484307EB800108EB0110B0FBBD
:101F0000F5F0216800F00F0030448860BDE8F081F2
:101F10000038014090F83910212901D00220704783
:101F20008168B1F5805F016A0BD04A1C02620268C9
:101F300009785160C18C491E0904090CC1840ED076
:101F400017E009880268C1F308015160016900299E
:101F5000016A02D0491C0162ECE7891CFBE70168B9
:101F6000CA6822F08002CA600068C16841F040017E
:101F7000C160002070472DE9F041984617460E4693
:101F80000446069D1DE0681C1BD02DB1FEF75AFAD1
:101F9000A0EB0800A84214D92068C16821F4D071D0
:101FA000C1602068416921F001014161202084F86D
:101FB000390084F83A00002084F838000320BDE896
:101FC000F0812068006836EA000004D00020B842A2
:101FD000D9D00020F3E70120F9E700000148FFF71E
:101FE000A7B90000D4000020FEE700000FB4054BA5
:101FF00010B503A9044A029800F04CF810BC5DF833
:1020000014FB0000E9210008180000202DE9F04130
:10201000154C0546E6144FF48057012A06D00022DD
:1020200031462046FEF708FA002207E04FF0000292
:1020300091B131462046FEF7FFF90122394620468C
:10204000FEF7FAF909480560001F0560BDE8F04198
:102050000C210748FFF750B939462046FEF7ECF946
:1020600001223146EBE70000000801404008004033
:102070009400002002E008C8121F08C1002AFAD10B
:1020800070477047002001E001C1121F002AFBD1F8
:10209000704700002DE9FF4F89B09B46044600259C
:1020A00006E025280BD05A460B999047641C6D1CFE
:1020B00020780028F5D10DB02846BDE8F08F002724
:1020C000B8460122474900E0074314F8013F203B8E
:1020D00002FA03F00842F7D120782E2819D114F81B
:1020E000010F47F004072A280ED06FF02F02207846
:1020F000A0F1300109290CD808EB880102EB41015D
:1021000000EB0108641CF2E70A98641C50F8048B89
:102110000A9020780028CED0642808D0692806D0FC
:1021200075281ED05A460B9990476D1C58E00A99A5
:102130004FF00A0901C90A91002802DA40422D2114
:1021400002E0390504D52B218DF82010012103E090
:10215000F90704D02021F7E78A4608AE0DE00021F8
:10216000FAE70A994FF00A0901C90A91F7E74946C7
:10217000FDF7EAFF303106F8011D0028F7D1ADEB7D
:10218000060000F12009780701D44FF00108C84586
:1021900002DDA8EB090000E000208046002706E0F1
:1021A00008A85A46C05D0B9990476D1C7F1C574587
:1021B000F6DB04E030205A460B9990476D1CB8F1CD
:1021C0000001A8F10108F5DC05E016F8010B5A46FC
:1021D0000B9990476D1CB9F10001A9F10109F4DCDC
:1021E000641C65E70928010013B54FF6FF7301224F
:1021F00069460248FFF797F900981CBDD4000020FB
:102200000EB56048016800914168019180680290B4
:1022100002995D4801700299090A41700299090CFE
:1022200081700299090EC170FEF71AF9FFF738FBA9
:10223000FFF7D8F956485549002401604FF47A3128
:10224000C0E901140C21C460C0E904418461C46187
:10225000FFF7F6F8FFF750FAFFF734FA4C480C2175
:102260004038FFF749F84A4808214038FFF744F85A
:1022700048A0FFF7BBFE4F4D002240212846FEF745
:10228000DBF801224C4F560331463846FEF7D4F8AE
:102290004AA0FFF7ABFE4FF47A7805E04CA0FFF7B9
:1022A000A5FE4046FDF7CAFF00F09CF80028F5D0D7
:1022B00049A0FFF79BFE002231463846FEF7BCF8E6
:1022C00000F0E0F8FF2000F0B8F8732000F00DFAFD
:1022D000002000F0DDF90C2000F0CBF9052000F023
:1022E000C3F93F49002000F085F93D490120491D0F
:1022F00000F080F93A4902200A3100F07BF93849B0
:1023000003200F3100F076F935490420143100F034
:1023100071F933490520193100F06CF90A220021C6
:10232000012000F0E7F9012000F0BFF9022000F0E1
:10233000CBF9012240212846FEF77EF8144E124DBB
:10234000B83E2D1F00F096F8012813D00E49104812
:10235000091FB83800F016F9A87000F063F8B279D8
:1023600071793079FFF752FE09490220B839FFF739
:10237000FFFBE7E768780128E4D1FFF747FC6C70C2
:10238000E0E70000E8F7FF1F0400002000380140EC
:10239000D40000200D0A53544D33324631303352AD
:1023A000455436206973206F6E6C696E652E0D0A78
:1023B0000000000000080140001001406E5246324B
:1023C000344C30312B20636865636B3A2000000089
:1023D0004641494C0D0A00004F4B0D0A0000000019
:1023E0009D2800081CB50DA405222146302000F0D0
:1023F00001FA05226946102000F0A4F80020694681
:1024000014F8012B0B5C9A4201D000201CBD401C2B
:10241000C0B20528F4D301201CBD00006E52463224
:102420003400000010B5072000F0CAF840F0700139
:10243000BDE81040072000F001BA10B50446052899
:1024400001D9002106E0012000F0BAF80121A140E5
:1024500020EA0101BDE81040012000F0EFB9FF21A2
:10246000E22000F0EBB9FF21E12000F0E7B90720FE
:1024700000F0A6B810B5172000F0A2F800F0030095
:1024800010BD000010B50821002000F0D7F93F2151
:10249000012000F0D3F90321022000F0CFF903213D
:1024A000084600F0CBF90321042000F0C7F902210F
:1024B000052000F0C3F90E21062000F0BFF900212D
:1024C000072000F0BBF90021112000F0B7F900212E
:1024D000122000F0B3F90021132000F0AFF9002121
:1024E000142000F0ABF90021152000F0A7F900211D
:1024F000162000F0A3F900211C2000F09FF9002114
:102500001D2000F09BF9FFF7AAFFFFF7ACFFFFF7D4
:1025100089FF0122BDE8104020210148FDF78CBF52
:102520000008014001B582B064200090012301AA97
:1025300002A90348FEF798FB9DF804000EBD0000B9
:102540003C0000202DE9F0410D4E15460C46074693
:10255000002220213046FDF76FFF3846FFF7E2FFEB
:1025600004E0FF20FFF7DEFF04F8010B6D1EEDB263
:10257000F7D23046BDE8F04101222021FDF75CBFD3
:102580000008014070B505460E46072000F018F817
:10259000C0F34204062C0CD20848005D00F010F88D
:1025A0003070021E03D029466120FFF7CBFF204682
:1025B00070BD00203070FF2070BD00009028000822
:1025C00070B50B4D0446002220212846FDF734FF4C
:1025D00004F01F00FFF7A6FFFF20FFF7A3FF04464C
:1025E000012220212846FDF727FF204670BD00006C
:1025F000000801402DE9F0410546194F0E46072D10
:102600002CD2DFE805F0040425252525040003204D
:10261000FFF7D6FF401CC4B2DFF8488026440022F2
:1026200020214046FDF708FF785D40F02000FFF7CD
:1026300079FF00BF16F80109FFF774FF641EE4B2CA
:10264000F8D24046BDE8F04101222021FDF7F4BE5A
:102650000978785DBDE8F04100F0F0B8BDE8F081A0
:102660009628000800080140801EC1B2032000F037
:10267000E5B810B504460020FFF7A2FF04F00C01F6
:1026800020F00C000143BDE81040002000F0D6B857
:1026900010B504460620FFF793FF20F028012143E0
:1026A000BDE81040062000F0C9B810B5044600206F
:1026B000FFF786FF04F0010120F001000143BDE8AF
:1026C0001040002000F0BAB810B504460020FFF713
:1026D00077FF022C06D020F00201BDE81040002058
:1026E00000F0ACB840F00201F7E70146052000F029
:1026F000A5B800002DE9F041054617460E46022018
:10270000FFF75EFF0124AC40204300F03F010220B0
:1027100000F094F80A4807F03F01405D00F08EF8A1
:102720000120FFF74DFF012E06D020EA0401BDE88D
:10273000F041012000F082B80443E1B2F7E7000065
:102740009028000810B504460620FFF739FF20F056
:1027500006012143BDE81040062000F06FB80000DC
:10276000F8B506461E481F4D0C4600900022402139
:102770002846FDF761FE2146304600F059F8012257
:1027800040212846FDF758FEFFF771FE044610F081
:10279000300F03D10098411E0091F5D20022402154
:1027A0002846FDF749FE009878B10FA0FFF71EFC00
:1027B00021460EA0FFF71AFC0DA0FFF717FCFFF74C
:1027C00031FEE00603D50320F8BD0220F8BDA006C7
:1027D00001D50120F8BDFFF746FE0020F8BD00003E
:1027E000FFFF0F00000801405B00000025640000AF
:1027F0005D2000002DE9F0410C4E15460C460746C1
:10280000002220213046FDF717FE384602E000BFC7
:1028100014F8010BFFF786FE6D1EEDB2F8D23046BC
:10282000BDE8F04101222021FDF706BE000801406D
:102830000A460146A020FFF7DDBF000070B5134D2A
:102840000E460446002220212846FDF7F5FD202CE7
:1028500006D204F01F0040F02000FFF763FE0AE0FC
:102860002046FFF75FFEE12C08D0E22C06D0E32CD7
:1028700004D0FF2C02D03046FFF754FE2846BDE8B6
:10288000704001222021FDF7D7BD00000008014063
:102890001112131415160A0B0C0D0E0F100101E77F
:1028A0001CE10101E71CE20101E71CE30101E71C57
:1028B000E40101E71CE50101E71CE600000000005F
:1028C00000000001020304060708090000000001DF
:1028D00002030400F4280008000000201C0000008F
:1028E00074200008102900081C000020FC040000CF
:1028F000842000080A000000000000000100000021
:10290000100000000000000000A24A0400000000C7
:04000005080000ED02
:00000001FF
