:020000040800F2
:10000000C005002001010008D5230008031E0008D8
:10001000AD230008950200085D2C000800000000D8
:10002000000000000000000000000000F1240008B3
:100030001903000800000000F72300080D25000840
:100040001B0100081B0100081B0100081B01000820
:100050001B0100081B0100081D0300081B0100080C
:100060001B0100081B0100081B0100080D0300080C
:100070001B0100081B0100081B0100081B010008F0
:100080001B0100081B010008350200081B010008C5
:100090001B0100081B0100081B0100081B010008D0
:1000A0001B0100081B0100081B0100081B010008C0
:1000B0001B0100081B010008E92500081B010008BE
:1000C0001B0100081B0100081B0100081B010008A0
:1000D0001B010008092B00081B0100081B01000878
:1000E0001B0100081B0100081B010008DFF80CD0F1
:1000F00000F07EF800480047E5310008C005002008
:100100000648804706480047FEE7FEE7FEE7FEE7B1
:10011000FEE7FEE7FEE7FEE7FEE7FEE7A1250008B3
:10012000ED000008202A04DB203A21FA02F0002129
:10013000704721FA02F3D040C2F1200291400843F7
:1001400019467047D2B201E000F8012B491EFBD2DC
:1001500070470022F6E710B513460A4604461946D2
:10016000FFF7F0FF204610BD30B505462A460B4686
:1001700012F8010B13F8014B08B1A042F8D01CB1E2
:10018000002802D06D1CF1E7284630BD2DE9F05F54
:100190000546002092469B468846064681464024F6
:1001A0001BE02846414647462246FFF7BBFF534621
:1001B0005A46C01A914110D311461846224600F003
:1001C00029F82D1A67EB01084F462246012000212D
:1001D00000F020F817EB00094E41201EA4F10104A5
:1001E000DFDC484631462A464346BDE8F09F000022
:1001F000064C074D06E0E06840F0010394E8070074
:1002000098471034AC42F6D3FFF774FF143500085A
:1002100034350008202A04DB203A00FA02F10020DD
:1002200070479140C2F1200320FA03F31943904034
:1002300070470000014800F02BB90000400000208A
:1002400070B5044600688168C943C9071CD181683C
:1002500021F00101816000F097FC05460FE000BF2E
:1002600000F092FC401B022809D9A06A40F010005F
:10027000A062E06A40F00100E062012070BD2068E9
:100280008068C043C007EBD0002070BD032114205C
:1002900002F02FB9FEE72DE9F0410E46074615465C
:1002A0000421052000F026F880210A2002F021F91F
:1002B000002405E0395D092002F0D2FC641CE4B2A0
:1002C000B442F7D30321012002F0CAFCFF24052029
:1002D00002F092F8641E14F0FF0401D04007F6D536
:1002E000222002F089F82870212002F085F8687039
:1002F000BDE8F08170B50C46054602F07DF820EAB5
:1003000004012846BDE8704002F0AABC014800F094
:100310005FBA0000640100207047000010B509A01A
:1003200002F0B4FC4FF4807000F0D4FC0648016881
:1003300041F00401016000F0DBFCBDE81040012049
:1003400000F032BB42796500007000407047704792
:10035000F8B50024009490F824202546012A12D0F4
:10036000012280F824204A681F23072A0DD206683C
:10037000776B521E02EB820293409F430B689340BF
:100380001F43776319E00220F8BD06680D2A0AD2E0
:10039000376BD21F02EB820293409F430B6893405E
:1003A0001F43376309E0F76A0D3A02EB820293407C
:1003B0009F430B6893401F43F7620A680723066850
:1003C0000A2A0AD3F7680A3A02EB420293409F4393
:1003D0008B6893401F43F76008E0376902EB4202E5
:1003E00093409F438B6893401F4337610A68102AEC
:1003F00001D0112A20D1124B02689A4217D193687A
:100400001B0219D4936843F4000393600968102910
:1004100012D10C490C4A0968B1FBF2F101EB8101E0
:10042000490000E0491E00910029FBD104E0816AE7
:1004300041F020018162012480F824502046F8BD5B
:10044000002401403800002040420F0038B5084C1D
:10045000D4E90130226800900648018806A002F025
:1004600015FCA088BDE8384080B201F0A1BF0000B3
:10047000480100200400002025643A42743D2564B0
:1004800020593D256420583D2564200D0A000000B8
:1004900010B5044600684168890626D501688907B9
:1004A00023D5A16AC90603D4A16A41F40071A162EF
:1004B0008168C1F34241072910D1E16871B94168EF
:1004C00021F020014160A06A20F48070A062A06A3F
:1004D000C00403D4A06A40F00100A0622046FFF7E8
:1004E000B5FF21686FF012000860206841680906B6
:1004F0002ED5016849072BD5A16AC90603D4A16A84
:1005000041F40051A1628168C1F30231072909D089
:100510004168490515D48168C1F34241072910D1CA
:10052000E16871B9416821F080014160A06A20F45E
:100530008050A062A06AC00503D4A06A40F0010008
:10054000A0622046FFF703FF21686FF00C000860EF
:100550002068416849060DD50068C0070AD0A06A26
:1005600040F48030A062204600F094F821686FF0DB
:100570000100086010BD00002DE9F0414FF00007B8
:1005800004003D467ED0A06A002628B9E66284F8C1
:100590002460204600F080F82046FFF751FEA16A53
:1005A000C90600D420B1A06A40F01000A06269E042
:1005B000A16A21F4885141F00201A1626268E169F7
:1005C000E3680A4347EA43010A43A1684FF480778E
:1005D000B94209D0012907D05FF00001D4F814C056
:1005E000BCF1010F02D00AE03946F7E7F3B1A36A84
:1005F00043F02003A362E36A43F00103E36223684C
:10060000D3F804C02CF4694C4CEA010CC3F804C0C4
:1006100021688B68DFF870C003EA0C0313438B601A
:10062000A168B9420BD0012909D00CE0DFF85CC009
:10063000A3690CEB43330B4343F40061DFE7218AEA
:100640000D05A5F580152168CB6A23F470032B43B3
:10065000CB62216889680E4B1940914208D1E6624D
:10066000A16A21F0020141F00101A162BDE8F0811F
:10067000A06A20F0020040F01000A062E06A40F0A2
:100680000100E0620120F1E7FDF7E1FF00E0FFFF7C
:10069000FE0E1FFF7047000070B586B000260546AD
:1006A000009601960296039600681E49884237D14B
:1006B0001D49886940F400708861886900F4007001
:1006C0000490886940F0040088618869694600F0F8
:1006D000040004900E20009003200190134800F0C5
:1006E0006FF9144C1248C4E900068020C4E9026086
:1006F00080002061800060612020A061C001E06175
:10070000204600F00FF908B1FFF720FE2C6200220E
:1007100002211220656200F0ABFA122000F09DFA6F
:1007200006B070BD002401400010024000080140E6
:10073000080002406401002010B590F82110002448
:10074000022903D00421816301243DE001680A6885
:1007500022F00E020A6001680A6822F001020A60B3
:100760001A4A0168914201D1012121E0174A14324D
:10077000914201D110211BE0144A2832914201D14B
:10078000891515E0114A3C32914201D189140FE0DC
:100790000E4A5032914202D14FF4803108E00B4AA8
:1007A0006432914202D14FF4801101E04FF0807128
:1007B000064A083A5160012180F82110002180F892
:1007C0002010416B01B18847204610BD080002404F
:1007D0002DE9F05FC16B0C6801680B68D0F840C070
:1007E000042202FA0CF2494DDFF824A1494E4A4F87
:1007F000DFF828B1DFF828E122422CD05A072AD5A9
:100800000A68920603D40A6822F004020A600168AA
:10081000A94201D1042219E0514501D1402215E03D
:10082000B14202D14FF4806210E0B94202D14FF4DC
:1008300080420BE0594502D14FF4802206E0714519
:1008400002D14FF4800201E04FF080622F49083955
:100850004A60C16A3BE04FF0020808FA0CF818EA57
:10086000040F4FF000094FF0010235D05FEA8378A2
:1008700032D50B689B0605D40B6823F00A030B6086
:1008800080F821200168A94201D1022219E05145D6
:1008900001D1202215E0B14202D14FF4007210E0E4
:1008A000B94202D14FF400520BE0594502D14FF446
:1008B000003206E0714502D14FF4001201E04FF022
:1008C0000072124908394A6080F82090816A002934
:1008D0001AD0BDE8F05F0847082505FA0CF5254257
:1008E00012D01B0710D50B6823F00E030B6090F895
:1008F0004010C36B02FA01F15960826380F8212035
:1009000080F82090016BE2E7BDE8F09F080002400C
:100910001C000240300002404400024058000240E7
:100920006C00024030B528B308C81349142219449A
:10093000B1FBF2F18900C163104981630221417763
:100940001A6843F6F0718A43D0E900142143D0E9D4
:1009500002452C43214304692143446921438469AE
:10096000214311431960002141630122427701773D
:10097000084630BD012030BDF8FFFDBF0000024039
:1009800070B5044600F000F90546601C02D004482A
:100990000078044400F0F8F8401BA042FAD370BD80
:1009A0002C00002070470000044910B50A6802427C
:1009B00002D00860FFF7F6FF10BD000014040140EC
:1009C0002DE9F84FDFF890A100220AF1040B14463C
:1009D00001274FF00F090BF1040E00BF0B6807FA57
:1009E00004F52B40AB4274D1DFF870C14E68A6EB22
:1009F0000C0866452BD00DDC032E34D005DC36B355
:100A0000012E19D0022E2FD11BE0112E16D0122E3E
:100A10002AD119E0B8F5881F19D006DCB8F5803F57
:100A200015D0B8F5801F1FD111E0B8F5001F0ED00A
:100A3000B8F5041F18D10AE0CA6815E0CA68121D8B
:100A400012E0CA6808320FE0CA680C320CE08A680B
:100A50002AB1012A4FF0080203D0456104E00422C4
:100A600002E0056100E00022FF2B01D8064601E00C
:100A700000F104064FEA840501D9A5F12005D6F856
:100A800000C009FA05F82CEA080C02FA05F54CEA50
:100A9000050CC6F800C04D68ED0057D5304DAE6965
:100AA00046F00106AE61AD6924F0030605F00105CC
:100AB00000952C4D06EB050CDCF80850A6074FEA14
:100AC000167809FA08F6B543274EB04202D100263F
:100AD00010E03BE0254EB04201D101260AE0244E51
:100AE000B04201D1022605E0224EB04201D10326D8
:100AF00000E0042606FA08F62E43CCF808604D689C
:100B0000DAF80060ED03554601D51E4300E09E4330
:100B10002E604D68DBF80060AD035D4601D51E43D5
:100B200000E09E432E604D68DEF80060ED027546E1
:100B300001D51E4300E09E432E604D68AD020E4D70
:100B40002E6801D51E4300E09E432E60641C102CCD
:100B5000FFF444AFBDE8F88F00040140000011101D
:100B6000001002400000014000080140000C01405C
:100B700000100140001401400C0401400AB1016161
:100B800070470904FBE700000148806870470000D7
:100B90002C0000200248816802781144816070476F
:100BA0002C000020074810B5016841F010010160D9
:100BB000032000F07DF8002000F006F800F024F893
:100BC000002010BD0020024070B50D4D04464FF4CA
:100BD0007A712878B1FBF0F00A490968B1FBF0F0AE
:100BE00000F002FD48B9102C07D200222146501E09
:100BF00000F03EF800206C6070BD012070BD000068
:100C00002C000020380000200C4808B5816941F014
:100C100001018161816901F001010091C16941F027
:100C20008051C161C06900F0805000900448416863
:100C300021F0E06141F00071416008BD0010024008
:100C40000000014000F01F02012191404009800096
:100C500000F1E020C0F88011704700F01F02012170
:100C600091404009800000F1E020C0F80011704779
:100C7000F0B40E4B1B680C46C3F30223C3F1070507
:100C8000042D00D90425191D072901D2002300E0F5
:100C9000DB1E012606FA05F1491E214099409E40BF
:100CA000761E16403143F0BC01F095BB0CED00E020
:100CB000064900F0070208684FF6FF03184040EAB3
:100CC0000220034A10430860704700000CED00E06A
:100CD0000000FA0590FAA0F0044AB0FA80F002EBA6
:100CE00080000121C0F880107047000000000E4213
:100CF0000548016841F0020101600448016841F0C3
:100D00000401016030BF70470070004010ED00E04A
:100D10002DE9F84305460078354CC00754D0E0690A
:100D20000026C00008D4E06940F08050E061E0692E
:100D3000012600F0805000902E480168C90512D4A9
:100D40000168804641F480710160FFF71DFF07468E
:100D500005E000BFFFF718FFC01B642823D8D8F8B0
:100D60000000C005F6D5206A10F4407021D0A98893
:100D700001F4407181421CD0206A1F49012220F4F5
:100D800040700A6000220A602062C00711D0FFF79D
:100D9000FBFE074641F2883808E000BFFFF7F4FE8B
:100DA000C11B414502D90320BDE8F883206A8007B2
:100DB000F4D5206A696820F44070084320621EB1AF
:100DC000E06920F08050E0612878800705D56068F0
:100DD000A96820F44040084360602878C00605D523
:100DE0006068E96820F48000084360600020DBE769
:100DF0000010024000700040400442422DE9F047DC
:100E0000DFF8548105460E46D8F8000000F00700D0
:100E1000B0420CD2D8F8001021F007013143C8F8D5
:100E20000010D8F8000000F00700B0426FD1286829
:100E30004A4C810712D5400703D5606840F4E06052
:100E400060602878000703D5606840F460506060F7
:100E50006068A96820F0F000084360602878C00747
:100E600044D06868012816D02168022816D0890766
:100E700000294CDA616821F0030101436160FFF74A
:100E800083FE6968074641F2883001290ED00229A5
:100E9000814618D026E021688903E9E78901E7E760
:100EA000FFF772FEC11B494501D918E08146606811
:100EB000C0F381000128F3D118E000BFFFF764FE02
:100EC000C11B49450BD86068C0F381000228F5D1E9
:100ED0000CE000BFFFF758FEC11B494502D90320B3
:100EE000BDE8F087606810F00C0FF3D1D8F800105F
:100EF000404601F00701B1420BD9016821F007011A
:100F000031430160006800F00700B04201D00120C9
:100F1000E6E72878400705D56068E96820F4E060D6
:100F2000084360602878000706D56068296920F4C6
:100F3000605040EAC100606000F036F86168084A1D
:100F4000C1F30311515CC840064908600020FFF757
:100F50003BFE0020C4E700000020024000100240D9
:100F6000FC3400083800002004480549006849683E
:100F7000044AC1F30221515CC84070473800002088
:100F8000001002400C350008044805490068496813
:100F9000044AC1F3C221515CC840704738000020A8
:100FA000001002400C35000812A185B00FC98DE871
:100FB0000F0014A0144A006804905168134801F00F
:100FC0000C03042B10D0082B0ED1C1F38343C903AB
:100FD0001DF803000AD5516804AAC1F34041515CD1
:100FE0000A4A5043B0FBF1F005B070470849484346
:100FF000FAE7000002030405060708090A0B0C0DB6
:101000000E0F1010010200000010024000127A00C2
:1010100000093D002DE9F84F04460078B94DC0079E
:1010200048D06868C0F38100012807D06868C0F321
:101030008100022809D16868C00306D528688003AA
:1010400038D5606800286FD034E06068B0F5803F24
:101050000BD010B1B0F5A02F11D0286820F480304B
:101060002860286820F4802002E0286840F480305E
:101070002860606888B1FFF787FD064609E02868A8
:1010800040F480202860F0E7FFF77EFD801B642895
:1010900075D828688003F7D50CE0FFF775FD064684
:1010A00005E000BFFFF770FD801B6428F0D82868BA
:1010B0008003F7D42078944E80074FF001094FF059
:1010C00000083BD5686810F00C0F07D06868C0F3C3
:1010D0008100022809D16868C00306D42868800707
:1010E00014D5206901281FD110E02069B0B1C6F8DD
:1010F0000090FFF749FD074605E000BFFFF744FDFC
:10110000C01B0228C4D828688007F7D52868616901
:1011100020F0F80040EAC10028600FE0C6F8008027
:10112000FFF732FD074606E0E9E000BFFFF72CFDC0
:10113000C01B022823D828688007F7D4207800072E
:101140002CD57248A169D9B1C0F80090FFF71CFDF9
:10115000074604E0FFF718FDC01B02280FD8686A95
:101160008007F7D56A484FF4FA510068B0FBF1F0F8
:10117000009000BF0098411E0091FAD20EE080E07E
:10118000C0F80080FFF700FD074604E0FFF7FCFC15
:10119000C01B022875D8686A8007F7D420784007FA
:1011A00060D5E8690027C00008D4E86940F08050A5
:1011B000E861E869012700F0805000905548016817
:1011C000C90513D40168834641F480710160FFF7BB
:1011D000DBFC824606E000BFFFF7D6FCA0EB0A006E
:1011E00064284ED8DBF80000C005F5D5E06801287A
:1011F0000AD008B1052813D0286A20F0010028621F
:10120000286A20F0040002E0286A40F00100286209
:10121000E06841F2883B98B1FFF7B6FC82460BE0EC
:10122000286A40F004002862EEE700BFFFF7ACFC3C
:10123000A0EB0A0159455AD8286A8007F6D50CE078
:10124000FFF7A2FC824605E0FFF79EFCA0EB0A0137
:1012500059454CD8286A8007F6D41FB1E86920F0B8
:101260008050E861E06988B36968C1F381010229AF
:1012700045D00228C6F8608004D0FFF785FC0446FC
:1012800038E034E0FFF780FC074604E0FFF77CFC21
:10129000C01B02282BD828688001F7D4206AB0F53B
:1012A000803F05D16868A16820F400300843686079
:1012B000D4E908010843696821F47411084368609F
:1012C000C6F86090FFF760FC044606E015E000BF3A
:1012D000FFF75AFC001B022809D828688001F7D5BF
:1012E0000BE000BFFFF750FC001B022802D90320CF
:1012F000BDE8F88F28688001F4D40020F8E70120C9
:10130000F6E7000000100240000042428004424222
:10131000380000200070004070B5040005D00025A2
:10132000A56294F8510010B104E0012070BD204680
:1013300000F034F8022084F851002068016821F0A0
:1013400040010160D4E901010843D4E903121143CB
:10135000084361690843218B01F400710843E16986
:101360000843216A0843A16A084321680860A0690C
:10137000042101EA1040616A08432168486021683D
:10138000E06A08612068C16921F40061C161656596
:10139000012084F85100002070BD000030B585B0F8
:1013A0000024009401940294039400681549884233
:1013B00025D11548C16941F48041C161C16901F479
:1013C00080410491816941F00801816180690F4D7C
:1013D00000F0080004904FF420400090022001909B
:1013E0000320039069462846FFF7EAFA4FF480404D
:1013F000CDE90004694628460294FFF7E1FA05B0FA
:1014000030BD00000038004000100240000C0140D8
:101410002DE9F84F044690F8500000260A9F9A469E
:1014200093460D464FF0010801280ED0012084F8A4
:101430005000FFF7A9FB814694F85100616801282C
:101440000CD0B1F5827F07D102E00220BDE8F88F11
:10145000A16809B9042801D00226BDE055B1BBF14D
:10146000000F07D0BAF1000F04D094F85100012802
:1014700002D004E00126AFE0052084F851000020EE
:101480006065C4F838B0A4F83EA0A4F83CA0256379
:10149000A4F836A0A4F834A0206460642068016831
:1014A000490603D4016841F040010160E068B0F5ED
:1014B000006F606804D0E8B3E08E01283BD06AE09A
:1014C00010B1E08E01282ED1216835F8020BC860DA
:1014D000E08E401EE08626E0B8F1000F0DD0E08ED1
:1014E00058B120688168890707D535F8021BC160AB
:1014F000E08E401EE0864FF00008E08F58B1206873
:101500008168C90707D0C0682BF8020BE08F401E26
:10151000E0874FF00108781C05D0FFF735FBA0EB02
:101520000900B84246D2E08E0028D5D1E08F0028CD
:10153000D2D136E0FFE7216815F8010B0873E08E81
:10154000401EE08627E000BFB8F1000F0DD0E08E0E
:1015500058B120688168890707D515F8011B017308
:10156000E08E401EE0864FF00008E08F58B1206802
:101570008168C90707D0C0680BF8010BE08F401ED7
:10158000E0874FF00108781C05D0FFF7FDFAA0EBCB
:101590000900B8420ED2E08E0028D5D1E08F002895
:1015A000D2D13B46012202212046CDF8009000F026
:1015B0004BFF08B103260FE04A463946204600F0AB
:1015C00033FF18B101262020606505E0A06818B936
:1015D0002068C16880680090012084F851000020D4
:1015E00084F85000304631E710B5401EB0F1807FDE
:1015F00001D3012010BD4FF0E02460610F2160177E
:1016000000F0E9FE0020A06107202061002010BD4D
:101610007047704730B590F83C20012A20D0012255
:1016200080F83C20022380F83D3003685C6824F099
:1016300070045C6003685C680D682C435C60036840
:101640009C6824F080049C6003689C6849680C4393
:101650009C6080F83D20002180F83C10084630BD99
:10166000022030BD10B5040003D094F83D0010B145
:1016700007E0012010BD002084F83C00204600F067
:101680000DF8022084F83D00211D206800F0B2FF13
:10169000012084F83D00002010BD000008B500685E
:1016A0000B49884212D10B48C16941F00401C16164
:1016B000C069002200F00400009002211E20FFF704
:1016C000D7FABDE808401E20FFF7C7BA08BD0000E2
:1016D000000800400010024070B5044690F83C003D
:1016E000012817D0012584F83C50022084F83D00E1
:1016F0002068826822F0770222F47F4282600868C4
:10170000502837D00DDC202859D005DC88B31028AC
:1017100041D151E0022070BD302853D040283AD149
:101720003FE060282ED070280BD0B0F5805F03D04A
:10173000B0F5005F2FD110E02068816821F007012B
:1017400015E0CB68D1E90121206800F089FF21680C
:10175000886840F0770088601DE0CB68D1E90121FE
:10176000206800F07DFF2068816841F4804181603D
:1017700011E01EE0CA684968206801F025F8502190
:10178000206806E0CA684968206801F02EF86021E8
:10179000206800F06FFF84F83D50002084F83C0082
:1017A00070BDCA684968206801F00EF840212068C1
:1017B000EFE700212068ECE710212068E9E720210D
:1017C0002068E6E730212068E3E7704770B50446FB
:1017D000006801694FF00005C943890715D4C16845
:1017E000C943890711D4E91E0161012020772068CF
:1017F00080698007204602D0FFF7E7FF04E000F091
:10180000C1F8204600F043F9257720680169C943F3
:10181000490717D4C168C943490713D46FF00401BD
:101820000161022020772068806910F4407F204603
:1018300002D0FFF7CAFF04E000F0A4F8204600F051
:1018400026F9257720680169C943090716D4C168BC
:10185000C943090712D46FF0080101610420207701
:101860002068C0698007204602D0FFF7AEFF04E081
:1018700000F088F8204600F00AF925772068016911
:10188000C943C90617D4C168C943C90613D46FF048
:1018900010010161082020772068C06910F4407FA2
:1018A000204602D0FFF791FF04E000F06BF82046DD
:1018B00000F0EDF8257720680169C943C90708D110
:1018C000C168C943C90704D1891E0161204600F0DF
:1018D000DFF820680169C943090609D4C168C94312
:1018E000090605D46FF0800101612046FFF790FEE4
:1018F00020680169C943490609D4C168C94349063A
:1019000005D46FF040010161204600F0C2F8206864
:101910000169C94389060BD4C168C943890607D444
:101920006FF0200101612046BDE87040FFF771BEF5
:1019300070BD000000B585B00021009101910291B9
:10194000039100680C49884213D10C48816941F029
:10195000080181618069694600F0080004904FF435
:101960007070009002200190032003900448FFF75C
:1019700027F805B000BD000000080040001002403C
:10198000000C0140704770B5044690F83C000D46CD
:1019900001280DD0012684F83C60022084F83D0027
:1019A00042B1042A18D0082A2AD00C2A4DD139E095
:1019B000022070BD206800F065FE2068816941F05A
:1019C000080181612068816921F00401816120683A
:1019D00081692A69114311E0206800F07BFE2068CC
:1019E000816941F4006181612068816921F480612D
:1019F0008161206881692A6941EA0221816124E0CC
:101A0000206800F093FE2068C16941F00801C161BF
:101A10002068C16921F00401C1612068C1692A6997
:101A2000114311E0206800F0ADFE2068C16941F467
:101A30000061C1612068C16921F48061C1612068D1
:101A4000C1692A6941EA0221C16184F83D60002030
:101A500084F83C0070BD10B5040003D094F83D003C
:101A600010B107E0012010BD002084F83C002046A2
:101A700000F00CF8022084F83D00211D206800F0E1
:101A8000B9FD012084F83D00002010BD704770476B
:101A9000704770477047000070B5026804461068D0
:101AA000D168536910F00F0F50D003F0010501F415
:101AB000907635435DD0C20705D0CA0503D5E26BE9
:101AC00042F00102E263420705D5DA0703D0E26B78
:101AD00042F00202E263820705D5DA0703D0E26B27
:101AE00042F00402E263020705D5DA0703D0E26B95
:101AF00042F00802E263E26B002A33D0800604D58C
:101B0000880602D5204600F098FE20684069E16B07
:101B1000C0F38010090700D428B3204600F07FFEF0
:101B20002068416949061AD5416921F040014161A7
:101B3000606BA0B11B494163606BFEF7FDFD00289F
:101B400010D0606B416BBDE870400847830610D52C
:101B50008B060ED52046BDE8704000F06EBE2046D4
:101B6000FFF798FF70BD2046FFF794FF0020E06369
:101B700070BD030606D50B0604D52046BDE87040AF
:101B800000F05EBF4006F3D54806F1D5D168204687
:101B900021F04001D160202184F8391000F030F9A3
:101BA00070BD00000F28000870B5040004D094F840
:101BB0003900002510B106E0012070BD84F83850CE
:101BC000204600F023F8242084F839002068C168FA
:101BD00021F40051C160204600F07AFE20680169BE
:101BE00021F4904101612068416921F02A0141619D
:101BF0002068C16841F40051C160E563202084F889
:101C0000390084F83A00002070BD000030B585B07E
:101C100000240094019402940394006818498842B7
:101C20002CD11848816941F480418161816901F4B6
:101C300080410491816941F0040181618069124D04
:101C400000F0040004904FF4007000900220019016
:101C50000320039069462846FEF7B2FE2815CDE919
:101C60000004694628460294FEF7AAFE00220221DB
:101C70002520FEF7FDFF2520FEF7EFFF05B030BD64
:101C80000038014000100240000801402DE9F843EF
:101C9000044690F83A00994616460D4620284FD142
:101CA00095B18EB194F83800012849D0012084F80C
:101CB00038000027E763222084F83A00FEF764FF2B
:101CC000A6858046E68531E00120BDE8F883E08DF9
:101CD000401EE085A0684346B0F5805F4FF00002EB
:101CE0004FF020012046CDF8009004D000F0D9FE3E
:101CF00098B10320E9E700F0D4FE0028F9D120696B
:101D000000282068406803D0C1B225F8011B0DE00F
:101D1000C0F3080125F8021B08E0206900282068AC
:101D2000406801D000F07F0005F8010BE08D00282D
:101D3000CDD1202084F83A0084F838700020C4E720
:101D40000220C2E770472DE9F843044690F83900B5
:101D50001F4616460D46202850D1A5B19EB194F8D5
:101D6000380001284AD0012084F838004FF00008DC
:101D7000C4F83C80212084F83900FEF705FFA684D2
:101D80008146E68426E00120BDE8F883E08C401E11
:101D9000E084A0684B46B0F5805F4FF000024FF042
:101DA00080012046009703D000F07BFEE8B90DE0EB
:101DB00000F077FEC8B928882168C0F308004860A1
:101DC000206908B16D1C05E0AD1C03E0216815F821
:101DD000010B4860E08C0028D8D14B4600224021FE
:101DE0002046009700F05DFE08B10320CCE72020DC
:101DF00084F8390084F838800020C5E70220C3E762
:101E00007047FEE77CB50446002529460D2000F00A
:101E100027FF932020702020607001A823460090A7
:101E2000022219460C2000F0C7F8010009D1225CFB
:101E3000401C5540C0B20428F9D3205CA84200D011
:101E4000022108467CBD30B585B08DF804008DF8C0
:101E50000510002001A9145C0D18401CC0B2AC7024
:101E60000628F8D300200C181A5C401CC0B222725D
:101E70000428F8D304A800900B460C220E2000F092
:101E80009BF8040004D1082000F0B6FA000700D443
:101E9000022405B0204630BD0EB550208DF8040058
:101EA00000208DF805000DF10602022101A8FEF7C1
:101EB000F2F902A801AB0090042219460C2000F0B0
:101EC0007BF80EBD10B500F04AF88D212A2000F0F5
:101ED000C7FE3E212B2000F0C3FE1E212D2000F066
:101EE000BFFE00212C2000F0BBFE4021152000F099
:101EF000B7FE3D21112000F0B3FEBDE81040FEF713
:101F0000C5B91CB50C46302121706070A21C02219D
:101F10002046FEF7C0F901A8234600900422194686
:101F20000C2000F049F810B90199902900D0022046
:101F30001CBD7CB50C46054607210D2000F090FE27
:101F4000257001A823460090012219460C2000F0BC
:101F500033F810B90199102900D002207CBD0F215F
:101F6000012000F07DBE10B586B093218DF80410DD
:101F700070218DF80510002101AA435C5418491CFA
:101F8000C9B2A3700529F8D3072101A8D21DFEF715
:101F900082F904A801AB0090092219460C2000F038
:101FA0000BF810B90498182802D0002006B010BD14
:101FB0009DF80400FAE700002DE9FF5F00260227E4
:101FC000DDF838A015468B468146B0460C2805D072
:101FD000B9F10E0F05D11226102001E0772630202E
:101FE000804646F08001022000F03AFE8021042065
:101FF000FEF780F980210A2000F07BFA0021012001
:1020000000F02EFE002405E01BF80410092000F06B
:1020100027FE641CAC42F7D34946012000F020FEA5
:10202000B9F10C0F03D180210D2000F062FA4FF4BA
:10203000FA65042000F0E0F904466D1E04D0E007C4
:1020400002D114EA080FF4D080210D20FEF752F9D6
:1020500041F288387DB3062000F0CEF910F01B0F56
:1020600007D0434636221EA12B48FFF76CFE0227FD
:1020700031E000273440E00700D00127B9F10C0F10
:1020800029D10A2000F0B8F904460C2000F0B4F978
:1020900010F007004FEAC40101D008390144CAF822
:1020A000001024B1102C04D91024002504E00124D0
:1020B000FBE7002506E008E0092000F09DF9039900
:1020C00048556D1CA542F7D305E04346172213A1DE
:1020D0001148FFF738FE04B03846BDE8F09F000015
:1020E0007E7E7E20627566666572206F766572669A
:1020F0006C6F772C20636F6C6C6572722C2063722E
:10210000636572722C206F722070726F7465636FDA
:102110006C6572720D0A0000080100207E7E7E2030
:10212000726571756573742074696D6564206F756F
:10213000740D0A0070B588B00D46A0218DF804100A
:1021400001AC8DF8050002212046A21CFEF7A3F881
:1021500006AE01AB042219460C200096FFF72CFFB7
:1021600028BB0698042822D19DF8040000F00F0037
:102170000A281CD10020295C2154401CC0B2102820
:10218000F9D305AA102101A8FEF785F801AB1222A8
:1021900019460C200096FFF70FFF40B90699042955
:1021A00005D19DF8041001F00F010A2900D002208A
:1021B00008B070BD3EB50021144800910191124A4B
:1021C000029102609215C0E90221416103244FF49B
:1021D00060220461C2614160FEF7CEF901200090E7
:1021E000CDE9010469460948FEF7B2F802200090E3
:1021F000019069460548FEF7ABF80094694603482C
:102200000194FEF7A5F83EBD0024014040000020E7
:102210002DE9F04385B000242D48009401940294E8
:102220000394816941F010018161816901F010011D
:102230000491816941F020018161816901F02001EF
:102240000491816941F004018161816901F0040117
:102250000491816941F0080181618069DFF874802F
:1022600000F008004FF40055049000222946404633
:10227000FEF784FCDFF8609041F610070022394633
:102280004846FEF77BFC0095022601250396CDE922
:10229000015469464046FEF793FB10480095CDE98E
:1022A000010469464846FEF78BFB00970396CDE98B
:1022B000015469464846FEF783FB002201210620AF
:1022C000FEF7D6FC0620FEF7C8FC05B0BDE8F0839B
:1022D00000100240001001400008014000001110F1
:1022E0000C480B494FF4007201604FF48271416059
:1022F00000218160C1600161C0E905122822C0E9A6
:102300000721416281620A21C162FFF705B800001E
:10231000003800407000002010B58EB000240794F3
:10232000089409940A940B941C2168460C94FDF7B8
:1023300010FF1D481B49C0E90014FF21C0E90241FC
:1023400004618461FFF78EF94FF48050079007A96C
:102350001548FFF7C1F91448FFF77DFB0B940BA953
:1023600011480C94FFF756F96020CDE9000402945F
:10237000002269460C480494FFF705FB04226946D5
:102380000948FFF700FB082269460748FFF7FBFAF8
:102390000C2269460448FFF7F6FA0348FFF7CAFA29
:1023A0000EB010BD00080040C8000020FEE700008D
:1023B00040F65431884201D200F0A6BC40F61C41E0
:1023C000884201D900F086BC0149002008607047AE
:1023D0004008004070470907090E002806DA00F09F
:1023E0000F0000F1E02080F8141D704700F1E0209C
:1023F00080F800147047704710B50A4C216821F02E
:10240000100121607E2101EA400040F0800001F0CF
:1024100065F8002001F062F8216841F010012160A8
:1024200010BD00000C08014038B50B460092044670
:102430000022802100F008F8002804D0606D40F0F0
:1024400020006065032038BD2DE9F0411D46174688
:102450000E460446DDF8188035E0681C33D02DB1F7
:10246000FEF792FBA0EB0800A8422CD3206841683D
:1024700021F0E00141606068B0F5827F0BD1A06877
:10248000B0F5004F02D0B0F5806F04D1206801682C
:1024900021F040010160A06AB0F5005F0AD1206818
:1024A00001684DF6FF72114001602068016841F437
:1024B00000510160012084F85100002084F8500090
:1024C0000320BDE8F0812068806836EA000004D06F
:1024D0000020B842C1D10020F3E70120F9E7000055
:1024E0000248016841F01001016070470C0801408A
:1024F000704770B50C460546FFF77EFF40EA0401C1
:102500002846BDE8704000F0ABBB000010B5FEF7F8
:102510003BFB4FF4FA61B0FBF1F201FB120060B932
:1025200008484068C043800707D5002201210620E3
:10253000FEF79EFB0620FEF790FBBDE81040FEF77D
:1025400029BB00000070004030B593B028216846D8
:10255000FDF7FFFD14210AA8FDF7FBFD0024012073
:102560000F9410941194010412948DE813000490B8
:10257000CDE90814022507956846FEF74BFD0F20AC
:102580000A90CDE90B540D9400210AA80E94FEF791
:1025900035FC0FA80F951194FEF7BAFB13B030BDB0
:1025A0000D48016841F00101016041680B4A11408A
:1025B000416001680A4A11400160016821F48021EC
:1025C0000160416821F4FE0141604FF41F01816008
:1025D0000449C00308607047001002400000FFF883
:1025E000FFFFF6FE08ED00E00148FFF7EFB800003E
:1025F000C8000020F0B50268164B174C174D4FF07D
:102600008047984205D0B84203D0A04201D0A842EA
:1026100003D122F070064A683243984205D0B8428E
:1026200003D0A04201D0A84203D122F44074CA686A
:10263000224322F080044A69224302608A68C2620F
:102640000A688262984201D10969016301214161EE
:10265000F0BD0000002C01400004004000080040D4
:1026600010B5846842EA032224F47F440A432243DB
:10267000826010BD826822F070020A4342F00701B6
:102680008160704730B5026A22F001020262026A7C
:102690004368846924F073050C682C4322F002051A
:1026A0008A682A430A4DA8420BD122F00805CA685D
:1026B00023F440732A434D6922F004021D438B69C1
:1026C0002B434360846149684163026230BD00006E
:1026D000002C014030B5026A22F010020262026A48
:1026E000436884690D6824F4E64444EA05248D684F
:1026F00022F0200242EA05120B4DA8420ED1CD680D
:1027000022F0800242EA05124D6923F4406343EA55
:1027100085038D6922F0400243EA850343608461AA
:1027200049688163026230BD002C014030B5026A05
:1027300022F480720262036A4268C46923F400735F
:1027400024F073050C682C438D6843EA05230C4D77
:10275000A8420ED1CD6823F4006343EA05234D69F6
:1027600022F4405242EA05128D6923F4806342EA62
:1027700005124260C4614968C163036230BD000054
:10278000002C014030B5026A22F480520262046AD1
:102790004268C3690D6823F4E64343EA05238D6864
:1027A00024F4005444EA0534064DA84204D14D698E
:1027B00022F4804242EA85124260C36149680164A2
:1027C000046230BD002C014010B5036A046A24F095
:1027D00001040462846924F0F00444EA021423F042
:1027E0000A020A438461026210BD10B5036A23F035
:1027F000100303628369046A23F4704343EA0232DC
:1028000024F0A00343EA01118261016210BD10B5FA
:10281000406A0021C185C184FFF73CF910BD016801
:10282000CA6822F49072CA6001684A6922F0010203
:102830004A61202180F83A10704710B590F83A109C
:10284000222901D0022010BD8168B1F5805F11D02E
:102850000169002901681FD0496801F07F03816A7E
:102860004A1C82620B70C18D491E0904090CC18586
:1028700018D02BE00269816A002A0268526805D0EC
:10288000D2B20A80816A491C8162ECE7C2F3080275
:102890000A80816A891CF7E74A68816A4B1C836257
:1028A0000A70E0E70168CA6822F02002CA60016885
:1028B000CA6822F48072CA6001684A6922F0010283
:1028C0004A61202180F83A10FFF73CFA002010BD41
:1028D0002DE9F041044600680169E26821F44051A5
:1028E000114301612169A0680843616908432168B7
:1028F000CA6841F20C639A430243CA602068416986
:10290000A26921F44071114341614C49206864255A
:10291000322688423CD1FEF737FB00EBC00101EBC9
:10292000001061688900B0FBF1F7FEF72DFB00EBAA
:10293000C00101EB00106168B0468900B0FBF1F006
:10294000B0FBF5F06FF01801484307EB800106EB90
:102950000110B0FBF5F000F0F006FEF715FB00EB00
:10296000C00101EB001061688900B0FBF1F0B0FB21
:10297000F5F006EB0016FEF707FB00EBC00101EBDC
:10298000001061688900B0FBF1F7FEF7FDFA3BE04B
:10299000FEF7EAFA00EBC00101EB00106168890064
:1029A000B0FBF1F7FEF7E0FA00EBC00101EB00101D
:1029B0006168B0468900B0FBF1F0B0FBF5F06FF054
:1029C0001801484307EB800106EB0110B0FBF5F05E
:1029D00000F0F006FEF7C8FA00EBC00101EB0010B2
:1029E00061688900B0FBF1F0B0FBF5F006EB001672
:1029F000FEF7BAFA00EBC00101EB00106168890034
:102A0000B0FBF1F7FEF7B0FA00EBC00101EB0010EC
:102A100061688900B0FBF1F0B0FBF5F06FF01801D0
:102A2000484307EB800108EB0110B0FBF5F021688B
:102A300000F00F0030448860BDE8F08100380140AC
:102A400090F83910212901D0022070478168B1F532
:102A5000805F016A0BD04A1C0262026809785160EB
:102A6000C18C491E0904090CC1840ED017E00988E5
:102A70000268C1F30801516001690029016A02D0AE
:102A8000491C0162ECE7891CFBE70168CA6822F077
:102A90008002CA600068C16841F04001C160002046
:102AA00070472DE9F041984617460E460446069DAC
:102AB0001DE0681C1BD02DB1FEF766F8A0EB0800E6
:102AC000A84214D92068C16821F4D071C16020687F
:102AD000416921F001014161202084F8390084F826
:102AE0003A00002084F838000320BDE8F081206817
:102AF000006836EA000004D00020B842D9D0002097
:102B0000F3E70120F9E700002DE9F0413D4D286889
:102B10000068800674D54FF4FA730A223A492846B1
:102B2000FFF7B4F8384C39A12068C4F80A0060688F
:102B3000C4F80E002089608204F10A00FDF714FB3E
:102B4000344E012700B137702F4833A10A30FDF70A
:102B50000BFB18B131A000F099F837702A4831A169
:102B60000A30FDF701FB40B130480368001F0268DE
:102B7000001F01682EA000F089F8234833A10A3015
:102B8000FDF7F2FA40B13249E0780860091D20797A
:102B90000860091D607908601B482EA10A30FDF706
:102BA000E3FAC0B12C48217987144FF4006631292B
:102BB0004FF0000219D039460746FDF7DFFF01222A
:102BC00031463846FDF7DAFF214861790C3031296A
:102BD00014D0002101602868C16841F02001C16063
:102BE000BDE8F0410748FEF757BF31460646FDF7FE
:102BF000C5FF012239463046E4E701E0E178E9E724
:102C0000BDE8F08108010020A801002068656C7013
:102C100000000000000000206865790046752079FA
:102C20006F75000077686F616D690000F0F7FF1F36
:102C30004A4F59535445414B20253038782D253083
:102C400038782D253038780D0A0000007267620050
:102C5000340800406D74720000080140FEE7000077
:102C600070B5094C0D46216821F0100121607E21CC
:102C700001EA400000F032FC284600F02FFC2068FA
:102C800040F01000206070BD0C0801400FB4054BEF
:102C900010B503A9044A029800F062F810BC5DF870
:102CA00014FB0000CD3100083C0000200FB4084B9D
:102CB00010B504A902AA039800F052F8044602A92C
:102CC000002000F07EFA204610BC5DF814FB0000E6
:102CD000C331000870B50A4D044600224FF48051FC
:102CE0002846FDF74BFF0122D1022846FDF746FF9B
:102CF0000920B4FBF0F003490860002070BD00001B
:102D0000000801404008004070B50B4D0446002209
:102D10004FF400612846FDF731FF012211032846D8
:102D2000FDF72CFF1D20B4FBF0F00449C0F1640056
:102D300080B20860002070BD0008014040080040DB
:102D400002E008C8121F08C1002AFAD17047704774
:102D5000002001E001C1121F002AFBD170470000D2
:102D60002DE9FF4F8DB00F460546002606E02528C9
:102D70000BD0DDE90F1290476D1C761C28780028D7
:102D8000F5D111B03046BDE8F08F0024A246A1462F
:102D90000122EC4900E0044315F8013F203B02FA10
:102DA00003F00842F7D128782A2810D06FF02F02BC
:102DB0002878A0F13001092914D80AEB8A0102EB26
:102DC000410144F0020400EB010A6D1CF0E701CF61
:102DD0005FEA000A03D544F40054CAF1000A44F043
:102DE00002046D1C28782E2817D115F8010F44F025
:102DF00004042A280ED06FF02F022878A0F13001A9
:102E000009290AD809EB890102EB410100EB01090C
:102E10006D1CF2E757F8049B6D1C28786C280FD0C6
:102E200006DC4C2817D068280DD06A2814D104E09D
:102E3000742810D07A280FD10DE044F400140AE071
:102E400044F4801401E044F440146978814202D1D2
:102E500004F580146D1C6D1C2A786E2A1FD00CDCC2
:102E6000632A31D004DC002A8BD0582A11D1A3E088
:102E7000642A68D0692A0CD165E0732A2ED004DC5C
:102E80006F2A73D0702A04D19BE0752A6FD0782AFC
:102E90006ED01046DDE90F129047761C50E1C4F366
:102EA0000250022806D0032809D0042801CF09D0F7
:102EB000066045E101CFF117C0E9006140E101CFB3
:102EC00006803DE106703BE117F8040B8DF8000029
:102ED00000208DF80100EB46012003E057F804BB09
:102EE0004FF0FF3061074FF0000102D40DE008F110
:102EF0000101884649450FDA8045F8DB1BF80810C8
:102F00000029F4D108E008F1010188468142FADB8A
:102F10001BF808100029F6D1DDE90F23AAEB080001
:102F20008146214600F036F9304400EB080604E003
:102F3000DDE90F121BF8010B9047B8F10108F7D239
:102F400021464846F7E00A21C4F302534FF0000B34
:102F50000891022B04D001CFC117032B09D00AE03E
:102F6000FF1D27F00707F7E8020108E032E01FE045
:102F700020E000B2C117042B01D140B2C117031EDB
:102F800071F1000307DA4FF0000CD0EB0C006CEB92
:102F900001012D2302E0230504D52B238DF82430D5
:102FA000012303E0E30701D02023F7E7984658E028
:102FB0000A2110E010210EE010204FF0000B0890C5
:102FC0000CE010214FF0000B44F004044FF008090E
:102FD000089103E008214FF0000B0891C4F302535D
:102FE000022B04D001CF0021032B06D006E0FF1DE9
:102FF00027F00707F7E8020103E080B2042B00D1B5
:10300000C0B24FF0000823072BD5702A07D0DDF897
:1030100020C08CF0100C5CEA0B0C05D00EE04023B5
:103020008DF82430012308E050EA010306D0302354
:103030008DF824308DF8252002239846DDF820C035
:103040008CF0080C5CEA0B0C0BD150EA010301D1A7
:10305000630706D530238DF824304FF00108A9F11D
:103060000109582A04D038A20B9208AA0A920BE050
:103070003AA2F9E75B46089AFDF788F80B9B9B5C40
:103080000A9A521E0A92137050EA0102F2D10A986B
:10309000ADEB000000F1200B600702D524F4803472
:1030A00001E04FF00109D94502DDA9EB0B0000E07A
:1030B000002000EB0B0141440890AAEB010AE00359
:1030C00006D4DDE90F232146504600F063F806449C
:1030D0004FF0000908E009A911F80900DDE90F1215
:1030E000904709F10109761CC145F4DBE0030CD5DA
:1030F000DDE90F232146504600F04CF8064404E079
:10310000DDE90F1230209047761C0899481E089080
:103110000029F5DC08E00A980A990078491C0A9110
:10312000DDE90F129047761CBBF10001ABF1010BFA
:10313000F1DC21465046DDE90F2300F019F8064482
:103140006D1C1BE609280100303132333435363727
:1031500038396162636465660000000030313233E3
:103160003435363738394142434445460000000083
:103170002DE9F041044600251E461746880404D474
:1031800005E039462020B0476D1C641EF9D528465D
:10319000BDE8F0812DE9F041044600251E46904629
:1031A000C80301D5302700E02027880404D505E0B6
:1031B00041463846B0476D1C641EF9D52846BDE827
:1031C000F0810A68531C0B601070704713B54FF6FE
:1031D000FF73012269460248FEF7B5FD00981CBD49
:1031E0000801002088B0FDF7DDFCFFF7ADF9FFF71F
:1031F0000FF88A48416941F00101416140690022AC
:1032000000F00100009011460B20FDF731FD0B206E
:10321000FDF723FD834C8248002720604FF41650B1
:10322000C4E901070C20E760C4E90470A7612046E7
:10323000E761FEF7B9FCFEF7BDFFFFF76DF8FFF79A
:103240004FF80620FDF7FEFC774D6868C043800705
:1032500006D476A0FFF71AFD286840F00800286021
:103260002068C16841F02001C16040F6B830FDF728
:1032700087FBFFF735F9FEF725FE6E48016841F040
:103280001001016041F288352B4617226AA165487A
:10329000FEF759FDDFF88C816D4C08F14C084FF4B6
:1032A000FA6902A92620FEF744FE06462B460122B3
:1032B00002A95C48FEF747FD8EB92B46162265A190
:1032C0005848FEF740FD2B460E2268A15548FEF7F0
:1032D0003AFD2B46012202A95248FEF734FD02A80E
:1032E000FEF790FD002849D12B46192263A14D48D5
:1032F000FEF729FD9DF80B109DF80A00CDE90001AD
:103300009DF809309DF8082063A106A8FFF7CEFCC0
:103310002B46122206A94348FEF715FD02A8FEF728
:1033200022FE0120A0604A4A217A02AB0C326020C2
:10333000FEF789FD0028207A24D0454AC1B202ABAD
:1033400012326120FEF77FFD002843D02B46132266
:1033500056A13448FEF7F7FCA068401CA060032883
:10336000E1DB2B46082256A12E48FEF7ECFCFEF7C7
:1033700093FDFEF7A7FD4846FDF702FB4846FDF723
:10338000FFFA8EE73249C0B21831FEF7D3FE0028AB
:10339000E2D12449207A4C31FEF7B3FD28B92B46FF
:1033A0000A224AA11F48FEF7CEFC464667606068C5
:1033B0002B46311801221B48FEF7C5FC2B46012283
:1033C00045A11848FEF7BFFC6068401C60601028EB
:1033D000EDDBC1E71E49207A1831FEF7ABFE00286D
:1033E000BAD11049207A4C31FEF78BFD0028B3D1B9
:1033F0004646676060682B46311801220948FEF78F
:10340000A2FC2B46012234A10648FEF79CFC606812
:10341000401C60601028EDDB9EE7000000100240B9
:1034200000380140080100200070004057616B65C2
:10343000757000000C0801400A0D53657269616CDB
:1034400020436F6E6E65637465642E2E2E0A0D0028
:10345000040000200A0D7E7E7E2043617264206499
:1034600065746563746564210A0D000043617264CC
:103470002054797065203A200A0D00000A0D546826
:103480006520636172642773206E756D62657220BA
:1034900069733A0A0D0000002533643A2533643A13
:1034A0002533643A2533640A0D0000000A0D4B658C
:1034B0007973206172652077726F6E672E0A0D0036
:1034C0000A0D456E642E0A0D000000000A0D2062F0
:1034D0006C6F636B0A0D00003A00000001B582B00A
:1034E0004FF0FF300090012301AA02A90248FDF726
:1034F0008FFF9DF804000EBD70000020000000004A
:103500000000000001020304060708090000000093
:1035100001020304343500080000002040000000D0
:10352000402D000874350008400000208005000090
:10353000502D000800000000000000000000000006
:1035400000000000FFFFFFFFFFFFFFFFFFFFFFFF87
:1035500034312E2E461800003929382D42414A4276
:1035600001000000100000000000000000A24A045A
:043570000000000057
:04000005080000ED02
:00000001FF
