:020000040800F2
:10000000F004002001010008431800084F17000801
:100010004118000871030008A51B0008000000003B
:100020000000000000000000000000006718000849
:10003000AB030008000000006518000869180008FC
:100040001B0100081B0100081B0100081B01000820
:100050001B0100081B0100081B0100081B01000810
:100060001B0100081B0100081B01000875030008A4
:100070001B0100081B0100081B0100081B010008F0
:100080001B0100081B010008350200081B010008C5
:100090001B0100081B0100081B0100081B010008D0
:1000A0001B0100081B0100081B0100081B010008C0
:1000B0001B0100081B0100081B0100081B010008B0
:1000C0001B0100081B0100081B0100081B010008A0
:1000D0001B010008E11A00081B0100081B010008B1
:1000E0001B0100081B0100081B010008DFF80CD0F1
:1000F00000F07EF80048004765200008F00400206A
:100100000648804706480047FEE7FEE7FEE7FEE7B1
:10011000FEE7FEE7FEE7FEE7FEE7FEE7C51800089C
:10012000ED000008202A04DB203A21FA02F0002129
:10013000704721FA02F3D040C2F1200291400843F7
:1001400019467047D2B201E000F8012B491EFBD2DC
:1001500070470022F6E710B513460A4604461946D2
:10016000FFF7F0FF204610BD30B505462A460B4686
:1001700012F8010B13F8014B08B1A042F8D01CB1E2
:10018000002802D06D1CF1E7284630BD2DE9F05F54
:100190000546002092469B468846064681464024F6
:1001A0001BE02846414647462246FFF7BBFF534621
:1001B0005A46C01A914110D311461846224600F003
:1001C00029F82D1A67EB01084F462246012000212D
:1001D00000F020F817EB00094E41201EA4F10104A5
:1001E000DFDC484631462A464346BDE8F09F000022
:1001F000064C074D06E0E06840F0010394E8070074
:1002000098471034AC42F6D3FFF774FF542100082E
:1002100074210008202A04DB203A00FA02F10020B1
:1002200070479140C2F1200320FA03F31943904034
:1002300070470000014800F057B900001800002086
:1002400070B5044600688168C943C9071CD181683C
:1002500021F00101816000F095FD05460FE000BF2F
:1002600000F090FD401B022809D9A06A40F0100060
:10027000A062E06A40F00100E062012070BD2068E9
:100280008068C043C007EBD0002070BD10B50146A8
:10029000406A826A12F0500F05D0006A026BBDE816
:1002A000104008461047816A41F40071816201687C
:1002B0008968C1F3424107290CD1C16851B9816AEB
:1002C00021F480718162816AC90403D4816A41F09A
:1002D0000101816200F0EAF810BD10B5406A816A40
:1002E00041F040018162C16A41F00401C16200F045
:1002F000FAF810BD10B5406A00F0F4F810BD000027
:10030000F8B500260446009600688168C943C9070D
:1003100028D0816841F001018160134813490068C9
:10032000B0FBF1F000E0401E00900028FBD100F08F
:1003300029FD054611E000BF00F024FD401B022806
:100340000BD9A06A40F01000A062E06A40F0010002
:10035000E06284F824600120F8BD20688068C04312
:10036000C007E9D10020F8BD1000002040420F0076
:10037000FEE70000014800F011BB000094000020DF
:1003800030B590F840500124AC40C56B6C600468F7
:1003900063604368102B036803D099600068C260F3
:1003A00030BD9A600068C16030BD704770477047CB
:1003B000F8B50024009490F824202546012A12D094
:1003C000012280F824204A681F23072A0DD20668DC
:1003D000776B521E02EB820293409F430B6893405F
:1003E0001F43776319E00220F8BD06680D2A0AD280
:1003F000376BD21F02EB820293409F430B689340FE
:100400001F43376309E0F76A0D3A02EB820293401B
:100410009F430B6893401F43F7620A6807230668EF
:100420000A2A0AD3F7680A3A02EB420293409F4332
:100430008B6893401F43F76008E0376902EB420284
:1004400093409F438B6893401F4337610A68102A8B
:1004500001D0112A20D1124B02689A4217D1936819
:100460001B0219D4936843F40003936009681029B0
:1004700012D10C490C4A0968B1FBF2F101EB810180
:10048000490000E0491E00910029FBD104E0816A87
:1004900041F020018162012480F824502046F8BDFB
:1004A000002401401000002040420F0008B505481C
:1004B000D0E90023806800900348418803A001F040
:1004C00073FB08BD880000200000002025643A422C
:1004D000743D256420593D256420583D2564200D38
:1004E0000A0000007047704710B504460068416874
:1004F000890626D50168890723D5A16AC90603D4D0
:10050000A16A41F40071A1628168C1F342410729E7
:1005100010D1E16871B9416821F020014160A06A01
:1005200020F48070A062A06AC00403D4A06A40F0E6
:100530000100A0622046FFF7B9FF21686FF01200AA
:1005400008602068416809062ED5016849072BD547
:10055000A16AC90603D4A16A41F40051A16281686D
:10056000C1F30231072909D04168490515D48168D2
:10057000C1F34241072910D1E16871B9416821F006
:1005800080014160A06A20F48050A062A06AC0058A
:1005900003D4A06A40F00100A0622046FFF707FFE5
:1005A00021686FF00C0008602068416849060DD58D
:1005B0000068C0070AD0A06A40F48030A0622046DC
:1005C00000F094F821686FF00100086010BD000091
:1005D0002DE9F0414FF0000704003D467ED0A06AAF
:1005E000002628B9E66284F82460204600F080F8EE
:1005F0002046FFF725FEA16AC90600D420B1A06AF3
:1006000040F01000A06269E0A16A21F4885141F035
:100610000201A1626268E169E3680A4347EA4301B3
:100620000A43A1684FF48077B94209D0012907D065
:100630005FF00001D4F814C0BCF1010F02D00AE051
:100640003946F7E7F3B1A36A43F02003A362E36AF4
:1006500043F00103E3622368D3F804C02CF4694C2F
:100660004CEA010CC3F804C021688B68DFF870C045
:1006700003EA0C0313438B60A168B9420BD0012934
:1006800009D00CE0DFF85CC0A3690CEB43330B43EB
:1006900043F40061DFE7218A0D05A5F58015216887
:1006A000CB6A23F470032B43CB62216889680E4B1D
:1006B0001940914208D1E662A16A21F0020141F09D
:1006C0000101A162BDE8F081A06A20F0020040F0C3
:1006D0001000A062E06A40F00100E0620120F1E752
:1006E000FDF7E1FF00E0FFFFFE0E1FFF7047000077
:1006F00070B586B0002605460096019602960396D0
:1007000000681E49884237D11D49886940F400704D
:100710008861886900F400700490886940F00400E2
:1007200088618869694600F0040004900E200090FA
:1007300003200190134800F041FA144C1248C4E918
:1007400000068020C4E902608000206180006061B2
:100750002020A061C001E061204600F0C9F908B185
:10076000FFF724FE2C62002201211220656200F0B6
:1007700073FB122000F064FB06B070BD0024014042
:1007800000100240000801400800024094000020D0
:100790002DE9F047894604463B4900683B4F0E1D52
:1007A0009046884201D0B84207D1306810F4702FCB
:1007B00003D001252846BDE8F08794F824000128DD
:1007C0000CD0012084F824002046FFF799FD050095
:1007D0004FF0000004D084F82400EBE70220EAE7A1
:1007E000A16A40F60162914341F48071A1622168DF
:1007F000B94218D1326812F4702F14D0A16A41F4B2
:100800008011A1623168490505D5A16A21F4005122
:1008100041F48051A162A16AC9040AD5E16A21F0BC
:100820000601E16206E0A26A22F48012A26249682F
:10083000E9E7E06284F82400216A15488862216AA9
:100840001448C862216A1448086321686FF00200E6
:1008500008602068816841F48071816021684346A6
:100860004A464C31206A00F071F920688168C1F372
:1008700042410729816803D041F48011816099E7E2
:1008800041F4A001FAE700000024014000280140E3
:100890008D020008F5020008DB02000870B504466E
:1008A00090F8240001280DD0012084F8240020466F
:1008B000FFF726FD02004FF0000005D084F8240069
:1008C000104670BD022070BDA16A40F601639943D5
:1008D00041F48071A162224D23682249AB4218D1B4
:1008E0000E6816F4702F14D0A66A46F48016A6621D
:1008F0000E68760505D5A66A26F4005646F480569D
:10090000A662A66AF6040AD5E66A26F00606E6623C
:1009100006E0A66A26F48016A6625E68E9E7E06251
:1009200084F824006FF0020018602068436843F0E8
:100930002003436020688368C3F34243072B05D13B
:10094000A84208D1096811F4702F04D0816841F4DD
:1009500080118160B4E7816841F4A001F9E70000EB
:10096000002801400424014010B5044690F82400FA
:10097000012807D0012084F824002046FFF760FCFE
:1009800010B107E0022010BDA16A21F4885141F0A6
:100990000101A162002184F8241010BD2DE9F05F4F
:1009A000C16B0C6801680B68D0F840C0042202FAE1
:1009B0000CF2494DDFF824A1494E4A4FDFF828B127
:1009C000DFF828E122422CD05A072AD50A6892067D
:1009D00003D40A6822F004020A600168A94201D126
:1009E000042219E0514501D1402215E0B14202D163
:1009F0004FF4806210E0B94202D14FF480420BE024
:100A0000594502D14FF4802206E0714502D14FF4DE
:100A1000800201E04FF080622F4908394A60C16AC4
:100A20003BE04FF0020808FA0CF818EA040F4FF008
:100A300000094FF0010235D05FEA837832D50B68A8
:100A40009B0605D40B6823F00A030B6080F8212075
:100A50000168A94201D1022219E0514501D12022A9
:100A600015E0B14202D14FF4007210E0B94202D158
:100A70004FF400520BE0594502D14FF4003206E02A
:100A8000714502D14FF4001201E04FF0007212499B
:100A900008394A6080F82090816A00291AD0BDE8A0
:100AA000F05F0847082505FA0CF5254212D01B0710
:100AB00010D50B6823F00E030B6090F84010C36B49
:100AC00002FA01F15960826380F8212080F82090B9
:100AD000016BE2E7BDE8F09F080002401C00024005
:100AE0003000024044000240580002406C000240C6
:100AF00030B528B308C8134914221944B1FBF2F1E8
:100B00008900C16310498163022141771A6843F665
:100B1000F0718A43D0E900142143D0E902452C4307
:100B200021430469214344692143846921431143DA
:100B3000196000214163012242770177084630BDE8
:100B4000012030BDF8FFFDBF0000024070B5044633
:100B500090F82000002501280CD0012084F8200006
:100B600094F821600020012E06D084F82000022590
:100B7000284670BD022070BD022684F82160A06363
:100B80002068066826F0010606602046FFF7F8FB9D
:100B9000E06A00282068016802D041F00E0106E0FA
:100BA00021F0040101602068016841F00A01016040
:100BB0002068016841F001010160D9E72DE9F84F93
:100BC000DFF890A100220AF1040B144601274FF030
:100BD0000F090BF1040E00BF0B6807FA04F52B4058
:100BE000AB4274D1DFF870C14E68A6EB0C086645C5
:100BF0002BD00DDC032E34D005DC36B3012E19D0FA
:100C0000022E2FD11BE0112E16D0122E2AD119E060
:100C1000B8F5881F19D006DCB8F5803F15D0B8F5B7
:100C2000801F1FD111E0B8F5001F0ED0B8F5041FCA
:100C300018D10AE0CA6815E0CA68121D12E0CA6835
:100C400008320FE0CA680C320CE08A682AB1012A27
:100C50004FF0080203D0456104E0042202E0056180
:100C600000E00022FF2B01D8064601E000F1040657
:100C70004FEA840501D9A5F12005D6F800C009FA8C
:100C800005F82CEA080C02FA05F54CEA050CC6F842
:100C900000C04D68ED0057D5304DAE6946F00106F5
:100CA000AE61AD6924F0030605F0010500952C4DF9
:100CB00006EB050CDCF80850A6074FEA167809FA8F
:100CC00008F6B543274EB04202D1002610E03BE0C3
:100CD000254EB04201D101260AE0244EB04201D196
:100CE000022605E0224EB04201D1032600E0042690
:100CF00006FA08F62E43CCF808604D68DAF8006072
:100D0000ED03554601D51E4300E09E432E604D681D
:100D1000DBF80060AD035D4601D51E4300E09E4355
:100D20002E604D68DEF80060ED02754601D51E4369
:100D300000E09E432E604D68AD020E4D2E6801D539
:100D40001E4300E09E432E60641C102CFFF444AF51
:100D5000BDE8F88F000401400000111000100240AF
:100D60000000014000080140000C0140001001405B
:100D7000001401400C0401400AB1016170470904EC
:100D8000FBE7000001488068704700000400002075
:100D90000248816802781144816070470400002095
:100DA000074810B5016841F010010160032000F010
:100DB00073F8002000F006F800F024F8002010BDC1
:100DC0000020024070B50D4D04464FF47A7128782A
:100DD000B1FBF0F00A490968B1FBF0F000F078FBD4
:100DE00048B9102C07D200222146501E00F034F8DA
:100DF00000206C6070BD012070BD00000400002068
:100E0000100000200C4808B5816941F001018161A2
:100E1000816901F001010091C16941F08051C16116
:100E2000C06900F0805000900448416821F0E06102
:100E300041F00071416008BD001002400000014017
:100E400000F01F02012191404009800000F1E020E4
:100E5000C0F8001170470000F0B40E4B1B680C4640
:100E6000C3F30223C3F10705042D00D90425191D7E
:100E7000072901D2002300E0DB1E012606FA05F156
:100E8000491E214099409E40761E16403143F0BCD9
:100E900000F0D8BC0CED00E0064900F0070208683D
:100EA0004FF6FF03184040EA0220034A104308604F
:100EB000704700000CED00E00000FA050149012038
:100EC0000862704700000E422DE9F843054600789D
:100ED000354CC00754D0E0690026C00008D4E06952
:100EE00040F08050E061E069012600F08050009001
:100EF0002E480168C90512D40168804641F480710A
:100F00000160FFF73FFF074605E000BFFFF73AFF2C
:100F1000C01B642823D8D8F80000C005F6D5206A85
:100F200010F4407021D0A98801F4407181421CD096
:100F3000206A1F49012220F440700A6000220A60E2
:100F40002062C00711D0FFF71DFF074641F2883825
:100F500008E000BFFFF716FFC11B414502D903207F
:100F6000BDE8F883206A8007F4D5206A696820F418
:100F70004070084320621EB1E06920F08050E061BB
:100F80002878800705D56068A96820F440400843A8
:100F900060602878C00605D56068E96820F48000A4
:100FA000084360600020DBE7001002400070004052
:100FB000400442422DE9F047DFF8548105460E46D1
:100FC000D8F8000000F00700B0420CD2D8F80010AA
:100FD00021F007013143C8F80010D8F8000000F0F4
:100FE0000700B0426FD128684A4C810712D54007EC
:100FF00003D5606840F4E06060602878000703D59E
:10100000606840F4605060606068A96820F0F0009B
:10101000084360602878C00744D06868012816D06B
:101020002168022816D0890700294CDA616821F06E
:10103000030101436160FFF7A5FE6968074641F2BD
:10104000883001290ED00229814618D026E0216877
:101050008903E9E78901E7E7FFF794FEC11B4945EA
:1010600001D918E081466068C0F381000128F3D1FE
:1010700018E000BFFFF786FEC11B49450BD860682A
:10108000C0F381000228F5D10CE000BFFFF77AFE23
:10109000C11B494502D90320BDE8F087606810F004
:1010A0000C0FF3D1D8F80010404601F00701B1420F
:1010B0000BD9016821F0070131430160006800F09D
:1010C0000700B04201D00120E6E72878400705D5A7
:1010D0006068E96820F4E0600843606028780007F1
:1010E00006D56068296920F4605040EAC10060605C
:1010F00000F036F86168084AC1F30311515CC8403A
:10110000064908600020FFF75DFE0020C4E70000EC
:1011100000200240001002403C2100081000002086
:101120000448054900684968044AC1F30221515C3A
:10113000C840704710000020001002404C210008F9
:101140000448054900684968044AC1F3C221515C5A
:10115000C840704710000020001002404C210008D9
:1011600012A185B00FC98DE80F0014A0144A0068C1
:1011700004905168134801F00C03042B10D0082B85
:101180000ED1C1F38343C9031DF803000AD551688A
:1011900004AAC1F34041515C0A4A5043B0FBF1F04C
:1011A00005B0704708494843FAE700000203040508
:1011B000060708090A0B0C0D0E0F101001020000A3
:1011C0000010024000127A0000093D002DE9F84F9E
:1011D00004460078B94DC00748D06868C0F3810064
:1011E000012807D06868C0F38100022809D1686827
:1011F000C00306D52868800338D5606800286FD002
:1012000034E06068B0F5803F0BD010B1B0F5A02F8E
:1012100011D0286820F480302860286820F48020CD
:1012200002E0286840F480302860606888B1FFF7E9
:10123000A9FD064609E0286840F480202860F0E710
:10124000FFF7A0FD801B642875D828688003F7D5B8
:101250000CE0FFF797FD064605E000BFFFF792FDA3
:10126000801B6428F0D828688003F7D42078944E37
:1012700080074FF001094FF000083BD5686810F077
:101280000C0F07D06868C0F38100022809D1686894
:10129000C00306D42868800714D5206901281FD10F
:1012A00010E02069B0B1C6F80090FFF76BFD07466B
:1012B00005E000BFFFF766FDC01B0228C4D8286800
:1012C0008007F7D52868616920F0F80040EAC1007E
:1012D00028600FE0C6F80080FFF754FD074606E0DF
:1012E000E9E000BFFFF74EFDC01B022823D82868A5
:1012F0008007F7D4207800072CD57248A169D9B1AE
:10130000C0F80090FFF73EFD074604E0FFF73AFD06
:10131000C01B02280FD8686A8007F7D56A484FF4C7
:10132000FA510068B0FBF1F0009000BF0098411E38
:101330000091FAD20EE080E0C0F80080FFF722FDB5
:10134000074604E0FFF71EFDC01B022875D8686A37
:101350008007F7D42078400760D5E8690027C000EF
:1013600008D4E86940F08050E861E869012700F09E
:101370008050009055480168C90513D40168834620
:1013800041F480710160FFF7FDFC824606E000BF7A
:10139000FFF7F8FCA0EB0A0064284ED8DBF8000049
:1013A000C005F5D5E06801280AD008B1052813D09A
:1013B000286A20F001002862286A20F0040002E078
:1013C000286A40F001002862E06841F2883B98B149
:1013D000FFF7D8FC82460BE0286A40F00400286240
:1013E000EEE700BFFFF7CEFCA0EB0A0159455AD843
:1013F000286A8007F6D50CE0FFF7C4FC824605E0BA
:10140000FFF7C0FCA0EB0A0159454CD8286A8007B9
:10141000F6D41FB1E86920F08050E861E06988B334
:101420006968C1F38101022945D00228C6F86080AD
:1014300004D0FFF7A7FC044638E034E0FFF7A2FC35
:10144000074604E0FFF79EFCC01B02282BD8286843
:101450008001F7D4206AB0F5803F05D16868A168A3
:1014600020F4003008436860D4E908010843696843
:1014700021F4741108436860C6F86090FFF782FC9D
:10148000044606E015E000BFFFF77CFC001B0228C5
:1014900009D828688001F7D50BE000BFFFF772FC80
:1014A000001B022802D90320BDE8F88F28688001BC
:1014B000F4D40020F8E70120F6E700000010024015
:1014C00000004242800442421000002000700040B0
:1014D00010B5401EB0F1807F01D3012010BD4FF048
:1014E000E02460610F21601700F0ACF90020A061DA
:1014F00007202061002010BD70B5040004D094F8CE
:101500003900002510B106E0012070BD84F8385084
:10151000204600F023F8242084F839002068C168B0
:1015200021F40051C160204600F0F0F92068016903
:1015300021F4904101612068416921F02A01416153
:101540002068C16841F40051C160E563202084F83F
:10155000390084F83A00002070BD000030B585B035
:10156000002400940194029403940068184988426E
:101570002CD11848816941F480418161816901F46D
:1015800080410491816941F0040181618069124DBB
:1015900000F0040004904FF40070009002200190CD
:1015A0000320039069462846FFF708FB2815CDE97C
:1015B0000004694628460294FFF700FB002202213E
:1015C0002520FFF749FC2520FFF73AFC05B030BD88
:1015D0000038014000100240000801402DE9F843A6
:1015E000044690F83A00994616460D4620284FD1F9
:1015F00095B18EB194F83800012849D0012084F8C3
:1016000038000027E763222084F83A00FFF7BAFB8E
:10161000A6858046E68531E00120BDE8F883E08DAF
:10162000401EE085A0684346B0F5805F4FF00002A1
:101630004FF020012046CDF8009004D000F01EFAB3
:1016400098B10320E9E700F019FA0028F9D12069E0
:1016500000282068406803D0C1B225F8011B0DE0C6
:10166000C0F3080125F8021B08E020690028206863
:10167000406801D000F07F0005F8010BE08D0028E4
:10168000CDD1202084F83A0084F838700020C4E7D7
:101690000220C2E72DE9F843044690F839001F46BE
:1016A00016460D46202850D1A5B19EB194F83800B9
:1016B00001284AD0012084F838004FF00008C4F80F
:1016C0003C80212084F83900FFF75CFBA68481462A
:1016D000E68426E00120BDE8F883E08C401EE0842B
:1016E000A0684B46B0F5805F4FF000024FF08001DC
:1016F0002046009703D000F0C1F9E8B90DE000F0F2
:10170000BDF9C8B928882168C0F30800486020697D
:1017100008B16D1C05E0AD1C03E0216815F8010B54
:101720004860E08C0028D8D14B460022402120465A
:10173000009700F0A3F908B10320CCE7202084F83B
:10174000390084F838800020C5E70220C3E7FEE7AF
:101750003EB50021144800910191124A02910260A5
:101760009215C0E90221416103244FF46022046113
:10177000C2614160FEF72CFF012002250090CDE9F7
:10178000010569460848FEF713FE009569460648BC
:101790000195FEF70DFE0094694603480194FEF79B
:1017A00007FE3EBD002401401800002070B586B041
:1017B000002420480094019402940394816941F02C
:1017C00010018161816901F010010491816941F08A
:1017D00020018161816901F020010491816941F05A
:1017E00004018161816901F004010491816941F082
:1017F000080181618069104E00F008004FF4005527
:101800000490002229463046FFF7B6FA0220CDE9BF
:10181000024000950125694601953046FFF7CEF953
:10182000CDE90054694605480294FFF7C7F906B0B0
:1018300070BD00000010024000100140000801408F
:10184000FEE770470907090E002806DA00F00F00CE
:1018500000F1E02080F8141D704700F1E02080F8CE
:101860000014704770477047FFF792BA30B593B0D5
:1018700028216846FEF76DFC14210AA8FEF769FCD2
:10188000002401200F9410941194010412948DE807
:1018900013000490CDE90814022507956846FFF768
:1018A00095FC0F200A90CDE90B540D9400210AA855
:1018B0000E94FFF77FFB0FA80F951194FFF704FB21
:1018C00013B030BD0D48016841F00101016041686D
:1018D0000B4A1140416001680A4A114001600168E9
:1018E00021F480210160416821F4FE0141604FF440
:1018F0001F0181600449C003086070470010024066
:101900000000FFF8FFFFF6FE08ED00E02DE9F041D2
:10191000044600680169E26821F440511143016105
:101920002169A0680843616908432168CA6841F2D7
:101930000C639A430243CA6020684169A26921F49A
:101940004071114341614C49206864253226884228
:101950003CD1FFF7F5FB00EBC00101EB0010616823
:101960008900B0FBF1F7FFF7EBFB00EBC00101EBE7
:1019700000106168B0468900B0FBF1F0B0FBF5F0F3
:101980006FF01801484307EB800106EB0110B0FB34
:10199000F5F000F0F006FFF7D3FB00EBC00101EB20
:1019A000001061688900B0FBF1F0B0FBF5F006EBC8
:1019B0000016FFF7C5FB00EBC00101EB00106168EA
:1019C0008900B0FBF1F7FFF7BBFB3BE0FFF7A8FB9B
:1019D00000EBC00101EB001061688900B0FBF1F77A
:1019E000FFF79EFB00EBC00101EB00106168B04601
:1019F0008900B0FBF1F0B0FBF5F06FF0180148433F
:101A000007EB800106EB0110B0FBF5F000F0F006EB
:101A1000FFF786FB00EBC00101EB00106168890055
:101A2000B0FBF1F0B0FBF5F006EB0016FFF778FB2A
:101A300000EBC00101EB001061688900B0FBF1F719
:101A4000FFF76EFB00EBC00101EB0010616889003D
:101A5000B0FBF1F0B0FBF5F06FF01801484307EB75
:101A6000800108EB0110B0FBF5F0216800F00F00D9
:101A700030448860BDE8F081003801402DE9F04134
:101A8000984617460E460446069D1DE0681C1BD06E
:101A90002DB1FFF777F9A0EB0800A84214D9206810
:101AA000C16821F4D071C1602068416921F0010151
:101AB0004161202084F8390084F83A00002084F83D
:101AC00038000320BDE8F0812068006836EA000095
:101AD00004D00020B842D9D00020F3E70120F9E774
:101AE00070B51E4C20680068800630D54FF4FA733C
:101AF0000A221B492046FFF771FD19480168C0F80A
:101B00000A104168C0F80E100189418215A10A30FF
:101B1000FEF72AFB154E012500B13570104814A1BF
:101B20000A30FEF721FB18B112A000F03DF8357025
:101B30000B4812A10A30FEF717FB40B111480368A9
:101B4000001F0268001F01680FA000F02DF8206838
:101B5000C16841F02001C16070BD00004800002054
:101B6000D800002068656C700000000000000020B4
:101B700068657900467520796F75000077686F6138
:101B80006D690000F0F7FF1F4A4F59535445414B10
:101B900020253038782D253038782D253038780DAF
:101BA0000A000000FEE700000FB4054B10B503A9C2
:101BB000044A029800F018F810BC5DF814FB00000D
:101BC0004D2000081400002002E008C8121F08C1C0
:101BD000002AFAD170477047002001E001C1121FAE
:101BE000002AFBD1704700002DE9FF4F8DB00F4652
:101BF0000546002606E025280BD0DDE90F129047A8
:101C00006D1C761C28780028F5D111B03046BDE84F
:101C1000F08F0024A246A1460122EC4900E00443D3
:101C200015F8013F203B02FA03F00842F7D128786B
:101C30002A2810D06FF02F022878A0F1300109294E
:101C400014D80AEB8A0102EB410144F0020400EBD4
:101C5000010A6D1CF0E701CF5FEA000A03D544F4E6
:101C60000054CAF1000A44F002046D1C28782E28A2
:101C700017D115F8010F44F004042A280ED06FF094
:101C80002F022878A0F1300109290AD809EB89012F
:101C900002EB410100EB01096D1CF2E757F8049BD0
:101CA0006D1C28786C280FD006DC4C2817D06828CB
:101CB0000DD06A2814D104E0742810D07A280FD1EE
:101CC0000DE044F400140AE044F4801401E044F40C
:101CD00040146978814202D104F580146D1C6D1C9A
:101CE0002A786E2A1FD00CDC632A31D004DC002A4B
:101CF0008BD0582A11D1A3E0642A68D0692A0CD16C
:101D000065E0732A2ED004DC6F2A73D0702A04D1C8
:101D10009BE0752A6FD0782A6ED01046DDE90F124D
:101D20009047761C50E1C4F30250022806D00328E5
:101D300009D0042801CF09D0066045E101CFF11791
:101D4000C0E9006140E101CF06803DE106703BE162
:101D500017F8040B8DF8000000208DF80100EB4609
:101D6000012003E057F804BB4FF0FF3061074FF04C
:101D7000000102D40DE008F10101884649450FDA5F
:101D80008045F8DB1BF808100029F4D108E008F1C1
:101D9000010188468142FADB1BF808100029F6D1C0
:101DA000DDE90F23AAEB08008146214600F036F951
:101DB000304400EB080604E0DDE90F121BF8010BCC
:101DC0009047B8F10108F7D221464846F7E00A21CA
:101DD000C4F302534FF0000B0891022B04D001CF43
:101DE000C117032B09D00AE0FF1D27F00707F7E80A
:101DF000020108E032E01FE020E000B2C117042B2E
:101E000001D140B2C117031E71F1000307DA4FF090
:101E1000000CD0EB0C006CEB01012D2302E023053C
:101E200004D52B238DF82430012303E0E30701D0F0
:101E30002023F7E7984658E00A2110E010210EE031
:101E400010204FF0000B08900CE010214FF0000B19
:101E500044F004044FF00809089103E008214FF012
:101E6000000B0891C4F30253022B04D001CF0021D0
:101E7000032B06D006E0FF1D27F00707F7E8020155
:101E800003E080B2042B00D1C0B24FF0000823075A
:101E90002BD5702A07D0DDF820C08CF0100C5CEA3E
:101EA0000B0C05D00EE040238DF82430012308E010
:101EB00050EA010306D030238DF824308DF8252018
:101EC00002239846DDF820C08CF0080C5CEA0B0C6D
:101ED0000BD150EA010301D1630706D530238DF8F9
:101EE00024304FF00108A9F10109582A04D038A282
:101EF0000B9208AA0A920BE03AA2F9E75B46089A0D
:101F0000FEF744F90B9B9B5C0A9A521E0A921370CF
:101F100050EA0102F2D10A98ADEB000000F1200B6B
:101F2000600702D524F4803401E04FF00109D9455F
:101F300002DDA9EB0B0000E0002000EB0B014144A7
:101F40000890AAEB010AE00306D4DDE90F2321463D
:101F5000504600F063F806444FF0000908E009A974
:101F600011F80900DDE90F12904709F10109761C0B
:101F7000C145F4DBE0030CD5DDE90F2321465046D3
:101F800000F04CF8064404E0DDE90F1230209047E1
:101F9000761C0899481E08900029F5DC08E00A988C
:101FA0000A990078491C0A91DDE90F129047761CC6
:101FB000BBF10001ABF1010BF1DC21465046DDE93C
:101FC0000F2300F019F806446D1C1BE609280100D8
:101FD000303132333435363738396162636465669F
:101FE0000000000030313233343536373839414261
:101FF00043444546000000002DE9F0410446002519
:102000001E461746880404D405E039462020B04710
:102010006D1C641EF9D52846BDE8F0812DE9F0411C
:10202000044600251E469046C80301D5302700E02F
:102030002027880404D505E041463846B0476D1C8A
:10204000641EF9D52846BDE8F081000013B54FF6AF
:10205000FF73012269460248FFF71CFB00981CBD74
:102060004800002008B5FEF79BFEFFF7FFFBFFF7D7
:102070009DFB2D48416941F0010141614069002209
:1020800000F00100009001210B20FEF7E5FE0B207F
:10209000FEF7D6FE264D2548002428604FF4165042
:1020A000C5E901040C20EC60C5E90440AC61284698
:1020B000EC61FFF721FAFFF74BFB2868C16841F09C
:1020C0002001C16005F140010322A1F17000FEF77B
:1020D0005FFBA5F13000FEF7E1FB164D6868C043D9
:1020E000800709D4FEF7EAFE286840F0080028605F
:1020F000286840F0080028600F4D4FF47A76287861
:1021000050B16888B04207D809483038FEF7C6FB9E
:102110006888401C6880F2E705486C802C70303875
:10212000FEF722FCEBE700000010024000380140FF
:102130004800002000700040000000200000000067
:102140000000000001020304060708090000000067
:1021500001020304742100080000002018000000A0
:10216000C81B00088C21000818000020D8040000BB
:10217000D81B000800000000010000001000000053
:0C2180000000000000A24A040000000063
:04000005080000ED02
:00000001FF
