:020000040800F2
:100000001805002001010008CB150008DD130008C9
:10001000C9150008B9010008091B0008000000000C
:100020000000000000000000000000000D160008A5
:10003000BB01000800000000ED1500080F160008C5
:100040001B0100081B0100081B0100081B01000820
:100050001B0100081B010008BD0100081B0100086E
:100060001B0100081B0100081B0100081B01000800
:100070001B0100081B0100081B0100081B010008F0
:100080001B0100081B0100081B0100081B010008E0
:100090001B0100081B0100081B0100081B010008D0
:1000A0001B0100081B0100081B0100081B010008C0
:1000B0001B0100081B0100081B0100081B010008B0
:1000C0001B0100081B0100081B0100081B010008A0
:1000D000F1150008FD1A00081B0100081B010008AB
:1000E0001B0100081B0100081B010008DFF80CD0F1
:1000F00000F02AF800480047291B000818050020D6
:100100000648804706480047FEE7FEE7FEE7FEE7B1
:10011000FEE7FEE7FEE7FEE7FEE7FEE76D160008F6
:10012000ED000008D2B201E000F8012B491EFBD21D
:1001300070470022F6E710B513460A4604461946F2
:10014000FFF7F0FF204610BD064C074D06E0E068C3
:1001500040F0010394E8070098471034AC42F6D30E
:10016000FFF7C8FFCC1B0008EC1B000870B5044665
:1001700000688168C943C9071CD1816821F0010169
:10018000816000F0A7FA05460FE000BF00F0A2FA78
:10019000401B022809D9A06A40F01000A062E06A62
:1001A00040F00100E062012070BD20688068C0431B
:1001B000C007EBD0002070BDFEE77047012000F0C3
:1001C00099B90000F8B50024009490F82420254641
:1001D000012A12D0012280F824204A681F23072A0E
:1001E0000DD20668776B521E02EB820293409F434A
:1001F0000B6893401F43776319E00220F8BD06683F
:100200000D2A0AD2376BD21F02EB820293409F4322
:100210000B6893401F43376309E0F76A0D3A02EB1E
:10022000820293409F430B6893401F43F7620A6822
:10023000072306680A2A0AD3F7680A3A02EB420241
:1002400093409F438B6893401F43F76008E03769F2
:1002500002EB420293409F438B6893401F433761F8
:100260000A68102A01D0112A20D1124B02689A4242
:1002700017D193681B0219D4936843F40003936069
:100280000968102912D10C490C4A0968B1FBF2F136
:1002900001EB8101490000E0491E00910029FBD1DA
:1002A00004E0816A41F020018162012480F8245039
:1002B0002046F8BD002401400C00002040420F0001
:1002C0002DE9F0414FF0000704003D467ED0A06AC2
:1002D000002628B9E66284F82460204600F07EF803
:1002E0002046FFF743FFA16AC90600D420B1A06AE7
:1002F00040F01000A06269E0A16A21F4885141F049
:100300000201A1626268E169E3680A4347EA4301C6
:100310000A43A1684FF48077B94209D0012907D078
:100320005FF00001D4F814C0BCF1010F02D00AE064
:100330003946F7E7F3B1A36A43F02003A362E36A07
:1003400043F00103E3622368D3F804C02CF4694C42
:100350004CEA010CC3F804C021688B68DFF870C058
:1003600003EA0C0313438B60A168B9420BD0012947
:1003700009D00CE0DFF85CC0A3690CEB43330B43FE
:1003800043F40061DFE7218A0D05A5F5801521689A
:10039000CB6A23F470032B43CB62216889680E4B30
:1003A0001940914208D1E662A16A21F0020141F0B0
:1003B0000101A162BDE8F081A06A20F0020040F0D6
:1003C0001000A062E06A40F00100E0620120F1E765
:1003D000FDF7E1FF00E0FFFFFE0E1FFF00B585B057
:1003E0000021009101910291039100680E49884219
:1003F00018D10E48816941F400718161816901F46D
:1004000000710491816941F004018161806969464C
:1004100000F00400049004200090032001900448A0
:1004200000F074F805B000BD002401400010024047
:100430000008014010B590F821100024022903D0D3
:100440000421816301243DE001680A6822F00E0264
:100450000A6001680A6822F001020A601A4A01680B
:10046000914201D1012121E0174A1432914201D178
:1004700010211BE0144A2832914201D1891515E060
:10048000114A3C32914201D189140FE00E4A503298
:10049000914202D14FF4803108E00B4A643291421C
:1004A00002D14FF4801101E04FF08071064A083A02
:1004B0005160012180F82110002180F82010416B4B
:1004C00001B18847204610BD0800024070B50446BF
:1004D00000F000F90546601C02D00448007804448E
:1004E00000F0F8F8401BA042FAD370BD00000020D5
:1004F00070470000044910B50A68024202D0086043
:10050000FFF7F6FF10BD0000140401402DE9F84F7D
:10051000DFF890A100220AF1040B144601274FF0E6
:100520000F090BF1040E00BF0B6807FA04F52B400E
:10053000AB4274D1DFF870C14E68A6EB0C0866457B
:100540002BD00DDC032E34D005DC36B3012E19D0B0
:10055000022E2FD11BE0112E16D0122E2AD119E017
:10056000B8F5881F19D006DCB8F5803F15D0B8F56E
:10057000801F1FD111E0B8F5001F0ED0B8F5041F81
:1005800018D10AE0CA6815E0CA68121D12E0CA68EC
:1005900008320FE0CA680C320CE08A682AB1012ADE
:1005A0004FF0080203D0456104E0042202E0056137
:1005B00000E00022FF2B01D8064601E000F104060E
:1005C0004FEA840501D9A5F12005D6F800C009FA43
:1005D00005F82CEA080C02FA05F54CEA050CC6F8F9
:1005E00000C04D68ED0057D5304DAE6946F00106AC
:1005F000AE61AD6924F0030605F0010500952C4DB0
:1006000006EB050CDCF80850A6074FEA167809FA45
:1006100008F6B543274EB04202D1002610E03BE079
:10062000254EB04201D101260AE0244EB04201D14C
:10063000022605E0224EB04201D1032600E0042646
:1006400006FA08F62E43CCF808604D68DAF8006028
:10065000ED03554601D51E4300E09E432E604D68D4
:10066000DBF80060AD035D4601D51E4300E09E430C
:100670002E604D68DEF80060ED02754601D51E4320
:1006800000E09E432E604D68AD020E4D2E6801D5F0
:100690001E4300E09E432E60641C102CFFF444AF08
:1006A000BDE8F88F00040140000011100010024066
:1006B0000000014000080140000C01400010014012
:1006C000001401400C0401400AB1016170470904A3
:1006D000FBE7000001488068704700000000002030
:1006E0000248816802781144816070470000002050
:1006F000074810B5016841F010010160032000F0C7
:1007000073F8002000F006F800F024F8002010BD77
:100710000020024070B50D4D04464FF47A712878E0
:10072000B1FBF0F00A490968B1FBF0F000F05EFCA3
:1007300048B9102C07D200222146501E00F034F890
:1007400000206C6070BD012070BD00000000002022
:100750000C0000200C4808B5816941F0010181615D
:10076000816901F001010091C16941F08051C161CD
:10077000C06900F0805000900448416821F0E061B9
:1007800041F00071416008BD0010024000000140CE
:1007900000F01F02012191404009800000F1E0209B
:1007A000C0F8001170470000F0B40E4B1B680C46F7
:1007B000C3F30223C3F10705042D00D90425191D35
:1007C000072901D2002300E0DB1E012606FA05F10D
:1007D000491E214099409E40761E16403143F0BC90
:1007E00000F0F4BE0CED00E0064900F007020868D6
:1007F0004FF6FF03184040EA0220034A1043086006
:10080000704700000CED00E00000FA052DE9F84308
:1008100005460078354CC00754D0E0690026C0007A
:1008200008D4E06940F08050E061E069012600F002
:10083000805000902E480168C90512D40168804696
:1008400041F480710160FFF745FF074605E000BFF6
:10085000FFF740FFC01B642823D8D8F80000C0056C
:10086000F6D5206A10F4407021D0A98801F44071B7
:1008700081421CD0206A1F49012220F440700A6086
:1008800000220A602062C00711D0FFF723FF07464D
:1008900041F2883808E000BFFFF71CFFC11B41454B
:1008A00002D90320BDE8F883206A8007F4D5206AC6
:1008B000696820F44070084320621EB1E06920F0AE
:1008C0008050E0612878800705D56068A96820F429
:1008D0004040084360602878C00605D56068E96834
:1008E00020F48000084360600020DBE70010024035
:1008F00000700040400442422DE9F047DFF8548187
:1009000005460E46D8F8000000F00700B0420CD2B1
:10091000D8F8001021F007013143C8F80010D8F8CA
:10092000000000F00700B0426FD128684A4C8107F0
:1009300012D5400703D5606840F4E0606060287815
:10094000000703D5606840F4605060606068A96883
:1009500020F0F000084360602878C00744D0686841
:10096000012816D02168022816D0890700294CDA00
:10097000616821F0030101436160FFF7ABFE696824
:10098000074641F2883001290ED00229814618D04D
:1009900026E021688903E9E78901E7E7FFF79AFE86
:1009A000C11B494501D918E081466068C0F3810048
:1009B0000128F3D118E000BFFFF78CFEC11B4945A9
:1009C0000BD86068C0F381000228F5D10CE000BFAD
:1009D000FFF780FEC11B494502D90320BDE8F0871F
:1009E000606810F00C0FF3D1D8F80010404601F009
:1009F0000701B1420BD9016821F0070131430160C1
:100A0000006800F00700B04201D00120E6E7287836
:100A1000400705D56068E96820F4E060084360603D
:100A20002878000706D56068296920F4605040EAFC
:100A3000C100606000F036F86168084AC1F3031134
:100A4000515CC840064908600020FFF763FE0020A3
:100A5000C4E700000020024000100240B41B000860
:100A60000C0000200448054900684968044AC1F3A5
:100A70000221515CC84070470C0000200010024069
:100A8000C41B00080448054900684968044AC1F3CA
:100A9000C221515CC84070470C0000200010024089
:100AA000C41B000813A185B00FC98DE80F0015A065
:100AB000154A00680490516801F00C00042804D025
:100AC000082804D0114805B070471148FBE7C1F36E
:100AD0008343C9031DF8030009D5516804AAC1F373
:100AE0004041515C0A4A5043B0FBF1F0EBE7094941
:100AF0004843E8E702030405060708090A0B0C0D42
:100B00000E0F1010010200000010024000127A00C7
:100B1000001BB70000093D002DE9F84F044600789E
:100B2000B94DC00748D06868C0F38100012807D0DC
:100B30006868C0F38100022809D16868C00306D53F
:100B40002868800338D5606800286FD034E060687A
:100B5000B0F5803F0BD010B1B0F5A02F11D02868B0
:100B600020F480302860286820F4802002E0286883
:100B700040F480302860606888B1FFF7ABFD06461E
:100B800009E0286840F480202860F0E7FFF7A2FD24
:100B9000801B642875D828688003F7D50CE0FFF720
:100BA00099FD064605E000BFFFF794FD801B642811
:100BB000F0D828688003F7D42078944E80074FF04F
:100BC00001094FF000083BD5686810F00C0F07D002
:100BD0006868C0F38100022809D16868C00306D4A0
:100BE0002868800714D5206901281FD110E02069EA
:100BF000B0B1C6F80090FFF76DFD074605E000BFF5
:100C0000FFF768FDC01B0228C4D828688007F7D505
:100C10002868616920F0F80040EAC10028600FE010
:100C2000C6F80080FFF756FD074606E0E9E000BF82
:100C3000FFF750FDC01B022823D828688007F7D48F
:100C4000207800072CD57248A169D9B1C0F800906E
:100C5000FFF740FD074604E0FFF73CFDC01B0228FC
:100C60000FD8686A8007F7D56A484FF4FA510068D0
:100C7000B0FBF1F0009000BF0098411E0091FAD245
:100C80000EE080E0C0F80080FFF724FD074604E096
:100C9000FFF720FDC01B022875D8686A8007F7D4CB
:100CA0002078400760D5E8690027C00008D4E869CB
:100CB00040F08050E861E869012700F08050009022
:100CC00055480168C90513D40168834641F4807111
:100CD0000160FFF7FFFC824606E000BFFFF7FAFC69
:100CE000A0EB0A0064284ED8DBF80000C005F5D55B
:100CF000E06801280AD008B1052813D0286A20F03E
:100D000001002862286A20F0040002E0286A40F00E
:100D100001002862E06841F2883B98B1FFF7DAFCF5
:100D200082460BE0286A40F004002862EEE700BF2C
:100D3000FFF7D0FCA0EB0A0159455AD8286A800772
:100D4000F6D50CE0FFF7C6FC824605E0FFF7C2FCD3
:100D5000A0EB0A0159454CD8286A8007F6D41FB188
:100D6000E86920F08050E861E06988B36968C1F300
:100D70008101022945D00228C6F8608004D0FFF71F
:100D8000A9FC044638E034E0FFF7A4FC074604E081
:100D9000FFF7A0FCC01B02282BD828688001F7D4DD
:100DA000206AB0F5803F05D16868A16820F4003062
:100DB00008436860D4E908010843696821F47411A4
:100DC00008436860C6F86090FFF784FC044606E0BC
:100DD00015E000BFFFF77EFC001B022809D8286839
:100DE0008001F7D50BE000BFFFF774FC001B022861
:100DF00002D90320BDE8F88F28688001F4D40020D0
:100E0000F8E70120F6E7000000100240000042422F
:100E1000800442420C000020007000407047000037
:100E200038B504460068426881684B0605D4CB0794
:100E300003D0530601D5216C04E08B0707D51306B8
:100E400005D5616C01B02046BDE83040084711F07F
:100E5000600F3FD093063DD54B060AD594F851302C
:100E6000032B34D0636D43F004036365C368836868
:100E70000093890609D5616D41F0010161658168C2
:100E80000091016821F040010160606D002821D0CF
:100E90002068416821F0E0014160012084F85100A0
:100EA000900718D02068416821F0030141600C4D83
:100EB000E06C18B14563E06CFFF7BCFAA06C002849
:100EC00008D04563A06CBDE83840FFF7B3BAC168ED
:100ED0008068009038BD2046FFF7A0FF38BD0000B5
:100EE000FD15000870B5040005D00025A56294F832
:100EF000510010B104E0012070BD204600F034F82C
:100F0000022084F851002068016821F0400101604E
:100F1000D4E901010843D4E903121143084361698C
:100F20000843218B01F400710843E1690843216AF9
:100F30000843A16A084321680860A069042101EA06
:100F40001040616A0843216848602168E06A0861CE
:100F50002068C16921F40061C1616565012084F8E0
:100F60005100002070BD000030B585B00024009411
:100F70000194029403940068194988422DD11948BC
:100F8000C16941F48041C161C16901F480410491AA
:100F9000816941F0080181618069134D00F008000A
:100FA00004904FF420400090022001900320039011
:100FB00069462846FFF7AAFA4FF48040CDE90004BD
:100FC000694628460294FFF7A1FA00220321242053
:100FD000FFF7EAFB2420FFF7DBFB05B030BD000084
:100FE0000038004000100240000C014010B5401EC7
:100FF000B0F1807F01D3012010BD4FF0E02460618B
:101000000F21601700F0E2FA0020A06107202061A4
:10101000002010BD30B590F83C20012A20D00122DC
:1010200080F83C20022380F83D3003685C6824F09F
:1010300070045C6003685C680D682C435C60036846
:101040009C6824F080049C6003689C6849680C4399
:101050009C6080F83D20002180F83C10084630BD9F
:10106000022030BD00B585B00021009101910291B0
:10107000039100680B49884212D10B48816941F005
:10108000080181618069694600F0080004904FF40E
:10109000E07000900220019003900448FFF736FAB8
:1010A00005B000BD0008004000100240000C0140E7
:1010B00070B5044690F83C000D4601280DD001267D
:1010C00084F83C60022084F83D0042B1042A18D024
:1010D000082A2AD00C2A4DD139E0022070BD2068A0
:1010E00000F01EFB2068816941F0080181612068E1
:1010F000816921F004018161206881692A691143B5
:1011000011E0206800F034FB2068816941F400613F
:1011100081612068816921F4806181612068816931
:101120002A6941EA0221816124E0206800F04CFB39
:101130002068C16941F00801C1612068C16921F0DE
:101140000401C1612068C1692A69114311E0206866
:1011500000F066FB2068C16941F40061C16120684C
:10116000C16921F48061C1612068C1692A6941EACD
:101170000221C16184F83D60002084F83C0070BD0C
:1011800010B5040003D094F83D0010B107E0012031
:1011900010BD002084F83C00204600F00DF802202D
:1011A00084F83D00211D206800F084FA012084F8B5
:1011B0003D00002010BD000008B5006806498842C7
:1011C00008D10648C16941F00401C161C06900F05D
:1011D0000400009008BD000000080040001002401C
:1011E0007047000070B5026804461068D168536902
:1011F00010F00F0F50D003F0010501F49076354345
:101200005DD0C20705D0CA0503D5E26B42F00102EA
:10121000E263420705D5DA0703D0E26B42F002022F
:10122000E263820705D5DA0703D0E26B42F00402DD
:10123000E263020705D5DA0703D0E26B42F0080249
:10124000E263E26B002A33D0800604D5880602D51B
:10125000204600F01DFB20684069E16BC0F3801060
:10126000090700D428B3204600F004FB2068416938
:1012700049061AD5416921F040014161606BA0B176
:101280001B494163606BFFF7D5F8002810D0606BF5
:10129000416BBDE870400847830610D58B060ED51C
:1012A0002046BDE8704000F0F3BA2046FFF798FFF3
:1012B00070BD2046FFF794FF0020E06370BD030679
:1012C00006D50B0604D52046BDE8704000F0E4BB0F
:1012D0004006F3D54806F1D5D168204621F04001FB
:1012E000D160202184F8391000F077F870BD00003B
:1012F0006518000870B5040004D094F83900002582
:1013000010B106E0012070BD84F83850204600F08E
:1013100023F8242084F839002068C16821F40051A2
:10132000C160204600F000FB2068016921F4904173
:1013300001612068416921F02A0141612068C1688A
:1013400041F40051C160E563202084F8390084F83D
:101350003A00002070BD000030B585B00024009434
:101360000194029403940068184988422CD11848CB
:10137000816941F480418161816901F48041049176
:10138000816941F0040181618069124D00F004001F
:1013900004904FF40070009002200190032003900D
:1013A00069462846FFF7B2F82815CDE900046946DA
:1013B00028460294FFF7AAF8002203212520FFF710
:1013C000F3F92520FFF7E4F905B030BD00380140FE
:1013D000001002400008014070477047FEE700001F
:1013E0003EB500240D480094019402948460C460CA
:1013F000094944610160012505614FF460214460A1
:10140000C161FEF75DFF0220CDE900056946029447
:101410000248FEF7D7FE3EBD002401401000002028
:101420002DE9F04786B000243948009401940294D5
:101430000394816941F010018161816901F010011B
:101440000491816941F020018161816901F02001ED
:101450000491816941F004018161816901F0040115
:101460000491816941F0080181618069DFF8A480FD
:1014700000F008004FF40055049000222946404631
:10148000FFF722F9DFF89090002298214846FFF7F5
:101490001BF9DFF888A06F10002239465046FFF78D
:1014A00013F90095022601250396CDE901546946FA
:1014B0004046FFF72BF81A480095CDE9010469462C
:1014C0004846FFF723F89820CDE90005CDE902460C
:1014D00069464846FFF71AF82020CDE9000469461E
:1014E00048460294FFF712F800970396CDE901549D
:1014F00069465046FFF70AF8002201210620FFF74F
:1015000053F90620FFF744F906B0BDE8F087000064
:10151000001002400010014000080140000C014092
:10152000000011100C480B494FF4007201604FF499
:101530008271416000218160C1600161C0E90512D2
:101540001022C0E90721416281620A21C162FFF7CE
:10155000C9BC0000003800404000002010B58AB02F
:10156000002407941C2168460894FEF7E2FD154804
:101570001349C0E900148460C46004618461FFF70A
:10158000FFFD079407A90F480894FFF743FD60206B
:10159000CDE900040294002269460A480494FFF74A
:1015A00087FD042269460748FFF782FD0822694645
:1015B0000448FFF77DFD0348FFF754FD0AB010BD56
:1015C0000008004098000020FEE770470907090E58
:1015D000002806DA00F00F0000F1E02080F8141D6A
:1015E000704700F1E02080F8001470477047000059
:1015F0000148FFF715BC00004000002010B5406A0C
:101600000021C187C186FFF709FC10BD7047FFF7B5
:1016100067B830B593B028216846FEF78AFD1421DB
:101620000AA8FEF786FD0024022501200F940490ED
:101630000095102005901294C003CDE90840119444
:10164000109407956846FFF767FA0F200A90CDE9D6
:101650000B540D9400210AA80E94FFF74DF90FA822
:101660000F951194FFF7D2F813B030BD0D48016803
:1016700041F00101016041680B4A1140416001687D
:101680000A4A11400160016821F48021016041682B
:1016900021F4FE0141604FF41F0181600449C00341
:1016A00008607047001002400000FFF8FFFFF6FEE0
:1016B00008ED00E0F0B50268164B174C174D4FF0DF
:1016C0008047984205D0B84203D0A04201D0A8423A
:1016D00003D122F070064A683243984205D0B842DE
:1016E00003D0A04201D0A84203D122F44074CA68BA
:1016F000224322F080044A69224302608A68C2625F
:101700000A688262984201D109690163012141613D
:10171000F0BD0000002C0140000400400008004023
:1017200030B5026A22F001020262026A43688469EB
:1017300024F073050C682C4322F002058A682A43C2
:101740000A4DA8420BD122F00805CA6823F4407361
:101750002A434D6922F004021D438B692B434360E9
:10176000846149684163026230BD0000002C014081
:1017700030B5026A22F010020262026A436884698C
:101780000D6824F4E64444EA05248D6822F0200222
:1017900042EA05120B4DA8420ED1CD6822F080021C
:1017A00042EA05124D6923F4406343EA85038D69DB
:1017B00022F0400243EA8503436084614968816303
:1017C000026230BD002C014030B5026A22F4807202
:1017D0000262036A4268C46923F4007324F073054B
:1017E0000C682C438D6843EA05230C4DA8420ED1AA
:1017F000CD6823F4006343EA05234D6922F4405287
:1018000042EA05128D6923F4806342EA05124260C0
:10181000C4614968C163036230BD0000002C01400F
:1018200030B5026A22F480520262046A4268C369D7
:101830000D6823F4E64343EA05238D6824F400543D
:1018400044EA0534064DA84204D14D6922F4804291
:1018500042EA85124260C36149680164046230BD96
:10186000002C014010B5406A0021C185C184FFF7FA
:10187000B7FC10BD0168CA6822F49072CA600168A2
:101880004A6922F001024A61202180F83A1070472B
:1018900010B590F83A10222901D0022010BD8168BD
:1018A000B1F5805F11D00169002901681FD0496836
:1018B00001F07F03816A4A1C82620B70C18D491E50
:1018C0000904090CC18518D02BE00269816A002A3D
:1018D0000268526805D0D2B20A80816A491C8162CE
:1018E000ECE7C2F308020A80816A891CF7E74A68BC
:1018F000816A4B1C83620A70E0E70168CA6822F0C3
:101900002002CA600168CA6822F48072CA60016855
:101910004A6922F001024A61202180F83A10FFF75B
:101920005BFD002010BD00002DE9F0410446006879
:101930000169E26821F44051114301612169A06805
:101940000843616908432168CA6841F20C639A43FD
:101950000243CA6020684169A26921F440711143C1
:1019600041614C4920686425322688423CD1FFF70A
:1019700089F800EBC00101EB001061688900B0FB41
:10198000F1F7FFF77FF800EBC00101EB0010616891
:10199000B0468900B0FBF1F0B0FBF5F06FF0180134
:1019A000484307EB800106EB0110B0FBF5F000F0B7
:1019B000F006FFF767F800EBC00101EB001061686B
:1019C0008900B0FBF1F0B0FBF5F006EB0016FFF775
:1019D00059F800EBC00101EB001061688900B0FB11
:1019E000F1F7FFF74FF83BE0FFF73CF800EBC001E1
:1019F00001EB001061688900B0FBF1F7FFF732F8E6
:101A000000EBC00101EB00106168B0468900B0FB3B
:101A1000F1F0B0FBF5F06FF01801484307EB8001DF
:101A200006EB0110B0FBF5F000F0F006FFF71AF836
:101A300000EBC00101EB001061688900B0FBF1F020
:101A4000B0FBF5F006EB0016FFF70CF800EBC00159
:101A500001EB001061688900B0FBF1F7FFF702F8B5
:101A600000EBC00101EB001061688900B0FBF1F0F0
:101A7000B0FBF5F06FF01801484307EB800108EB6D
:101A80000110B0FBF5F0216800F00F0030448860D1
:101A9000BDE8F0810038014090F83910212901D0CB
:101AA000022070478168B1F5805F016A0BD04A1C43
:101AB0000262026809785160C18C491E0904090C50
:101AC000C1840ED017E009880268C1F30801516093
:101AD00001690029016A02D0491C0162ECE7891CF6
:101AE000FBE70168CA6822F08002CA600068C1682A
:101AF00041F04001C1600020704700000148FFF73D
:101B000071BB0000D8000020FEE702E008C8121FE9
:101B100008C1002AFAD170477047002001E001C1D6
:101B2000121F002AFBD17047FEF7E2FDFFF771FD9F
:101B3000FFF776FC1D481C490C2201604FF4E1318F
:101B4000416000218160C160C0E904128161C1610E
:101B5000FFF7D0FBFFF744FCFFF7E4FCFFF7FEFCC8
:101B6000134D4FF47A74012208212846FEF7ACFD8C
:101B70002046FEF7ABFC012210212846FEF7A4FD0B
:101B80002046FEF7A3FC002208212846FEF79CFD14
:101B90002046FEF79BFC002210212846FEF794FD0C
:101BA0002046FEF793FCDEE700380140D800002015
:101BB00000080140000000000000000001020304D2
:101BC000060708090000000001020304EC1B0008DE
:101BD00000000020100000000A1B0008FC1B000889
:101BE00010000020080500001A1B0008010000007A
:0C1BF000100000000000000000A24A04E9
:04000005080000ED02
:00000001FF
