:020000040800F2
:10000000D004002001010008671100084B1000080F
:100010006511000899010008E115000800000000C2
:100020000000000000000000000000004112000875
:100030009B0100080000000089110008431200081D
:100040001B0100081B0100081B0100081B01000820
:100050001B0100081B0100089D0100081B0100088E
:100060001B0100081B0100081B0100081B01000800
:100070001B0100081B0100081B0100081B010008F0
:100080001B0100081B0100081B0100081B010008E0
:100090001B0100081B0100081B010008A301000848
:1000A0001B0100081B0100081B0100081B010008C0
:1000B0001B0100081B0100081B0100081B010008B0
:1000C0001B0100081B0100081B0100081B010008A0
:1000D0001B010008D51500081B0100081B010008C2
:1000E0001B0100081B0100081B010008DFF80CD0F1
:1000F00000F040F80048004791170008D0040020A5
:100100000648804706480047FEE7FEE7FEE7FEE7B1
:10011000FEE7FEE7FEE7FEE7FEE7FEE791120008D6
:10012000ED000008D2B201E000F8012B491EFBD21D
:1001300070470022F6E710B513460A4604461946F2
:10014000FFF7F0FF204610BD30B50B4601460020FA
:100150002022012409E021FA02F59D4205D303FA89
:1001600002F5491B04FA02F52844151EA2F101020A
:10017000F1DC30BD064C074D06E0E06840F00103BD
:1001800094E8070098471034AC42F6D3FFF7B2FF6B
:10019000841D0008A41D0008FEE77047012000F040
:1001A00063B8802000F060B810B590F821100024EA
:1001B000022903D00421816301243DE001680A681B
:1001C00022F00E020A6001680A6822F001020A6049
:1001D0001A4A0168914201D1012121E0174A1432E3
:1001E000914201D110211BE0144A2832914201D1E1
:1001F000891515E0114A3C32914201D189140FE072
:100200000E4A5032914202D14FF4803108E00B4A3D
:100210006432914202D14FF4801101E04FF08071BD
:10022000064A083A5160012180F82110002180F827
:100230002010416B01B18847204610BD08000240E4
:1002400070B5044600F000F90546601C02D0044871
:100250000078044400F0F8F8401BA042FAD370BDC7
:100260000400002070470000044910B50A680242EB
:1002700002D00860FFF7F6FF10BD00001404014033
:100280002DE9F84FDFF890A100220AF1040B144683
:1002900001274FF00F090BF1040E00BF0B6807FA9E
:1002A00004F52B40AB4274D1DFF870C14E68A6EB69
:1002B0000C0866452BD00DDC032E34D005DC36B39C
:1002C000012E19D0022E2FD11BE0112E16D0122E86
:1002D0002AD119E0B8F5881F19D006DCB8F5803F9F
:1002E00015D0B8F5801F1FD111E0B8F5001F0ED052
:1002F000B8F5041F18D10AE0CA6815E0CA68121DD3
:1003000012E0CA6808320FE0CA680C320CE08A6852
:100310002AB1012A4FF0080203D0456104E004220B
:1003200002E0056100E00022FF2B01D8064601E053
:1003300000F104064FEA840501D9A5F12005D6F89D
:1003400000C009FA05F82CEA080C02FA05F54CEA97
:10035000050CC6F800C04D68ED0057D5304DAE69AC
:1003600046F00106AE61AD6924F0030605F0010513
:1003700000952C4D06EB050CDCF80850A6074FEA5B
:10038000167809FA08F6B543274EB04202D1002686
:1003900010E03BE0254EB04201D101260AE0244E98
:1003A000B04201D1022605E0224EB04201D103261F
:1003B00000E0042606FA08F62E43CCF808604D68E3
:1003C000DAF80060ED03554601D51E4300E09E4378
:1003D0002E604D68DBF80060AD035D4601D51E431D
:1003E00000E09E432E604D68DEF80060ED02754629
:1003F00001D51E4300E09E432E604D68AD020E4DB8
:100400002E6801D51E4300E09E432E60641C102C14
:10041000FFF444AFBDE8F88F000401400000111064
:10042000001002400000014000080140000C0140A3
:1004300000100140001401400C0401400AB10161A8
:1004400070470904FBE7000001488068704700001E
:1004500004000020024881680278114481607047DE
:1004600004000020074810B5016841F01001016048
:10047000032000F073F8002000F006F800F024F8E4
:10048000002010BD0020024070B50D4D04464FF411
:100490007A712878B1FBF0F00A490968B1FBF0F0F5
:1004A00000F064FC48B9102C07D200222146501EEF
:1004B00000F034F800206C6070BD012070BD0000B9
:1004C00004000020100000200C4808B5816941F0AC
:1004D00001018161816901F001010091C16941F06F
:1004E0008051C161C06900F08050009004484168AB
:1004F00021F0E06141F00071416008BD0010024050
:100500000000014000F01F020121914040098000DD
:1005100000F1E020C0F8001170470000F0B40E4B6D
:100520001B680C46C3F30223C3F10705042D00D951
:100530000425191D072901D2002300E0DB1E012636
:1005400006FA05F1491E214099409E40761E16404C
:100550003143F0BC00F008BE0CED00E0064900F0AD
:10056000070208684FF6FF03184040EA0220034ADA
:1005700010430860704700000CED00E00000FA0531
:100580002DE9F047DFF8548105460E46D8F8000003
:1005900000F00700B0420CD2D8F8001021F007019B
:1005A0003143C8F80010D8F8000000F00700B0424E
:1005B0006FD128684A4C810712D5400703D560687F
:1005C00040F4E06060602878000703D5606840F47C
:1005D000605060606068A96820F0F00008436060C7
:1005E0002878C00744D06868012816D021680228FE
:1005F00016D0890700294CDA616821F00301014314
:100600006160FFF721FF6968074641F288300129E0
:100610000ED00229814618D026E021688903E9E737
:100620008901E7E7FFF710FFC11B494501D918E031
:1006300081466068C0F381000128F3D118E000BF53
:10064000FFF702FFC11B49450BD86068C0F381006A
:100650000228F5D10CE000BFFFF7F6FEC11B4945AB
:1006600002D90320BDE8F087606810F00C0FF3D1C9
:10067000D8F80010404601F00701B1420BD90168DB
:1006800021F0070131430160006800F00700B0422B
:1006900001D00120E6E72878400705D56068E968C1
:1006A00020F4E060084360602878000706D56068A1
:1006B000296920F4605040EAC100606000F036F81B
:1006C0006168084AC1F30311515CC84006490860DB
:1006D0000020FFF7D9FE0020C4E700000020024000
:1006E000001002406B1D000810000020044805495E
:1006F00000684968044AC1F30221515CC840704750
:1007000010000020001002407B1D0008044805492D
:1007100000684968044AC1F3C221515CC84070476F
:1007200010000020001002407B1D000812A185B0BF
:100730000FC98DE80F0014A0144A00680490516896
:10074000134801F00C03042B10D0082B0ED1C1F379
:100750008343C9031DF803000AD5516804AAC1F3F5
:100760004041515C0A4A5043B0FBF1F005B070477C
:1007700008494843FAE70000020304050607080990
:100780000A0B0C0D0E0F10100102000000100240A9
:1007900000127A0000093D002DE9F84F0446007868
:1007A000B94DC00748D06868C0F38100012807D060
:1007B0006868C0F38100022809D16868C00306D5C3
:1007C0002868800338D5606800286FD034E06068FE
:1007D000B0F5803F0BD010B1B0F5A02F11D0286834
:1007E00020F480302860286820F4802002E0286807
:1007F00040F480302860606888B1FFF725FE064627
:1008000009E0286840F480202860F0E7FFF71CFE2C
:10081000801B642875D828688003F7D50CE0FFF7A3
:1008200013FE064605E000BFFFF70EFE801B64289E
:10083000F0D828688003F7D42078944E80074FF0D2
:1008400001094FF000083BD5686810F00C0F07D085
:100850006868C0F38100022809D16868C00306D423
:100860002868800714D5206901281FD110E020696D
:10087000B0B1C6F80090FFF7E7FD074605E000BFFE
:10088000FFF7E2FDC01B0228C4D828688007F7D50F
:100890002868616920F0F80040EAC10028600FE094
:1008A000C6F80080FFF7D0FD074606E0E9E000BF8C
:1008B000FFF7CAFDC01B022823D828688007F7D499
:1008C000207800072CD57248A169D9B1C0F80090F2
:1008D000FFF7BAFD074604E0FFF7B6FDC01B02288C
:1008E0000FD8686A8007F7D56A484FF4FA51006854
:1008F000B0FBF1F0009000BF0098411E0091FAD2C9
:100900000EE080E0C0F80080FFF79EFD074604E09F
:10091000FFF79AFDC01B022875D8686A8007F7D4D4
:100920002078400760D5E8690027C00008D4E8694E
:1009300040F08050E861E869012700F080500090A5
:1009400055480168C90513D40168834641F4807194
:100950000160FFF779FD824606E000BFFFF774FDF6
:10096000A0EB0A0064284ED8DBF80000C005F5D5DE
:10097000E06801280AD008B1052813D0286A20F0C1
:1009800001002862286A20F0040002E0286A40F092
:1009900001002862E06841F2883B98B1FFF754FDFE
:1009A00082460BE0286A40F004002862EEE700BFB0
:1009B000FFF74AFDA0EB0A0159455AD8286A80077B
:1009C000F6D50CE0FFF740FD824605E0FFF73CFD61
:1009D000A0EB0A0159454CD8286A8007F6D41FB10C
:1009E000E86920F08050E861E06988B36968C1F384
:1009F0008101022945D00228C6F8608004D0FFF7A3
:100A000023FD044638E034E0FFF71EFD074604E00E
:100A1000FFF71AFDC01B02282BD828688001F7D4E5
:100A2000206AB0F5803F05D16868A16820F40030E5
:100A300008436860D4E908010843696821F4741127
:100A400008436860C6F86090FFF7FEFC044606E0C5
:100A500015E000BFFFF7F8FC001B022809D8286842
:100A60008001F7D50BE000BFFFF7EEFC001B02286A
:100A700002D90320BDE8F88F28688001F4D4002053
:100A8000F8E70120F6E700000010024000004242B3
:100A900080044242100000200070004070B5040045
:100AA00005D00025A56294F8510010B104E00120A2
:100AB00070BD204600F034F8022084F85100206810
:100AC000016821F040010160D4E901010843D4E943
:100AD00003121143084361690843218B01F400713B
:100AE0000843E1690843216A0843A16A0843216871
:100AF0000860A069042101EA1040616A0843216886
:100B000048602168E06A08612068C16921F40061D9
:100B1000C1616565012084F85100002070BD0000AE
:100B200030B585B0002400940194029403940068C9
:100B30001549884225D11548C16941F48041C161F8
:100B4000C16901F480410491816941F0080181612A
:100B500080690F4D00F0080004904FF42040009091
:100B6000022001900320039069462846FFF788FB86
:100B70004FF48040CDE90004694628460294FFF70F
:100B80007FFB05B030BD000000380040001002407F
:100B9000000C01402DE9F84F044690F85000002663
:100BA0000A9F9A4693460D464FF0010801280ED041
:100BB000012084F85000FFF747FC814694F851006B
:100BC000616801280CD0B1F5827F07D102E00220D4
:100BD000BDE8F88FA16809B9042801D00226BDE05C
:100BE00055B1BBF1000F07D0BAF1000F04D094F853
:100BF0005100012802D004E00126AFE0052084F86E
:100C0000510000206065C4F838B0A4F83EA0A4F8F4
:100C10003CA02563A4F836A0A4F834A02064606446
:100C200020680168490603D4016841F04001016071
:100C3000E068B0F5006F606804D0E8B3E08E01288A
:100C40003BD06AE010B1E08E01282ED1216835F842
:100C5000020BC860E08E401EE08626E0B8F1000F6F
:100C60000DD0E08E58B120688168890707D535F826
:100C7000021BC160E08E401EE0864FF00008E08F4E
:100C800058B120688168C90707D0C0682BF8020BEB
:100C9000E08F401EE0874FF00108781C05D0FFF779
:100CA000D3FBA0EB0900B84246D2E08E0028D5D194
:100CB000E08F0028D2D136E0FFE7216815F8010B5C
:100CC0000873E08E401EE08627E000BFB8F1000FF9
:100CD0000DD0E08E58B120688168890707D515F8D6
:100CE000011B0173E08E401EE0864FF00008E08F8C
:100CF00058B120688168C90707D0C0680BF8010B9C
:100D0000E08F401EE0874FF00108781C05D0FFF708
:100D10009BFBA0EB0900B8420ED2E08E0028D5D193
:100D2000E08F0028D2D13B46012202212046CDF897
:100D3000009000F03AFA08B103260FE04A4639461F
:100D4000204600F022FA18B101262020606505E057
:100D5000A06818B92068C16880680090012084F8F4
:100D60005100002084F85000304631E710B5401E95
:100D7000B0F1807F01D3012010BD4FF0E02460610D
:100D80000F21601700F0F0F90020A061072020611A
:100D9000002010BD7047000070B50268044610685E
:100DA000D168536910F00F0F50D003F0010501F422
:100DB000907635435DD0C20705D0CA0503D5E26BF6
:100DC00042F00102E263420705D5DA0703D0E26B85
:100DD00042F00202E263820705D5DA0703D0E26B34
:100DE00042F00402E263020705D5DA0703D0E26BA2
:100DF00042F00802E263E26B002A33D0800604D599
:100E0000880602D5204600F07DFA20684069E16B33
:100E1000C0F38010090700D428B3204600F064FA1C
:100E20002068416949061AD5416921F040014161B4
:100E3000606BA0B11B494163606BFFF7B5F90028F7
:100E400010D0606B416BBDE870400847830610D539
:100E50008B060ED52046BDE8704000F053BA204600
:100E6000FFF798FF70BD2046FFF794FF0020E06376
:100E700070BD030606D50B0604D52046BDE87040BC
:100E800000F044BB4006F3D54806F1D5D1682046B2
:100E900021F04001D160202184F8391000F0D4F80D
:100EA00070BD0000D912000870B5040004D094F899
:100EB0003900002510B106E0012070BD84F83850DB
:100EC000204600F023F8242084F839002068C16807
:100ED00021F40051C160204600F060FA20680169E9
:100EE00021F4904101612068416921F02A014161AA
:100EF0002068C16841F40051C160E563202084F896
:100F0000390084F83A00002070BD000030B585B08B
:100F100000240094019402940394006818498842C4
:100F20002CD11848816941F480418161816901F4C3
:100F300080410491816941F0040181618069124D11
:100F400000F0040004904FF4007000900220019023
:100F50000320039069462846FFF792F92815CDE94A
:100F60000004694628460294FFF78AF9002202210C
:100F70002520FFF7D3FA2520FFF7C4FA05B030BDCE
:100F800000380140001002400008014070472DE980
:100F9000F843044690F839001F4616460D462028AF
:100FA00050D1A5B19EB194F8380001284AD0012053
:100FB00084F838004FF00008C4F83C80212084F801
:100FC0003900FFF741FAA6848146E68426E0012035
:100FD000BDE8F883E08C401EE084A0684B46B0F585
:100FE000805F4FF000024FF080012046009703D051
:100FF00000F0BDFAE8B90DE000F0B9FAC8B92888E8
:101000002168C0F308004860206908B16D1C05E044
:10101000AD1C03E0216815F8010B4860E08C002846
:10102000D8D14B46002240212046009700F09FFA7D
:1010300008B10320CCE7202084F8390084F83880F8
:101040000020C5E70220C3E77047FEE72DE9F04125
:1010500086B000243148009401940294039481697D
:1010600041F010018161816901F0100104918169F1
:1010700041F020018161816901F0200104918169C1
:1010800041F004018161816901F0040104918169E9
:1010900041F0080181618069214F00F008004FF4A0
:1010A00000550490002229463846FFF7C7F9DFF8BB
:1010B0007480002260214046FFF7C0F900950226A7
:1010C00001250396CDE9015469463846FFF7D8F863
:1010D000812000901448CDE9010469464046FFF79D
:1010E000CFF86020CDE90005CDE9024669464046CB
:1010F000FFF7C6F8002201210620FFF70FFA0620AD
:10110000FFF700FA002201211720FFF707FA172046
:10111000FFF7F8F906B0BDE8F081000000100240CA
:101120000010014000080140000011100C480B495C
:101130004FF4007201604FF48271416000218160C0
:10114000C1600161C0E905121022C0E907214162B6
:1011500081620A21C162FFF7A1BC00000038004093
:1011600018000020FEE770470907090E002806DA7C
:1011700000F00F0000F1E02080F8141D704700F12E
:10118000E02080F800147047704738B50B46009295
:1011900004460022802100F008F8002804D0606D89
:1011A00040F020006065032038BD2DE9F0411D4668
:1011B00017460E460446DDF8188035E0681C33D02B
:1011C0002DB1FFF741F9A0EB0800A8422CD320680D
:1011D000416821F0E00141606068B0F5827F0BD189
:1011E000A068B0F5004F02D0B0F5806F04D1206840
:1011F000016821F040010160A06AB0F5005F0AD1EA
:10120000206801684DF6FF72114001602068016896
:1012100041F400510160012084F85100002084F85D
:1012200050000320BDE8F0812068806836EA0000A5
:1012300004D00020B842C1D10020F3E70120F9E733
:101240007047FFF707B930B58FB028216846FEF721
:1012500070FF14210AA8FEF76CFF01210804002486
:101260000491CDE90010CDE9080402940225079508
:101270006846FFF791FA0F200A90CDE90B540D94C0
:1012800000210AA80E94FFF77BF90FB030BD0000D3
:101290000D48016841F00101016041680B4A1140AD
:1012A000416001680A4A11400160016821F480210F
:1012B0000160416821F4FE0141604FF41F0181602B
:1012C0000449C00308607047001002400000FFF8A6
:1012D000FFFFF6FE08ED00E010B5406A0021C18571
:1012E000C184FFF757FD10BD0168CA6822F49072EF
:1012F000CA6001684A6922F001024A61202180F82F
:101300003A10704710B590F83A10222901D0022007
:1013100010BD8168B1F5805F11D0016900290168B5
:101320001FD0496801F07F03816A4A1C82620B70FA
:10133000C18D491E0904090CC18518D02BE0026932
:10134000816A002A0268526805D0D2B20A80816A96
:10135000491C8162ECE7C2F308020A80816A891C99
:10136000F7E74A68816A4B1C83620A70E0E701680C
:10137000CA6822F02002CA600168CA6822F480723A
:10138000CA6001684A6922F001024A61202180F89E
:101390003A10FFF7FBFD002010BD00002DE9F041E1
:1013A000044600680169E26821F44051114301617B
:1013B0002169A0680843616908432168CA6841F24D
:1013C0000C639A430243CA6020684169A26921F410
:1013D0004071114341614C4920686425322688429E
:1013E0003CD1FFF793F900EBC00101EB00106168FD
:1013F0008900B0FBF1F7FFF789F900EBC00101EBC1
:1014000000106168B0468900B0FBF1F0B0FBF5F068
:101410006FF01801484307EB800106EB0110B0FBA9
:10142000F5F000F0F006FFF771F900EBC00101EBF9
:10143000001061688900B0FBF1F0B0FBF5F006EB3D
:101440000016FFF763F900EBC00101EB00106168C3
:101450008900B0FBF1F7FFF759F93BE0FFF746F9D8
:1014600000EBC00101EB001061688900B0FBF1F7EF
:10147000FFF73CF900EBC00101EB00106168B046DA
:101480008900B0FBF1F0B0FBF5F06FF018014843B4
:1014900007EB800106EB0110B0FBF5F000F0F00661
:1014A000FFF724F900EBC00101EB0010616889002F
:1014B000B0FBF1F0B0FBF5F006EB0016FFF716F904
:1014C00000EBC00101EB001061688900B0FBF1F78F
:1014D000FFF70CF900EBC00101EB00106168890017
:1014E000B0FBF1F0B0FBF5F06FF01801484307EBEB
:1014F000800108EB0110B0FBF5F0216800F00F004F
:1015000030448860BDE8F0810038014090F839101F
:10151000212901D0022070478168B1F5805F016AFE
:101520000BD04A1C0262026809785160C18C491EC6
:101530000904090CC1840ED017E009880268C1F3C0
:101540000801516001690029016A02D0491C016249
:10155000ECE7891CFBE70168CA6822F08002CA60D8
:101560000068C16841F04001C160002070472DE96A
:10157000F041984617460E460446069D1DE0681C3D
:101580001BD02DB1FEF760FFA0EB0800A84214D9D4
:101590002068C16821F4D071C1602068416921F0E0
:1015A00001014161202084F8390084F83A000020CC
:1015B00084F838000320BDE8F0812068006836EA2E
:1015C000000004D00020B842D9D00020F3E7012069
:1015D000F9E700000148FFF7DFBB000070000020C2
:1015E000FEE700000FB4054B10B503A9044A0298AA
:1015F00000F018F810BC5DF814FB00007917000823
:101600001400002002E008C8121F08C1002AFAD105
:1016100070477047002001E001C1121F002AFBD172
:10162000704700002DE9FF4F89B09B460446002516
:1016300006E025280BD05A460B999047641C6D1C78
:1016400020780028F5D10DB02846BDE8F08F00279E
:10165000B8460122474900E0074314F8013F203B08
:1016600002FA03F00842F7D120782E2819D114F895
:10167000010F47F004072A280ED06FF02F022078C0
:10168000A0F1300109290CD808EB880102EB4101D7
:1016900000EB0108641CF2E70A98641C50F8048B04
:1016A0000A9020780028CED0642808D0692806D077
:1016B00075281ED05A460B9990476D1C58E00A9920
:1016C0004FF00A0901C90A91002802DA40422D218F
:1016D00002E0390504D52B218DF82010012103E00B
:1016E000F90704D02021F7E78A4608AE0DE0002173
:1016F000FAE70A994FF00A0901C90A91F7E7494642
:10170000FEF722FD303106F8011D0028F7D1ADEBC0
:10171000060000F12009780701D44FF00108C84500
:1017200002DDA8EB090000E000208046002706E06B
:1017300008A85A46C05D0B9990476D1C7F1C574501
:10174000F6DB04E030205A460B9990476D1CB8F147
:101750000001A8F10108F5DC05E016F8010B5A4676
:101760000B9990476D1CB9F10001A9F10109F4DC56
:10177000641C65E70928010013B54FF6FF730122C9
:1017800069460248FFF703FC00981CBD700000206A
:10179000FEF768FEFFF757FDFFF758FC5A48594916
:1017A0000C2201604FF47A31416000218160C160F8
:1017B000C0E904128161C161FFF776FBFFF7B6FC57
:1017C00052A0FFF70FFF594C002240212046FEF7A0
:1017D00035FE0122564E550329463046FEF72EFEB1
:1017E00054A0FFF7FFFE4FF47A7705E056A0FFF70D
:1017F000F9FE3846FEF724FD00F0B8F80028F5D0D1
:1018000053A0FFF7EFFE002229463046FEF716FEF2
:1018100000F0F8F8FF2000F0D4F8732000F025FA6B
:10182000202000F0F5F90C2000F0E3F9032000F08F
:10183000DBF94949002000F09DF947490120C91C06
:1018400000F098F944490220091F00F093F9424939
:101850000320C91E00F08EF93F490420891E00F0C4
:1018600089F93D490520491E00F084F9002106222E
:10187000084600F0FFF906220021012000F0FAF9E5
:1018800006220021022000F0F5F9062200210320A3
:1018900000F0F0F906220021042000F0EBF9062206
:1018A0000021052000F0E6F9012000F0BEF9022039
:1018B00000F0CAF9012240212046FEF7BFFD124C7C
:1018C000264D403400F097F80128FBD00E482349FC
:1018D000403000F017F9687000F068F860792179FD
:1018E00000EB0123E078A17800EB012260782178F9
:1018F00000EB01211AA0FFF775FE14A0FFF772FE9E
:10190000E0E7000000380140700000200D0A535449
:101910004D33324631303352455436206973206F8F
:101920006E6C696E652E0D0A000000000008014013
:10193000001001406E524632344C30312B20636827
:1019400065636B3A200000004641494C0D0A0000D7
:101950004F4B0D0A00000000651D0008000000202C
:1019600025642C25642C2564000000001CB50DA402
:1019700005222146302000F0A5F9052269461020F5
:1019800000F0A0F80020694614F8012B0B5C9A4285
:1019900001D000201CBD401CC0B20528F4D301209A
:1019A0001CBD00006E5246323400000010B5072006
:1019B00000F0C6F840F07001BDE81040072000F0CC
:1019C0009FB910B50446052801D9002106E0012081
:1019D00000F0B6F80121A14020EA0101BDE8104065
:1019E000012000F08DB9FF21E22000F089B9FF212C
:1019F000E12000F085B910B5172000F0A1F800F043
:101A0000030010BD10B50821002000F079F93F2136
:101A1000012000F075F90321022000F071F9032183
:101A2000084600F06DF90321042000F069F9022155
:101A3000052000F065F90E21062000F061F9002173
:101A4000072000F05DF90021112000F059F9002174
:101A5000122000F055F90021132000F051F9002167
:101A6000142000F04DF90021152000F049F9002163
:101A7000162000F045F900211C2000F041F900215A
:101A80001D2000F03DF9FFF7AEFFFFF7B0FFFFF7B5
:101A90008DFF0122BDE8104020210148FEF7CEBC99
:101AA0000008014001B582B064200090012301AA22
:101AB00002A90348FFF76EF89DF804000EBD000070
:101AC000180000202DE9F0410D4E15460C46074642
:101AD000002220213046FEF7B1FC3846FFF7E2FF36
:101AE00004E0FF20FFF7DEFF04F8010B6D1EEDB2EE
:101AF000F7D23046BDE8F04101222021FEF79EBC1E
:101B00000008014070B505460E46072000F018F8A1
:101B1000C0F34204062C0CD20848005D00F010F817
:101B20003070021E03D029466120FFF7CBFF20460C
:101B300070BD00203070FF2070BD0000541D0008F3
:101B400070B50B4D0446002220212846FEF776FC96
:101B500004F01F00FFF7A6FFFF20FFF7A3FF0446D6
:101B6000012220212846FEF769FC204670BD0000B6
:101B7000000801402DE9F0410546194F0E46072D9A
:101B80002CD2DFE805F004042525252504000320D8
:101B9000FFF7D6FF401CC4B2DFF84880264400227D
:101BA00020214046FEF74AFC785D40F02000FFF718
:101BB00079FF00BF16F80109FFF774FF641EE4B255
:101BC000F8D24046BDE8F04101222021FEF736BCA4
:101BD0000978785DBDE8F04100F092B8BDE8F08189
:101BE0005A1D000800080140801EC1B2032000F009
:101BF00087B810B504460020FFF7A2FF04F00C01DF
:101C000020F00C000143BDE81040002000F078B83F
:101C100010B504460620FFF793FF20F0280121436A
:101C2000BDE81040062000F06BB810B50446002057
:101C3000FFF786FF04F0010120F001000143BDE839
:101C40001040002000F05CB810B504460020FFF7FB
:101C500077FF022C06D020F00201BDE810400020E2
:101C600000F04EB840F00201F7E70146052000F011
:101C700047B800002DE9F041054617460E46022000
:101C8000FFF75EFF0124AC40204300F03F0102203B
:101C900000F036F80A4807F03F01405D00F030F8E8
:101CA0000120FFF74DFF012E06D020EA0401BDE818
:101CB000F041012000F024B80443E1B2F7E700004E
:101CC000541D00082DE9F0410C4E15460C46074600
:101CD000002220213046FEF7B1FB384602E000BF6B
:101CE00014F8010BFFF7DEFE6D1EEDB2F8D23046A0
:101CF000BDE8F04101222021FEF7A0BB0008014011
:101D000070B5134D0E460446002220212846FEF7EA
:101D100095FB202C06D204F01F0040F02000FFF7B6
:101D2000C1FE0AE02046FFF7BDFEE12C08D0E22C00
:101D300006D0E32C04D0FF2C02D03046FFF7B2FED1
:101D40002846BDE8704001222021FEF777BB000045
:101D5000000801401112131415160A0B0C0D0E0F7A
:101D600010E3E4E5E6E71CE1E71CE2000000000008
:101D7000000000010203040607080900000000013A
:101D800002030400A41D0008000000201800000049
:101D900004160008BC1D000818000020B80400004C
:101DA00014160008000000000100000010000000F0
:0C1DB0000000000000A24A040000000037
:04000005080000ED02
:00000001FF
