:020000040800F2
:10000000280E00200101000853220008971C000858
:10001000512200082F0200084929000800000000B2
:100020000000000000000000000000004B2300085A
:100030003102000800000000752200084D2300086E
:100040001B0100081B0100081B0100081B01000820
:100050001B0100081B010008330200081B010008F7
:100060001B0100081B0100081B0100081B01000800
:100070001B0100081B0100081B0100081B010008F0
:100080001B0100081B0100081B0100081B010008E0
:100090001B0100081B0100081B0100081B010008D0
:1000A0001B0100081B0100081B0100081B010008C0
:1000B0001B0100081B010008052400081B010008A3
:1000C0001B0100081B0100081B0100081B010008A0
:1000D000792200083D2900081B0100081B010008C7
:1000E0001B0100081B0100081B010008DFF80CD0F1
:1000F00000F05CF800480047AD4E0008280E0020D4
:100100000648804706480047FEE7FEE7FEE7FEE7B1
:10011000FEE7FEE7FEE7FEE7FEE7FEE7BD23000899
:10012000ED00000840EA01039B0703D009E008C97D
:10013000121F08C0042AFAD203E011F8013B00F8AC
:10014000013B521EF9D27047D2B201E000F8012BF8
:10015000491EFBD270470022F6E710B513460A4647
:1001600004461946FFF7F0FF204610BD034611F87C
:10017000012B00F8012B002AF9D11846704730B541
:100180000B46014600202022012409E021FA02F555
:100190009D4205D303FA02F5491B04FA02F52844EF
:1001A000151EA2F10102F1DC30BD0000064C074D26
:1001B00006E0E06840F0010394E807009847103437
:1001C000AC42F6D3FFF796FF786600089866000801
:1001D00070B58D1810F8014B14F0030201D110F81E
:1001E000012B231106D110F8013B03E010F8016B3D
:1001F00001F8016B521EF9D1ABB110F8012B04F0DC
:100200000C048A1A0C2C03D0A2EB84129B1C08E06D
:1002100010F8014BA2EB0422F8E712F8014B01F8A9
:10022000014B5B1EF9D5A942D4D3002070BDFEE777
:100230007047012000F060B810B590F8211000243C
:10024000022903D00421816301243DE001680A688A
:1002500022F00E020A6001680A6822F001020A60B8
:100260001A4A0168914201D1012121E0174A143252
:10027000914201D110211BE0144A2832914201D150
:10028000891515E0114A3C32914201D189140FE0E1
:100290000E4A5032914202D14FF4803108E00B4AAD
:1002A0006432914202D14FF4801101E04FF080712D
:1002B000064A083A5160012180F82110002180F897
:1002C0002010416B01B18847204610BD0800024054
:1002D00070B5044600F000F90546601C02D00448E1
:1002E0000078044400F0F8F8401BA042FAD370BD37
:1002F0002000002070470000044910B50A6802423F
:1003000002D00860FFF7F6FF10BD000014040140A2
:100310002DE9F84FDFF890A100220AF1040B1446F2
:1003200001274FF00F090BF1040E00BF0B6807FA0D
:1003300004F52B40AB4274D1DFF870C14E68A6EBD8
:100340000C0866452BD00DDC032E34D005DC36B30B
:10035000012E19D0022E2FD11BE0112E16D0122EF5
:100360002AD119E0B8F5881F19D006DCB8F5803F0E
:1003700015D0B8F5801F1FD111E0B8F5001F0ED0C1
:10038000B8F5041F18D10AE0CA6815E0CA68121D42
:1003900012E0CA6808320FE0CA680C320CE08A68C2
:1003A0002AB1012A4FF0080203D0456104E004227B
:1003B00002E0056100E00022FF2B01D8064601E0C3
:1003C00000F104064FEA840501D9A5F12005D6F80D
:1003D00000C009FA05F82CEA080C02FA05F54CEA07
:1003E000050CC6F800C04D68ED0057D5304DAE691C
:1003F00046F00106AE61AD6924F0030605F0010583
:1004000000952C4D06EB050CDCF80850A6074FEACA
:10041000167809FA08F6B543274EB04202D10026F5
:1004200010E03BE0254EB04201D101260AE0244E07
:10043000B04201D1022605E0224EB04201D103268E
:1004400000E0042606FA08F62E43CCF808604D6852
:10045000DAF80060ED03554601D51E4300E09E43E7
:100460002E604D68DBF80060AD035D4601D51E438C
:1004700000E09E432E604D68DEF80060ED02754698
:1004800001D51E4300E09E432E604D68AD020E4D27
:100490002E6801D51E4300E09E432E60641C102C84
:1004A000FFF444AFBDE8F88F0004014000001110D4
:1004B000001002400000014000080140000C014013
:1004C00000100140001401400C0401400AB1016118
:1004D00070470904FBE7000001488068704700008E
:1004E0002000002070B504001BD094F83D000025CA
:1004F00020B984F83C50204600F0D6FA242084F835
:100500003D002068016821F00101016000F046FC17
:10051000404A6168914201D83F4900E03F49884222
:1005200001D2012070BD3E492368B0FBF1F1596052
:100530006368934206D94FF4967359434FF47A7324
:10054000B1FBF3F12368491C19626168914210D82C
:100550004900401EB0FBF1F2521CC2F30B02042A08
:1005600001D2042022E0B0FBF1F0401CC0F30B00EC
:100570001CE0A368CBB301EBC10202EB0116421EE3
:10058000B2FBF6F2521C42F48042120536D06BB335
:1005900001EBC10202EB0111401EB0FBF1F0401C67
:1005A000C0F30B0040F4804040F400402168C86173
:1005B000D4E90701084321680860D4E9031008431F
:1005C00021688860D4E9050108432168C860206873
:1005D000016841F0010101602564202084F83D009C
:1005E000256384F83E50002070BD00E008E001EB78
:1005F0004106421EB2FBF6F2521CC6E70120D5E7C7
:1006000001EB4101401EB0FBF1F0401CC0F30B00B8
:10061000CAE70000A086010080841E0000093D009A
:1006200040420F002DE9F84F1F4690468A46044687
:10063000DDF82890FFF750FF054694F83D0020288C
:100640007ED11923012278492046009501F069FCEA
:100650000028F5D194F83C00012871D0012084F8DD
:100660003C0020680168C90703D1016841F001011D
:1006700001602068016821F400610160222084F893
:100680003D00102084F83E0000262664C4F8248033
:1006900067856648E062608D20852B464A46514654
:1006A000204601F00DFB28B1206C84F83C60042842
:1006B00050D073E0208D5E4F68B1012814D002281D
:1006C000206801681ED041F48061016020684169A2
:1006D000806900909AE02068416981690091016811
:1006E00041F40071016091E02068016821F48061AB
:1006F000016072B62068416981690091016841F426
:1007000000710AE041F40061016072B6206841693D
:1007100081690091016821F48061016062B675E031
:10072000032850D801280CD002284B464FF0000275
:1007300039462046009512D001F0F3FB70BB13E060
:1007400070E02A464946204601F060FC28B1206C42
:10075000202823D00120BDE8F88F20684BE001F06D
:10076000E0FBD8B972B61BE02068016821F4806113
:10077000016072B620680169606A421C62620170A1
:10078000208D401E2085608D401E60854B460022D6
:1007900039462046009501F0C4FB08B10320DAE792
:1007A0002068016841F40071016020680169606A95
:1007B000421C62620170208D401E2085608D401EAB
:1007C000608562B6C9E72A464946204601F01EFC0C
:1007D0000028BCD120680169606A421C6262017015
:1007E000208D401E2085608D401E608520684169F7
:1007F000C94349070AD40169606A421C62620170F8
:10080000208D401E2085608D401E6085208D002833
:1008100086D1202084F83D0084F83E6084F83C6056
:10082000002098E7022096E7020010000000FFFF7A
:10083000040001002DE9F84F1F4690468A46044601
:10084000DDF82890FFF748FE064694F83D00202882
:100850007ED11923012243492046009601F061FB15
:1008600000287DD194F83C00012879D0012084F83B
:100870003C0020680168C90703D1016841F001010B
:1008800001602068016821F400610160212084F882
:100890003D00102084F83E0000252564C4F8248023
:1008A00067853148E062608D208533464A4651466F
:1008B000204601F075FA28B1206C84F83C500428D9
:1008C0004CD00DE0206841698069009030E03246EC
:1008D0004946204601F0CBFB28B1206C042838D0D3
:1008E0000320BDE8F88F606A411C616221680078CE
:1008F0000861608D401E6085208D401E80B220857D
:1009000021684A69D24352070BD450B1606A421C35
:10091000626200780861608D401E6085208D401EF7
:10092000208532464946204601F0D4FA0028D4D129
:10093000208D0028CBD154F83D0B016841F40071A3
:100940000160202004F81E09E57765770020C8E7DC
:1009500006E02068016841F4007101600120C0E7F1
:100960000220BEE7020010000000FFFF2DE9FF4F4C
:1009700083B09A46DDE9118793460446DDF840903E
:10098000FFF7AAFD064694F83D0020287DD11923E3
:10099000012243492046009601F0C3FA00287CD189
:1009A00094F83C00012878D0012084F83C002068AD
:1009B0000168C90703D1016841F0010101602068A5
:1009C000016821F400610160212084F83D0040208D
:1009D00084F83E0000252564C4F82490A4F82A80F9
:1009E0003048E062608D2085CDE9007653465A4656
:1009F0002046049901F01EFA80B3206C84F83C5024
:100A0000042848D008E032463946204601F02FFB42
:100A100030B1206C042839D0032007B0BDE8F08F36
:100A2000606A411C6162216800780861208D401E67
:100A300080B22085618D491E618521684A69D24353
:100A400052070BD468B1606A421C62620078086188
:100A5000208D401E2085608D401E6085208D0028E1
:100A6000D1D132463946204601F034FA0028D0D19F
:100A700054F83D0B016841F400710160202004F836
:100A80001E09E57765770020C7E706E02068016862
:100A900041F4007101600120BFE70220BDE70000C2
:100AA000020010000000FFFF10B586B00021009189
:100AB00001910291039100680F4988421AD10F4CAD
:100AC000A06940F00800A061A069694600F0080034
:100AD0000490C02000901220019003200390084849
:100AE000FFF716FCE06940F40010E061E06900F4F3
:100AF0000010049006B010BD0054004000100240E9
:100B0000000C0140024881680278114481607047FE
:100B100020000020074810B5016841F01001016075
:100B2000032000F073F8002000F006F800F024F82D
:100B3000002010BD0020024070B50D4D04464FF45A
:100B40007A712878B1FBF0F00A490968B1FBF0F03E
:100B500000F0D0FC48B9102C07D200222146501ECC
:100B600000F034F800206C6070BD012070BD000002
:100B7000200000202C0000200C4808B5816941F0BD
:100B800001018161816901F001010091C16941F0B8
:100B90008051C161C06900F08050009004484168F4
:100BA00021F0E06141F00071416008BD0010024099
:100BB0000000014000F01F02012191404009800027
:100BC00000F1E020C0F8001170470000F0B40E4BB7
:100BD0001B680C46C3F30223C3F10705042D00D99B
:100BE0000425191D072901D2002300E0DB1E012680
:100BF00006FA05F1491E214099409E40761E164096
:100C00003143F0BC01F026BB0CED00E0064900F0DA
:100C1000070208684FF6FF03184040EA0220034A23
:100C200010430860704700000CED00E00000FA057A
:100C30002DE9F047DFF8548105460E46D8F800004C
:100C400000F00700B0420CD2D8F8001021F00701E4
:100C50003143C8F80010D8F8000000F00700B04297
:100C60006FD128684A4C810712D5400703D56068C8
:100C700040F4E06060602878000703D5606840F4C5
:100C8000605060606068A96820F0F0000843606010
:100C90002878C00744D06868012816D02168022847
:100CA00016D0890700294CDA616821F0030101435D
:100CB0006160FFF711FC6968074641F2883001293D
:100CC0000ED00229814618D026E021688903E9E781
:100CD0008901E7E7FFF700FCC11B494501D918E08E
:100CE00081466068C0F381000128F3D118E000BF9D
:100CF000FFF7F2FBC11B49450BD86068C0F38100C8
:100D00000228F5D10CE000BFFFF7E6FBC11B494507
:100D100002D90320BDE8F087606810F00C0FF3D112
:100D2000D8F80010404601F00701B1420BD9016824
:100D300021F0070131430160006800F00700B04274
:100D400001D00120E6E72878400705D56068E9680A
:100D500020F4E060084360602878000706D56068EA
:100D6000296920F4605040EAC100606000F036F864
:100D70006168084AC1F30311515CC8400649086024
:100D80000020FFF7D9FE0020C4E700000020024049
:100D900000100240606600082C000020044805494D
:100DA00000684968044AC1F30221515CC840704799
:100DB0002C0000200010024070660008044805491D
:100DC00000684968044AC1F3C221515CC8407047B9
:100DD0002C000020001002407066000812A185B0AF
:100DE0000FC98DE80F0014A0144A006804905168E0
:100DF000134801F00C03042B10D0082B0ED1C1F3C3
:100E00008343C9031DF803000AD5516804AAC1F33E
:100E10004041515C0A4A5043B0FBF1F005B07047C5
:100E200008494843FAE700000203040506070809D9
:100E30000A0B0C0D0E0F10100102000000100240F2
:100E400000127A0000093D002DE9F84F04460078B1
:100E5000B94DC00748D06868C0F38100012807D0A9
:100E60006868C0F38100022809D16868C00306D50C
:100E70002868800338D5606800286FD034E0606847
:100E8000B0F5803F0BD010B1B0F5A02F11D028687D
:100E900020F480302860286820F4802002E0286850
:100EA00040F480302860606888B1FFF715FB064683
:100EB00009E0286840F480202860F0E7FFF70CFB89
:100EC000801B642875D828688003F7D50CE0FFF7ED
:100ED00003FB064605E000BFFFF7FEFA801B64280F
:100EE000F0D828688003F7D42078944E80074FF01C
:100EF00001094FF000083BD5686810F00C0F07D0CF
:100F00006868C0F38100022809D16868C00306D46C
:100F10002868800714D5206901281FD110E02069B6
:100F2000B0B1C6F80090FFF7D7FA074605E000BF5A
:100F3000FFF7D2FAC01B0228C4D828688007F7D56B
:100F40002868616920F0F80040EAC10028600FE0DD
:100F5000C6F80080FFF7C0FA074606E0E9E000BFE8
:100F6000FFF7BAFAC01B022823D828688007F7D4F5
:100F7000207800072CD57248A169D9B1C0F800903B
:100F8000FFF7AAFA074604E0FFF7A6FAC01B0228FB
:100F90000FD8686A8007F7D56A484FF4FA5100689D
:100FA000B0FBF1F0009000BF0098411E0091FAD212
:100FB0000EE080E0C0F80080FFF78EFA074604E0FC
:100FC000FFF78AFAC01B022875D8686A8007F7D431
:100FD0002078400760D5E8690027C00008D4E86998
:100FE00040F08050E861E869012700F080500090EF
:100FF00055480168C90513D40168834641F48071DE
:101000000160FFF769FA824606E000BFFFF764FA65
:10101000A0EB0A0064284ED8DBF80000C005F5D527
:10102000E06801280AD008B1052813D0286A20F00A
:1010300001002862286A20F0040002E0286A40F0DB
:1010400001002862E06841F2883B98B1FFF744FA5A
:1010500082460BE0286A40F004002862EEE700BFF9
:10106000FFF73AFAA0EB0A0159455AD8286A8007D7
:10107000F6D50CE0FFF730FA824605E0FFF72CFAD0
:10108000A0EB0A0159454CD8286A8007F6D41FB155
:10109000E86920F08050E861E06988B36968C1F3CD
:1010A0008101022945D00228C6F8608004D0FFF7EC
:1010B00013FA044638E034E0FFF70EFA074604E07E
:1010C000FFF70AFAC01B02282BD828688001F7D442
:1010D000206AB0F5803F05D16868A16820F400302F
:1010E00008436860D4E908010843696821F4741171
:1010F00008436860C6F86090FFF7EEF9044606E022
:1011000015E000BFFFF7E8F9001B022809D828689E
:101110008001F7D50BE000BFFFF7DEF9001B0228C6
:1011200002D90320BDE8F88F28688001F4D400209C
:10113000F8E70120F6E700000010024000004242FC
:10114000800442422C0000200070004070470000E4
:1011500038B504460068426881684B0605D4CB0761
:1011600003D0530601D5216C04E08B0707D5130685
:1011700005D5616C01B02046BDE83040084711F04C
:10118000600F3FD093063DD54B060AD594F85130F9
:10119000032B34D0636D43F004036365C368836835
:1011A0000093890609D5616D41F00101616581688F
:1011B0000091016821F040010160606D002821D09C
:1011C0002068416821F0E0014160012084F851006D
:1011D000900718D02068416821F0030141600C4D50
:1011E000E06C18B14563E06CFFF726F8A06C0028AE
:1011F00008D04563A06CBDE83840FFF71DB8C16852
:101200008068009038BD2046FFF7A0FF38BD000081
:10121000A522000870B5040005D00025A56294F849
:10122000510010B104E0012070BD204600F034F8F8
:10123000022084F851002068016821F0400101601B
:10124000D4E901010843D4E9031211430843616959
:101250000843218B01F400710843E1690843216AC6
:101260000843A16A084321680860A069042101EAD3
:101270001040616A0843216848602168E06A08619B
:101280002068C16921F40061C1616565012084F8AD
:101290005100002070BD000030B585B000240094DE
:1012A0000194029403940068194988422DD1194889
:1012B000C16941F48041C161C16901F48041049177
:1012C000816941F0080181618069134D00F00800D7
:1012D00004904FF4204000900220019003200390DE
:1012E00069462846FFF714F84FF48040CDE9000422
:1012F000694628460294FFF70BF8002202212420B9
:10130000FFF764FC2420FFF755FC05B030BD00005A
:101310000038004000100240000C01402DE9F84F59
:10132000044690F8500000260A9F9A4693460D46C0
:101330004FF0010801280ED0012084F85000FFF77B
:10134000CBF8814694F85100616801280CD0B1F5C2
:10135000827F07D102E00220BDE8F88FA16809B9B9
:10136000042801D00226BDE055B1BBF1000F07D023
:10137000BAF1000F04D094F85100012802D004E023
:101380000126AFE0052084F8510000206065C4F814
:1013900038B0A4F83EA0A4F83CA02563A4F836A079
:1013A000A4F834A02064606420680168490603D46E
:1013B000016841F040010160E068B0F5006F6068CD
:1013C00004D0E8B3E08E01283BD06AE010B1E08E93
:1013D00001282ED1216835F8020BC860E08E401E2E
:1013E000E08626E0B8F1000F0DD0E08E58B12068FD
:1013F0008168890707D535F8021BC160E08E401E61
:10140000E0864FF00008E08F58B120688168C90776
:1014100007D0C0682BF8020BE08F401EE0874FF02A
:101420000108781C05D0FFF757F8A0EB0900B84277
:1014300046D2E08E0028D5D1E08F0028D2D136E008
:10144000FFE7216815F8010B0873E08E401EE08667
:1014500027E000BFB8F1000F0DD0E08E58B1206832
:101460008168890707D515F8011B0173E08E401EBE
:10147000E0864FF00008E08F58B120688168C90706
:1014800007D0C0680BF8010BE08F401EE0874FF0DB
:101490000108781C05D0FFF71FF8A0EB0900B8423F
:1014A0000ED2E08E0028D5D1E08F0028D2D13B4665
:1014B000012202212046CDF8009000F0FBFE08B189
:1014C00003260FE04A463946204600F0DBFE18B1FD
:1014D00001262020606505E0A06818B92068C16871
:1014E00080680090012084F85100002084F85000AA
:1014F000304631E710B5401EB0F1807F01D30120A6
:1015000010BD4FF0E02460610F21601700F0A2FED3
:101510000020A06107202061002010BD70477047A7
:1015200030B590F83C20012A20D0012280F83C20E0
:10153000022380F83D3003685C6824F070045C602E
:1015400003685C680D682C435C6003689C6824F049
:1015500080049C6003689C6849680C439C6080F828
:101560003D20002180F83C10084630BD022030BDEF
:1015700010B5040003D094F83D0010B107E001203D
:1015800010BD002084F83C00204600F00DF8022039
:1015900084F83D00211D206800F03AFF012084F806
:1015A0003D00002010BD000008B500680B498842CE
:1015B00012D10B48C16941F00401C161C069002228
:1015C00000F00400009002211E20FFF7FFFABDE8A2
:1015D00008401E20FFF7EEBA08BD000000080040DA
:1015E0000010024070B5044690F83C00012817D066
:1015F000012584F83C50022084F83D002068826870
:1016000022F0770222F47F4282600868502837D0A7
:101610000DDC202859D005DC88B3102841D151E0D9
:10162000022070BD302853D040283AD13FE06028D6
:101630002ED070280BD0B0F5805F03D0B0F5005FDE
:101640002FD110E02068816821F0070115E0CB68F8
:10165000D1E90121206800F01CFF2168886840F072
:10166000770088601DE0CB68D1E90121206800F097
:1016700010FF2068816841F48041816011E01EE024
:10168000CA684968206800F0B9FF5021206806E068
:10169000CA684968206800F0C2FF6021206800F035
:1016A00002FF84F83D50002084F83C0070BDCA68F9
:1016B0004968206800F0A2FF40212068EFE7002180
:1016C0002068ECE710212068E9E720212068E6E7A0
:1016D00030212068E3E7704770B50446006801696F
:1016E0004FF00005C943890715D4C168C94389076C
:1016F00011D4E91E016101202077206880698007EC
:10170000204602D0FFF7E7FF04E000F0C9F82046CA
:1017100000F04BF9257720680169C943490717D4C0
:10172000C168C943490713D46FF004010161022065
:1017300020772068806910F4407F204602D0FFF7B0
:10174000CAFF04E000F0ACF8204600F02EF925773F
:1017500020680169C943090716D4C168C94309074C
:1017600012D46FF008010161042020772068C0695D
:101770008007204602D0FFF7AEFF04E000F090F8AB
:10178000204600F012F9257720680169C943C9068F
:1017900017D4C168C943C90613D46FF010010161A1
:1017A000082020772068C06910F4407F204602D0CE
:1017B000FFF791FF04E000F073F8204600F0F5F821
:1017C000257720680169C943C90708D1C168C943A1
:1017D000C90704D1891E0161204600F0FFF8206886
:1017E0000169C943090609D4C168C943090605D47A
:1017F0006FF0800101612046FFF790FE20680169CB
:10180000C943490609D4C168C943490605D46FF0E4
:1018100040010161204600F0E2F820680169C943F7
:1018200089060BD4C168C943890607D46FF020012B
:1018300001612046BDE87040FFF771BE70BD000039
:1018400030B585B0002100910191029103910068AB
:10185000104988421CD11048816941F0080181611A
:101860008069022400F0080004904FF48070CDE9F4
:1018700000040A4D694628460394FEF749FD2002FC
:10188000CDE900040320039069462846FEF740FD99
:1018900005B030BD0008004000100240000C0140BF
:1018A000704770B5044690F83C000D4601280DD0F5
:1018B000012684F83C60022084F83D0042B1042AED
:1018C00018D0082A2AD00C2A4DD139E0022070BD48
:1018D000206800F0F1FD2068816941F00801816114
:1018E0002068816921F004018161206881692A6989
:1018F000114311E0206800F007FE2068816941F47F
:10190000006181612068816921F4806181612068C2
:1019100081692A6941EA0221816124E0206800F09E
:101920001FFE2068C16941F00801C1612068C169DA
:1019300021F00401C1612068C1692A69114311E0E5
:10194000206800F039FE2068C16941F40061C1617E
:101950002068C16921F48061C1612068C1692A6978
:1019600041EA0221C16184F83D60002084F83C0016
:1019700070BD10B5040003D094F83D0010B107E02D
:10198000012010BD002084F83C00204600F00CF837
:10199000022084F83D00211D206800F039FD01205F
:1019A00084F83D00002010BD7047704710B5044614
:1019B0000068012200F062FD07492068884203D1D7
:1019C000416C41F4004141642068016841F001012B
:1019D0000160002010BD0000002C014070477047DE
:1019E0007047000070B5026804461068D1685369FA
:1019F00010F00F0F50D003F0010501F4907635433D
:101A00005DD0C20705D0CA0503D5E26B42F00102E2
:101A1000E263420705D5DA0703D0E26B42F0020227
:101A2000E263820705D5DA0703D0E26B42F00402D5
:101A3000E263020705D5DA0703D0E26B42F0080241
:101A4000E263E26B002A33D0800604D5880602D513
:101A5000204600F00CFE20684069E16BC0F3801066
:101A6000090700D428B3204600F0F3FD206841693F
:101A700049061AD5416921F040014161606BA0B16E
:101A80001B494163606BFEF7D7FB002810D0606BE9
:101A9000416BBDE870400847830610D58B060ED514
:101AA0002046BDE8704000F0E2BD2046FFF798FFF9
:101AB00070BD2046FFF794FF0020E06370BD030671
:101AC00006D50B0604D52046BDE8704000F0D2BE16
:101AD0004006F3D54806F1D5D168204621F04001F3
:101AE000D160202184F8391000F0D4F870BD0000D6
:101AF0004326000870B5040004D094F8390000258E
:101B000010B106E0012070BD84F83850204600F086
:101B100023F8242084F839002068C16821F400519A
:101B2000C160204600F0EEFD2068016921F490417B
:101B300001612068416921F02A0141612068C16882
:101B400041F40051C160E563202084F8390084F835
:101B50003A00002070BD000030B585B0002400942C
:101B60000194029403940068184988422CD11848C3
:101B7000816941F480418161816901F4804104916E
:101B8000816941F0040181618069124D00F0040017
:101B900004904FF400700090022001900320039005
:101BA00069462846FEF7B4FB2815CDE900046946CE
:101BB00028460294FEF7ACFB002202212520FFF705
:101BC00005F82520FEF7F6FF05B030BD00380140CE
:101BD000001002400008014070472DE9F843044618
:101BE00090F839001F4616460D46202850D1A5B161
:101BF0009EB194F8380001284AD0012084F83800BA
:101C00004FF00008C4F83C80212084F83900FEF72A
:101C100063FCA6848146E68426E00120BDE8F883C3
:101C2000E08C401EE084A0684B46B0F5805F4FF02A
:101C300000024FF080012046009703D000F04BFED9
:101C4000E8B90DE000F047FEC8B928882168C0F364
:101C500008004860206908B16D1C05E0AD1C03E078
:101C6000216815F8010B4860E08C0028D8D14B465C
:101C7000002240212046009700F02DFE08B10320ED
:101C8000CCE7202084F8390084F838800020C5E7AC
:101C90000220C3E77047FEE701684A69D243520554
:101CA0000CD46FF480624A6104210164002140F881
:101CB000301F2022427301730120704700207047BB
:101CC0002DE9F84F0446C06A1E4692460D4621682B
:101CD0000A6842F480620A60042807D0012805D00F
:101CE00010F5803F02D0206B112804D120680168D4
:101CF00041F4807101604FF00118534600224146C3
:101D00002046009600F00DF9B8BB206908F10109E2
:101D1000B0F5804F12D00620216800EAD51747F0B1
:101D2000F00008613346524608F10701204600F0F2
:101D300029F938B1206C04282FD01EE0E8B240F019
:101D400001001FE02168E8B2086133465246494667
:101D5000204600F017F90028ECD12068416981691C
:101D60000091016841F480710160534600224146B0
:101D70002046009600F0D5F810B10320BDE8F88F9A
:101D800047F0F10021680861334652464946204633
:101D900000F0F8F80028CDD1F0E70120EEE70000D0
:101DA000F8B50446C06A1E460D461746042807D0FB
:101DB000012805D010F5803F02D0206B122804D1F5
:101DC0002068016841F480710160134600224FF0E1
:101DD00001112046009600F0A4F8A0B92069B0F5E2
:101DE000804F12D00620216800EAD51040F0F000A4
:101DF000086133463A460E49204600F0C3F838B130
:101E0000206C042811D00320F8BD05F0FE0000E08E
:101E1000E8B221680861064933463A46891F2046E0
:101E200000F0B0F80028EBD1F8BD0120F8BD0000AB
:101E3000080001002DE9F843044600680D46DDE97D
:101E4000089701689846164641F4807101604B4638
:101E500000224FF001112046009700F062F8E8B927
:101E6000216805F0FE0008613B464A4618492046B5
:101E700000F088F828B1206C04280FD10120BDE8BB
:101E8000F88320684169806900903A4649462046B7
:101E900000F0EDF820B1206C042813D00320EEE709
:101EA000F5B2B8F1010F09D02168300A08613A464D
:101EB0004946204600F0DBF80028ECD12068056197
:101EC0000020DCE72068016841F400710160D5E77B
:101ED0000200010070B516460D4604461AE0204681
:101EE000FFF7DAFE08B1012070BD681C12D025B1E1
:101EF000FEF7F2FA801BA8420CD954F8400F40F0CC
:101F0000200044F810090020206020216173207314
:101F1000032070BD20684069C0434007DFD4002023
:101F200070BD2DE9F0471E4690460D460446C1F3AC
:101F30000747DDF8209012E0701C10D02EB1FEF79C
:101F4000CBFAA0EB0900B04209D9002044F8300FC9
:101F500020216173A07320730320BDE8F0872068FF
:101F6000012F0AD0806925EA00000004000C06D089
:101F700000214145E0D00020EFE74069F3E701216F
:101F8000F7E700002DE9F0479A4691460D460446D2
:101F900000264FF02008C1F307472AE02068406977
:101FA000C043400512D42068016841F4007101600B
:101FB00021686FF48060486104202064266384F8FF
:101FC0003D8084F83C600120BDE8F087B9F1FF3F17
:101FD0000FD0B9F1000F05D0FEF77EFAA0EB0A0191
:101FE000494506D944F8306F84F80D8026730320E4
:101FF000EAE72068012F07D0D0F8180025EA000092
:102000000004000CE0D0C9E74069F7E72DE9F04192
:10201000002590460E460446202721E04069C04333
:10202000C0060CD421686FF0100048612564256358
:1020300084F83D7084F83C500120BDE8F0812EB159
:10204000FEF74AFAA0EB0800B04209D954F8400F55
:1020500040F0200044F80409677025700320ECE785
:1020600020684169C9434906D8D40020E5E770B526
:1020700016460D4604461AE02046FFF70DFE08B14D
:10208000012070BD681C12D025B1FEF725FA801B17
:10209000A8420CD954F8400F40F0200044F8100931
:1020A00000202060202161732073032070BD206810
:1020B0004069C0430006DFD4002070BD2DE9F04325
:1020C00085B00024314800940194029403948169FE
:1020D00041F010018161816901F010010491816971
:1020E00041F020018161816901F020010491816941
:1020F00041F004018161816901F004010491816969
:1021000041F0080181618069DFF8848000F00800F7
:102110004FF400550490002229464046FEF7D6F9B8
:10212000DFF8709041F67007002239464846FEF706
:10213000CDF90095022601250396CDE901546946A3
:102140004046FEF7E5F814480095CDE901046946DC
:102150004846FEF7DDF800970396CDE9015469463D
:102160004846FEF7D5F88020CDE900046946484688
:102170000294FEF7CDF8002201210620FEF726FD8D
:102180000620FEF717FD05B0BDE8F0830010024001
:102190000010014000080140000011100B480A49DE
:1021A0004FF4007201604FF4827141600021816040
:1021B000C1600161C0E90512C161016241628162D1
:1021C0000A21C162FFF726B8003800401005002040
:1021D00010B58EB000240794089409940A940B94C7
:1021E0001C2168460C94FDF7B6FF18481649C0E953
:1021F0000014FF21C0E9024104618461FFF7B8F9CE
:102200004FF48050079007A91048FFF7EBF90F48EB
:10221000FFF7AFFB0B940BA90C480C94FFF780F968
:102220006020CDE90004029408226946074804941E
:10223000FFF737FB0C2269460448FFF732FB0348DF
:10224000FFF7FEFA0EB010BD000800406805002040
:10225000FEE770470907090E002806DA00F00F00B4
:1022600000F1E02080F8141D704700F1E02080F8B4
:1022700000147047704700000148FEF769BF000076
:102280001005002038B50B4600920446002280213C
:1022900000F010F8002804D0606D40F02000606568
:1022A000032038BD10B5406A0021C187C186FEF702
:1022B0004DFF10BD2DE9F0411D4617460E46044660
:1022C000DDF8188035E0681C33D02DB1FEF704F935
:1022D000A0EB0800A8422CD32068416821F0E0015F
:1022E00041606068B0F5827F0BD1A068B0F5004F07
:1022F00002D0B0F5806F04D12068016821F0400160
:102300000160A06AB0F5005F0AD1206801684DF64F
:10231000FF72114001602068016841F400510160C2
:10232000012084F85100002084F850000320BDE80B
:10233000F0812068806836EA000004D00020B842AE
:10234000C1D10020F3E70120F9E7704710B5FEF78F
:10235000C3F841F28831B0FBF1F201FB120010B971
:10236000034901200870BDE81040FEF7CBBB000018
:102370001000002030B58FB028216846FDF7EBFE35
:1023800014210AA8FDF7E7FE0121080400240491A6
:10239000CDE90010CDE908040294022507956846AE
:1023A000FEF752FD0F200A90CDE90B540D94002149
:1023B0000AA80E94FEF73CFC0FB030BD0D48016832
:1023C00041F00101016041680B4A11404160016820
:1023D0000A4A11400160016821F4802101604168CE
:1023E00021F4FE0141604FF41F0181600449C003E4
:1023F00008607047001002400000FFF8FFFFF6FE83
:1024000008ED00E00148FFF767B90000680500200B
:10241000F0B50268164B174C174D4FF080479842A5
:1024200005D0B84203D0A04201D0A84203D122F087
:1024300070064A683243984205D0B84203D0A042A1
:1024400001D0A84203D122F44074CA68224322F08A
:1024500080044A69224302608A68C2620A68826212
:10246000984201D10969016301214161F0BD000079
:10247000002C0140000400400008004010B501237A
:10248000046A8B409C430462036A8A4013430362DC
:1024900010BD10B5846842EA032224F47F440A4345
:1024A0002243826010BD826822F070020A4342F02B
:1024B000070181607047000030B5026A22F0010216
:1024C0000262026A4368846924F073050C682C4335
:1024D00022F002058A682A430A4DA8420BD122F055
:1024E0000805CA6823F440732A434D6922F00402A8
:1024F0001D438B692B4343608461496841630262D9
:1025000030BD0000002C014030B5026A22F01002FC
:102510000262026A436884690D6824F4E64444EA6E
:1025200005248D6822F0200242EA05120B4DA842D4
:102530000ED1CD6822F0800242EA05124D6923F4E3
:10254000406343EA85038D6922F0400243EA850334
:102550004360846149688163026230BD002C0140A0
:1025600030B5026A22F480720262036A4268C4696A
:1025700023F4007324F073050C682C438D6843EA40
:1025800005230C4DA8420ED1CD6823F4006343EA25
:1025900005234D6922F4405242EA05128D6923F465
:1025A000806342EA05124260C4614968C163036204
:1025B00030BD0000002C014030B5026A22F4805288
:1025C0000262046A4268C3690D6823F4E64343EA81
:1025D00005238D6824F4005444EA0534064DA842CE
:1025E00004D14D6922F4804242EA85124260C361FF
:1025F00049680164046230BD002C014010B5036AD3
:10260000046A24F001040462846924F0F00444EABA
:10261000021423F00A020A438461026210BD10B55D
:10262000036A23F0100303628369046A23F470438E
:1026300043EA023224F0A00343EA011182610162FD
:1026400010BD10B5406A0021C185C184FFF7C8F9EB
:1026500010BD0168CA6822F49072CA6001684A69B4
:1026600022F001024A61202180F83A10704710B52B
:1026700090F83A10222901D0022010BD8168B1F5EE
:10268000805F11D00169002901681FD0496801F0FD
:102690007F03816A4A1C82620B70C18D491E090446
:1026A000090CC18518D02BE00269816A002A0268F2
:1026B000526805D0D2B20A80816A491C8162ECE777
:1026C000C2F308020A80816A891CF7E74A68816AB6
:1026D0004B1C83620A70E0E70168CA6822F020029E
:1026E000CA600168CA6822F48072CA6001684A69D7
:1026F00022F001024A61202180F83A10FFF76CFABB
:10270000002010BD2DE9F041044600680169E2682F
:1027100021F44051114301612169A06808436169B6
:1027200008432168CA6841F20C639A430243CA60B5
:1027300020684169A26921F44071114341614C490B
:1027400020686425322688423CD1FEF737FB00EB37
:10275000C00101EB001061688900B0FBF1F7FEF7E2
:102760002DFB00EBC00101EB00106168B046890051
:10277000B0FBF1F0B0FBF5F06FF01801484307EB48
:10278000800106EB0110B0FBF5F000F0F006FEF75B
:1027900015FB00EBC00101EB001061688900B0FB84
:1027A000F1F0B0FBF5F006EB0016FEF707FB00EBCF
:1027B000C00101EB001061688900B0FBF1F7FEF782
:1027C000FDFA3BE0FEF7EAFA00EBC00101EB001076
:1027D00061688900B0FBF1F7FEF7E0FA00EBC00199
:1027E00001EB00106168B0468900B0FBF1F0B0FB6E
:1027F000F5F06FF01801484307EB800106EB01107C
:10280000B0FBF5F000F0F006FEF7C8FA00EBC001EF
:1028100001EB001061688900B0FBF1F0B0FBF5F04E
:1028200006EB0016FEF7BAFA00EBC00101EB001050
:1028300061688900B0FBF1F7FEF7B0FA00EBC00168
:1028400001EB001061688900B0FBF1F0B0FBF5F01E
:102850006FF01801484307EB800108EB0110B0FB53
:10286000F5F0216800F00F0030448860BDE8F08189
:102870000038014090F83910212901D0022070471A
:102880008168B1F5805F016A0BD04A1C0262026860
:1028900009785160C18C491E0904090CC1840ED00D
:1028A00017E009880268C1F3080151600169002935
:1028B000016A02D0491C0162ECE7891CFBE7016850
:1028C000CA6822F08002CA600068C16841F0400115
:1028D000C160002070472DE9F041984617460E462A
:1028E0000446069D1DE0681C1BD02DB1FDF7F4FDCC
:1028F000A0EB0800A84214D92068C16821F4D07167
:10290000C1602068416921F001014161202084F803
:10291000390084F83A00002084F838000320BDE82C
:10292000F0812068006836EA000004D00020B84238
:10293000D9D00020F3E70120F9E700000148FFF7B4
:1029400051B80000A8050020FEE700007CB5044651
:10295000002094F8DA200D46012A03D0022A01D083
:10296000032A14D101AB6A460121204600F091F9F7
:10297000009A4FF47F018A4202D8019A8A4206D90E
:10298000002804D125B10F49204601F0E1FC7CBDAF
:102990000422FF21204600F05BFE05460022702144
:1029A000204600F055FE05430022FF21204600F09E
:1029B0004FFE054300228021204600F049FE2843B7
:1029C0007CBD000033010020F8B50646002401223A
:1029D0000B21304600F03CFE074600220B2130461A
:1029E00000F036FE40EA07056A461321304600F043
:1029F0000EFB641C9DF800102843E4B2490704D084
:102A0000032C04D20028E2D0F8BD032CFCD36FF0D5
:102A10000B00F8BDF0B591B004460022882100F00B
:102A200017FE002584F8F0504FF47A70A4F8520194
:102A30004FF4C870A4F854015748C4F858015748D7
:102A40002562C4F8D4006946204600F0A9F80600C3
:102A500009D18DF800508DF801504022694604F1EB
:102A60001000FDF75FFB6420A4F834014FF461709F
:102A7000A4F836014FF4FA70A4F838014FF420603E
:102A8000A4F83C01012784F850713A468021204681
:102A900000F0DEFD06430122FF21204600F0D8FDB4
:102AA000064300221146204600F0D2FD064310AA3C
:102AB0009121204600F0ABFA06439DF8400084F8CF
:102AC0003A0101220021204600F0C2FD0643002207
:102AD000FF21204600F0BCFD064300228021204655
:102AE00000F0B6FD30430026002852D1B1B20122D9
:102AF000204600F0ADFB761C062EF5DB002848D101
:102B000000220221204600F0A3FB002841D1002230
:102B10000321204600F09CFB00283AD1002204212A
:102B2000204600F095FB002833D1002205212046E5
:102B300000F08EFB00282CD14FF49012002120468B
:102B400000F0C7FB002824D14FF480420121204629
:102B500000F0BFFB00281CD14FF40C1202212046CC
:102B600000F0B7FB002814D100220321204600F01A
:102B7000B0FB00280DD1FF2084F83001024601216E
:102B8000204600F065FD84F83271002801D184F8F8
:102B9000155111B0F0BD0000856B0100A470090053
:102BA00070B506460C46007C01F8080B304600F074
:102BB00044F8002833D1207304F11001304600F0AE
:102BC000D9F900282BD104F11401304600F0E4F8C3
:102BD000002824D1002501E0002820D104EB850243
:102BE000A9B23046243200F07BF8002817D16219D0
:102BF000A9B23046183200F066F86D1C062DEBDBEA
:102C000000280CD104F13C01304600F098F900286E
:102C100005D1211D3046BDE8704000F0BBB870BD45
:102C200010B50C460A46092100F0F1F9002803D13D
:102C3000217801F00101217010BD3EB50C4605461A
:102C400002AAF82100F01CFA00280ED16A460421DD
:102C5000284600F0F1F9002807D1BDF8081029B185
:102C6000009AB2FBF1F12160A9613EBD2168FBE74A
:102C700038B50C466A46132100F0C9F99DF80010DA
:102C800001F0070211F0180F226001D06FF005006B
:102C900038BDF8B515461C4606466A460E2100F0BA
:102CA000EFF9BDF800100905C9082960002809D10D
:102CB0006A460C21304600F0E3F9BDF80010090522
:102CC000C9082160F8BD03460020062902D3001F71
:102CD000002102E0194491F828101170704700009B
:102CE000F8B504460020154606292ED2DFE801F08B
:102CF0000305191B1D1D646B25E06A46442120460F
:102D000000F0BEF9002803D1BDF800104FEA4126BB
:102D100006D1EEB12E604FF00101A66384F82910B0
:102D2000F8BDE46B0FE0246C0DE06A464FF06401DF
:102D3000204600F0A5F9002804D100BFBDF800101E
:102D40004FEA4124ECD12C60F8BD6FF00300F8BDD0
:102D5000A16B29604FF00001E0E77CB50C4690F8CC
:102D6000DA100025012604290AD06A46142100F051
:102D70004EF900280BD19DF80010C90706D007E0D6
:102D800001A9FFF775FF0199042901D025707CBDC9
:102D900026707CBD01F01AB901F07AB9F0B58DB09A
:102DA0000C4605460C2302AA142100F087F9060000
:102DB0007ED10021A17521609DF813009DF812209D
:102DC000616000EB02209DF80F209DF80E304FF45B
:102DD0007A7E02EB03221204D209E2609DF81130E0
:102DE0009DF8106080B203EB06231B04DB0923610E
:102DF0009DF80B309DF80A6003EB06239BB2A3827B
:102E0000B5F852619DF8087095F831C176451FD02C
:102E1000464306F5FA7696FBFEF02E8C95F81CE0FC
:102E200080B2B6B2BEF1000F12D05E43B2EB262FD5
:102E300008D1BCF1000F02D042F2B82008E048F6F9
:102E4000E0200DE05043A2EB2626B0FBF6F080B266
:102E5000BCF1000F04D0810821818001E07501E000
:102E60002081E1750CA8CDE900403946284601F0E3
:102E700029F9060025D19DF83000207605F1500192
:102E80001C220D4605A8FDF74DF92089ADF81C0060
:102E9000E07D8DF82B006089ADF81E00606806901B
:102EA000E068089020690990A08AADF8280000E049
:102EB00007E0207E8DF82C001C2205A92846FDF78E
:102EC00031F90DB03046F0BD38B5054600200C464E
:102ED0008DF800006A460121284600F098F8002885
:102EE0002AD123469DF800200021284602F018FB35
:102EF000002821D1A31C9DF800200121284602F0C2
:102F00000FFB002818D1631C9DF8002002212846E1
:102F100002F006FB00280FD1E31C9DF800200321DE
:102F2000284602F0FDFA002806D1231D9DF8002056
:102F30000421284602F0F4FA38BD01F0DBB938B5B7
:102F40000C4605466A46012100F061F800280BD1C5
:102F50009DF8001085F83011090601D5012100E027
:102F60000021217085F84C1038BD02460020127FE8
:102F70000A70704738B50D4604466A46202100F0B5
:102F80007FF8002807D1BDF8001029B1C9002960D9
:102F900021620121217738BD216A29600021F9E7EA
:102FA000012301F07CBA01F09ABA70B5047C0546A1
:102FB00014B900F013FA10B9284601F01BFA50EAD0
:102FC000040102D1032185F8321170BD70B50C46A1
:102FD0000546002100F08EF8002810D12846FFF7A2
:102FE000E4FF00280BD121462846FFF7D7FE002832
:102FF00005D12846BDE870400021FFF7E5BC70BD53
:1030000010B500240220FDF763F9204610BDF7B586
:10301000164607460024012201A901F0F2FC6FF0D8
:10302000130528B901223146384601F0DAFC00B117
:103030002C462046FEBD0000F7B516460746002484
:10304000012201A901F0DDFC6FF0130528B904226B
:103050000A49384601F0C5FC08B12C460BE0074888
:10306000C178027801EB026142788078120402EBA9
:103070000020084430602046FEBD0000E809002022
:10308000F7B5164607460024012201A901F0B9FC54
:103090006FF0130528B902220749384601F0A1FC58
:1030A00008B12C4605E004484178007801EB002087
:1030B00030802046FEBD0000E80900202DE9FF41D8
:1030C00017461E4680460024012201A901F099FC02
:1030D0006FF0130528B932463946404601F081FCAD
:1030E00000B12C4604B02046BDE8F0814A088A2190
:1030F00000F0AEBA0246002003290BD003DC49B130
:10310000012904D106E0142904D0152902D06FF05A
:10311000070070471174704770B51C46049E054641
:1031200011B16FF0090070BD142A08D0152A0FD014
:10313000052C6FD2DFE804F066686A6C6F002EB170
:103140000122BDE87040842100F082BA1022F8E725
:103150000122FF2100F07CFA044600221146284695
:1031600000F076FA04430022FF21284600F070FAAE
:10317000044301228021284600F06AFA0443022217
:103180008521284600F064FA04430422FF212846E2
:1031900000F05EFA04430022CD21284600F058FAE0
:1031A00004431122CC21284600F052FA044307229E
:1031B000FF21284600F04CFA04430022BE21284695
:1031C00000F046FA04430622FF21284600F040FAA8
:1031D00004430922CC21284600F03AFA0443002295
:1031E000FF21284600F034FA04430122FF2128463B
:1031F00000F02EFA044300221146284600F028FA77
:10320000204370BD002207E0012205E0022203E016
:10321000032201E017E004220A21284600F018FAF0
:103220000028EED196B11023EF228421284600F029
:10323000F9F90028E5D185F8DA402846BDE8704064
:103240000021FFF7C1BB6FF00A0070BD0023EBE760
:103250002DE9F041044600200D461646071F03469F
:1032600001460246062D02D33846BDE8F08156B12C
:1032700004EB85014B6B0121062DF5D2DFE805F04B
:1032800005080F1215180122F6E784F8281017E038
:10329000C3F34F224421204600F0ECF90EE084F8FD
:1032A0002A100DE084F82B100AE05300FE2201E002
:1032B0001301EF226021204600F0B4F90028D4D198
:1032C000611926B15FF0010281F82820CDE70022C4
:1032D000FAE770B514460022431800EB810593F815
:1032E0002830DBB1C4F34F23062914D2DFE801F004
:1032F0000305080A0C0C446310E01A46442105E05B
:10330000C4630BE0046409E01A46642100F0B2F9DA
:10331000020003D003E06FF0030200E06C6310468C
:1033200070BD01F09ABA01F0F9BA01F007BB2DE9BE
:10333000F8430746002090460E468DF800006A4686
:1033400001213846FFF763FE05009DF800000446A2
:103350002ED1291FB8F1010F06D0052E2CD2DFE89F
:1033600006F0191C1F222500052E25D2DFE806F0E5
:103370000306090C0F0044F0100419E044F028047F
:1033800016E044F0040413E044F0400410E044F07C
:1033900080040DE004F0EF040AE004F0D70407E035
:1033A00004F0FB0404E004F0BF0401E004F07F0437
:1033B000844210D015B10EE00D460CE022460121EA
:1033C000384600F045F9050005D187F83041384608
:1033D0007969FFF7A6FF2846BDE8F883F8B501250F
:1033E0000646047C2A46802100F032F90122FF21A2
:1033F000304600F02DF900221146304600F028F941
:1034000096F83A219121304600F022F9012200215C
:10341000304600F01DF90022FF21304600F018F977
:1034200000228021304600F013F93CB10425012C24
:1034300026D0032C2FD06FF00700F8BD0122002109
:10344000304600F005F98DF800500028F5D1002431
:103450004FF4FA6705E024B16A4600213046FFF7D1
:10346000D6FD9DF80020641C25EA0201014304D02A
:10347000BC42E2D36FF00600F8BDBC42EBD3F9E7E3
:1034800018B901213046FFF761FA022209E000BFB6
:1034900086F83251F8BD18B901213046FFF756FAC7
:1034A00004220021304600F0D3F80028F0D0F8BD07
:1034B00030B597B00446402101A8FCF74CFE00252A
:1034C0008DF84450ADF850508DF8545001212046ED
:1034D000169500F0E7FA94F8142194F81311012AD4
:1034E00006D802D1202903D808E03AB90C2905D919
:1034F00015AA16A9204600F0F2FF02E0204601F0CE
:103500001DFA474900287DD194F8500108B9D4F834
:103510004C11204600F01CFF00287ED1002204231D
:10352000114620460095FFF7F7FD002875D10122CE
:10353000FF21204600F08CF8054614AA842120467D
:10354000FFF79EFD05430022FF21204600F080F892
:10355000284362D1BDF8500001A90001C4F8D4008D
:103560002046FFF71DFB002857D111A92046FFF781
:1035700057FB002851D19DF8440084F831014022C6
:1035800001A904F11000FCF7CDFD11AA012120468C
:10359000FFF73DFD002840D19DF8440084F830013C
:1035A000002211462046FFF7C2FE002835D1002236
:1035B00002212046FFF7BBFE00282ED1032084F80D
:1035C000320112AA00212046FFF7B7FC002824D1BF
:1035D0009DF8480084F8E80012AA01212046FFF770
:1035E000ACFC002819D19DF8480084F8E00013AA2B
:1035F0000321204601F07DFB00280ED1139813AA69
:10360000042100E009E0C4F8E400204601F071FB69
:10361000002802D11399C4F8DC1017B030BD0000A7
:1036200040000020F8B515461C460E4607466A467F
:10363000FFF7EDFC002809D19DF8002031462A4013
:1036400022438DF80020384600F002F8F8BD000053
:10365000034610B50648002401704270014602225C
:10366000184601F0CEF908B16FF01304204610BDE2
:10367000E8090020034610B5074800240170110A2C
:103680004170827001460322184601F0BAF908B170
:103690006FF01304204610BDE809002070B51C46E9
:1036A0000025134606463F2C01D9281F70BD084847
:1036B000224600F8011B1946FCF734FD621C044940
:1036C000304601F09EF908B16FF01305284670BD31
:1036D000E80900202DE9F047B0F854C1D0F85801AE
:1036E000DDE90A860CFB00F58035DDE908972C0A38
:1036F0004FF0000A04FB0CF4554652B1880200EB6F
:103700005200B0FBF2F000EB4000404300F50040F7
:10371000050C07F50040000C0622C01CB0FBF2F0BF
:1037200003FB09F303F50043190C4943C0EBC00048
:10373000B0F5803F01D31C4808E0FF1CB7FBF2F056
:10374000C0EBC00000F50040000C4043084400EB13
:103750005800B0FBF8F08003FE227F30B0FBF2F09F
:1037600068434FF47A7100F5FA70B0FBF1F0000194
:1037700000F5FA70B0FBF1F7402004F12001B1FB35
:10378000F0F000F0CFFD054627B104EB5700B0FB89
:10379000F7F000E0002000F0C5FD3560854200D95B
:1037A00030605046BDE8F0870000F0FF01EBC1013A
:1037B00040F277600902A1FB000170472DE9FF4F3D
:1037C00087B00446006A0690884608694FF47A710B
:1037D0004843000C0390D8F80C000590DFF8F8B1CE
:1037E0004FF4481604AA4146204600F05EFD06AAA2
:1037F0004146204600F067FD81464FF47A710498F7
:10380000069D484300F50040070C4D43B54200D9E2
:103810003546B9F1000074D1D4F8DC00019094F879
:10382000E06001463246204600F0DCF88246D4F8DB
:10383000E4000090014694F8E820204600F0D2F819
:1038400001460320082E00D1022051444143C90201
:103850004FF47A7001F5FA71B1FBF0F140F2776242
:10386000514301F5FA71B1FBF0FA04988030010A76
:1038700001FB0AF08030060A080204900FB14EB135
:1038800009E00999C1F800B0C4F840B10A980021D4
:1038900001609CE001264FF44870029003984F4964
:1038A0000004B0FBF7F0884200D908464FF41671C7
:1038B00000FB01F906EB4600800000F033FD4000FC
:1038C0000390B8F8081046486A424143380400EBB8
:1038D00042024FF47A7002F5FA72B2FBF0F2431032
:1038E00003EB0743B3FBF0F01202B2FBF0F0002849
:1038F00000DA404298F8182000021AB14FF48035DF
:103900000FE065E041F25C22B1FBF2F1C0F58030DE
:10391000484300F50040000C00F58030400840436B
:10392000850B4FF4487105FB01F000F50040010CD8
:1039300009F50040000C49434043084400F0F2FC04
:10394000000464213230B0FBF1F10398B1FBF0F0D8
:1039500040F6B531484341F2883108444900B0FB94
:10396000F1F74FF47040874200D90746DDE90010B7
:1039700008444FF47A7800F5FA70B0FBF8F04FF491
:10398000C81101EB5001B1FBF0F000F0CBFC0002DC
:1039900000F5FA70B0FBF8F07F434043384400F084
:1039A000C1FC414648430EB1584500D958460999D3
:1039B0000860C4F840010A98029B03908DE808064D
:1039C000DDE904122B462046FFF784FE8146484677
:1039D0000BB0BDE8F08F0000AE878F026666660010
:1039E0009A99060000B50B461146FFF7DFFE4FF42B
:1039F0007A7100F5FA70B0FBF1F04B4303EB500124
:103A0000B1FBF0F000BD00B50B461146FFF7CEFE4E
:103A10004FF47A7100F5FA70B0FBF1F0434303F50F
:103A2000FA73B3FBF1F000BD0146C0B2090A884049
:103A3000401C70474000801CC0B27047F8B5064675
:103A400000228321FFF704FE040011D100254FF46A
:103A5000FA676A4683213046FFF7D9FA04469DF893
:103A6000000020430BD0BD4202D300BF6FF006041C
:103A7000012283213046FFF7EBFD2043F8BD6D1C8A
:103A8000BD42E6D3F2E70022114648B1401E02E0F3
:103A90004008491C89B2020AFAD161F31F2082B2A0
:103AA000104670472DE9F04F95B0002504460E955D
:103AB0004FF4C8500F95CDE90450129594F8F0607A
:103AC0000F46AB46AA46072E7ED001228021204613
:103AD000FFF7BEFD80460122FF212046FFF7B8FD1B
:103AE00040EA0805002211462046FFF7B1FD40EAF2
:103AF00005080622FF212046FFF7AAFD40EA080537
:103B000002AA83212046FFF782FA40EA05089DF8C1
:103B10000800832140F004022046FFF799FD40EAA7
:103B200008050722FF212046FFF792FD40EA05081D
:103B3000012281212046FFF78BFD40EA080520463F
:103B4000FFF75EFA40EA0508012280212046FFF7D0
:103B50007FFD40EA0805F80755D0F00753D16B22E6
:103B600094212046FFF774FD40EA05082046FFF740
:103B700065FF40EA080501AA90212046FFF75CFA9C
:103B800040EA050801982422C0F30621C0F3C03B97
:103B9000129194212046FFF75BFD40EA080520467C
:103BA000FFF74CFF40EA050801AA90212046FFF7E5
:103BB00043FA40EA08050198010E8DF82C10010C1B
:103BC0008DF82D10010A00E0FCE18DF82E108DF823
:103BD0002F00252294212046FFF73AFD40EA0508F0
:103BE0002046FFF72BFF40EA080901AA9021204652
:103BF000FFF722FA40EA09050198010E8DF830100E
:103C0000000C8DF83100B8077ED5B0077CD40222B5
:103C100094212046FFF71CFD40EA05082046FFF7E7
:103C20000DFF40EA080513AA90212046FFF7EFF99F
:103C300040EA05087B2294212046FFF709FD40EA6F
:103C400008052046FFF7FAFE40EA050810AA902171
:103C50002046FFF7DCF940EA080577229421204648
:103C6000FFF7F6FC40EA05082046FFF7E7FE40EACA
:103C7000080501AA90212046FFF7DEF940EA050871
:103C800001987822410E8DF81810C0F386418DF806
:103C90001910C0F3C6218DF81A10C0F306110007E1
:103CA000400E8DF81B108DF8080094212046FFF778
:103CB000CFFC40EA08052046FFF7C0FE40EA0508B1
:103CC00001AA90212046FFF7B7F940EA08059DF8C0
:103CD0000810019801EB50718DF81C10C0F386514B
:103CE0008DF81D10C0F3C6318DF81E10C0F30621EB
:103CF0008DF81F10C0F34601C007400E8DF820104C
:103D00008DF80800792200E055E094212046FFF765
:103D10009FFC40EA05082046FFF790FE40EA0805B0
:103D200001AA90212046FFF787F940EA05089DF88F
:103D3000081001987A2201EB90618DF82110C0F3F0
:103D4000C6418DF82210C0F306318DF82310C0F360
:103D50004611C006400E8DF824108DF808009421FD
:103D60002046FFF775FC40EA08052046FFF766FE8F
:103D700040EA050801AA90212046FFF75DF940EAD4
:103D800008059DF80810019801EB90718DF8251039
:103D9000C0F3C6518DF82610C0F306418DF82710E8
:103DA000C0F346218DF82810C0F386008DF8290055
:103DB00000208DF82A0078077ED570077CD47B22FE
:103DC00094212046FFF744FC40EA05082046FFF70F
:103DD00035FE40EA08050EAA90212046FFF72CF98F
:103DE00040EA05087C2294212046FFF731FC40EA96
:103DF00008092046FFF722FE40EA09050FAA902194
:103E00002046FFF719F940EA05087322942120465D
:103E1000FFF71EFC40EA08052046FFF70FFE40EAC8
:103E2000050801AA90212046FFF706F940EA080597
:103E30000198742200064FEA104994212046FFF7AA
:103E400007FC40EA05082046FFF7F8FD40EA0805B0
:103E500001AA90212046FFF7EFF8019940EA0508F2
:103E600049EA11600490752294212046FFF7F0FB87
:103E700040EA08052046FFF7E1FD40EA050901AAEE
:103E800090212046FFF7D8F840EA090801987622E9
:103E900000064FEA104994212046FFF7D9FB40EA7B
:103EA00008052046FFF7CAFD40EA050801AA90214F
:103EB0002046FFF7C1F800E004E0019940EA080558
:103EC00049EA116A002281212046FFF7C1FB40EA3E
:103ED00005080622FF212046FFF7BAFB40EA080545
:103EE00002AA83212046FFF792F840EA05089DF8D0
:103EF0000800832100F0FB022046FFF7A9FB40EAFF
:103F000008050122FF212046FFF7A2FB40EA050831
:103F1000012200212046FFF79BFB40EA0805002212
:103F2000FF212046FFF794FB40EA0508002280218C
:103F30002046FFF78DFB50EA080543D1F8070FD064
:103F4000F0070DD1129884F8130184F814B1002001
:103F50000BA923180A5C401C83F82A210628F8DBE9
:103F6000B8070ED5B0070CD49DF84C0084F8F100CA
:103F70009DF8400084F8F20004F1F30006A9FCF774
:103F8000F5F8780719D5700717D40E98C4F81801FA
:103F90000F98C4F81C0104984002C4F820010020C6
:103FA000BAF1000F08D00599AAEB01004FF47A117D
:103FB00048430014404200B2E0603E438DF8086080
:103FC00084F8F06015B02846BDE8F08F30B585B0B4
:103FD00005464FF4FA6002900020039040F6363018
:103FE00008600C4669462846FEF76EFF00284DD152
:103FF0009DF8001029B99DF8011011B99DF8021023
:1040000011B302AA0221284600F073FE00283DD118
:104010009DF8001029B10299226801F24E21114445
:1040200021609DF8021031B10299226801F2B2219B
:1040300002EB410107E09DF8011029B102992268C5
:1040400001F52571114421609DF8031061B103AAA7
:104050000321284600F04DFE0399226801F52571E1
:1040600011442160002811D19DF8041061B104AA07
:104070000421284600F03DFE0499226801F2262121
:1040800011442160002801D12168696105B030BD6B
:1040900038B50C4640F2FF756A462821FEF7F0FF5E
:1040A00000280DD1BDF80010C1F30B02ADF80020BF
:1040B000AA424FF0FA0101DDA2F580524A43226084
:1040C00038BD00002DE9FF4F8BB04FF00009199D5E
:1040D0008DF800909A460646C8464F468DF80490E3
:1040E0008DF808908DF80C90ADF81090C1F3C304D2
:1040F000CDF81490BCB1052C15D0072C13D00C2C86
:1041000011D00D2C0FD00E2C0DD00F2C0BD0002069
:1041100083466A4600213046FEF7D5FD9DF8001023
:10412000C9B110B11DE00120F2E705AB06AA304687
:104130001899FFF743FBA0B91899059807AA488179
:1041400000213046FEF7CCFD079921B1069A8A423C
:1041500001D94FF0010920B902AA02213046FEF729
:10416000B2FD9DF8081011B338BB08AA02213046F1
:10417000FEF7B6FD80B90122FF213046FFF768FA4D
:1041800050B904AAB6213046FEF77AFF20B90022C2
:10419000FF213046FFF75CFABDF810104902C6F85F
:1041A0004811089A1AB1914201D94FF0010820B97B
:1041B00003AA03213046FEF786FD9DF80C1091B14D
:1041C00090B9BAF1000F12D00D980102B1FBFAF0CC
:1041D000824609AA03213046FEF782FD099911B1F2
:1041E0008A4500D2012720B1287858B32DE000205D
:1041F000EEE7BBF1000F01D0FF2013E0012C10D03F
:10420000022C0ED0032C0CD0062C0DD0092C0BD078
:10421000082C04D00A2C02D0B8F1000F06D00320DD
:1042200000E00520287010E00420FBE7042C00D0FB
:104230000FB10220F6E7B9F1000F01D00120F1E73C
:104240000020287018990020488101AA01213046D9
:10425000FEF739FD002825D19DF8001011B15FEA65
:10426000090100D0012186F82E10042C15D09DF8EC
:10427000041091B15FF0000186F82F109DF808102E
:1042800011B15FEA080100D0012186F830109DF8D5
:104290000C1001B11FB1012102E00121ECE7002166
:1042A00086F831100FB0BDE8F08F38B51446CA68F3
:1042B00022606A4600F007F8002803D12168009ABE
:1042C0001144216038BDF8B5064600200D46106047
:1042D000144669463046FEF748FE002809D19DF88D
:1042E0000010002905D0A98A326A51438031090A99
:1042F0002160F8BD38B5144621B1012905D06FF011
:1043000003010DE06A46502101E06A467021FEF784
:104310007EFE010004D19DF80000FFF78BFB2070AA
:10432000084638BD024600204FF0804100E0890871
:104330009142FCD808E04318934203D8D21A01EB0B
:10434000500000E0400889080029F4D170470000BF
:10435000F8B5074600200D460446061F13E0CBB211
:10436000641CFF2B05D0042B0CD8295D00206A4665
:1043700039E0295D641C61B1012912D0022918D0ED
:1043800003291ED03046295D002901D00028E6D03F
:10439000F8BD2A5D641C295D01EB0221A7F83411E8
:1043A00016E0295D641C2A5D02EB0121A7F8361195
:1043B0000EE02A5D641C295D01EB0221A7F838118B
:1043C00006E0295D641C2A5D02EB0121A7F83C117F
:1043D000641C295D0029C2D1F8BD00BF15F804C0D6
:1043E00002F800C0401C641C9842F7DB3846FFF717
:1043F00055F9C8E7F8B5064600208DF800000446D8
:104400004FF4FA6569463046FEF7A7FC002807D14D
:104410009DF80010012903D0641CAC4201D3C01FD9
:10442000F8BD3046FEF7ECFDECE72DE9F04385B032
:104430001D0091460E4607464FF0000401D097F844
:10444000304102220121FFF703F94FF0000838B98B
:104450000021384600F052F910B9B9F1010F11D01E
:1044600086F8008000280AD1002D08D022460121BC
:104470003846FFF7EDF8002801D187F8304105B044
:10448000BDE8F083012004A9CDE90016CDE9028042
:10449000424601461346384600F086F9E2E72DE928
:1044A000F0411E461746054690F83041002332463B
:1044B00000F040F9002810D1002332463946284642
:1044C000FFF7B3FF002808D1224601212846FFF755
:1044D000BFF8002801D185F83041BDE8F0812DE911
:1044E000F74F96B006462C200B9000200E901190AE
:1044F0008DF84C008DF850001290B6F83CA14FF0AA
:10450000B4094FF0030B01464FF006080746721836
:104510000020491C82F824014145F8D30122FF21E3
:104520003046FFF795F8040079D100224F2130463C
:10453000FFF78EF80400F7D12C224E213046FFF70A
:1045400087F80400F0D10022FF213046FFF780F801
:104550000400E9D14A46B6213046FFF779F8040055
:10456000E2D1002280213046FFF772F80400DBD14F
:10457000002314AA13A93046FFF791FF0400D3D1FA
:1045800006F592730EAACDF8008006930E90CDE941
:1045900003B29A1D0A92CDE901900146304600F01F
:1045A00009FB04003BD109A930460E9D00F086FFAF
:1045B000040034D1BDF82410514531D900213218FE
:1045C000401C82F824114045F9D300E06D1C09EB32
:1045D000050000F05FFC10B90B988542F6D301206E
:1045E0000EA9CDF800801590CDE903B1CDE9019574
:1045F00001463046069B0A9A00F0DCFA040079D1A5
:1046000009A930460E9D00F059FF040072D1BDF893
:104610002410514505D901205F46129001E051E078
:10462000159089B2514555D2159812905F46424671
:104630000FA80699FBF776FDBDF82410B1EB0A0030
:1046400000D54042834611AB2A4641460A9800F005
:104650001DFB1198411C0FD0484400F01BFC15991C
:1046600088422ED1119D41462A467F1C069800F0B3
:10467000EBFA040003D03DE06FF031043AE030463D
:104680006D1C069900F068FF040033D109A930467B
:1046900000F014FF04002DD1BDF82410B1EB0A0086
:1046A00000D5404251450ED958450AD90FA9304688
:1046B00000F052FF044642460FA90698FBF732FD70
:1046C0007F1E3CB116E0834642460FA80699FBF7D1
:1046D00029FDB8E71798076018991298087001200B
:1046E00086F815011798007886F813011898007855
:1046F00086F8140119B02046BDE8F08F10B541F0DE
:10470000010204460021FEF7A3FF002811D1204634
:10471000FFF770FE00280CD100212046FEF754F967
:10472000002806D120460022BDE810401146FEF7C1
:104730008FBF10BD2DE9F04385B04FF000051E007E
:1047400091460F4680462C468DF8105001D098F8BF
:10475000305101221146FEF77BFF38B94021404617
:10476000FFF7CCFF10B9B9F1010F10D03C70002851
:104770000AD1002E08D02A4601214046FEF768FFE4
:10478000002801D188F8305105B0BDE8F083012040
:1047900004A900970394CDE901102246014613466F
:1047A000404600F001F8E2E72DE9FF4F81B000201C
:1047B000DDE90EA9DDE910650F468DF800009B4686
:1047C0000122FF210198FEF743FF04460022114613
:1047D0000198FEF73DFF40EA04080022FF210198FE
:1047E000FEF736FF40EA08046FB12EB15246CB21E6
:1047F0000198FEF70CFC0443A5B16A46EE2101982E
:10480000FEF705FC0DE02EB1CB21039A0198FEF7CF
:104810001FFF044335B15B468022EE210198FEF76D
:1048200001FF04430122FF210198FEF711FF044319
:10483000012200210198FEF70BFF04430022FF2113
:104840000198FEF705FF9DF80010204301F0EF02EC
:1048500089F8002005B0BDE8F08F2DE9FF4107463B
:104860004FF4FA6002900020039044F620600E4658
:104870006FF0030581424FD3A6F6363469463846B9
:10488000FEF722FB002844D19DF8001029B99DF8BD
:10489000011011B99DF8021001B302AA0221384695
:1048A00000F027FA002834D19DF8001029B10299B0
:1048B00001F24E21A1422FD2641A9DF8021021B1BB
:1048C000029901F2B221490005E09DF8011029B1D9
:1048D000029901F52571A1421ED2641A9DF80310B8
:1048E00061B103AA0321384600F003FA039901F5E8
:1048F0002571A14210D2641A00280AD19DF8041033
:10490000002906D0A4F226220421384600F029FE10
:104910007E6104B0BDE8F0812846FAE730B587B083
:1049200004AD012305AC0095CDE901430393134683
:104930000A460021FFF738FF07B030BD2DE9F047E8
:104940009046894686B004460025B42606274FF0D7
:104950002C0A0122FF21FEF77BFEB0B900224F2175
:104960002046FEF775FE80B92C224E212046FEF728
:104970006FFE50B90022FF212046FEF769FE20B9E4
:104980003246B6212046FEF763FE0020014622187B
:10499000401C82F82411B842F9D3B8F1000F01D1BC
:1049A00006E06D1C701900F075FA08B95545F8D38A
:1049B00005A90097CDE90391CDE9016504F592734E
:1049C0009A1D4146204600F0F5F8002806D1012145
:1049D00084F8151184F8139184F8148106B0BDE8A9
:1049E000F08738B502F10A03009393B290F8602182
:1049F000D0F85C0142F001040A462146FBF712FEA2
:104A000038BD38B502F10A03009393B290F86041C3
:104A10000A46D0F85C012146FBF70CFF38BD0000C8
:104A20000FB4054B10B503A9044A029800F018F81A
:104A300010BC5DF814FB0000754C0008EC0200206F
:104A400002E008C8121F08C1002AFAD17047704757
:104A5000002001E001C1121F002AFBD170470000B5
:104A60002DE9FF4F89B09B460446002506E0252826
:104A70000BD05A460B999047641C6D1C2078002877
:104A8000F5D10DB02846BDE8F08F0027B8460122C9
:104A9000474900E0074314F8013F203B02FA03F0C6
:104AA0000842F7D120782E2819D114F8010F47F0C9
:104AB00004072A280ED06FF02F022078A0F13001D1
:104AC00009290CD808EB880102EB410100EB010831
:104AD000641CF2E70A98641C50F8048B0A90207852
:104AE0000028CED0642808D0692806D075281ED0AA
:104AF0005A460B9990476D1C58E00A994FF00A09E5
:104B000001C90A91002802DA40422D2102E039054C
:104B100004D52B218DF82010012103E0F90704D0E2
:104B20002021F7E78A4608AE0DE00021FAE70A994E
:104B30004FF00A0901C90A91F7E74946FBF71FFB45
:104B4000303106F8011D0028F7D1ADEB060000F169
:104B50002009780701D44FF00108C84502DDA8EB11
:104B6000090000E000208046002706E008A85A4619
:104B7000C05D0B9990476D1C7F1C5745F6DB04E028
:104B800030205A460B9990476D1CB8F10001A8F1EE
:104B90000108F5DC05E016F8010B5A460B99904721
:104BA0006D1CB9F10001A9F10109F4DC641C65E791
:104BB000092801002DE9FF4F83B00024DDE9125AD6
:104BC000149F9B46DDF8409026466FF03108009513
:104BD0001AE06B462A464946059800F057F80098B7
:104BE000411C06D01199084400F054F904998842F8
:104BF00002D044463D6023E0009D49462A4658467F
:104C000000F022F86D1C761C5645E2D33D60BCB91D
:104C10005946039800F0A0FC040011D101A90398A3
:104C200000F062F80446002001A907E01BF800200C
:104C30000B5C9A4201D0444602E0401C4845F5D343
:104C400007B02046BDE8F08F70B50825B2FBF5F33C
:104C5000B2FBF5F60446002005FB16228B4202D378
:104C60006FF0310070BDE15C012595402943E154AE
:104C700070BD000013B54FF6FF730122694602486C
:104C8000FCF7ABFF00981CBDA80500202DE9F04300
:104C9000082581464FF0FF301860B2FBF5F0B2FBFB
:104CA000F5F605FB10274FF0000C304615E000220A
:104CB00019F80040B04202D1FC403A460AE05FEAEF
:104CC000C47805D000FB05224FF0010C1A6003E008
:104CD0006408521CAA42F2D3401C884202D2BCF1A2
:104CE000000FE4D0BDE8F08306230A46B021FEF7AA
:104CF000E5B92DE9F04100248AB0174680468DF8C9
:104D00001C402546ADF81840264641B1012906D081
:104D1000022904D0032912D0042929D05DE06A4673
:104D200000214046FEF709F9040005D107AA4621F3
:104D30004046FEF76CF904469DF81C0015E06A46F3
:104D400000214046FEF7F9F8040046D16A460021EA
:104D50004046FEF7F2F8040005D106AA512140466C
:104D6000FEF78EF90446BDF81800FEF75DFE2DE053
:104D700004A94046FEF7A8F89DF81300002590B15D
:104D80006A4600214046FEF7D8F804001DD106AA65
:104D900051214046FEF774F90446BDF81800FEF7AD
:104DA00043FE85B28CB96A4601214046FEF7C5F83C
:104DB00004000AD108AA71214046FEF761F90446B1
:104DC000BDF82000FEF730FE86B2701B81B29DF860
:104DD00000204046FEF717FE05463D600AB020461B
:104DE000BDE8F08170B505465121FEF77FF95121EC
:104DF00085F8601100284AD12846FDF70BFE0028EF
:104E000045D12846FEF754FB002840D1204A2846C9
:104E1000511DFEF7C8F8002839D11D4A2846921CBA
:104E2000511EFEF7BDF8002831D1194C2846E41E6A
:104E3000E278A168FEF779FA002828D16279217911
:104E40002846FEF770FA002821D101212846FEF7F6
:104E500051F900281BD14FF4804201212846FEF76A
:104E600038FA002813D14FF4001200212846FEF72B
:104E700030FA00280BD144F620612846FEF751FA9B
:104E8000002804D12846BDE87040FEF7A7BA70BDDF
:104E9000030000200146044A8909012052F821102C
:104EA000002900D100207047300000200EB57C485A
:104EB00001680091416801918068029002997948E7
:104EC00001700299090A41700299090C81700299D6
:104ED000090EC170FBF71EFEFDF74CFAFDF7EEF868
:104EE00072487149002401604FF41651C0E9011461
:104EF0000C21C460C0E904418461C461FCF7FAFD7F
:104F0000FDF766F9FDF74AF9684D6948EC3D286000
:104F10006848C5E901044FF48040C5E903406C616D
:104F2000AC61EC6128462C62FBF7DCFA0C2105F140
:104F3000AC00FCF73BFD082105F1AC00FCF736FDA9
:104F40005DA0FFF76DFD644F002240213846FBF75E
:104F5000BDFADFF888914FF40058012241464846D7
:104F6000FBF7B4FA5EA0FFF75BFD4FF47A7605E03D
:104F700060A0FFF755FD3046FBF7AAF900F0CEF828
:104F80000028F5D05DA0FFF74BFD002241464846C2
:104F9000FBF79CFA00F008F9FF2000F0EAF8732014
:104FA00000F017FA082000F0E7F90C2000F0D5F91E
:104FB000052000F0CDF95349002000F08FF9514948
:104FC0000120491D00F08AF94E4902200A3100F003
:104FD00085F94C4903200F3100F080F9494904203C
:104FE000143100F07BF947490520193100F076F9BA
:104FF0000A220021012000F0F1F9012000F0C9F996
:1050000000F0ACF8022000F0D3F90122402138462C
:10501000FBF75CFA00F056FB3046FBF759F901202C
:1050200000F040FB00F0BCFB3046FBF751F91421C7
:105030000A2000F0AFFB34480023D0E9001233A06F
:1050400000F034FC00F0ACFB3249FF2008714871DD
:10505000887101F120005221C0F85C5180F8601184
:10506000C0F86841C0F86441FFF7BCFE0D4C0C3C31
:105070000C4928480B392030FDF76FFEA07000283E
:10508000F6D12549A1F5C870FDF788FEA07000286B
:10509000EED1204800212030FDF796FCA070E7E714
:1050A000E8F7FF1F0C00002000380140A805002091
:1050B00000540040A08601000D0A53544D3332467F
:1050C00031303352455436206973206F6E6C696EEF
:1050D000652E0D0A0000000000080140001001408C
:1050E0006E524632344C30312B20636865636B3A24
:1050F000200000004641494C0D0A00004F4B0D0AAC
:1051000000000000E5580008180000205374617288
:1051100074000000F0020020A00400201CB50DA4C3
:1051200005222146302000F081F905226946102031
:1051300000F09AF80020694614F8012B0B5C9A42A3
:1051400001D000201CBD401CC0B20528F4D30120B2
:105150001CBD00006E5246323400000010B507201E
:1051600000F0A2F840F07001BDE81040072000F008
:105170007BB910B50446052801D9002106E00120BD
:1051800000F092F80121A14020EA0101BDE81040A1
:10519000012000F069B9FF21E22000F065B9FF218C
:1051A000E12000F061B9000010B50821002000F0F6
:1051B0005BF93F21012000F057F90321022000F0A4
:1051C00053F90321084600F04FF90321042000F0B1
:1051D0004BF90221052000F047F90E21062000F0CE
:1051E00043F90021072000F03FF90021112000F0D1
:1051F0003BF90021122000F037F90021132000F0C4
:1052000033F90021142000F02FF90021152000F0BF
:105210002BF90021162000F027F900211C2000F0B6
:1052200023F900211D2000F01FF9FFF7B4FFFFF75D
:10523000B6FFFFF793FF0122BDE81040202101488F
:10524000FBF744B90008014001B582B0642000902A
:10525000012301AA02A90348FCF760F89DF80400A5
:105260000EBD0000100500202DE9F0410D4E154641
:105270000C460746002220213046FBF727F9384626
:10528000FFF7E2FF04E0FF20FFF7DEFF04F8010B69
:105290006D1EEDB2F7D23046BDE8F041012220216B
:1052A000FBF714B90008014070B50B4D044600220D
:1052B00020212846FBF70AF904F01F00FFF7C4FF7E
:1052C000FF20FFF7C1FF0446012220212846FBF7FB
:1052D000FDF8204670BD0000000801402DE9F041B6
:1052E0000546194F0E46072D2CD2DFE805F00404C1
:1052F0002525252504000320FFF7D6FF401CC4B256
:10530000DFF848802644002220214046FBF7DEF8E3
:10531000785D40F02000FFF797FF00BF16F8010905
:10532000FFF792FF641EE4B2F8D24046BDE8F041B8
:1053300001222021FBF7CAB80978785DBDE8F04169
:1053400000F092B8BDE8F081DE5800080008014086
:10535000801EC1B2032000F087B810B504460020BB
:10536000FFF7A2FF04F00C0120F00C000143BDE8A0
:105370001040002000F078B810B504460620FFF772
:1053800093FF20F028012143BDE81040062000F0E3
:105390006BB810B504460020FFF786FF04F001014A
:1053A00020F001000143BDE81040002000F05CB88F
:1053B00010B504460020FFF777FF022C06D020F03E
:1053C0000201BDE81040002000F04EB840F002019C
:1053D000F7E70146052000F047B800002DE9F0414D
:1053E000054617460E460220FFF75EFF0124AC403B
:1053F000204300F03F01022000F036F80A4807F091
:105400003F01405D00F030F80120FFF74DFF012E15
:1054100006D020EA0401BDE8F041012000F024B8E4
:105420000443E1B2F7E70000D85800082DE9F04145
:105430000C4E15460C460746002220213046FBF74D
:1054400045F8384602E000BF14F8010BFFF7FCFEF8
:105450006D1EEDB2F8D23046BDE8F04101222021A8
:10546000FBF734B80008014070B5134D0E460446F2
:10547000002220212846FBF729F8202C06D204F030
:105480001F0040F02000FFF7DFFE0AE02046FFF794
:10549000DBFEE12C08D0E22C06D0E32C04D0FF2C5C
:1054A00002D03046FFF7D0FE2846BDE8704001220A
:1054B0002021FBF70BB800000008014070B50E4634
:1054C00088B0054690F83041C0220121FEF7C0F8AF
:1054D000002823D169462846FDF778FD00281DD114
:1054E0000122FF212846FEF7B3F8002816D13246E4
:1054F000B6212846FDF7C4FD00280FD10022FF2168
:105500002846FEF7A5F8002808D1224601212846A2
:10551000FEF79EF8002801D185F8304108B070BD33
:1055200010B500201870052913D2DFE801F003063A
:10553000090C0F00C2F3001109E0C2F3C00106E03C
:10554000C2F3800103E0C2F3801100E0D1091970B9
:1055500010BD6FF0030010BD06230A46B021FEF710
:105560009DB8F0B587B01646054661B101290AD04D
:10557000022908D0032922D004293ED06FF0030469
:1055800007B02046F0BD05AA0021FDF7D6FC0400B7
:10559000F6D19DF8142031462846FEF723FA80B252
:1055A000B0F5807F01D9FF2201E0401EC2B2A5F80C
:1055B000D82046212846FEF74BF80446E0E705AA26
:1055C0000021FDF7BAFC04469DF814203146284618
:1055D000FEF708FA80B2FEF756FAADF80800024668
:1055E000A5F8D800002CCBD151212846FEF742F86F
:1055F0000400C5D1C5F8E460C2E703A9FDF764FC67
:105600009DF80F00002798B105AA00212846FDF754
:1056100094FC0400B4D102AA51212846FDF730FDC4
:105620000446BDF80800FEF7FFF987B2002CA7D1A9
:1056300005AA01212846FDF780FC0400A0D19DF8B1
:10564000142031462846FEF7CDF93844FEF71BFA00
:10565000024671212846FEF70DF8040090D1C5F8E6
:10566000DC608DE770B5802813D2402911D20B4B36
:10567000012401F007051E79AC40094BC90800EB75
:10568000C1100EB132B101E0012A03D0195CA1436F
:10569000195470BD195C2143FAE700001200002084
:1056A000E805002010B5064A00214FF4806328B1B8
:1056B000FF245454491C9942F9D310BD0024F8E743
:1056C000E805002010B56420FAF702FEAE2000F0D5
:1056D000DBF8202000F0D8F8102000F0D5F8B0203A
:1056E00000F0D2F8C82000F0CFF8002000F0CCF88D
:1056F000102000F0C9F8402000F0C6F8812000F02A
:10570000C3F8FF2000F0C0F8A12000F0BDF8A620EB
:1057100000F0BAF8A82000F0B7F83F2000F0B4F885
:10572000A42000F0B1F8D32000F0AEF8002000F083
:10573000ABF8D52000F0A8F8F02000F0A5F8D920AB
:1057400000F0A2F8222000F09FF8DA2000F09CF888
:10575000122000F099F8DB2000F096F8202000F0ED
:1057600093F88D2000F090F8142000F08DF8AF2011
:1057700000F08AF80020FFF795FF00F011F80448C8
:1057800000210180418001214171084610BD0000C7
:1057900012000020014A1080518070471200002042
:1057A000FEB5002464250F4F802600BF04F1B00031
:1057B000C0B200F069F8002000F066F8102000F098
:1057C00063F807EBC410CDE90006012340227821DD
:1057D00002950548FBF7CAF8641CE4B2082CE5D32F
:1057E000FEBD0000E8050020BC0400202DE9FF4FAD
:1057F000834624489246CEB202883244802A06D29A
:1058000081464088C1F307273844402803D300204D
:1058100004B0BDE8F08F002528E000BFABF1200008
:1058200000FB075000243AF810801CE008FA04F04E
:10583000000409D599F8021099F800002944204481
:10584000C9B2C0B2039A0BE00398C0B15FF0000286
:1058500099F8021099F8000029442044C9B2C0B256
:10586000FFF700FF641CA642E0D86D1CAF42D5D8FC
:10587000B9F8001058463144A9F80010C8E70122D1
:10588000E6E700001200002001B584B001210A22E1
:1058900004A88DE807000B46002278210248FBF798
:1058A00065F805B000BD0000BC040020F0B51D4641
:1058B0000E46174604460AE02B463A463146FFF7A5
:1058C00095FF2178884201D0C8B2F0BD641C2078D1
:1058D0000028F1D1C0B2F0BD1112131415160A0B35
:1058E0000C0D0E0F100101E71CE10101E71CE201A4
:1058F00001E71CE30101E71CE40101E71CE50101EC
:10590000E71CE600000000000000000000000000AE
:105910000000000000000000000000000000000087
:1059200000000000000000000000000C000C000C53
:10593000000C000C000C000C000C000C000C000C07
:105940000000000C000C0000000000000000001B24
:10595000001B001B001B001B0000000000000000DB
:105960000000000000000000000000000000000037
:1059700000008019801980198019C07FC07F8019AC
:105980000033C07FC07F003300330033003300009A
:10599000000000000000001E003F8075806500745C
:1059A000003C001E00078005806580658075003F13
:1059B000001E0004000400000000007000D840D861
:1059C000C0D880D900730006000C801BC036C066AA
:1059D000C046C00680030000000000000000001E5A
:1059E000003F003300330033001E000CC03CC06693
:1059F000806380618063C03E801C00000000000066
:105A00000000000C000C000C000C000C000000005A
:105A10000000000000000000000000000000000086
:105A200000000000800000010003000600060004E2
:105A3000000C000C000C000C000C000C0004000614
:105A40000006000300018000002000100018000C78
:105A5000000C000400060006000600060006000612
:105A60000004000C000C0018001000200000000CC6
:105A7000002D003F001E0033000000000000000069
:105A80000000000000000000000000000000000016
:105A9000000000000000000C000C000C000CC0FF17
:105AA000C0FF000C000C000C000C00000000000007
:105AB00000000000000000000000000000000000E6
:105AC0000000000000000000000000000000000CCA
:105AD000000C0004000400080000000000000000AA
